:100000000C9418010C9445010C9445010C94450185
:100010000C9445010C9445010C9445010C94450148
:100020000C9445010C9445010C9445010C94450138
:100030000C9445010C9445010C9445010C94450128
:100040000C9445010C9445010C9445010C94450118
:100050000C9445010C9445010C9445010C94681FC7
:100060000C9445010C9488090C94D00A0C94450119
:100070000C9445010C9445010C9445010C944501E8
:100080000C9445010C9445010C9445010C944501D8
:100090000C94C8090C940F0B0C9445010C94450169
:1000A0000C9445010C9445010C9445010C944501B8
:1000B0000C9445010C9445010C9445010C944501A8
:1000C0000C9445010C9445010C9445010C94080ACC
:1000D0000C944E0B0C9445010C94480A0C948D0B17
:1000E0000C944501736F6D6570736575646F726113
:1000F0006E646F6D6C7967656E657261746564625C
:100100007974657300002100240027002A002D0067
:100110003000330001010000040107010A01000062
:100120002200250028002B002E003100340002019F
:100130000000050108010B0100002000230026003B
:1001400029002C002F0032000001000003010601ED
:10015000090105050505070508080808020202024D
:100160000A0A080804040404010101010101010153
:100170000303030303030303040707070C0C0C0C1E
:100180000C0C0C0C02020202060606060606060607
:100190000B0B0B0B0B0B0B0B010210202008081094
:1001A00020401020408002010201080402010102E7
:1001B00004081020408080402010080402018004C0
:1001C000020180402010080402010804020101021B
:1001D0000408102040800102040810204080000024
:1001E000090A02080B0C0D070603040100000000B9
:1001F00000000000000000000000000000000000FF
:100200000000000000000000000011100F000000BE
:1002100000000000000000000000000000000000DE
:1002200000000000BD0115040D09790E0E04060939
:1002300011241FBECFEFD1E2DEBFCDBF00E00CBF67
:1002400014E0A0E0B2E0EAE4F0E600E00BBF02C098
:1002500007900D92A630B107D9F71BBE17E0A6E0B4
:10026000B4E001C01D92A531B107E1F712E0CCE284
:10027000D2E004C02297FE010E94E52FC432D107CC
:10028000C9F70E9480090C9418300C940000DC011E
:10029000FB0160E070E09FEF1EC0911110822136DB
:1002A00018F02755808106C08081213410F0275333
:1002B00001C02053820F8083992339F08081829579
:1002C000807F80836F5F7F4F04C06417750730F4B1
:1002D0003196119690952C912223F9F6CB01089531
:1002E000EF92FF920F931F93CF93DF937B018901CE
:1002F00001501040EC01DA0140E050E060E070E0B5
:1003000021E030E022C04017510710F58881829526
:100310008F708A3010F0895C01C0805DFD0181938F
:1003200020173107B8F488818F708A3010F0895C0B
:1003300001C0805D11968C93119712964E5F5F4FAE
:100340006F5F7F4F21962E5F3F4F6E157F05D8F26E
:100350009A01FD011082C901DF91CF911F910F9188
:10036000FF90EF900895FC01029691838083089599
:10037000FC01029691838083089588E094E0909335
:100380000704809306040895AF92BF92CF92DF9244
:10039000EF92FF920F931F938C0122E0A22EB12CBB
:1003A000A80EB91E9AE0E92EF12CE00EF11EC5014F
:1003B000B7010E94370382E1C82ED12CC00ED11E96
:1003C000065E1F4FC601B8010E943703C7010E9495
:1003D000B903C8010E94C003C701B5010E945603BA
:1003E000C801B6010E945603C5010E94C503C6019B
:1003F000B7010E943703C501B8010E943703C70146
:100400000E94CA03C8010E94D103C701B6010E941D
:100410005603C801B5010E945603C6010E94C503D8
:100420001F910F91FF90EF90DF90CF90BF90AF9012
:100430000895EF92FF920F931F938C017B014A96D0
:100440000E945603C8010E94C401C8010E94C40151
:10045000C8010296B7010E9456031F910F91FF90A9
:10046000EF900895DC019B968C919B978F5F9B96F4
:100470008C939B979A968C919A97E82FFF27E7FD8C
:10048000F095EA0FFB1F62A381509A968C939A977E
:1004900087FF09C087E09A968C939A97CD01929630
:1004A000BD010E9419020895EF92FF920F931F93CE
:1004B000CF93DF93EC010BA504C0CE0160E00E9456
:1004C00032028AA51816CCF3CE01602F0E943202A8
:1004D00032E1E32EF12CEC0EFD1EC7010E946603F3
:1004E000CE010E94C401CE010E94C401CE010E942F
:1004F000C401CE010E94C4018E010E5F1F4F2A96D7
:10050000C801BE010E945603C801B7010E945603EC
:100510006096C801BE010E945603DF91CF911F91E2
:100520000F91FF90EF9008956F927F928F929F921C
:10053000AF92BF92CF92DF92EF92FF920F931F93F1
:10054000CF93DF938C014B0172E0C72ED12CC80EE4
:10055000D91EC60164EE70E048E050E00E946D29AB
:100560006AE0662E712C600E711EC3016CEE70E0A5
:1005700048E050E00E946D2952E1E52EF12CE00E9A
:10058000F11EC70164EF70E048E050E00E946D2961
:100590004AE1A42EB12CA00EB11EC5016CEF70E093
:1005A00048E050E00E946D29E801A296DE01F401C6
:1005B00088E001900D928150E1F7CE010E94710315
:1005C000C601BE010E945603C701BE010E94560328
:1005D000DE01F401389688E001900D928150E1F738
:1005E000CE010E947103C301BE010E945603C501E2
:1005F000BE010E94560387E0F80182A713A6DF918F
:10060000CF911F910F91FF90EF90DF90CF90BF900F
:10061000AF909F908F907F906F900895EF92FF9290
:100620000F931F93DF93CF93CDB7DEB760970FB6CD
:10063000F894DEBF0FBECDBF8C017E010894E11C93
:10064000F11CC70140E150E00E946D29C801B701CB
:100650000E94940260960FB6F894DEBF0FBECDBF25
:10066000CF91DF911F910F91FF90EF9008952F93FD
:100670003F934F93DC011896FB013896889428E04D
:100680003E914291341F3C932A95D1F74F913F916F
:100690002F9108952F933F93DC01FB0128E03191C6
:1006A0003D932A95E1F73F912F9108952F933F9322
:1006B0004F93DC01FB0128E03C91419134273D93AD
:1006C0002A95D1F74F913F912F9108953F934F93E2
:1006D000DC0117963C914FEF34273C934F913F91AB
:1006E00008952F933F934F93DC011796FC0124E06C
:1006F0003C9140814C93319311972A95C9F74F91C2
:100700003F912F9108952F933F93DC0117963C91D1
:10071000DC0128E037953C9137953D932A95D9F730
:100720006A9599F73F912F9108952F933F9388945D
:10073000DC013C91189628E0331F3E91331F3C9317
:100740002A95D9F76A95A1F73F912F9108952F9394
:100750003F934F93DC01FC014D9127E03D91319394
:100760002A95E1F740836A95A9F74F913F912F9120
:1007700008956F9362E0EBDF63E0C5DF6F9108954A
:100780006F9362E0E4DF6F9108956F9364E0DFDFC1
:100790006F9108956F9362E0DADF61E0C6DF6F91D9
:1007A00008956F9363E0D3DF63E0ADDF6F91089549
:1007B000FC0184E292E0918380838AE08283089541
:1007C000FC0184E292E0918380838AE08283089531
:1007D000FC0184E292E0918380830895FC0184E22D
:1007E00092E0918380830895FC01628308958130B3
:1007F000910551F46F5F7F4F81F482E394E060E0F4
:1008000072E00E944F1C0895892B39F46F5F7F4F6F
:1008100021F482E394E00E94401F089580E090E07C
:100820006FEF7FEF0E94F703089581E090E06FEF94
:100830007FEF0E94F7030895AF92BF92CF92DF92AD
:10084000EF92FF920F931F93DF93CF93CDB7DEB755
:10085000C750D1400FB6F894DEBF0FBECDBFCB5E00
:10086000DE4FA880B980C551D140DE01A75EBE4FE2
:1008700088E0C82ED12CCC0EDD1EC95EDE4FE8818B
:10088000F981C751D14040815181C60160E870E0D3
:100890009D010E949E2AD501ED91FC91E680F78092
:1008A0008E010F5F1F4FC801B6010E944F1CC5018A
:1008B000B801F7011995C8010E94401FC95FDE4FBA
:1008C0000FB6F894DEBF0FBECDBFCF91DF911F9161
:1008D0000F91FF90EF90DF90CF90BF90AF90089571
:1008E0008F929F92AF92BF92CF92DF92EF92FF9240
:1008F0000F931F93DF93CF93CDB7DEB72E970FB62D
:10090000F894DEBF0FBECDBF5C018B014A01DC0154
:1009100012968C9112978B3068F5ED91FC91C68000
:10092000D7807E010894E11CF11CC70165E072E0EC
:100930000E94691CC701B8010E94181C6DE072E09A
:100940000E94FC1BB4010E94181C60E172E00E942E
:10095000FC1BBC018E01085F1F4FC8010E942A1FAB
:10096000C501B801F6011995C8010E94401FC701D1
:100970000E94461F2E960FB6F894DEBF0FBECDBF65
:10098000CF91DF911F910F91FF90EF90DF90CF906B
:10099000BF90AF909F908F900895CF92DF92EF928B
:1009A000FF920F931F93DF93CF93CDB7DEB72E97B0
:1009B0000FB6F894DEBF0FBECDBF6C017E01089468
:1009C000E11CF11CC7010E942A1F8E01085F1F4F06
:1009D000C80162E374E00E942A1FC601B701A801A2
:1009E0000E947004C8010E94401FC7010E94401F5E
:1009F0002E960FB6F894DEBF0FBECDBFCF91DF911C
:100A00001F910F91FF90EF90DF90CF9008958F92FC
:100A10009F92AF92BF92CF92DF92EF92FF920F938D
:100A20001F93DF93CF93CDB7DEB72E970FB6F89411
:100A3000DEBF0FBECDBF5C018B014A01DC01129607
:100A40008C911297863068F5ED91FC91C680D78025
:100A50007E010894E11CF11CC70162E172E00E9472
:100A6000691CC701B8010E94181C6DE072E00E9469
:100A7000FC1BB4010E94181C60E172E00E94FC1B88
:100A8000BC018E01085F1F4FC8010E942A1FC501CB
:100A9000B801F6011995C8010E94401FC7010E94C4
:100AA000461F2E960FB6F894DEBF0FBECDBFCF9176
:100AB000DF911F910F91FF90EF90DF90CF90BF904B
:100AC000AF909F908F900895CF92DF92EF92FF9218
:100AD0000F931F93DF93CF93CDB7DEB72E970FB64B
:100AE000F894DEBF0FBECDBF6C017E010894E11CFF
:100AF000F11CC7010E942A1F8E01085F1F4FC80109
:100B000062E374E00E942A1FC601B701A8010E9497
:100B10000705C8010E94401FC7010E94401F2E9672
:100B20000FB6F894DEBF0FBECDBFCF91DF911F91FE
:100B30000F91FF90EF90DF90CF9008958F929F924A
:100B4000AF92BF92CF92DF92EF92FF920F931F93DB
:100B5000DF93CF93CDB7DEB72E970FB6F894DEBFF5
:100B60000FBECDBF5C018B014A01DC0112968C9156
:100B70001297882369F5ED91FC91C680D7807E019C
:100B80000894E11CF11CC70169E172E00E94691C34
:100B9000C701B8010E94181C6DE072E00E94FC1BA6
:100BA000B4010E94181C60E172E00E94FC1BBC01B1
:100BB0008E01085F1F4FC8010E942A1FC501B8019E
:100BC000F6011995C8010E94401FC7010E94461FE7
:100BD0002E960FB6F894DEBF0FBECDBFCF91DF913A
:100BE0001F910F91FF90EF90DF90CF90BF90AF904B
:100BF0009F908F900895CF92DF92EF92FF920F9384
:100C00001F93DF93CF93CDB7DEB72E970FB6F8942F
:100C1000DEBF0FBECDBF6C017E010894E11CF11C4C
:100C2000C7010E942A1F8E01085F1F4FC80162E39F
:100C300074E00E942A1FC601B701A8010E949E0508
:100C4000C8010E94401FC7010E94401F2E960FB688
:100C5000F894DEBF0FBECDBFCF91DF911F910F91F2
:100C6000FF90EF90DF90CF900895FC0184E292E036
:100C700091838083CF010E945F1F0895FC018781CB
:100C800061850E945C210895FC01878161E00E94DA
:100C9000A9200895FC0182E392E091838083CF0133
:100CA0000E9472080895FC0182E392E091838083A0
:100CB000CF010E94720808950F931F938C0182E365
:100CC00092E0F80191838083C8010E947208C801F4
:100CD0000E945F1F1F910F910895CF92DF92EF92B4
:100CE000FF920F931F938C017B016A010E945A08A7
:100CF00082E392E0F80191838083F086E782D286D6
:100D0000C1861F910F91FF90EF90DF90CF900895D3
:100D1000CF92DF92EF92FF920F931F938C017B0192
:100D20006A010E945A0882E392E0F801918380836D
:100D3000F086E782D286C1861F910F91FF90EF90D7
:100D4000DF90CF900895FC0189E892E09183808341
:100D5000138212820895FC0189E892E091838083D6
:100D6000138212820895FC01738362830895FC014B
:100D700089E892E0918380830895FC0189E892E0FC
:100D8000918380830895FC0189E892E091838083B8
:100D9000CF010E945F1F0895EF92FF920F931F9360
:100DA000CF93DF937C0110923904C0E8D0E000E0DB
:100DB00010E0CE018E219F218C179D0719F06AE368
:100DC00072E002C06CE372E089E394E00E94912932
:100DD000D595C7950F5F1F4F0830110551F789E36F
:100DE00094E0DF91CF911F910F91FF90EF900895C4
:100DF0009F92AF92BF92CF92DF92EF92FF920F93AA
:100E00001F93DF93CF93CDB7DEB7AA970FB6F894B1
:100E1000DEBF0FBECDBF8C01FC01A281B381ED917D
:100E2000FC9111970084F185E02D7E010894E11C6E
:100E3000F11CC701BD0119958D819E81892B09F493
:100E4000A0C0E981FA819080F3E39F16D9F0F915EB
:100E500028F021E3921609F051C008C035E393163B
:100E6000E9F087E3981609F049C024C0D80112962A
:100E7000ED90FC9013978E01085F1F4FC8016EE341
:100E800072E023C0D8011296ED90FC9013978E016A
:100E9000015F1F4FC80167E472E017C0D8011296C6
:100EA000ED90FC9013978E010A5E1F4FC80166E516
:100EB00072E00BC0D8011296ED90FC9013978E0152
:100EC000035E1F4FC80161E672E00E944F1C00D014
:100ED00000D0EDB7FEB73196ADB7BEB71296FC9213
:100EE000EE9211971383028389819A81958384837B
:100EF0000E941C04EDB7FEB7369638C0D801129692
:100F0000AD90BC9013978E010C5D1F4FC8016BE62E
:100F100072E00E944F1CC980DA80CE0101960E94C7
:100F20005016DC01CB010E94CC067C01892D90E09B
:100F30000E94CC06EDB7FEB73A970FB6F894FEBF05
:100F40000FBEEDBF3196ADB7BEB71296BC92AE9252
:100F5000119713830283D582C482F782E682918738
:100F600080870E941C04EDB7FEB73A960FB6F8943E
:100F7000FEBF0FBEEDBFC8010E94401FCE0101960B
:100F800001C0C7010E94401FAA960FB6F894DEBFA9
:100F90000FBECDBFCF91DF911F910F91FF90EF90CA
:100FA000DF90CF90BF90AF909F900895EF92FF9207
:100FB0000F931F93DF93CF93CDB7DEB727970FB66D
:100FC000F894DEBF0FBECDBFF82EE92E6DE872E0BB
:100FD0000E944F1C8FE796E00E94CD0D892B81F077
:100FE0008E010F5F1F4FC8016FE776E00E94031567
:100FF0008F2D9E2DB8010E94131FC8010E94401F13
:101000008F2D9E2D27960FB6F894DEBF0FBECDBF55
:10101000CF91DF911F910F91FF90EF9008958FE78F
:1010200096E00E943F1308958FE796E040E855E26E
:1010300060E070E00E94540C0895FC0182E992E0A7
:1010400091838083CF010E94E8030895FC0182E927
:1010500092E091838083CF010E94E80308950F936B
:101060001F938C0182E992E0F80191838083C8018B
:101070000E94E803C8010E945F1F1F910F9108950D
:101080000F931F938C010E94D80382E992E0F8012C
:10109000918380831F910F9108950F931F938C016B
:1010A0000E94D80382E992E0F801918380831F9126
:1010B0000F910895FC0180EA92E09183808381E0A2
:1010C000828315821482138216820895FC0180EABD
:1010D00092E09183808381E082831582148213825F
:1010E00016820895FC0180EA92E09183808308953E
:1010F000FC0180EA92E0918380830895FC01828163
:10110000882319F481E08283089582E0868308951C
:10111000FC018281882311F01282089583E0868386
:101120000895DC0112968C911297882391F0149601
:101130008D919C911597019615969C938E9314977B
:10114000ED91FC9111970680F781E02DCD01199565
:10115000089581E016968C930895FC0163830895A9
:10116000FC018381882311F01682089584E0868330
:101170000895FC0196818381882309F41682892FC2
:101180000895FC0180EA92E091838083CF010E9460
:101190005F1F08950895CB0108958130910501F5F1
:1011A0006F5F7F4F91F582E494E00E94400885E4F0
:1011B00094E00E94AB066091BD027091BE0289E48A
:1011C00094E041E050E00E946D066091BD02709194
:1011D000BE0284E594E040E050E00E946D06089570
:1011E000892B99F46F5F7F4F81F484E594E00E942E
:1011F0004A0689E494E00E944A0685E494E00E944D
:10120000BD0682E494E00E941D08089580E090E00D
:101210006FEF7FEF0E94CD08089581E090E06FEFBF
:101220007FEF0E94CD08089589E494E00E94910820
:1012300060ED77E080E090E00E94E41F84E594E0B8
:101240000E94910860ED77E080E090E00E94E41F4A
:1012500085E494E00E94F8060895CF92DF92EF9221
:10126000FF920F931F93DF93CF93CDB7DEB72E97E7
:101270000FB6F894DEBF0FBECDBF89E494E00E94A4
:10128000440684E594E00E94440682E4C82E84E08B
:10129000D82EC6010E941408C60165E00E94F4031E
:1012A0007E010894E11CF11CC70168EA72E00E940B
:1012B0004F1C8E01085F1F4FC80167EB72E00E9450
:1012C0004F1CC601B701A8010E949E05C8010E94DB
:1012D000401FC7010E94401F85E494E0B6010E94B0
:1012E000B3062E960FB6F894DEBF0FBECDBFCF91DA
:1012F000DF911F910F91FF90EF90DF90CF900895B5
:101300000E9447200E942D090E941409FDCF0895D4
:101310001F920F920FB60F920BB60F9211242F93BC
:101320003F934F938F939F93EF93FF938091C000D0
:1013300082FD1DC04091C60020919F043091A00401
:101340002F5F3F4F2F7330708091A1049091A204C2
:101350002817390771F0E0919F04F091A004E15A39
:10136000FB4F40833093A00420939F0402C08091E0
:10137000C600FF91EF919F918F914F913F912F91D7
:101380000F900BBE0F900FBE0F901F9018950895F1
:101390001F920F920FB60F920BB60F9211242F933C
:1013A0003F934F938F939F93EF93FF938091C80048
:1013B00082FD1DC04091CE00209127053091280567
:1013C0002F5F3F4F2F7330708091290590912A0530
:1013D0002817390771F0E0912705F0912805E951A8
:1013E000FB4F4083309328052093270502C080914E
:1013F000CE00FF91EF919F918F914F913F912F914F
:101400000F900BBE0F900FBE0F901F901895089570
:101410001F920F920FB60F920BB60F9211242F93BB
:101420003F934F938F939F93EF93FF938091D000BF
:1014300082FD1DC04091D6002091AF053091B005CE
:101440002F5F3F4F2F7330708091B1059091B2059F
:101450002817390771F0E091AF05F091B005E15917
:10146000FA4F40833093B0052093AF0502C08091BE
:10147000D600FF91EF919F918F914F913F912F91C6
:101480000F900BBE0F900FBE0F901F9018950895F0
:101490001F920F920FB60F920BB60F9211242F933B
:1014A0003F934F938F939F93EF93FF9380913001DE
:1014B00082FD1DC0409136012091370630913806DB
:1014C0002F5F3F4F2F7330708091390690913A060D
:1014D0002817390771F0E0913706F0913806E95086
:1014E000FA4F4083309338062093370602C080912C
:1014F0003601FF91EF919F918F914F913F912F91E5
:101500000F900BBE0F900FBE0F901F901895E0919B
:101510008B06F0918C06E05CFF4F819191912081C8
:101520003181821B930B8F739070892B11F00E9475
:101530008709E091AD06F091AE06E05CFF4F819126
:10154000919120813181821B930B8F739070892B35
:1015500011F00E94C709E091CF06F091D006E05C3F
:10156000FF4F8191919120813181821B930B8F7369
:101570009070892B11F00E94070AE091F106F0911A
:10158000F206E05CFF4F8191919120813181821BB5
:10159000930B8F739070892B11F00E94470A089566
:1015A0001F920F920FB60F920BB60F9211242F932A
:1015B0003F938F939F93EF93FF932091E304309198
:1015C000E4048091E5049091E6042817390731F48A
:1015D0008091C1008F7D8093C10014C0E091E5042B
:1015E000F091E604ED55FB4F20818091E504909148
:1015F000E60401968F7390709093E6048093E5045F
:101600002093C600FF91EF919F918F913F912F9171
:101610000F900BBE0F900FBE0F901F9018951F924A
:101620000F920FB60F920BB60F9211242F933F9388
:101630008F939F93EF93FF9320916B0530916C05EF
:1016400080916D0590916E052817390731F48091CE
:10165000C9008F7D8093C90014C0E0916D05F091A1
:101660006E05E55DFA4F208180916D0590916E05C4
:1016700001968F73907090936E0580936D05209303
:10168000CE00FF91EF919F918F913F912F910F90FD
:101690000BBE0F900FBE0F901F9018951F920F92C8
:1016A0000FB60F920BB60F9211242F933F938F9387
:1016B0009F93EF93FF932091F3053091F405809170
:1016C000F5059091F6052817390731F48091D1007E
:1016D0008F7D8093D10014C0E091F505F091F6055F
:1016E000ED54FA4F20818091F5059091F605019611
:1016F0008F7390709093F6058093F5052093D60034
:10170000FF91EF919F918F913F912F910F900BBE81
:101710000F900FBE0F901F9018951F920F920FB64B
:101720000F920BB60F9211242F933F938F939F9399
:10173000EF93FF9320917B0630917C0680917D068C
:1017400090917E062817390731F4809131018F7D01
:101750008093310114C0E0917D06F0917E06E55C36
:10176000F94F208180917D0690917E0601968F73BE
:10177000907090937E0680937D0620933601FF91B2
:10178000EF919F918F913F912F910F900BBE0F90F2
:101790000FBE0F901F9018958F929F92AF92BF929D
:1017A000CF92DF92EF92FF920F931F93DF93CF932D
:1017B000CDB7DEB7FC011382128288EE93E0A0E081
:1017C000B0E084839583A683B78383EC92E0918312
:1017D00080837587648757874687318B208B138B6F
:1017E000028BF58AE48AD78AC68AB18EA08E938E40
:1017F000828E8889848F8989858F8A89868F8B8953
:10180000878F8C8980A3CF91DF911F910F91FF90DB
:10181000EF90DF90CF90BF90AF909F908F90089502
:101820008F929F92AF92BF92CF92DF92EF92FF92F0
:101830000F931F93DF93CF93CDB7DEB7FC011382D5
:10184000128288EE93E0A0E0B0E084839583A683C3
:10185000B78383EC92E09183808375876487578791
:101860004687318B208B138B028BF58AE48AD78ACB
:10187000C68AB18EA08E938E828E8889848F898944
:10188000858F8A89868F8B89878F8C8980A3CF915A
:10189000DF911F910F91FF90EF90DF90CF90BF905D
:1018A000AF909F908F900895AF92BF92DF92EF928A
:1018B000FF920F931F93CF93DF93EC017A018B017B
:1018C000DD24403081EE580780E0680780E078072B
:1018D00011F0DD24D39491E0A92EB12CEC89FD897F
:1018E000DD2069F0C50108A002C0880F991F0A9485
:1018F000E2F7808360E079E08DE390E005C010823C
:1019000060E874E88EE190E0A80197010E948A2FB8
:101910002150304040405040569547953795279587
:1019200080E12030380720F0DD2011F0DD24D6CF13
:10193000E889F9893083EA89FB89208319A2EE8935
:10194000FF89408121E030E0C9010C8C02C0880F82
:10195000991F0A94E2F7482B4083EE89FF89408162
:10196000C9010D8C02C0880F991F0A94E2F7482B19
:101970004083EE89FF894081C9010E8C02C0880F27
:10198000991F0A94E2F7482B4083EE89FF898081F2
:101990000F8C02C0220F331F0A94E2F720952823F0
:1019A0002083DF91CF911F910F91FF90EF90DF90F7
:1019B000BF90AF900895AF92BF92CF92DF92EF9217
:1019C000FF920F931F93CF93DF93EC017A018B016A
:1019D000C22EDD24403081EE580780E0680780E0A9
:1019E000780711F0DD24D39471E0A72EB12CEC8997
:1019F000FD89DD2069F0C50108A002C0880F991F8C
:101A00000A94E2F7808360E079E08DE390E005C01E
:101A1000108260E874E88EE190E0A80197010E94CE
:101A20008A2F215030404040504056954795379579
:101A3000279580E12030380720F0DD2011F0DD24EB
:101A4000D6CFE889F9893083EA89FB892083E88D3C
:101A5000F98DC082EE89FF89408121E030E0C90123
:101A60000C8C02C0880F991F0A94E2F7482B408320
:101A7000EE89FF894081C9010D8C02C0880F991F32
:101A80000A94E2F7482B4083EE89FF894081C9011F
:101A90000E8C02C0880F991F0A94E2F7482B4083EE
:101AA000EE89FF8980810F8C02C0220F331F0A94B8
:101AB000E2F7209528232083DF91CF911F910F918A
:101AC000FF90EF90DF90CF90BF90AF900895CF93AD
:101AD000DF93DC011E968D919C911F97EC01C05CF9
:101AE000DF4FFC01EE5BFF4F2881398180819181BE
:101AF00028173907C9F75696ED91FC915797408101
:101B000021E030E0C9015C960C905C9702C0880F20
:101B1000991F0A94E2F78095842380835696ED916D
:101B2000FC9157974081C9015D960C905D9702C06A
:101B3000880F991F0A94E2F7809584238083569634
:101B4000ED91FC9157974081C9015E960C905E978C
:101B500002C0880F991F0A94E2F78095842380833E
:101B60005696ED91FC91579780815F960C905F9708
:101B700002C0220F331F0A94E2F720952823208306
:101B80001C96ED91FC911D97EE5BFF4F808191813A
:101B900092938293DF91CF910895DC011C96ED9191
:101BA000FC911D97E05CFF4F2191319180819181E3
:101BB000281B390B2F733070C9010895DC011C9666
:101BC000ED91FC911D97E05CFF4F20813181E05445
:101BD000F040DF01AE5BBF4F8D919C9111972817AC
:101BE000390719F42FEF3FEF07C08D919C91E80F53
:101BF000F91F8081282F30E0C9010895DC011C966F
:101C0000ED91FC911D97E05CFF4F20813181E05404
:101C1000F040DF01AE5BBF4F8D919C91119728176B
:101C2000390719F42FEF3FEF10C08D919C91119758
:101C3000E80FF91F20818D919C91119701968F7368
:101C4000907011969C938E9330E0C9010895DC0149
:101C500091968C919197882339F05496ED91FC914F
:101C60005597808186FFF9CF91961C920895CF9366
:101C7000DF93EC01EE85FF85E05CFF4F2081318131
:101C8000E054F0402F5F3F4F2F733070DF01AE5BA9
:101C9000BF4F8D919C91119728173907D1F3E05CC4
:101CA000FF4F80819181E054F040E80FF91F60837D
:101CB000EE85FF85E05CFF4F31832083EE89FF894D
:101CC000208181E090E00F8C02C0880F991F0A9458
:101CD000E2F7282B208381E089A3EC89FD898081AC
:101CE0008064808381E090E0DF91CF91089581E06E
:101CF00008951F93109282061092810628EE33E019
:101D000040E050E02093830630938406409385069C
:101D10005093860663EC72E07093800660937F06B2
:101D20008FE594E090938C0680938B0683EA94E091
:101D300090938E0680938D0685EC90E090939006AC
:101D400080938F0684EC90E09093920680939106A6
:101D500080EC90E0909394068093930681EC90E061
:101D6000909396068093950682EC90E09093980667
:101D70008093970686EC90E090939A06809399065C
:101D800014E010939B06B3E0B0939C06A7E0A093E9
:101D90009D06F5E0F0939E06E1E0E0939F06109229
:101DA000A4061092A3062093A5063093A60640939E
:101DB000A7065093A8067093A2066093A10687EE2B
:101DC00094E09093AE068093AD068BE295E09093FD
:101DD000B0068093AF068DEC90E09093B2068093AE
:101DE000B1068CEC90E09093B4068093B30688EC37
:101DF00090E09093B6068093B50689EC90E09093BE
:101E0000B8068093B7068AEC90E09093BA06809368
:101E1000B9068EEC90E09093BC068093BB061093BD
:101E2000BD06B093BE06A093BF06F093C006E09334
:101E3000C1061092C6061092C5062093C7063093BD
:101E4000C8064093C9065093CA067093C4066093AF
:101E5000C3068FE695E09093D0068093CF0683EB80
:101E600095E09093D2068093D10685ED90E0909313
:101E7000D4068093D30684ED90E09093D6068093A9
:101E8000D50680ED90E09093D8068093D70681ED3B
:101E900090E09093DA068093D90682ED90E09093DB
:101EA000DC068093DB0686ED90E09093DE0680935F
:101EB000DD061093DF06B093E006A093E106F093F1
:101EC000E206E093E3061092E8061092E7062093FC
:101ED000E9063093EA064093EB065093EC067093C4
:101EE000E6066093E50687EF95E09093F20680930F
:101EF000F1068BE396E09093F4068093F30685E376
:101F000091E09093F6068093F50684E391E0909338
:101F1000F8068093F70680E391E09093FA068093A9
:101F2000F90681E391E09093FC068093FB0682E33F
:101F300091E09093FE068093FD0686E391E09093F6
:101F400000078093FF0610930107B0930207A09348
:101F50000307F0930407E09305071F910895CF92BC
:101F6000DF92EF92FF920F931F93CF93DF937C0149
:101F70006B018A01C0E0D0E00FC0D6016D916D0108
:101F8000D701ED91FC910190F081E02DC7011995E9
:101F9000C80FD91F015010400115110571F7CE016E
:101FA000DF91CF911F910F91FF90EF90DF90CF9035
:101FB0000895EF92FF920F931F93CF93DF937C01CD
:101FC0008B01C0E0D0E0F8010F5F1F4F64916623E2
:101FD00059F0D701ED91FC910190F081E02DC701FE
:101FE0001995C80FD91FEFCFCE01DF91CF911F9167
:101FF0000F91FF90EF900895DC01ED91FC9101901D
:10200000F081E02D199508959C01DB01ED91FC9183
:102010000190F081E02DCB01B90119950895EF925F
:10202000FF920F931F938C01DC01ED91FC910190C5
:10203000F081E02D6DE019957C01D801ED91FC91C6
:102040000190F081E02DC8016AE019959C012E0DE8
:102050003F1DC9011F910F91FF90EF900895EF92DE
:10206000FF920F931F937C010E94D90F8C01C7012F
:102070000E940F109C01200F311FC9011F910F9169
:10208000FF90EF900895EF92FF920F931F937C01C2
:10209000DC01ED91FC910190F081E02D19958C010E
:1020A000C7010E940F10080F191FC8011F910F913F
:1020B000FF90EF900895EF92FF920F931F937C0192
:1020C000DB01ED91FC910190F081E02DCB01B70196
:1020D00019958C01C7010E940F10080F191FC80124
:1020E0001F910F91FF90EF900895CF93DF93EC0134
:1020F0006115710519F420E030E00FC0DB010D908F
:102100000020E9F71197A61BB70BE881F98102803F
:10211000F381E02DAD0119959C01C901DF91CF91AB
:1021200008954F925F927F928F929F92AF92BF924B
:10213000CF92DF92EF92FF920F931F93DF93CF9393
:10214000CDB7DEB7A1970FB6F894DEBF0FBECDBFF7
:102150002C01742ECB01223008F42AE019A231E2BE
:10216000C32ED12CCC0EDD1E822E9924AA24BB2492
:10217000672D752FA50194010E948A2F79018A018C
:10218000C801B701A50194010E946B2F472D461B82
:102190000894C108D1084A3010F4405D01C0495C80
:1021A000F6014083E114F1040105110521F07E2CB4
:1021B0005F2DC801DDCFC201B6010E947510A19646
:1021C0000FB6F894DEBF0FBECDBFCF91DF911F9148
:1021D0000F91FF90EF90DF90CF90BF90AF909F90C6
:1021E0008F907F905F904F900895DC01211531050D
:1021F00041F4ED91FC910190F081E02D642F19954F
:1022000008950E9491100895EF92FF920F931F93EB
:102210007C010E94F5108C01C7010E940F109C01E7
:10222000200F311FC9011F910F91FF90EF9008956A
:10223000EF92FF920F931F939A017B0100E010E051
:10224000B801A7010E94F5101F910F91FF90EF9028
:102250000895CF92DF92EF92FF920F931F936C013C
:102260007B019A0100E010E0B801A7010E94F5107F
:102270008C01C6010E940F10080F191FC8011F9181
:102280000F91FF90EF90DF90CF900895EF92FF9223
:102290000F931F939A01E62EFF2400E010E0B8018F
:1022A000A7010E94F5101F910F91FF90EF900895E4
:1022B000CF92DF92EF92FF920F931F936C01E62E65
:1022C0009A01FF2400E010E0B801A7010E94F51078
:1022D0008C01C6010E940F10080F191FC8011F9121
:1022E0000F91FF90EF90DF90CF900895CF92DF9203
:1022F000EF92FF920F931F93CF93DF93EC016A014C
:102300007B012115310541F4E881F9810190F081CB
:10231000E02D642F19951FC02A303105D1F477FFC5
:1023200017C0E881F9810190F081E02D6DE21995E7
:102330008C0144275527BA014C195D096E097F09A4
:10234000CE012AE00E9491109801280F391F04C085
:102350002AE00E9491109C01C901DF91CF911F9149
:102360000F91FF90EF90DF90CF900895EF92FF9242
:102370000F931F937C010E9476118C01C7010E946C
:102380000F109C01200F311FC9011F910F91FF9069
:10239000EF900895EF92FF920F931F937B019A01A4
:1023A0000027F7FC0095102FB801A7010E947611B5
:1023B0001F910F91FF90EF900895CF92DF92EF92CF
:1023C000FF920F931F936C017B019A010027F7FC8A
:1023D0000095102FB801A7010E9476118C01C6014B
:1023E0000E940F10080F191FC8011F910F91FF9035
:1023F000EF90DF90CF9008950E94751008957F921E
:102400008F929F92AF92BF92CF92DF92EF92FF9204
:102410000F931F93CF93DF934C017A018B01722EA0
:10242000CB01BA01A80197010E94FB25882321F066
:10243000C4016FED72E021C0C0E0D0E05701680137
:10244000E894D7F8C601B5012FEF3FEF4FE75FE7FC
:102450000E94FB25882351F4C601B5012FEF3FEF01
:102460004FE75FE70E94CB25181614F0C1E0D0E0DB
:10247000219739F0C40163EE72E00E947510EC01FF
:1024800093C0C801B7012FEF3FEF4FE75FE40E9411
:102490003B25181654F0C801B7012FEF3FEF4FE767
:1024A0005FEC0E949B25882324F4C40167EE72E050
:1024B000E4CFC801B70120E030E040E050E00E94E6
:1024C0009B2587FD03C0C0E0D0E00EC0D401ED9194
:1024D000FC910190F081E02DC4016DE21995EC01B1
:1024E00017FB109517F9109520E030E040E05FE30E
:1024F000DD240BC0CA01B90120E030E040E251E424
:102500000E948F249B01AC01D394D71498F3C80187
:10251000B7010E9468235B016C010E94BF217B010F
:102520008C01C401B801A7012AE030E00E94F51037
:10253000C80FD91F772039F0C4016BEE72E00E94FA
:102540007510C80FD91FC801B7010E94D8269B017A
:10255000AC01C601B5010E94372324C020E030E061
:1025600040E251E40E9495237B018C010E94842665
:102570005B016C01CC24B7FCC094DC2CC401B60117
:10258000A5012AE030E00E947611C80FD91FC601CC
:10259000B5010E9426269B01AC01C801B7010E942B
:1025A00037237A947720D1F6CE01DF91CF911F9116
:1025B0000F91FF90EF90DF90CF90BF90AF909F90E2
:1025C0008F907F9008950E94FF110895EF92FF92DF
:1025D0000F931F937C010E94FF118C01C7010E9481
:1025E0000F10080F191FC8011F910F91FF90EF9056
:1025F0000895EF92FF920F931F937C010E94751034
:102600008C01C7010E940F10080F191FC8011F91EC
:102610000F91FF90EF900895AF92BF92CF92DF920B
:10262000EF92FF920F931F93CF93DF935C016B01A7
:10263000EE24FF24C0E0D0E010C0D501ED91FC9164
:1026400000811181C601BE010E943016682FC501AC
:10265000F8011995E80EF91E2196F60184819581FD
:10266000C817D90750F3C701DF91CF911F910F9180
:10267000FF90EF90DF90CF90BF90AF900895EF92D2
:10268000FF920F931F937C010E940C138C01C701D2
:102690000E940F109C01200F311FC9011F910F9143
:1026A000FF90EF900895FC01448355836683778300
:1026B0000895CF93DF93EC010E94B01F688779875C
:1026C0008A879B87E881F9810084F185E02DCE011E
:1026D00019959C0197FF15C00E94B01F2885398568
:1026E0004A855B85621B730B840B950B2C813D81A6
:1026F0004E815F81621773078407950718F32FEFE8
:102700003FEFC901DF91CF910895CF93DF93EC01A3
:10271000CE010E9459139C0197FD0EC08D32910588
:1027200059F0C0970A9740F0E881F9810680F78157
:10273000E02DCE011995ECCFC901DF91CF9108951D
:102740006F927F928F929F92AF92BF92CF92DF92C1
:10275000EF92FF920F931F93CF93DF93EC01662EBE
:102760000E948513982E77248824EE24FF24870165
:102770000F2EF0E0AF2EF0E0BF2EF0E8CF2EFFE3FB
:10278000DF2EF02D961491F18DE2981619F477242E
:1027900073942CC09EE2991619F48824839426C061
:1027A000892D80538A3010F5C801B7012AE030E046
:1027B00040E050E00E946B2F7B018C01E90CF11C82
:1027C000011D111D80ED9FEFAFEFBFEFE80EF91E69
:1027D0000A1F1B1F882051F0C601B5012DEC3CECEF
:1027E0004CEC5DE30E9495235B016C01E881F9816B
:1027F0000680F781E02DCE011995CE010E94591374
:10280000982F982E80538A3008F4BCCF9E3209F45A
:10281000B9CF961509F4B6CF772041F01095009501
:10282000F094E094E11CF11C011D111D882049F079
:10283000C801B7010E942626A60195010E94952392
:1028400004C0C801B7010E942626DF91CF911F91D5
:102850000F91FF90EF90DF90CF90BF90AF909F903F
:102860008F907F906F90089561E00E94A01308956B
:102870009F92AF92BF92CF92DF92EF92FF920F930F
:102880001F93CF93DF936C01B62E0E948513EC014A
:1028900097FF04C0EE24FF2487014AC09924EE2448
:1028A000FF248701AB2CBB24CA15DB0529F1CD32EF
:1028B000D10519F4992493941FC0CE01C0970A97AB
:1028C000D8F4C801B7012AE030E040E050E00E94AF
:1028D0006B2F7B018C01CE01AA2797FDA095BA2F03
:1028E000E80EF91E0A1F1B1F80ED9FEFAFEFBFEF31
:1028F000E80EF91E0A1F1B1FD601ED91FC91068000
:10290000F781E02DC6011995C6010E945913EC010B
:10291000C0970A9748F2CA15DB0531F2992041F0B9
:1029200010950095F094E094E11CF11C011D111D1F
:10293000B701C801DF91CF911F910F91FF90EF90E8
:10294000DF90CF90BF90AF909F90089561E00E947C
:1029500038140895CF93DF93EC010E94B01F68876D
:1029600079878A879B87E881F9810680F781E02D46
:10297000CE0119959C0197FF15C00E94B01F2885B4
:1029800039854A855B85621B730B840B950B2C8103
:102990003D814E815F81621773078407950718F3A5
:1029A0002FEF3FEFC901DF91CF910895CF92DF92D2
:1029B000FF920F931F93CF93DF93082FF92E6B0194
:1029C000142F65EF72E00E944F1CC6010E94AA14EA
:1029D000BC01C12FD0E008C0802F9F2D0E94581B42
:1029E000C6010E94AA14BC0177FD03C06C177D07C5
:1029F00099F7802F9F2DDF91CF911F910F91FF901D
:102A0000DF90CF9008950F931F93CF93DF93182FEC
:102A1000092FEB0165EF72E00E944F1C04C0812F6B
:102A2000902F0E94581BCE010E94AA14BC0197FF50
:102A3000F6CF812F902FDF91CF911F910F910895A5
:102A4000AF92BF92CF92DF92EF92FF920F931F93BC
:102A5000CF93DF935C017A0189012115310519F4C7
:102A6000C0E0D0E014C0C0E0D0E0C62EDD240CC031
:102A7000C5010E94AA1497FD0AC08C159D0539F066
:102A8000F70181937F012196C017D10788F3CE010A
:102A9000DF91CF911F910F91FF90EF90DF90CF903A
:102AA000BF90AF900895CF92DF92EF92FF920F9375
:102AB0001F93CF93DF936C018B017A01C0E0D0E0CC
:102AC00009C0C6010E94AA1497FD07C0F8018193AE
:102AD0008F012196CE15DF05A0F3CE01DF91CF91B6
:102AE0001F910F91FF90EF90DF90CF9008956F921C
:102AF0007F928F929F92AF92BF92CF92DF92EF928E
:102B0000FF920F931F93CF93DF933C017B014A0108
:102B100059016801FB0180818823A1F1C0E0D0E068
:102B200027C0F701EC0FFD1F808190E028173907BF
:102B300011F0C0E0D0E0F701EC0FFD1F808190E0C4
:102B40002817390721F42196C815D905D8F4C114DE
:102B5000D10471F0F501E00FF11F808190E028179A
:102B6000390731F40F5F1F4F0C151D0518F00CC00D
:102B700000E010E0C3010E94AA149C011816190677
:102B800084F202C081E001C080E0DF91CF911F910B
:102B90000F91FF90EF90DF90CF90BF90AF909F90FC
:102BA0008F907F906F9008950F931F939A01DB0190
:102BB0000D900020E9F7AD0141505040461B570BE6
:102BC000D9010D900020E9F71197A21BB30B8D01DD
:102BD0000E9477151F910F91089540E050E00E94E8
:102BE000D41508950F931F9320E030E000E010E02B
:102BF0000E9477151F910F910895FC0184819581A2
:102C00006817790748F40190F081E02D309721F0A2
:102C1000E60FF71F8081089580E00895FC0184810C
:102C200095816817790730F40190F081E02DE60F67
:102C3000F71F40830895FC019B01848195816817EB
:102C4000790728F4608171816115710529F410926A
:102C5000070767E077E002C0620F731FCB0108959A
:102C6000FC01848195816817790748F40190F0810F
:102C7000E02D309721F0E60FF71F8081089580E066
:102C80000895FC010190F081E02D309729F408951A
:102C9000861709F44083319680818823C9F7089507
:102CA000FC0180819181009729F420E030E040E030
:102CB00050E004C00E9446299B01AC01B901CA0141
:102CC0000895CF92DF92EF92FF920F931F93CF93CD
:102CD000DF936C01DC01ED90FC901197E114F1049D
:102CE000E9F11496CD91DC9115972097B9F1870100
:102CF00002C00F5F1F4FF801808190E00E94E92F12
:102D0000892BB9F72197CE0DDF1D01C0219788814E
:102D100090E00E94E92F892B19F0C017D107B0F776
:102D2000FE013196E01BF10BD6011596FC93EE9354
:102D300014972D913C912017310728F4C901B8014F
:102D4000AF010E947629D601ED91FC91119714965E
:102D50008D919C911597E80FF91F1082DF91CF910B
:102D60001F910F91FF90EF90DF90CF900895CF9338
:102D7000DF93FC01C081D181209729F407C090E046
:102D80000E94F92F899388818823C9F7DF91CF9119
:102D90000895CF93DF93FC01C081D181209729F45E
:102DA00007C090E00E94F12F899388818823C9F79A
:102DB000DF91CF910895EF92FF920F931F93CF93DE
:102DC000DF93FC01DB018617970719F12481358118
:102DD00014968D919C91159728173907E1F4232BB0
:102DE000C1F0E080F180CD91DC910FC090E00E94B5
:102DF000F12F8C01888190E00E94F12F08171907AC
:102E000051F40894E11CF11C2196F701808188237C
:102E100069F781E001C080E0DF91CF911F910F91B0
:102E2000FF90EF900895AF92BF92CF92DF92EF9212
:102E3000FF920F931F93CF93DF93FC015B017A0105
:102E4000DB0114962D913C9115972115310559F10F
:102E500084819581009739F18217930720F14817F3
:102E6000590720F07C010894E108F10800811181E4
:102E7000C801CFEFDFEF6801CE0CDF1C10C0F501F9
:102E8000608171810E94DF299C01009771F0801B95
:102E9000910BE816F90608F0EC01C9010196C81675
:102EA000D90668F702C0CFEFDFEFCE01DF91CF91F7
:102EB0001F910F91FF90EF90DF90CF90BF90AF9058
:102EC0000895FC01DB014481558114968D919C91FC
:102ED0001597481B590BCF010E9413170895CF93E4
:102EE000DF93FC01DB01848195814817590760F469
:102EF000C081D1816D917C91CE01840F951F0E947C
:102F0000DF299C01009719F42FEF3FEF02C02C1B23
:102F10003D0BC901DF91CF91089540E050E00E9440
:102F20006F170895DF92EF92FF920F931F93CF9345
:102F3000DF93EC018C819D8148175907B8F47A0121
:102F40000894E11CF11CE881F981EE0DFF1DD08091
:102F5000108208811981C80170E00E94D4299C0167
:102F60000E0D1F1DF801D082009719F4EFEFFFEF4F
:102F700005C088819981F901E81BF90BCF01DF9128
:102F8000CF911F910F91FF90EF90DF900895FC017A
:102F900044815581415050400E9492170895CF932B
:102FA000DF93FC01848195814817590758F4C0814B
:102FB000D181CE01840F951F70E00E949C299C0155
:102FC000009719F42FEF3FEF02C02C1B3D0BC901F6
:102FD000DF91CF91089540E050E00E94CF1708950F
:102FE0000F931F93CF93DF93FC018B014115510584
:102FF000F9F061157105E1F0848195812817390791
:1030000018F0FB01108214C041505040EC01C21B6B
:10301000D30B4C175D0708F4EA0160817181620FE0
:10302000731FC801AE010E94C529C00FD11F1882AD
:10303000DF91CF911F910F910895FC01DB01248155
:10304000358114964D915C91159724173507A8F09A
:1030500080819181009789F06D917C916115710556
:1030600061F0241B350B820F931F0E94A7299C013E
:1030700080E0232B19F481E0089580E00895DC01BD
:10308000FB0114968D919C911597892B31F4611554
:103090007105A9F090E0808108C00D90BC91A02D31
:1030A0006115710529F490E08C91882349F407C0DB
:1030B000CD010E94A7299C0190E0232B09F491E007
:1030C000892F0895CF93DF939C01FB01EC01A88128
:1030D000B981109729F06081718161157105D1F472
:1030E000C081D181209759F084819581892B39F055
:1030F000888190E022273327281B390B12C01097B4
:1031000071F0F90184819581892B49F08C91282FE8
:1031100030E007C0CD010E94A7299C0102C020E039
:1031200030E0C901DF91CF9108950E946218892F84
:103130008095881F8827881F08950E94621820E0C4
:10314000181619060CF021E0822F08950E946218CB
:1031500020E0181619060CF421E0822F08950E9431
:103160006218892F881F8827881F0895FC01DB01BA
:103170002481358114968D919C91159728173907D4
:1031800011F020E007C0CF010E94621820E0892BD7
:1031900009F421E0822F0895FC01DB0114962D91A2
:1031A0003C91159784819581821B930B8417950719
:1031B000A0F080819181009781F06D917C916115E3
:1031C000710559F0840F951FA9010E94B7299C0130
:1031D00080E0232B19F481E0089580E00895FC013C
:1031E000DB012481358114968D919C9115972817C8
:1031F000390710F480E00895CF0140E050E00E94CC
:10320000CC1808950F931F93CF93DF93EC018B019C
:103210006F5F7F4F888199810E948A2E009711F4F9
:1032200080E005C0998388831B830A8381E0DF9156
:10323000CF911F910F9108952F923F924F925F92DD
:103240006F927F928F929F92AF92BF92CF92DF92B6
:10325000EF92FF920F931F93CF93DF935C012B01AB
:103260004A01DC0114960D911C9115970115110569
:1032700009F4D4C0FB01C480D580C114D10409F481
:10328000CDC0DA0114966D907C9015976C187D086E
:10329000FC01E080F1806114710491F01BC0D40145
:1032A0006C9111967C91119714964D915C911597A4
:1032B0008C2F0E947629F401E480F580EC0EFD1E2F
:1032C000D2016D917C91C7010E94DF29EC0100972A
:1032D00031F7A4C077FE02C067012EC0FB01208039
:1032E0003180E8013CC08E010E191F09C601B701EB
:1032F000A8010E9476290C0D1D1DD4016C91119618
:103300007C91119714964D915C911597C8010E947C
:103310007629F401C480D580C00ED11ED201149646
:10332000ED90FC901597EC0EFD1EF50184819581C2
:10333000860D971D95838483D2016D917C91C70181
:103340000E94DF29EC01009771F6C601B7010E94C7
:10335000B02964C07B01EC0CFD1CC60DD71DC70154
:10336000B1010E94DF29BC010097A1F7C017D10766
:1033700009F454C0F501828193818C179D0708F0F0
:1033800044C0C501BE010E9402198823F1F546C060
:10339000C501B201A9010E941317EC0197FD3EC0BF
:1033A000D5016D917C911197F201848195818C0FEB
:1033B0009D1F680F791F14964D915C911597481BBE
:1033C000590BCB01860D971D0E947F29D5011496BC
:1033D0008D919C911597860D971D15969C938E93B4
:1033E0001497ED91FC911197E80FF91F10822D9120
:1033F0003C912C0F3D1FF401608171814481558106
:10340000C9010E9476299E0105C0D50114962D910F
:103410003C9115972150304037FFBACFDF91CF91C3
:103420001F910F91FF90EF90DF90CF90BF90AF90E2
:103430009F908F907F906F905F904F903F902F90D4
:103440000895CF93DF93EC0188819981892B29F02E
:103450008A819B818617970760F4CE010E9402192A
:10346000882341F08C819D81892B19F4E881F981B1
:10347000108281E0DF91CF910895EF92FF920F9338
:103480001F93CF93DF93EC017B016C817D81E1146D
:10349000F104C1F04115510599F08A01060F171F7B
:1034A000B8010E94211A882369F0888199812C81B2
:1034B0003D81820F931FB7010E94B0291D830C83A9
:1034C00081E001C080E0DF91CF911F910F91FF90CB
:1034D000EF900895EF92FF920F931F93DF93CF9396
:1034E000CDB7DEB72B970FB6F894DEBF0FBECDBFBA
:1034F0007C01CB01BA018E010F5F1F4FA8012AE0AA
:1035000030E00E94632AF80101900020E9F731972A
:10351000E01BF10BC701B801AF010E943D1A2B96C9
:103520000FB6F894DEBF0FBECDBFCF91DF911F91D4
:103530000F91FF90EF900895EF92FF920F931F93DA
:10354000DF93CF93CDB7DEB72C970FB6F894DEBFDD
:103550000FBECDBF7C01CB01BA018E010F5F1F4FA3
:10356000A8012AE030E00E941A2AF8010190002008
:10357000E9F73197E01BF10BC701B801AF010E94D9
:103580003D1A2C960FB6F894DEBF0FBECDBFCF917B
:10359000DF911F910F91FF90EF900895EF92FF92AE
:1035A0000F931F93DF93CF9300D000D0CDB7DEB73A
:1035B0007C01CB018E010F5F1F4FB8014AE050E044
:1035C0000E94882AF80101900020E9F73197E01B5A
:1035D000F10BC701B801AF010E943D1A26960FB644
:1035E000F894DEBF0FBECDBFCF91DF911F910F9139
:1035F000FF90EF900895EF92FF920F931F93DF9348
:10360000CF93CDB7DEB727970FB6F894DEBF0FBEC6
:10361000CDBF7C01CB018E010F5F1F4FB8014AE087
:1036200050E00E94F929F80101900020E9F7319754
:10363000E01BF10BC701B801AF010E943D1A2796AC
:103640000FB6F894DEBF0FBECDBFCF91DF911F91B3
:103650000F91FF90EF900895EF92FF920F931F93B9
:10366000DF93CF9300D00F92CDB7DEB77C01862FCA
:1036700090E08E010F5F1F4FB8014AE050E00E94BA
:10368000F929F80101900020E9F73197E01BF10BCF
:10369000C701B801AF010E943D1A0F900F900F9023
:1036A0000F90CF91DF911F910F91FF90EF900895B0
:1036B000DF93CF930F920F92CDB7DEB769831A8253
:1036C000BE016F5F7F4F41E050E00E943D1A0F90B6
:1036D0000F90CF91DF9108956115710511F480E08D
:1036E0000895DB010D900020E9F71197A61BB70B99
:1036F000AD010E943D1A0895FB01608171814481F2
:1037000055810E943D1A0895CF93DF93EC01888183
:103710009981009711F00E94F22D198218821D8262
:103720001C821B821A82DF91CF9108950F931F9301
:10373000182F092F0E946A1A882321F4812F902FB5
:103740000E94841B812F902F1F910F9108950F933A
:103750001F93182F092F0E949C1A882321F4812F70
:10376000902F0E94841B812F902F1F910F910895FD
:103770000F931F93182F092F0E94CE1A882321F42C
:10378000812F902F0E94841B812F902F1F910F91CA
:1037900008950F931F93182F092F0E94FB1A882357
:1037A00021F4812F902F0E94841B812F902F1F9135
:1037B0000F9108950F931F93182F092F0E942C1B10
:1037C000882321F4812F902F0E94841B812F902F1A
:1037D0001F910F9108950F931F93182F092F0E9487
:1037E000581B882321F4812F902F0E94841B812F46
:1037F000902F1F910F9108950F931F93182F092F4A
:103800006115710561F0DB010D900020E9F711975A
:10381000A61BB70BAD010E943D1A882321F4812F0E
:10382000902F0E94841B812F902F1F910F9108953C
:103830000F931F93182F092FFB0160817181448121
:1038400055810E943D1A882321F4812F902F0E94D8
:10385000841B812F902F1F910F910895EF92FF925B
:103860000F931F93CF93DF93EC017B018A01BA0181
:103870000E94211A882321F4CE010E94841B07C0D4
:103880001D830C8388819981B7010E94B029CE01E4
:10389000DF91CF911F910F91FF90EF900895CF93FB
:1038A000DF93EC01198218821B821A821D821C820E
:1038B0001E826115710551F0DB010D900020E9F7C2
:1038C0001197A61BB70BAD010E942E1CDF91CF9163
:1038D0000895CF93DF93EC01198218821B821A821C
:1038E0001D821C821E826115710551F0DB010D9055
:1038F0000020E9F71197A61BB70BAD010E942E1C03
:10390000DF91CF9108950F931F93182F092F611501
:10391000710559F0DB010D900020E9F71197A61B06
:10392000B70BAD010E942E1C02C00E94841B812F88
:10393000902F1F910F910895EF92FF920F931F9375
:10394000DF93CF93CDB7DEB7A1970FB6F894DEBF64
:103950000FBECDBF8C01FC01118210821382128236
:10396000158214821682CB01BA017E010894E11CF3
:10397000F11CA70130E00E94632AC801B7010E9430
:10398000831CA1960FB6F894DEBF0FBECDBFCF91BA
:10399000DF911F910F91FF90EF900895EF92FF92AA
:1039A0000F931F93DF93CF93CDB7DEB7A1970FB6D9
:1039B000F894DEBF0FBECDBF8C01FC0111821082D6
:1039C00013821282158214821682CB01BA017E0103
:1039D0000894E11CF11CA70130E00E94632AC80191
:1039E000B7010E94831CA1960FB6F894DEBF0FBEEC
:1039F000CDBFCF91DF911F910F91FF90EF90089570
:103A0000EF92FF920F931F93DF93CF93CDB7DEB763
:103A1000A2970FB6F894DEBF0FBECDBF8C01FC019C
:103A20001182108213821282158214821682CB01B7
:103A3000BA017E010894E11CF11CA70130E00E944C
:103A40001A2AC801B7010E94831CA2960FB6F894E7
:103A5000DEBF0FBECDBFCF91DF911F910F91FF90C1
:103A6000EF900895EF92FF920F931F93DF93CF9300
:103A7000CDB7DEB7A2970FB6F894DEBF0FBECDBFAD
:103A80008C01FC0111821082138212821582148231
:103A90001682CB01BA017E010894E11CF11CA7013A
:103AA00030E00E941A2AC801B7010E94831CA29626
:103AB0000FB6F894DEBF0FBECDBFCF91DF911F913F
:103AC0000F91FF90EF900895EF92FF920F931F9345
:103AD000DF93CF93CDB7DEB761970FB6F894DEBF13
:103AE0000FBECDBF8C01CB01F80111821082138271
:103AF00012821582148216827E010894E11CF11C48
:103B0000B70150E00E94882AC801B7010E94831CB7
:103B100061960FB6F894DEBF0FBECDBFCF91DF9197
:103B20001F910F91FF90EF900895EF92FF920F93E6
:103B30001F93DF93CF93CDB7DEB761970FB6F8949D
:103B4000DEBF0FBECDBF8C01CB01F8011182108208
:103B5000138212821582148216827E010894E11C5F
:103B6000F11CB70150E00E94882AC801B7010E94E9
:103B7000831C61960FB6F894DEBF0FBECDBFCF9108
:103B8000DF911F910F91FF90EF900895EF92FF92B8
:103B90000F931F93DF93CF93CDB7DEB762970FB626
:103BA000F894DEBF0FBECDBF8C01CB01F8011182AE
:103BB0001082138212821582148216827E0108946A
:103BC000E11CF11CB70150E00E94F929C801B701BE
:103BD0000E94831C62960FB6F894DEBF0FBECDBF65
:103BE000CF91DF911F910F91FF90EF900895EF9289
:103BF000FF920F931F93DF93CF93CDB7DEB76297FA
:103C00000FB6F894DEBF0FBECDBF8C01CB01F8011B
:103C100011821082138212821582148216827E0112
:103C20000894E11CF11CB70150E00E94F929C80179
:103C3000B7010E94831C62960FB6F894DEBF0FBED8
:103C4000CDBFCF91DF911F910F91FF90EF9008951D
:103C5000EF92FF920F931F93DF93CF93CDB7DEB711
:103C600029970FB6F894DEBF0FBECDBF8C01862F0B
:103C7000F801118210821382128215821482168238
:103C800090E07E010894E11CF11CB70150E00E9415
:103C9000882AC801B7010E94831C29960FB6F894A0
:103CA000DEBF0FBECDBFCF91DF911F910F91FF906F
:103CB000EF900895EF92FF920F931F93DF93CF93AE
:103CC000CDB7DEB729970FB6F894DEBF0FBECDBFD4
:103CD0008C01862FF80111821082138212821582C4
:103CE0001482168290E07E010894E11CF11CB70159
:103CF00050E00E94882AC801B7010E94831C2996BF
:103D00000FB6F894DEBF0FBECDBFCF91DF911F91EC
:103D10000F91FF90EF900895DF93CF930F920F9242
:103D2000CDB7DEB7FC011182108213821282158298
:103D30001482168269831A82BE016F5F7F4F0E94D0
:103D4000831C0F900F90CF91DF910895DF93CF9355
:103D50000F920F92CDB7DEB7FC0111821082138251
:103D6000128215821482168269831A82BE016F5FE5
:103D70007F4F0E94831C0F900F90CF91DF91089589
:103D8000BF92CF92DF92EF92FF920F931F93CF9348
:103D9000DF93082FB92E6B017A01E901241735074B
:103DA00010F4EA017901802F9B2D66EF72E00E94EA
:103DB0004F1CD60114968D919C9115978E159F05D9
:103DC000D0F08C179D0708F4EC01D601ED91FC9121
:103DD0001197EC0FFD1F108110826D917C916E0D7B
:103DE0007F1D802F9B2D0E94831CD601ED91FC919D
:103DF000EC0FFD1F1083802F9B2DDF91CF911F9122
:103E00000F91FF90EF90DF90CF90BF9008950F93A8
:103E10001F938C01FB01248135810E94C01EC801C3
:103E20001F910F910895CF93DF93EC01FB0186174B
:103E3000970761F0608171816115710529F04481F6
:103E400055810E942E1C02C00E94841BCE01DF916E
:103E5000CF910895FC011182108213821282158283
:103E6000148216820E94131F0895FC011182108291
:103E7000138212821582148216820E94131F0895E3
:103E8000FC01808191810E94F22D0895FC018081C6
:103E900091810E94F22D0895FC0120E030E08081A4
:103EA000882311F421E030E0C9010895FC0181E08C
:103EB00080830895089508950E94F22D08950E9428
:103EC000F22D08950E94552D08950E94552D0895B4
:103ED0001F920F920FB60F9211242F933F938F933F
:103EE0009F93AF93BF9380910C0790910D07A09182
:103EF0000E07B0910F07309110070196A11DB11D5B
:103F0000232F2D5F2D3720F02D570196A11DB11DB8
:103F10002093100780930C0790930D07A0930E0732
:103F2000B0930F078091080790910907A0910A07A5
:103F3000B0910B070196A11DB11D809308079093C6
:103F40000907A0930A07B0930B07BF91AF919F9108
:103F50008F913F912F910F900FBE0F901F9018954A
:103F60008FB7F89420910C0730910D0740910E0700
:103F700050910F078FBFB901CA0108959FB7F894F8
:103F8000209108073091090740910A0750910B07CB
:103F900086B5A89B06C08F3F21F02F5F3F4F4F4F44
:103FA0005F4F9FBF542F432F322F2227280F311DE1
:103FB000411D511D82E0220F331F441F551F8A955A
:103FC000D1F7B901CA0108959B01AC017FB7F894FC
:103FD0008091080790910907A0910A07B0910B07FB
:103FE00066B5A89B05C06F3F19F00196A11DB11DD4
:103FF0007FBFBA2FA92F982F8827860F911DA11D4B
:10400000B11D62E0880F991FAA1FBB1F6A95D1F7E7
:10401000BC012DC0FFB7F894809108079091090763
:10402000A0910A07B0910B07E6B5A89B05C0EF3F2A
:1040300019F00196A11DB11DFFBFBA2FA92F982F0E
:1040400088278E0F911DA11DB11DE2E0880F991FD9
:10405000AA1FBB1FEA95D1F7861B970B885E93407A
:10406000C8F2215030404040504068517C4F2115EB
:1040700031054105510571F60895019739F0880F12
:10408000991F880F991F02970197F1F70895789467
:1040900084B5826084BD84B5816084BD85B582604D
:1040A00085BD85B5816085BDEEE6F0E080818160EB
:1040B0008083E1E8F0E010828081826080838081EB
:1040C00081608083E0E8F0E0808181608083E1EBC3
:1040D000F0E0808184608083E0EBF0E080818160AB
:1040E0008083E1E9F0E0808182608083808181606B
:1040F0008083E0E9F0E0808181608083E1EAF0E0A4
:10410000808182608083808181608083E0EAF0E04A
:10411000808181608083E1E2F1E080818260808340
:10412000808181608083E0E2F1E080818160808332
:10413000EAE7F0E080818460808380818260808310
:104140008081816080838081806880831092C1003B
:104150000895CF93DF93482F50E0CA0188569E4FB1
:10416000FC0134914E5A5E4FFA018491882369F123
:1041700090E0880F991FFC01EC5FFE4FA591B49170
:10418000FC01E25EFE4FC591D491662351F42FB736
:10419000F8948C91932F909589238C93888189230F
:1041A0000BC0623061F42FB7F8948C91932F9095E7
:1041B00089238C938881832B88832FBF06C09FB768
:1041C000F8948C91832B8C939FBFDF91CF910895AE
:1041D000893009F449C08A30A0F4843051F1853027
:1041E00040F4823079F1833000F5813009F063C00A
:1041F00026C0873079F1883098F5863009F05BC0A9
:1042000025C08D3009F442C08E3028F48B30B1F1D6
:104210008C30C0F52DC0803109F442C0813109F4E1
:1042200045C08F3009F047C037C0809180008F773C
:1042300003C0809180008F7D80938000089584B5B5
:104240008F7702C084B58F7D84BD08958091B000C2
:104250008F7703C08091B0008F7D8093B000089568
:10426000809190008F7707C0809190008F7D03C070
:1042700080919000877F8093900008958091A000A6
:104280008F7707C08091A0008F7D03C08091A00030
:10429000877F8093A0000895809120018F7703C0CD
:1042A000809120018F7D80932001089580912001CD
:1042B000877F809320010895FF920F931F93F62E1E
:1042C000482F50E0CA0182529E4FFC012491CA013E
:1042D00088569E4FFC0114914E5A5E4FFA0104918C
:1042E0000023C9F0222319F0822F0E94E820E02F3A
:1042F000F0E0EE0FFF1FE25EFE4FA591B4919FB775
:10430000F894FF2021F48C911095812302C08C91A8
:10431000812B8C939FBF1F910F91FF9008950F9356
:104320001F93482F50E0CA0182529E4FFC012491F6
:10433000CA0188569E4FFC0104914E5A5E4FFA0105
:104340001491112319F420E030E015C0222319F054
:10435000822F0E94E820812F90E0880F991F885CAF
:104360009E4FFC01A591B4918C9120E030E0802318
:1043700011F021E030E0C9011F910F910895EF92F3
:10438000FF920F931F937B018C0120E030E040E00F
:104390005FE40E946B2588238CF0C801B70120E000
:1043A00030E040E05FE40E9437230E9484269B01B6
:1043B000AC01205030404040504806C0C801B70111
:1043C0000E9484269B01AC01B901CA011F910F9183
:1043D000FF90EF900895A0E0B0E0E1EFF1E20C94DF
:1043E000AC2FDC012B01FA019C91923008F439C109
:1043F000EB018881823008F433C1943069F4843051
:1044000009F02FC111969C9111978981981709F491
:1044100028C1ADEFB2E025C1843009F421C182305A
:10442000A9F4923009F01DC19A01AD0188E0EA01BA
:104430000990AE01E90109929E018150C1F7E201A4
:10444000898111969C918923818308C1923009F456
:1044500007C112962D903C901397EB018A819B81A6
:104460001496AD90BD90CD90DC901797EC80FD80B8
:104470000E811F819101281B390BB90137FF04C040
:1044800066277727621B730B603271050CF061C0E1
:10449000121613066CF537014801062E04C09694D7
:1044A0008794779467940A94D2F721E030E040E053
:1044B00050E004C0220F331F441F551F6A95D2F7E6
:1044C00021503040404050402E213F214023512375
:1044D000211531054105510521F021E030E040E092
:1044E00050E079018A01E628F728082919293CC0FB
:1044F000232BD1F1260E371E35014601062E04C0AE
:1045000096948794779467940A94D2F721E030E0E8
:1045100040E050E004C0220F331F441F551F6A952E
:10452000D2F721503040404050402A213B214C21BD
:104530005D21211531054105510521F021E030E0D3
:1045400040E050E059016A01A628B728C828D928B8
:104550000BC0821593052CF01C01AA24BB24650115
:1045600003C0EE24FF24870111969C91D20111967D
:104570008C91981709F445C0992339F0A801970147
:104580002A193B094C095D0906C0A60195012E199F
:104590003F09400B510B57FD08C011823382228224
:1045A00024833583468357831DC081E08183338212
:1045B000228288279927DC01821B930BA40BB50B61
:1045C00084839583A683B7830DC0220F331F441FB6
:1045D000551F2483358346835783828193810197B6
:1045E000938382832481358146815781DA01C90111
:1045F0000197A109B1098F5F9F4FAF4FBF4328F3C8
:104600000BC0918333822282EA0CFB1C0C1D1D1D02
:10461000E482F5820683178383E0808324813581D9
:104620004681578157FF1AC0C901AA2797FDA09557
:10463000BA2F81709070A070B070569547953795DD
:104640002795822B932BA42BB52B84839583A6834C
:10465000B78382819381019693838283DF0101C0B6
:10466000D201CD01CDB7DEB7E2E10C94C82FA0E2B4
:10467000B0E0EDE3F3E20C94B82F69837A838B8387
:104680009C832D833E834F835887E9E0EE2EF12CE7
:10469000EC0EFD1ECE010196B7010E9475288E0119
:1046A0000F5E1F4FCE010596B8010E9475288A89BA
:1046B00091E089278A8BC701B801AE01475E5F4F41
:1046C0000E94EB210E94A027A096E6E00C94D42F34
:1046D000A0E2B0E0EEE6F3E20C94B82F69837A83AF
:1046E0008B839C832D833E834F835887F9E0EF2E85
:1046F000F12CEC0EFD1ECE010196B7010E9475282B
:104700008E010F5E1F4FCE010596B8010E947528DD
:10471000C701B801AE01475E5F4F0E94EB210E94C6
:10472000A027A096E6E00C94D42FA0E2B0E0EBE93D
:10473000F3E20C94AC2F69837A838B839C832D8363
:104740003E834F835887CE010196BE01675F7F4F3E
:104750000E947528CE010596BE016F5E7F4F0E94B4
:1047600075289985923088F089898230C8F0943014
:1047700019F4823051F404C0843029F4923081F469
:104780008DEF92E0C6C0923049F420E09A858A8984
:10479000981321E02A87CE010996BBC0823049F4E4
:1047A00020E09A858A89981321E02A8BCE014196D0
:1047B000B0C02D843E844F8458886D887E888F8851
:1047C000988CEE24FF248701AA24BB24650140E0D5
:1047D00050E060E070E0E0E0F0E0C10181709070D6
:1047E000892BE9F0E60CF71C081D191D9A01AB0195
:1047F0002A0D3B1D4C1D5D1D80E090E0A0E0B0E067
:10480000E614F7040805190520F481E090E0A0E023
:10481000B0E0BA01A901480F591F6A1F7B1FAA0CFB
:10482000BB1CCC1CDD1C97FE08C081E090E0A0E022
:10483000B0E0A82AB92ACA2ADB2A3196E032F1056B
:1048400049F0660C771C881C991C56944794379441
:104850002794C3CFFA85EA892B893C898B859C856F
:10486000280F391F2E5F3F4F17C0CA01817090700B
:10487000892B61F016950795F794E79480E090E016
:10488000A0E0B0E8E82AF92A0A2B1B2B7695679559
:10489000579547952F5F3F4F77FDE7CF0CC0440FEB
:1048A000551F661F771F17FD4160EE0CFF1C001F90
:1048B000111F21503040403090E0590790E06907C7
:1048C00090E4790760F32B8F3C8FDB01CA018F776F
:1048D0009070A070B07080349105A105B10561F4AD
:1048E00047FD0AC0E114F1040105110529F0405CFF
:1048F0005F4F6F4F7F4F40781A8EFE1711F081E0A7
:104900008A8F4D8F5E8F6F8F78A383E0898FCE0162
:1049100049960E94A027A096E2E10C94C82FA8E136
:10492000B0E0E5E9F4E20C94B42F69837A838B83D9
:104930009C832D833E834F835887B9E0EB2EF12C67
:10494000EC0EFD1ECE010196B7010E9475288E0166
:104950000F5E1F4FCE010596B8010E94752829856C
:10496000223008F47EC03989323010F4B8017CC09E
:104970008A859A8989278A87243011F0223031F478
:10498000231709F06EC06DEF72E06EC0343039F459
:104990001D861E861F86188A1C861B8604C0323020
:1049A00021F484E08987B7015FC02B853C858B8922
:1049B0009C89281B390B3C872B87ED84FE840F854F
:1049C0001889AD88BE88CF88D88CEA14FB040C0502
:1049D0001D0540F4EE0CFF1C001F111F215030403C
:1049E0003C872B8720E030E040E050E080E090E022
:1049F000A0E0B0E460E070E0EA14FB040C051D05E3
:104A000040F0282B392B4A2B5B2BEA18FB080C09AA
:104A10001D09B695A79597958795EE0CFF1C001F6D
:104A2000111F6F5F7F4F6F31710531F7DA01C901D7
:104A30008F779070A070B07080349105A105B1059A
:104A400061F427FD0AC0E114F1040105110529F004
:104A5000205C3F4F4F4F5F4F20782D873E874F8719
:104A6000588BBE01675F7F4FCB010E94A0276896DD
:104A7000EAE00C94D02FA8E1B0E0E1E4F5E20C9478
:104A8000B82F69837A838B839C832D833E834F83E6
:104A9000588789E0E82EF12CEC0EFD1ECE01019620
:104AA000B7010E9475288E010F5E1F4FCE0105963B
:104AB000B8010E9475288985823040F0898982304A
:104AC00028F0C701B8010E94ED2801C08FEF689659
:104AD000E6E00C94D42FA8E1B0E0E1E7F5E20C9415
:104AE000B82F69837A838B839C832D833E834F8386
:104AF000588789E0E82EF12CEC0EFD1ECE010196C0
:104B0000B7010E9475288E010F5E1F4FCE010596DA
:104B1000B8010E9475288985823040F089898230E9
:104B200028F0C701B8010E94ED2801C08FEF6896F8
:104B3000E6E00C94D42FA8E1B0E0E1EAF5E20C94B1
:104B4000B82F69837A838B839C832D833E834F8325
:104B5000588789E0E82EF12CEC0EFD1ECE0101965F
:104B6000B7010E9475288E010F5E1F4FCE0105967A
:104B7000B8010E9475288985823040F08989823089
:104B800028F0C701B8010E94ED2801C081E06896B5
:104B9000E6E00C94D42FA8E1B0E0E1EDF5E20C944E
:104BA000B82F69837A838B839C832D833E834F83C5
:104BB000588789E0E82EF12CEC0EFD1ECE010196FF
:104BC000B7010E9475288E010F5E1F4FCE0105961A
:104BD000B8010E9475288985823040F08989823029
:104BE00028F0C701B8010E94ED2801C081E0689655
:104BF000E6E00C94D42FA8E1B0E0E1E0F6E20C94FA
:104C0000BC2F69837A838B839C832D833E834F8360
:104C10005887CE010196BE01675F7F4F0E947528BD
:104C2000CE010596BE016F5E7F4F0E947528898573
:104C3000823028F020E030E08989823010F421E0D1
:104C400030E0822F6896E2E00C94D82FA8E0B0E024
:104C5000ECE2F6E20C94B52F9B01AC0183E0898372
:104C6000DA01C9018827B7FD83959927AA27BB27B1
:104C7000B82E211531054105510519F482E08983CB
:104C80003AC08823A9F0203080E0380780E0480748
:104C900080E8580729F460E070E080E09FEC30C0C5
:104CA000EE24FF248701E21AF30A040B150B02C05D
:104CB00079018A018EE1C82ED12CDC82CB82ED8273
:104CC000FE820F831887C801B7010E945127019700
:104CD0001816190684F4082E04C0EE0CFF1C001FE1
:104CE000111F0A94D2F7ED82FE820F831887C81A2B
:104CF000D90ADC82CB82BA82CE0101960E94A0271B
:104D00002896E9E00C94D12FACE0B0E0EAE8F6E2B6
:104D10000C94BC2F69837A838B839C83CE0101968C
:104D2000BE016B5F7F4F0E9475288D81823061F1DB
:104D3000823050F1843021F48E81882351F12EC0CD
:104D40002F81388537FD20C06E812F3131051CF051
:104D50006623F9F023C08EE190E0821B930B298536
:104D60003A854B855C8504C05695479537952795C0
:104D70008A95D2F76623B1F05095409530952195EC
:104D80003F4F4F4F5F4F0EC020E030E040E050E01B
:104D900009C02FEF3FEF4FEF5FE704C020E030E0A6
:104DA00040E050E8B901CA012C96E2E00C94D82FFB
:104DB000A8E0B0E0EEEDF6E20C94B42F7B018C019C
:104DC000611571058105910519F482E0898360C040
:104DD00083E089838EE1C82ED12CDC82CB82ED82E8
:104DE000FE820F831887C801B7010E945127FC017A
:104DF0003197F7FF3BC0222733272E1B3F0B57016C
:104E00006801022E04C0D694C794B794A7940A945C
:104E1000D2F740E050E060E070E081E090E0A0E098
:104E2000B0E004C0880F991FAA1FBB1F2A95D2F7B4
:104E30000197A109B1098E219F21A023B1230097D9
:104E4000A105B10521F041E050E060E070E04A29A1
:104E50005B296C297D294D835E836F8378878EE182
:104E600090E08E1B9F0B9C838B8312C0309781F048
:104E70000E2E04C0EE0CFF1C001F111F0A94D2F767
:104E8000ED82FE820F831887CE1ADF0ADC82CB8286
:104E90001A82CE0101960E94A0272896EAE00C947F
:104EA000D02FEF92FF920F931F937B018C0180E034
:104EB000E81680E0F80681E0080780E0180788F42B
:104EC0008FEFE816F1040105110531F028F088E0B4
:104ED00090E0A0E0B0E017C080E090E0A0E0B0E09B
:104EE00012C080E0E81680E0F80680E0080781E064
:104EF000180728F088E190E0A0E0B0E004C080E16D
:104F000090E0A0E0B0E020E230E040E050E0281B7C
:104F1000390B4A0B5B0B04C016950795F794E79481
:104F20008A95D2F7F701EB5FFC4F8081281B31098E
:104F300041095109C9011F910F91FF90EF90089508
:104F4000DF92EF92FF920F931F93FC01E480F580B4
:104F500006811781D1808081823048F480E090E022
:104F6000A0E1B0E0E82AF92A0A2B1B2BA5C0843067
:104F700009F49FC0823021F4EE24FF24870105C08C
:104F8000E114F1040105110519F4E0E0F0E096C028
:104F9000628173819FEF623879070CF05BC022E871
:104FA0003FEF261B370B2A3131052CF020E030E093
:104FB00040E050E02AC0B801A701022E04C0769557
:104FC0006795579547950A94D2F781E090E0A0E065
:104FD000B0E004C0880F991FAA1FBB1F2A95D2F703
:104FE0000197A109B1098E219F21A023B123009728
:104FF000A105B10521F081E090E0A0E0B0E09A01C8
:10500000AB01282B392B4A2B5B2BDA01C9018F7797
:105010009070A070B07080349105A105B10539F48D
:1050200027FF09C0205C3F4F4F4F5F4F04C0215CFA
:105030003F4F4F4F5F4FE0E0F0E02030A0E03A07F5
:10504000A0E04A07A0E45A0710F0E1E0F0E079019F
:105050008A0127C06038710564F5FB01E158FF4FF4
:10506000D801C7018F779070A070B070803491051F
:10507000A105B10539F4E7FE0DC080E490E0A0E0A1
:10508000B0E004C08FE390E0A0E0B0E0E80EF91ECD
:105090000A1F1B1F17FF05C016950795F794E79485
:1050A000319687E016950795F794E7948A95D1F79E
:1050B00005C0EE24FF248701EFEFF0E06E2F679527
:1050C00066276795902F9F77D794DD24D7948E2FEE
:1050D0008695492F462B582F5D29B701CA011F918C
:1050E0000F91FF90EF90DF900895FC01DB0140816C
:1050F00051812281622F6F7770E0221F2227221FA9
:105100009381892F880F822B282F30E0991F9927B0
:10511000991F11969C93119721153105A9F54115F9
:1051200051056105710511F482E037C082E89FEFF7
:1051300013969C938E9312979A01AB0167E0220F0E
:10514000331F441F551F6A95D1F783E08C930DC020
:10515000220F331F441F551F12968D919C91139758
:10516000019713969C938E931297203080E0380716
:1051700080E0480780E4580758F314962D933D9338
:105180004D935C93179708952F3F310579F441159E
:1051900051056105710519F484E08C93089564FF4D
:1051A00003C081E08C9312C01C9210C02F57304076
:1051B00013963C932E93129783E08C9387E0440FD1
:1051C000551F661F771F8A95D1F7706414964D930B
:1051D0005D936D937C93179708951F93DC01FB01FA
:1051E0009C91923008F447C08081823008F443C01B
:1051F000943051F411961C91843099F58181682F77
:1052000070E0611B71093FC0843021F0923031F4AD
:105210008230B9F18181882389F12DC011961C91CA
:1052200011978230F1F081811817D9F412962D91DF
:105230003C911397828193818217930794F02817EA
:105240003907BCF014968D919D910D90BC91A02DC5
:105250002481358146815781281739074A075B0722
:1052600018F4112341F00AC082179307A407B50769
:1052700040F4112319F061E070E005C06FEF7FEF9B
:1052800002C060E070E0CB011F9108951F93FC0104
:1052900099278827BC01E89411911032E9F319305D
:1052A00010F01E30C8F31B3251F01D3249F46894DF
:1052B00006C00E944E2A610F711D811D911D119122
:1052C00010531A30B0F33EF4909580957095619527
:1052D0007F4F8F4F9F4F1F910895FB01DC0102C04C
:1052E00005900D9241505040D8F70895FB01DC0124
:1052F00002C001900D9241505040D8F708956817B0
:10530000790768F4FB01DC01E40FF51FA40FB51F5A
:1053100002C002900E9241505040D8F708950C946C
:105320007629FB01DC010D900020E9F7119701902F
:105330000D920020E1F70895FC018191861721F07C
:105340008823D9F7992708953197CF010895FB0154
:10535000DC018D91019080190110D9F3990B08950A
:10536000FB01DC0101900D920020E1F70895FB01A3
:10537000DC014150504030F08D910190801919F4BA
:105380000020B9F7881B990B0895FB01DC014150FF
:10539000504048F001900D920020C9F701C01D92C5
:1053A00041505040E0F70895FC0181E090E0019009
:1053B000061609F4CF010020D1F701970895FB01EB
:1053C00051915523A9F0BF01DC014D9145174111C1
:1053D000E1F759F4CD010190002049F04D914015BD
:1053E0004111C9F3FB014111EFCF81E090E001973A
:1053F0000895FB019F01E8944230C4F04532B4F4B3
:105400004A3029F497FB1EF4909581959F4F642FA5
:1054100077270E940430805D8A330CF0895D819388
:10542000CB010097A1F716F45DE251931082C901F8
:105430000C94BB2CFA01CF93FF93EF93223044F1ED
:10544000253234F5C22FE894CA3049F497FB3EF474
:1054500090958095709561957F4F8F4F9F4F2C2F22
:10546000332744275527FF93EF930E948A2FEF910C
:10547000FF91605D6A330CF0695D6193B901CA0107
:10548000605070408040904051F716F4CDE2C193D7
:1054900010828F919F91CF910C94BB2C592F482F44
:1054A000372F262F660F771F881F991F660F771FCC
:1054B000881F991F620F731F841F951F660F771F28
:1054C000881F991F0895FA01CF93FF93EF9322301D
:1054D000CCF02532BCF4C22F2C2F3327442755277C
:1054E000FF93EF930E948A2FEF91FF91605D6A33E3
:1054F0000CF0695D6193B901CA0160507040804051
:10550000904051F710828F919F91CF910C94BB2CBA
:10551000FB019F01423074F0453264F4642F772719
:105520000E940430805D8A330CF0895D8193CB0149
:105530000097A1F71082C9010C94BB2CAEE0B0E03B
:10554000E4EAFAE20C94BA2F8C0177FF02C060E023
:1055500070E8615070407E836D831A83098386E012
:105560008C83CE010196BA01A9010E94C82A2D811F
:105570003E8137FD09C0EF81F8852E173F070CF4F7
:10558000F901E00FF11F10822E96E4E00C94D62F63
:10559000ABE0B0E0EEECFAE20C94AC2F3C012B0156
:1055A0005A01FC0117821682838181FD03C06FEFCF
:1055B0007FEFC6C19AE0892E1E010894211C311C80
:1055C000F3012381F20123FD859123FF81912F01B6
:1055D000882309F4B2C1853239F423FD859123FF74
:1055E00081912F01853229F490E0B3010E94CB2CE8
:1055F000E7CF982FFF24EE249924FFE1FF15D0F088
:105600009B3269F09C3228F4903259F0933291F435
:105610000EC09D3249F0903369F441E024C052E05D
:10562000F52A84E0F82A28C098E0F92A25C0E0E1AC
:10563000FE2A22C0F7FC29C0892F80538A3070F4DB
:10564000F6FE05C0989C902C1124980E15C0E89C7D
:10565000E02C1124E80EF0E2FF2A0EC09E3229F45D
:10566000F6FC6BC140E4F42A07C09C3619F450E8FC
:10567000F52A02C0983649F4F20123FD959123FFE3
:1056800091912F01992309F0B8CF892F8554833048
:1056900018F08052833038F444E050E0A40EB51E78
:1056A0005FE359830FC0933631F0933779F0933528
:1056B00009F056C020C0F5018081898342E050E0A6
:1056C000A40EB51E610101E010E012C0F501C0801A
:1056D000D180F6FC03C06FEF7FEF02C0692D70E050
:1056E00042E050E0A40EB51EC6010E94B02C8C0111
:1056F0005FE7F52214C0F501C080D180F6FC03C03D
:105700006FEF7FEF02C0692D70E042E050E0A40E21
:10571000B51EC6010E94A52C8C0150E8F52AF3FEA7
:1057200007C01AC080E290E0B3010E94CB2CEA943B
:105730008E2D90E008171907A8F30EC0F601F7FCAC
:105740008591F7FE81916F0190E0B3010E94CB2C0F
:10575000E110EA94015010400115110579F7EAC0F3
:10576000943611F0993669F5F7FE08C0F5012081ED
:1057700031814281538184E090E00AC0F50180814B
:1057800091819C01442737FD4095542F82E090E0A1
:10579000A80EB91E9FE6F92257FF09C05095409503
:1057A000309521953F4F4F4F5F4FE0E8FE2ACA01E9
:1057B000B901A1012AE030E00E94F72CD82ED218BE
:1057C00040C0953729F41F2D1F7E2AE030E01DC010
:1057D0001F2D197F9F3661F0903720F4983509F01E
:1057E000ACC00FC0903739F0983709F0A6C004C09C
:1057F00028E030E00AC0106114FD146020E130E0C0
:1058000004C014FD166020E132E017FF08C0F50166
:10581000608171818281938144E050E008C0F5018C
:1058200080819181BC0180E090E042E050E0A40ED4
:10583000B51EA1010E94F72CD82ED2188FE7F82EA2
:10584000F122F6FE0BC05EEFF522D91438F4F4FE17
:1058500007C0F2FC05C08FEEF82202C01D2D01C06A
:10586000192DF4FE0DC0FE01ED0DF11D8081803378
:1058700019F499EEF92208C01F5FF2FE05C003C0BB
:105880008F2D867809F01F5F0F2DF3FC14C0F0FEFA
:105890000FC01E1510F09D2C0BC09D2C9E0C911A54
:1058A0001E2D06C080E290E0B3010E94CB2C1F5F4A
:1058B0001E15C0F304C01E1510F4E11A01C0EE2439
:1058C00004FF0FC080E390E0B3010E94CB2C02FFE5
:1058D0001DC001FD03C088E790E00EC088E590E0A0
:1058E0000BC0802F867891F001FF02C08BE201C0CF
:1058F00080E2F7FC8DE290E0B3010E94CB2C06C061
:1059000080E390E0B3010E94CB2C9A94D914C0F3A9
:10591000DA94F101ED0DF11D808190E0B3010E9458
:10592000CB2CDD20A9F706C080E290E0B3010E94F5
:10593000CB2CEA94EE20C1F743CEF3016681778148
:10594000CB012B96E2E10C94C82FFC01059061502D
:1059500070400110D8F7809590958E0F9F1F089585
:10596000FC016150704001900110D8F7809590952E
:105970008E0F9F1F0895DC01FC01672F7191772323
:10598000E1F7329704C07C916D9370836291AE17FA
:10599000BF07C8F308950F931F93CF93DF938C0134
:1059A000EB018B8181FF1BC082FF0DC02E813F81E7
:1059B0008C819D812817390764F4E881F98101936E
:1059C000F983E88306C0E885F985802F1995892B2E
:1059D00031F48E819F8101969F838E8302C00FEFE9
:1059E0001FEFC801DF91CF911F910F910895FA0128
:1059F000AA27283051F1203181F1E8946F936E7F0E
:105A00006E5F7F4F8F4F9F4FAF4FB1E03ED0B4E0FE
:105A10003CD0670F781F891F9A1FA11D680F791F3F
:105A20008A1F911DA11D6A0F711D811D911DA11D50
:105A300020D009F468943F912AE0269F1124301960
:105A4000305D3193DEF6CF010895462F4770405DFB
:105A50004193B3E00FD0C9F7F6CF462F4F70405DAA
:105A60004A3318F0495D31FD4052419302D0A9F705
:105A7000EACFB4E0A6959795879577956795BA95FF
:105A8000C9F700976105710508959B01AC010A2EC5
:105A900006945795479537952795BA95C9F7620F9C
:105AA000731F841F951FA01D08950F931F93CF93FD
:105AB000DF93BC018230910510F462E070E0E09168
:105AC0001307F0911407A0E0B0E040E050E024C0DC
:105AD0008081918186179707D0F08617970771F418
