:100000000C9407010C9434010C9434010C943401C9
:100010000C9434010C9434010C9434010C9434018C
:100020000C9434010C9434010C9434010C9434017C
:100030000C9434010C9434010C9434010C9434016C
:100040000C9434010C9434010C9434010C9434015C
:100050000C9434010C9434010C9434010C94D11B95
:100060000C9434010C94F1050C9439070C94340170
:100070000C9434010C9434010C9434010C9434012C
:100080000C9434010C9434010C9434010C9434011C
:100090000C9431060C9478070C9434010C943401C0
:1000A0000C9434010C9434010C9434010C943401FC
:1000B0000C9434010C9434010C9434010C943401EC
:1000C0000C9434010C9434010C9434010C9471069A
:1000D0000C94B7070C9434010C94B1060C94F607F9
:1000E0000C94340100002100240027002A002D0078
:1000F0003000330001010000040107010A01000083
:100100002200250028002B002E00310034000201BF
:100110000000050108010B0100002000230026005B
:1001200029002C002F00320000010000030106010D
:10013000090105050505070508080808020202026D
:100140000A0A080804040404010101010101010173
:100150000303030303030303040707070C0C0C0C3E
:100160000C0C0C0C02020202060606060606060627
:100170000B0B0B0B0B0B0B0B0102102020080810B4
:100180002040102040800201020108040201010207
:1001900004081020408080402010080402018004E0
:1001A000020180402010080402010804020101023B
:1001B0000408102040800102040810204080000044
:1001C000090A02080B0C0D070603040100000000D9
:1001D000000000000000000000000000000000001F
:1001E0000000000000000000000011100F000000DF
:1001F00000000000000000000000000000000000FF
:100200000000000073014005E20A6C013905112469
:100210001FBECFEFD1E2DEBFCDBF00E00CBF14E0C8
:10022000A0E0B2E0EEEFF8E500E00BBF02C00790FF
:100230000D92A431B107D9F71BBE16E0A4E1B4E0DA
:1002400001C01D92A13EB107E1F712E0CAE0D2E081
:1002500004C02297FE010E943F2CC430D107C9F789
:100260000E94E9050C94722C0C940000FC0184E2BD
:1002700092E0918380838AE082830895FC0184E286
:1002800092E0918380838AE082830895FC0184E276
:1002900092E0918380830895FC0184E292E091834F
:1002A00080830895FC01628308958130910551F4A3
:1002B0006F5F7F4F81F484E194E060E072E00E9420
:1002C000B8180895892B39F46F5F7F4F21F484E1CA
:1002D00094E00E94A91B089580E090E06FEF7FEF0B
:1002E0000E945501089581E090E06FEF7FEF0E943A
:1002F000550108958F929F92AF92BF92CF92DF9255
:10030000EF92FF920F931F93DF93CF93CDB7DEB79A
:100310002E970FB6F894DEBF0FBECDBF5C018B01E8
:100320004A01DC0112968C9112978B3068F5ED91A1
:10033000FC91C680D7807E010894E11CF11CC701A6
:1003400065E072E00E94D218C701B8010E948118CE
:100350006DE072E00E946518B4010E94811860E1AE
:1003600072E00E946518BC018E01085F1F4FC80132
:100370000E94931BC501B801F6011995C8010E949E
:10038000A91BC7010E94AF1B2E960FB6F894DEBFC3
:100390000FBECDBFCF91DF911F910F91FF90EF90D6
:1003A000DF90CF90BF90AF909F908F900895CF92A5
:1003B000DF92EF92FF920F931F93DF93CF93CDB70E
:1003C000DEB72E970FB6F894DEBF0FBECDBF6C011F
:1003D0007E010894E11CF11CC7010E94931B8E0151
:1003E000085F1F4FC80164E174E00E94931BC601BF
:1003F000B701A8010E947A01C8010E94A91BC70188
:100400000E94A91B2E960FB6F894DEBF0FBECDBF7B
:10041000CF91DF911F910F91FF90EF90DF90CF90E0
:1004200008958F929F92AF92BF92CF92DF92EF92F8
:10043000FF920F931F93DF93CF93CDB7DEB72E9725
:100440000FB6F894DEBF0FBECDBF5C018B014A0131
:10045000DC0112968C911297863068F5ED91FC9133
:10046000C680D7807E010894E11CF11CC70162E1BF
:1004700072E00E94D218C701B8010E9481186DE095
:1004800072E00E946518B4010E94811860E172E078
:100490000E946518BC018E01085F1F4FC8010E94B1
:1004A000931BC501B801F6011995C8010E94A91B4B
:1004B000C7010E94AF1B2E960FB6F894DEBF0FBE89
:1004C000CDBFCF91DF911F910F91FF90EF90DF9003
:1004D000CF90BF90AF909F908F900895CF92DF9272
:1004E000EF92FF920F931F93DF93CF93CDB7DEB7B9
:1004F0002E970FB6F894DEBF0FBECDBF6C017E0104
:100500000894E11CF11CC7010E94931B8E01085F37
:100510001F4FC80164E174E00E94931BC601B7013C
:10052000A8010E941102C8010E94A91BC7010E94D4
:10053000A91B2E960FB6F894DEBF0FBECDBFCF918C
:10054000DF911F910F91FF90EF90DF90CF90089572
:100550008F929F92AF92BF92CF92DF92EF92FF92D3
:100560000F931F93DF93CF93CDB7DEB72E970FB6C0
:10057000F894DEBF0FBECDBF5C018B014A01DC01E8
:1005800012968C911297882369F5ED91FC91C680A3
:10059000D7807E010894E11CF11CC70169E172E07B
:1005A0000E94D218C701B8010E9481186DE072E064
:1005B0000E946518B4010E94811860E172E00E94F7
:1005C0006518BC018E01085F1F4FC8010E94931B74
:1005D000C501B801F6011995C8010E94A91BC70100
:1005E0000E94AF1B2E960FB6F894DEBF0FBECDBF94
:1005F000CF91DF911F910F91FF90EF90DF90CF90FF
:10060000BF90AF909F908F900895CF92DF92EF921E
:10061000FF920F931F93DF93CF93CDB7DEB72E9743
:100620000FB6F894DEBF0FBECDBF6C017E010894FB
:10063000E11CF11CC7010E94931B8E01085F1F4F34
:10064000C80164E174E00E94931BC601B701A801D0
:100650000E94A802C8010E94A91BC7010E94A91BF1
:100660002E960FB6F894DEBF0FBECDBFCF91DF91AF
:100670001F910F91FF90EF90DF90CF900895FC01B4
:1006800084E292E091838083CF010E94C81B089589
:10069000FC018FE792E09183808313821282089598
:1006A000FC018FE792E09183808313821282089588
:1006B000FC01738362830895FC018FE792E09183CC
:1006C00080830895FC018FE792E0918380830895F1
:1006D000FC018FE792E091838083CF010E94C81BC9
:1006E0000895EF92FF920F931F93CF93DF937C01B6
:1006F00010921B04C0E8D0E000E010E0CE018E2193
:100700009F218C179D0719F06EE272E002C060E332
:1007100072E08BE194E00E94F125D595C7950F5FBB
:100720001F4F0830110551F78BE194E0DF91CF9115
:100730001F910F91FF90EF900895AF92BF92CF92CB
:10074000DF92EF92FF920F93DF93CF93CDB7DEB797
:10075000C957D0400FB6F894DEBF0FBECDBF5C01C5
:10076000DC011296ED90FC901397D701ED91FC916E
:10077000C680D780CE01019662E372E00E94B8186D
:10078000C701BE016F5F7F4FF6011995CE0101963B
:100790000E94A91BF501A281B381ED91FC911197F3
:1007A0000084F185E02DCE010896BD011995E884FD
:1007B000F984D7010C910333E1F0043320F40133C1
:1007C00009F050C006C0053321F1073309F04AC0D3
:1007D00030C000D000D0EDB7FEB73196CE014696BE
:1007E000ADB7BEB712969C938E93119785E392E0B6
:1007F0002FC000D000D0EDB7FEB73196CE0146969F
:10080000ADB7BEB712969C938E9311978EE392E08C
:100810001FC000D000D0EDB7FEB73196CE0146968E
:10082000ADB7BEB712969C938E93119788E492E071
:100830000FC000D000D0EDB7FEB73196CE0146967E
:10084000ADB7BEB712969C938E93119783E592E055
:1008500093838283F582E4820E94FE26EDB7FEB781
:10086000369631C0CE0108960E94B912DC01CB0148
:100870000E9471036C01802F90E00E9471032DB7DC
:100880003EB72A5030400FB6F8943EBF0FBE2DBF82
:10089000EDB7FEB731969E012A5E3F4FADB7BEB7AA
:1008A00012963C932E9311972DE532E033832283E9
:1008B000F582E482D782C682918780870E94FE26D5
:1008C000EDB7FEB73A960FB6F894FEBF0FBEEDBF78
:1008D000D5011296ED90FC901397D701ED91FC9104
:1008E000C680D780CE010F9667E772E00E94B818E5
:1008F000C701BE01615F7F4FF6011995CE010F96CA
:100900000E94A91BCE0108960E94A91BC758DF4F61
:100910000FB6F894DEBF0FBECDBFCF91DF910F9120
:10092000FF90EF90DF90CF90BF90AF900895EF923F
:10093000FF920F931F93DF93CF93CDB7DEB7279727
:100940000FB6F894DEBF0FBECDBFF82EE92E63E8D8
:1009500072E00E94B8188BE496E00E94360A892B58
:1009600081F08E010F5F1F4FC8016BE476E00E949B
:100970006C118F2D9E2DB8010E947C1BC8010E9416
:10098000A91B8F2D9E2D27960FB6F894DEBF0FBEA4
:10099000CDBFCF91DF911F910F91FF90EF90089500
:1009A0008BE496E00E94A80F08958BE496E040E85F
:1009B00055E260E070E00E94BD080895FC0188E8FF
:1009C00092E091838083CF010E9446010895FC014B
:1009D00088E892E091838083CF010E9446010895C8
:1009E0000F931F938C0188E892E0F8019183808334
:1009F000C8010E944601C8010E94C81B1F910F91A7
:100A000008950F931F938C010E94360188E892E0AD
:100A1000F801918380831F910F9108950F931F9385
:100A20008C010E94360188E892E0F801918380836E
:100A30001F910F91089508958130910561F46F5FC2
:100A40007F4FB1F484E294E00E94010587E294E0D4
:100A50000E9450030895892B59F46F5F7F4F41F432
:100A600087E294E00E94620384E294E00E94DE0444
:100A7000089580E090E06FEF7FEF0E941C050895DD
:100A800081E090E06FEF7FEF0E941C050895EF92E8
:100A9000FF920F931F93DF93CF93CDB7DEB72E97BF
:100AA0000FB6F894DEBF0FBECDBF8091CC0261E0DF
:100AB0000E94C51D7E010894E11CF11CC70162E97A
:100AC00072E00E94B8188E01085F1F4FC80162EBE8
:100AD00072E00E94B81884E294E0B701A8010E9475
:100AE0001102C8010E94A91BC7010E94A91B60ED49
:100AF00077E080E090E00E944D1C8091CC0260E0A5
:100B00000E94C51D68EE73E080E090E00E944D1CDD
:100B100087E294E00E949D032E960FB6F894DEBF04
:100B20000FBECDBFCF91DF911F910F91FF90EF903E
:100B30000895CF92DF92EF92FF920F931F93DF936E
:100B4000CF93CDB7DEB72E970FB6F894DEBF0FBEAA
:100B5000CDBF8091CC0261E00E94121D84E2C82EBC
:100B600084E0D82EC6010E94D504C60165E00E942B
:100B700052017E010894E11CF11CC70167EB72E091
:100B80000E94B8188E01085F1F4FC80166EC72E022
:100B90000E94B818C601B701A8010E94A802C801A6
:100BA0000E94A91BC7010E94A91B87E294E0B6011D
:100BB0000E9458032E960FB6F894DEBF0FBECDBF2D
:100BC000CF91DF911F910F91FF90EF90DF90CF9029
:100BD00008950E94B01C0E9499050E944705FDCF10
:100BE00008951F920F920FB60F920BB60F92112419
:100BF0002F933F934F938F939F93EF93FF93809106
:100C0000C00082FD1DC04091C60020916B04309150
:100C10006C042F5F3F4F2F73307080916D04909163
:100C20006E042817390771F0E0916B04F0916C04A1
:100C3000E55DFB4F408330936C0420936B0402C04E
:100C40008091C600FF91EF919F918F914F913F91BD
:100C50002F910F900BBE0F900FBE0F901F90189505
:100C600008951F920F920FB60F920BB60F92112498
:100C70002F933F934F938F939F93EF93FF93809185
:100C8000C80082FD1DC04091CE002091F304309138
:100C9000F4042F5F3F4F2F7330708091F5049091D3
:100CA000F6042817390771F0E091F304F091F40489
:100CB000ED54FB4F40833093F4042093F30402C0BF
:100CC0008091CE00FF91EF919F918F914F913F9135
:100CD0002F910F900BBE0F900FBE0F901F90189585
:100CE00008951F920F920FB60F920BB60F92112418
:100CF0002F933F934F938F939F93EF93FF93809105
:100D0000D00082FD1DC04091D60020917B0530911E
:100D10007C052F5F3F4F2F73307080917D05909140
:100D20007E052817390771F0E0917B05F0917C056D
:100D3000E55CFA4F408330937C0520937B0502C02D
:100D40008091D600FF91EF919F918F914F913F91AC
:100D50002F910F900BBE0F900FBE0F901F90189504
:100D600008951F920F920FB60F920BB60F92112497
:100D70002F933F934F938F939F93EF93FF93809184
:100D8000300182FD1DC04091360120910306309153
:100D900004062F5F3F4F2F733070809105069091AE
:100DA00006062817390771F0E0910306F091040652
:100DB000ED53FA4F4083309304062093030602C09C
:100DC00080913601FF91EF919F918F914F913F91CB
:100DD0002F910F900BBE0F900FBE0F901F90189584
:100DE000E0915706F0915806E05CFF4F8191919198
:100DF00020813181821B930B8F739070892B11F0AE
:100E00000E94F005E0917906F0917A06E05CFF4FD0
:100E10008191919120813181821B930B8F7390700E
:100E2000892B11F00E943006E0919B06F0919C0600
:100E3000E05CFF4F8191919120813181821B930B66
:100E40008F739070892B11F00E947006E091BD069F
:100E5000F091BE06E05CFF4F81919191208131813C
:100E6000821B930B8F739070892B11F00E94B00638
:100E700008951F920F920FB60F920BB60F92112486
:100E80002F933F938F939F93EF93FF932091AF0402
:100E90003091B0048091B1049091B20428173907C1
:100EA00031F48091C1008F7D8093C10014C0E09126
:100EB000B104F091B204E159FB4F20818091B1045B
:100EC0009091B20401968F7390709093B2048093C6
:100ED000B1042093C600FF91EF919F918F913F91B4
:100EE0002F910F900BBE0F900FBE0F901F90189573
:100EF0001F920F920FB60F920BB60F9211242F93E1
:100F00003F938F939F93EF93FF93209137053091F9
:100F100038058091390590913A052817390731F441
:100F20008091C9008F7D8093C90014C0E09139057C
:100F3000F0913A05E950FB4F20818091390590915D
:100F40003A0501968F73907090933A058093390516
:100F50002093CE00FF91EF919F918F913F912F9120
:100F60000F900BBE0F900FBE0F901F9018951F9201
:100F70000F920FB60F920BB60F9211242F933F933F
:100F80008F939F93EF93FF932091BF053091C005FE
:100F90008091C1059091C2052817390731F48091DD
:100FA000D1008F7D8093D10014C0E091C105F091F4
:100FB000C205E158FA4F20818091C1059091C20588
:100FC00001968F7390709093C2058093C105209312
:100FD000D600FF91EF919F918F913F912F910F90AC
:100FE0000BBE0F900FBE0F901F9018951F920F927F
:100FF0000FB60F920BB60F9211242F933F938F933E
:101000009F93EF93FF93209147063091480680917C
:10101000490690914A062817390731F48091310129
:101020008F7D8093310114C0E0914906F0914A060A
:10103000E95FF94F20818091490690914A06019617
:101040008F73907090934A068093490620933601DF
:10105000FF91EF919F918F913F912F910F900BBE38
:101060000F900FBE0F901F9018958F929F92AF9286
:10107000BF92CF92DF92EF92FF920F931F93DF9375
:10108000CF93CDB7DEB7FC011382128288EE93E0D6
:10109000A0E0B0E084839583A683B78382ED92E0DD
:1010A000918380837587648757874687318B208B30
:1010B000138B028BF58AE48AD78AC68AB18EA08EFA
:1010C000938E828E8889848F8989858F8A89868F7D
:1010D0008B89878F8C8980A3CF91DF911F910F918E
:1010E000FF90EF90DF90CF90BF90AF909F908F9048
:1010F00008958F929F92AF92BF92CF92DF92EF921C
:10110000FF920F931F93DF93CF93CDB7DEB7FC0110
:101110001382128288EE93E0A0E0B0E0848395838E
:10112000A683B78382ED92E091838083758764877D
:1011300057874687318B208B138B028BF58AE48A85
:10114000D78AC68AB18EA08E938E828E8889848F2C
:101150008989858F8A89868F8B89878F8C8980A3DF
:10116000CF91DF911F910F91FF90EF90DF90CF9083
:10117000BF90AF909F908F900895AF92BF92DF92F3
:10118000EF92FF920F931F93CF93DF93EC017A01BD
:101190008B01DD24403081EE580780E0680780E055
:1011A000780711F0DD24D39491E0A92EB12CEC89BD
:1011B000FD89DD2069F0C50108A002C0880F991FD4
:1011C0000A94E2F7808360E079E08DE390E005C067
:1011D000108260E874E88EE190E0A80197010E9417
:1011E000E42B21503040404050405695479537956C
:1011F000279580E12030380720F0DD2011F0DD2434
:10120000D6CFE889F9893083EA89FB89208319A23E
:10121000EE89FF89408121E030E0C9010C8C02C0D9
:10122000880F991F0A94E2F7482B4083EE89FF89C3
:101230004081C9010D8C02C0880F991F0A94E2F702
:10124000482B4083EE89FF894081C9010E8C02C082
:10125000880F991F0A94E2F7482B4083EE89FF8993
:1012600080810F8C02C0220F331F0A94E2F7209571
:1012700028232083DF91CF911F910F91FF90EF9052
:10128000DF90BF90AF900895AF92BF92CF92DF9260
:10129000EF92FF920F931F93CF93DF93EC017A01AC
:1012A0008B01C22EDD24403081EE580780E06807B4
:1012B00080E0780711F0DD24D39471E0A72EB12CE3
:1012C000EC89FD89DD2069F0C50108A002C0880F06
:1012D000991F0A94E2F7808360E079E08DE390E063
:1012E00005C0108260E874E88EE190E0A8019701E3
:1012F0000E94E42B21503040404050405695479585
:101300003795279580E12030380720F0DD2011F057
:10131000DD24D6CFE889F9893083EA89FB892083E7
:10132000E88DF98DC082EE89FF89408121E030E0AF
:10133000C9010C8C02C0880F991F0A94E2F7482B50
:101340004083EE89FF894081C9010D8C02C0880F5E
:10135000991F0A94E2F7482B4083EE89FF89408168
:10136000C9010E8C02C0880F991F0A94E2F7482B1E
:101370004083EE89FF8980810F8C02C0220F331FCA
:101380000A94E2F7209528232083DF91CF911F91C3
:101390000F91FF90EF90DF90CF90BF90AF900895A6
:1013A000CF93DF93DC011E968D919C911F97EC01EA
:1013B000C05CDF4FFC01EE5BFF4F288139818081EB
:1013C000918128173907C9F75696ED91FC915797E7
:1013D000408121E030E0C9015C960C905C9702C02E
:1013E000880F991F0A94E2F780958423808356968C
:1013F000ED91FC9157974081C9015D960C905D97E6
:1014000002C0880F991F0A94E2F780958423808395
:101410005696ED91FC9157974081C9015E960C90CC
:101420005E9702C0880F991F0A94E2F78095842383
:1014300080835696ED91FC91579780815F960C9032
:101440005F9702C0220F331F0A94E2F720952823EA
:1014500020831C96ED91FC911D97EE5BFF4F8081E0
:10146000918192938293DF91CF910895DC011C9634
:10147000ED91FC911D97E05CFF4F219131918081AE
:101480009181281B390B2F733070C9010895DC013D
:101490001C96ED91FC911D97E05CFF4F20813181FE
:1014A000E054F040DF01AE5BBF4F8D919C911197EE
:1014B0002817390719F42FEF3FEF07C08D919C9142
:1014C000E80FF91F8081282F30E0C9010895DC0161
:1014D0001C96ED91FC911D97E05CFF4F20813181BE
:1014E000E054F040DF01AE5BBF4F8D919C911197AE
:1014F0002817390719F42FEF3FEF10C08D919C91F9
:101500001197E80FF91F20818D919C9111970196F9
:101510008F73907011969C938E9330E0C90108955B
:10152000DC0191968C919197882339F05496ED9136
:10153000FC915597808186FFF9CF91961C92089572
:10154000CF93DF93EC01EE85FF85E05CFF4F2081B8
:101550003181E054F0402F5F3F4F2F733070DF0137
:10156000AE5BBF4F8D919C91119728173907D1F32E
:10157000E05CFF4F80819181E054F040E80FF91F5B
:101580006083EE85FF85E05CFF4F31832083EE8929
:10159000FF89208181E090E00F8C02C0880F991FA5
:1015A0000A94E2F7282B208381E089A3EC89FD8946
:1015B00080818064808381E090E0DF91CF91089505
:1015C00081E008951F9310924E0610924D0628EE6A
:1015D00033E040E050E020934F06309350064093B4
:1015E00051065093520662ED72E070934C06609380
:1015F0004B068BE294E090935806809357068FE653
:1016000094E090935A068093590685EC90E090936D
:101610005C0680935B0684EC90E090935E0680937A
:101620005D0680EC90E09093600680935F0681EC0D
:1016300090E0909362068093610682EC90E0909334
:1016400064068093630686EC90E090936606809330
:10165000650614E010936706B3E0B0936806A7E050
:10166000A0936906F5E0F0936A06E1E0E0936B066B
:101670001092700610926F062093710630937206D6
:10168000409373065093740670936E0660936D06D4
:1016900083EB94E090937A068093790687EF94E049
:1016A00090937C0680937B068DEC90E090937E0671
:1016B00080937D068CEC90E09093800680937F066B
:1016C00088EC90E0909382068093810689EC90E00C
:1016D00090938406809383068AEC90E0909386062C
:1016E000809385068EEC90E0909388068093870621
:1016F00010938906B0938A06A0938B06F0938C060C
:10170000E0938D0610929206109291062093930614
:1017100030939406409395065093960670939006E6
:1017200060938F068BE395E090939C0680939B06D5
:101730008FE795E090939E0680939D0685ED90E05F
:101740009093A00680939F0684ED90E09093A2066C
:101750008093A10680ED90E09093A4068093A30669
:1017600081ED90E09093A6068093A50682ED90E02F
:101770009093A8068093A70686ED90E09093AA0622
:101780008093A9061093AB06B093AC06A093AD0668
:10179000F093AE06E093AF061092B4061092B30633
:1017A0002093B5063093B6064093B7065093B8061B
:1017B0007093B2066093B10683EC95E09093BE06F9
:1017C0008093BD0687E096E09093C0068093BF06A5
:1017D00085E391E09093C2068093C10684E391E093
:1017E0009093C4068093C30680E391E09093C6066D
:1017F0008093C50681E391E09093C8068093C70665
:1018000082E391E09093CA068093C90686E391E053
:101810009093CC068093CB061093CD06B093CE0662
:10182000A093CF06F093D006E093D1061F910895C0
:10183000CF92DF92EF92FF920F931F93CF93DF939C
:101840007C016B018A01C0E0D0E00FC0D6016D9130
:101850006D01D701ED91FC910190F081E02DC70160
:101860001995C80FD91F015010400115110571F7C6
:10187000CE01DF91CF911F910F91FF90EF90DF90FC
:10188000CF900895EF92FF920F931F93CF93DF9322
:101890007C018B01C0E0D0E0F8010F5F1F4F649125
:1018A000662359F0D701ED91FC910190F081E02D74
:1018B000C7011995C80FD91FEFCFCE01DF91CF9186
:1018C0001F910F91FF90EF900895DC01ED91FC9135
:1018D0000190F081E02D199508959C01DB01ED91B7
:1018E000FC910190F081E02DCB01B901199508958B
:1018F000EF92FF920F931F938C01DC01ED91FC910D
:101900000190F081E02D6DE019957C01D801ED91F9
:10191000FC910190F081E02DC8016AE019959C01CD
:101920002E0D3F1DC9011F910F91FF90EF9008955B
:10193000EF92FF920F931F937C010E94420C8C0147
:10194000C7010E94780C9C01200F311FC9011F9113
:101950000F91FF90EF900895EF92FF920F931F93D6
:101960007C01DC01ED91FC910190F081E02D199555
:101970008C01C7010E94780C080F191FC8011F9124
:101980000F91FF90EF900895EF92FF920F931F93A6
:101990007C01DB01ED91FC910190F081E02DCB0108
:1019A000B70119958C01C7010E94780C080F191F07
:1019B000C8011F910F91FF90EF900895CF93DF938F
:1019C000EC016115710519F420E030E00FC0DB0176
:1019D0000D900020E9F71197A61BB70BE881F9815C
:1019E0000280F381E02DAD0119959C01C901DF91C1
:1019F000CF9108954F925F927F928F929F92AF9274
:101A0000BF92CF92DF92EF92FF920F931F93DF93DB
:101A1000CF93CDB7DEB7A1970FB6F894DEBF0FBE58
:101A2000CDBF2C01742ECB01223008F42AE019A27C
:101A300031E2C32ED12CCC0EDD1E822E9924AA2495
:101A4000BB24672D752FA50194010E94E42B790119
:101A50008A01C801B701A50194010E94C52B472D39
:101A6000461B0894C108D1084A3010F4405D01C0FB
:101A7000495CF6014083E114F1040105110521F0F0
:101A80007E2C5F2DC801DDCFC201B6010E94DE0CA5
:101A9000A1960FB6F894DEBF0FBECDBFCF91DF91F8
:101AA0001F910F91FF90EF90DF90CF90BF90AF907C
:101AB0009F908F907F905F904F900895DC0121154B
:101AC000310541F4ED91FC910190F081E02D642FFE
:101AD000199508950E94FA0C0895EF92FF920F93C2
:101AE0001F937C010E945E0D8C01C7010E94780C3F
:101AF0009C01200F311FC9011F910F91FF90EF90A2
:101B00000895EF92FF920F931F939A017B0100E0DB
:101B100010E0B801A7010E945E0D1F910F91FF9088
:101B2000EF900895CF92DF92EF92FF920F931F9361
:101B30006C017B019A0100E010E0B801A7010E944E
:101B40005E0D8C01C6010E94780C080F191FC80198
:101B50001F910F91FF90EF90DF90CF900895EF923B
:101B6000FF920F931F939A01E62EFF2400E010E0EE
:101B7000B801A7010E945E0D1F910F91FF90EF9099
:101B80000895CF92DF92EF92FF920F931F936C0113
:101B9000E62E9A01FF2400E010E0B801A7010E94A0
:101BA0005E0D8C01C6010E94780C080F191FC80138
:101BB0001F910F91FF90EF90DF90CF900895CF92FB
:101BC000DF92EF92FF920F931F93CF93DF93EC017D
:101BD0006A017B012115310541F4E881F981019009
:101BE000F081E02D642F19951FC02A303105D1F402
:101BF00077FF17C0E881F9810190F081E02D6DE257
:101C000019958C0144275527BA014C195D096E09B5
:101C10007F09CE012AE00E94FA0C9801280F391F93
:101C200004C02AE00E94FA0C9C01C901DF91CF9107
:101C30001F910F91FF90EF90DF90CF900895EF925A
:101C4000FF920F931F937C010E94DF0D8C01C7014F
:101C50000E94780C9C01200F311FC9011F910F9128
:101C6000FF90EF900895EF92FF920F931F937B01E7
:101C70009A010027F7FC0095102FB801A7010E94D8
:101C8000DF0D1F910F91FF90EF900895CF92DF929B
:101C9000EF92FF920F931F936C017B019A01002733
:101CA000F7FC0095102FB801A7010E94DF0D8C01F1
:101CB000C6010E94780C080F191FC8011F910F91CF
:101CC000FF90EF90DF90CF9008950E94DE0C089572
:101CD0007F928F929F92AF92BF92CF92DF92EF92BC
:101CE000FF920F931F93CF93DF934C017A018B01E7
:101CF000722ECB01BA01A80197010E9464228823A9
:101D000021F0C4016EEE72E021C0C0E0D0E05701C6
:101D10006801E894D7F8C601B5012FEF3FEF4FE710
:101D20005FE70E946422882351F4C601B5012FEFBA
:101D30003FEF4FE75FE70E943422181614F0C1E02E
:101D4000D0E0219739F0C40162EF72E00E94DE0C0E
:101D5000EC0193C0C801B7012FEF3FEF4FE75FE4FD
:101D60000E94A421181654F0C801B7012FEF3FEFCD
:101D70004FE75FEC0E940422882324F4C40166EF3D
:101D800072E0E4CFC801B70120E030E040E050E06D
:101D90000E94042287FD03C0C0E0D0E00EC0D40141
:101DA000ED91FC910190F081E02DC4016DE2199557
:101DB000EC0117FB109517F9109520E030E040E09A
:101DC0005FE3DD240BC0CA01B90120E030E040E24E
:101DD00051E40E94F8209B01AC01D394D71498F3EE
:101DE000C801B7010E94D11F5B016C010E94281E2F
:101DF0007B018C01C401B801A7012AE030E00E94F8
:101E00005E0DC80FD91F772039F0C4016AEF72E068
:101E10000E94DE0CC80FD91FC801B7010E944123E0
:101E20009B01AC01C601B5010E94A01F24C020E0A7
:101E300030E040E251E40E94FE1F7B018C010E94D1
:101E4000ED225B016C01CC24B7FCC094DC2CC401F6
:101E5000B601A5012AE030E00E94DF0DC80FD91FAE
:101E6000C601B5010E948F229B01AC01C801B701D8
:101E70000E94A01F7A947720D1F6CE01DF91CF91F6
:101E80001F910F91FF90EF90DF90CF90BF90AF9098
:101E90009F908F907F9008950E94680E0895EF9212
:101EA000FF920F931F937C010E94680E8C01C70163
:101EB0000E94780C080F191FC8011F910F91FF9005
:101EC000EF900895EF92FF920F931F937C010E9471
:101ED000DE0C8C01C7010E94780C080F191FC80185
:101EE0001F910F91FF90EF900895AF92BF92CF9204
:101EF000DF92EF92FF920F931F93CF93DF935C01DA
:101F00006B01EE24FF24C0E0D0E010C0D501ED91BC
:101F1000FC9100811181C601BE010E949912682FB7
:101F2000C501F8011995E80EF91E2196F601848184
:101F30009581C817D90750F3C701DF91CF911F9141
:101F40000F91FF90EF90DF90CF90BF90AF900895EA
:101F5000EF92FF920F931F937C010E94750F8C01EB
:101F6000C7010E94780C9C01200F311FC9011F91ED
:101F70000F91FF90EF900895FC0144835583668391
:101F800077830895CF93DF93EC010E94191C688733
:101F900079878A879B87E881F9810084F185E02D24
:101FA000CE0119959C0197FF15C00E94191C288528
:101FB00039854A855B85621B730B840B950B2C81DD
:101FC0003D814E815F81621773078407950718F37F
:101FD0002FEF3FEFC901DF91CF910895CF93DF93AA
:101FE000EC01CE010E94C20F9C0197FD0EC08D3204
:101FF000910559F0C0970A9740F0E881F981068071
:10200000F781E02DCE011995ECCFC901DF91CF9179
:1020100008956F927F928F929F92AF92BF92CF92CC
:10202000DF92EF92FF920F931F93CF93DF93EC0118
:10203000662E0E94EE0F982E77248824EE24FF242B
:1020400087010F2EF0E0AF2EF0E0BF2EF0E8CF2E8C
:10205000FFE3DF2EF02D961491F18DE2981619F41E
:10206000772473942CC09EE2991619F488248394E3
:1020700026C0892D80538A3010F5C801B7012AE0A7
:1020800030E040E050E00E94C52B7B018C01E90C60
:10209000F11C011D111D80ED9FEFAFEFBFEFE80EAA
:1020A000F91E0A1F1B1F882051F0C601B5012DEC37
:1020B0003CEC4CEC5DE30E94FE1F5B016C01E8818F
:1020C000F9810680F781E02DCE011995CE010E949D
:1020D000C20F982F982E80538A3008F4BCCF9E32BE
:1020E00009F4B9CF961509F4B6CF772041F01095D1
:1020F0000095F094E094E11CF11C011D111D882055
:1021000049F0C801B7010E948F22A60195010E94E3
:10211000FE1F04C0C801B7010E948F22DF91CF913A
:102120001F910F91FF90EF90DF90CF90BF90AF90F5
:102130009F908F907F906F90089561E00E940910AA
:1021400008959F92AF92BF92CF92DF92EF92FF924B
:102150000F931F93CF93DF936C01B62E0E94EE0F67
:10216000EC0197FF04C0EE24FF2487014AC09924A4
:10217000EE24FF248701AB2CBB24CA15DB0529F113
:10218000CD32D10519F4992493941FC0CE01C09784
:102190000A97D8F4C801B7012AE030E040E050E0E7
:1021A0000E94C52B7B018C01CE01AA2797FDA0952B
:1021B000BA2FE80EF91E0A1F1B1F80ED9FEFAFEF2D
:1021C000BFEFE80EF91E0A1F1B1FD601ED91FC910F
:1021D0000680F781E02DC6011995C6010E94C20F45
:1021E000EC01C0970A9748F2CA15DB0531F2992035
:1021F00041F010950095F094E094E11CF11C011D54
:10220000111DB701C801DF91CF911F910F91FF9070
:10221000EF90DF90CF90BF90AF909F90089561E0D6
:102220000E94A1100895CF93DF93EC010E94191C26
:10223000688779878A879B87E881F9810680F7819B
:10224000E02DCE0119959C0197FF15C00E94191C25
:10225000288539854A855B85621B730B840B950B3A
:102260002C813D814E815F8162177307840795073A
:1022700018F32FEF3FEFC901DF91CF910895CF926F
:10228000DF92FF920F931F93CF93DF93082FF92EC6
:102290006B01142F64E073E00E94B818C6010E941D
:1022A0001311BC01C12FD0E008C0802F9F2D0E94C8
:1022B000C117C6010E941311BC0177FD03C06C1742
:1022C0007D0799F7802F9F2DDF91CF911F910F915F
:1022D000FF90DF90CF9008950F931F93CF93DF93DC
:1022E000182F092FEB0164E073E00E94B81804C0B6
:1022F000812F902F0E94C117CE010E941311BC01A3
:1023000097FFF6CF812F902FDF91CF911F910F91E3
:102310000895AF92BF92CF92DF92EF92FF920F9308
:102320001F93CF93DF935C017A0189012115310559
:1023300019F4C0E0D0E014C0C0E0D0E0C62EDD2427
:102340000CC0C5010E94131197FD0AC08C159D0594
:1023500039F0F70181937F012196C017D10788F3E7
:10236000CE01DF91CF911F910F91FF90EF90DF9001
:10237000CF90BF90AF900895CF92DF92EF92FF92EF
:102380000F931F93CF93DF936C018B017A01C0E011
:10239000D0E009C0C6010E94131197FD07C0F801E3
:1023A00081938F012196CE15DF05A0F3CE01DF9139
:1023B000CF911F910F91FF90EF90DF90CF900895F4
:1023C0006F927F928F929F92AF92BF92CF92DF9245
:1023D000EF92FF920F931F93CF93DF933C017B010A
:1023E0004A0159016801FB0180818823A1F1C0E005
:1023F000D0E027C0F701EC0FFD1F808190E0281787
:10240000390711F0C0E0D0E0F701EC0FFD1F80812B
:1024100090E02817390721F42196C815D905D8F47A
:10242000C114D10471F0F501E00FF11F808190E03B
:102430002817390731F40F5F1F4F0C151D0518F0D1
:102440000CC000E010E0C3010E9413119C0118169B
:10245000190684F202C081E001C080E0DF91CF91D3
:102460001F910F91FF90EF90DF90CF90BF90AF90B2
:102470009F908F907F906F9008950F931F939A0174
:10248000DB010D900020E9F7AD0141505040461BA3
:10249000570BD9010D900020E9F71197A21BB30B40
:1024A0008D010E94E0111F910F91089540E050E0CE
:1024B0000E943D1208950F931F9320E030E000E04A
:1024C00010E00E94E0111F910F910895FC0184819A
:1024D00095816817790748F40190F081E02D3097D5
:1024E00021F0E60FF71F8081089580E00895FC0138
:1024F000848195816817790730F40190F081E02D8F
:10250000E60FF71F40830895FC019B0184819581AC
:102510006817790728F4608171816115710529F4C4
:102520001092D30663ED76E002C0620F731FCB01F9
:102530000895FC01848195816817790748F401901A
:10254000F081E02D309721F0E60FF71F808108958C
:1025500080E00895FC010190F081E02D309729F48E
:102560000895861709F44083319680818823C9F73E
:102570000895FC0180819181009729F420E030E0EA
:1025800040E050E004C00E94AF259B01AC01B901BE
:10259000CA010895CF92DF92EF92FF920F931F939B
:1025A000CF93DF936C01DC01ED90FC901197E11467
:1025B000F104E9F11496CD91DC9115972097B9F1CA
:1025C000870102C00F5F1F4FF801808190E00E94D9
:1025D000432C892BB9F72197CE0DDF1D01C0219720
:1025E000888190E00E94432C892B19F0C017D107F5
:1025F000B0F7FE013196E01BF10BD6011596FC9366
:10260000EE9314972D913C912017310728F4C901BE
:10261000B801AF010E94D625D601ED91FC9111972A
:1026200014968D919C911597E80FF91F1082DF91F8
:10263000CF911F910F91FF90EF90DF90CF90089571
:10264000CF93DF93FC01C081D181209729F407C08B
:1026500090E00E94532C899388818823C9F7DF91E9
:10266000CF910895CF93DF93FC01C081D181209752
:1026700029F407C090E00E944B2C8993888188231D
:10268000C9F7DF91CF910895EF92FF920F931F93B7
:10269000CF93DF93FC01DB018617970719F12481A3
:1026A000358114968D919C91159728173907E1F47F
:1026B000232BC1F0E080F180CD91DC910FC090E040
:1026C0000E944B2C8C01888190E00E944B2C0817B3
:1026D000190751F40894E11CF11C2196F70180813F
:1026E000882369F781E001C080E0DF91CF911F91DD
:1026F0000F91FF90EF900895AF92BF92CF92DF922B
:10270000EF92FF920F931F93CF93DF93FC015B0136
:102710007A01DB0114962D913C9115972115310515
:1027200059F184819581009739F18217930720F13F
:102730004817590720F07C010894E108F10800814E
:102740001181C801CFEFDFEF6801CE0CDF1C10C094
:10275000F501608171810E943F269C01009771F014
:10276000801B910BE816F90608F0EC01C9010196EF
:10277000C816D90668F702C0CFEFDFEFCE01DF91B0
:10278000CF911F910F91FF90EF90DF90CF90BF906E
:10279000AF900895FC01DB014481558114968D9121
:1027A0009C911597481B590BCF010E947C130895EB
:1027B000CF93DF93FC01DB01848195814817590792
:1027C00060F4C081D1816D917C91CE01840F951F01
:1027D0000E943F269C01009719F42FEF3FEF02C0A3
:1027E0002C1B3D0BC901DF91CF91089540E050E0D3
:1027F0000E94D8130895DF92EF92FF920F931F93D8
:10280000CF93DF93EC018C819D8148175907B8F471
:102810007A010894E11CF11CE881F981EE0DFF1D9D
:10282000D080108208811981C80170E00E9434268E
:102830009C010E0D1F1DF801D082009719F4EFEFD7
:10284000FFEF05C088819981F901E81BF90BCF01E1
:10285000DF91CF911F910F91FF90EF90DF9008953E
:10286000FC0144815581415050400E94FB13089562
:10287000CF93DF93FC01848195814817590758F461
:10288000C081D181CE01840F951F70E00E94FC258C
:102890009C01009719F42FEF3FEF02C02C1B3D0B5A
:1028A000C901DF91CF91089540E050E00E943814B3
:1028B00008950F931F93CF93DF93FC018B01411574
:1028C0005105F9F061157105E1F0848195812817B2
:1028D000390718F0FB01108214C041505040EC0140
:1028E000C21BD30B4C175D0708F4EA0160817181AC
:1028F000620F731FC801AE010E942526C00FD11FB1
:102900001882DF91CF911F910F910895FC01DB0197
:102910002481358114964D915C91159724173507C4
:10292000A8F080819181009789F06D917C9161156B
:10293000710561F0241B350B820F931F0E9407263F
:102940009C0180E0232B19F481E0089580E0089534
:10295000DC01FB0114968D919C911597892B31F424
:1029600061157105A9F090E0808108C00D90BC91BF
:10297000A02D6115710529F490E08C91882349F40C
:1029800007C0CD010E9407269C0190E0232B09F48B
:1029900091E0892F0895CF93DF939C01FB01EC0117
:1029A000A881B981109729F0608171816115710545
:1029B000D1F4C081D181209759F084819581892BF0
:1029C00039F0888190E022273327281B390B12C069
:1029D000109771F0F90184819581892B49F08C91D0
:1029E000282F30E007C0CD010E9407269C0102C0BD
:1029F00020E030E0C901DF91CF9108950E94CB140F
:102A0000892F8095881F8827881F08950E94CB14DE
:102A100020E0181619060CF021E0822F08950E947C
:102A2000CB1420E0181619060CF421E0822F08952B
:102A30000E94CB14892F881F8827881F0895FC01C6
:102A4000DB012481358114968D919C91159728176F
:102A5000390711F020E007C0CF010E94CB1420E01D
:102A6000892B09F421E0822F0895FC01DB011496E3
:102A70002D913C91159784819581821B930B84172E
:102A80009507A0F080819181009781F06D917C91F4
:102A90006115710559F0840F951FA9010E94172631
:102AA0009C0180E0232B19F481E0089580E00895D3
:102AB000FC01DB012481358114968D919C91159741
:102AC0002817390710F480E00895CF0140E050E066
:102AD0000E94351508950F931F93CF93DF93EC0158
:102AE0008B016F5F7F4F888199810E94E42A009754
:102AF00011F480E005C0998388831B830A8381E0F9
:102B0000DF91CF911F910F9108952F923F924F9295
:102B10005F926F927F928F929F92AF92BF92CF926D
:102B2000DF92EF92FF920F931F93CF93DF935C019D
:102B30002B014A01DC0114960D911C91159701158A
:102B4000110509F4D4C0FB01C480D580C114D1049F
:102B500009F4CDC0DA0114966D907C9015976C182D
:102B60007D08FC01E080F1806114710491F01BC0CC
:102B7000D4016C9111967C91119714964D915C91B2
:102B800015978C2F0E94D625F401E480F580EC0E79
:102B9000FD1ED2016D917C91C7010E943F26EC0180
:102BA000009731F7A4C077FE02C067012EC0FB0179
:102BB00020803180E8013CC08E010E191F09C6013A
:102BC000B701A8010E94D6250C0D1D1DD4016C91E2
:102BD00011967C91119714964D915C911597C801AF
:102BE0000E94D625F401C480D580C00ED11ED2012A
:102BF0001496ED90FC901597EC0EFD1EF501848166
:102C00009581860D971D95838483D2016D917C916A
:102C1000C7010E943F26EC01009771F6C601B7017B
:102C20000E94102664C07B01EC0CFD1CC60DD71D54
:102C3000C701B1010E943F26BC010097A1F7C01750
:102C4000D10709F454C0F501828193818C179D0747
:102C500008F044C0C501BE010E946B158823F1F540
:102C600046C0C501B201A9010E947C13EC0197FD89
:102C70003EC0D5016D917C911197F20184819581BF
:102C80008C0F9D1F680F791F14964D915C911597BD
:102C9000481B590BCB01860D971D0E94DF25D501DE
:102CA00014968D919C911597860D971D15969C9362
:102CB0008E931497ED91FC911197E80FF91F1082F4
:102CC0002D913C912C0F3D1FF40160817181448155
:102CD0005581C9010E94D6259E0105C0D5011496D3
:102CE0002D913C9115972150304037FFBACFDF919D
:102CF000CF911F910F91FF90EF90DF90CF90BF90F9
:102D0000AF909F908F907F906F905F904F903F908B
:102D10002F900895CF93DF93EC0188819981892BBF
:102D200029F08A819B818617970760F4CE010E9463
:102D30006B15882341F08C819D81892B19F4E881E2
:102D4000F981108281E0DF91CF910895EF92FF9297
:102D50000F931F93CF93DF93EC017B016C817D81F7
:102D6000E114F104C1F04115510599F08A01060FF3
:102D7000171FB8010E948A16882369F088819981FB
:102D80002C813D81820F931FB7010E9410261D8365
:102D90000C8381E001C080E0DF91CF911F910F9102
:102DA000FF90EF900895EF92FF920F931F93DF93A0
:102DB000CF93CDB7DEB72B970FB6F894DEBF0FBE1B
:102DC000CDBF7C01CB01BA018E010F5F1F4FA8015F
:102DD0002AE030E00E94C326F80101900020E9F7C4
:102DE0003197E01BF10BC701B801AF010E94A61695
:102DF0002B960FB6F894DEBF0FBECDBFCF91DF91FB
:102E00001F910F91FF90EF900895EF92FF920F9313
:102E10001F93DF93CF93CDB7DEB72C970FB6F894FF
:102E2000DEBF0FBECDBF7C01CB01BA018E010F5FAB
:102E30001F4FA8012AE030E00E947A26F801019095
:102E40000020E9F73197E01BF10BC701B801AF0192
:102E50000E94A6162C960FB6F894DEBF0FBECDBF0B
:102E6000CF91DF911F910F91FF90EF900895EF9216
:102E7000FF920F931F93DF93CF9300D000D0CDB775
:102E8000DEB77C01CB018E010F5F1F4FB8014AE016
:102E900050E00E94E826F80101900020E9F7319700
:102EA000E01BF10BC701B801AF010E94A6162696E0
:102EB0000FB6F894DEBF0FBECDBFCF91DF911F914B
:102EC0000F91FF90EF900895EF92FF920F931F9351
:102ED000DF93CF93CDB7DEB727970FB6F894DEBF59
:102EE0000FBECDBF7C01CB018E010F5F1F4FB8011C
:102EF0004AE050E00E945926F80101900020E9F7CD
:102F00003197E01BF10BC701B801AF010E94A61673
:102F100027960FB6F894DEBF0FBECDBFCF91DF91DD
:102F20001F910F91FF90EF900895EF92FF920F93F2
:102F30001F93DF93CF9300D00F92CDB7DEB77C0104
:102F4000862F90E08E010F5F1F4FB8014AE050E0DE
:102F50000E945926F80101900020E9F73197E01B03
:102F6000F10BC701B801AF010E94A6160F900F9098
:102F70000F900F90CF91DF911F910F91FF90EF90E5
:102F80000895DF93CF930F920F92CDB7DEB7698389
:102F90001A82BE016F5F7F4F41E050E00E94A6168B
:102FA0000F900F90CF91DF9108956115710511F485
:102FB00080E00895DB010D900020E9F71197A61B32
:102FC000B70BAD010E94A6160895FB0160817181C7
:102FD000448155810E94A6160895CF93DF93EC019A
:102FE00088819981009711F00E944C2A19821882D9
:102FF0001D821C821B821A82DF91CF9108950F934C
:103000001F93182F092F0E94D316882321F4812F94
:10301000902F0E94ED17812F902F1F910F910895EF
:103020000F931F93182F092F0E940517882321F44F
:10303000812F902F0E94ED17812F902F1F910F91BC
:1030400008950F931F93182F092F0E943717882375
:1030500021F4812F902F0E94ED17812F902F1F9127
:103060000F9108950F931F93182F092F0E94641733
:10307000882321F4812F902F0E94ED17812F902F0C
:103080001F910F9108950F931F93182F092F0E94DE
:103090009517882321F4812F902F0E94ED17812FFF
:1030A000902F1F910F9108950F931F93182F092FA1
:1030B0000E94C117882321F4812F902F0E94ED17C1
:1030C000812F902F1F910F9108950F931F93182F09
:1030D000092F6115710561F0DB010D900020E9F702
:1030E0001197A61BB70BAD010E94A616882321F4E9
:1030F000812F902F0E94ED17812F902F1F910F91FC
:1031000008950F931F93182F092FFB016081718180
:10311000448155810E94A616882321F4812F902F87
:103120000E94ED17812F902F1F910F910895EF921C
:10313000FF920F931F93CF93DF93EC017B018A01E2
:10314000BA010E948A16882321F4CE010E94ED174D
:1031500007C01D830C8388819981B7010E941026C6
:10316000CE01DF91CF911F910F91FF90EF900895C5
:10317000CF93DF93EC01198218821B821A821D8281
:103180001C821E826115710551F0DB010D9000203B
:10319000E9F71197A61BB70BAD010E949718DF91B5
:1031A000CF910895CF93DF93EC01198218821B828F
:1031B0001A821D821C821E826115710551F0DB018D
:1031C0000D900020E9F71197A61BB70BAD010E94E7
:1031D0009718DF91CF9108950F931F93182F092F00
:1031E0006115710559F0DB010D900020E9F7119789
:1031F000A61BB70BAD010E94971802C00E94ED17E5
:10320000812F902F1F910F910895EF92FF920F93AE
:103210001F93DF93CF93CDB7DEB7A1970FB6F89486
:10322000DEBF0FBECDBF8C01FC0111821082138264
:103230001282158214821682CB01BA017E01089493
:10324000E11CF11CA70130E00E94C326C801B701B0
:103250000E94EC18A1960FB6F894DEBF0FBECDBF4A
:10326000CF91DF911F910F91FF90EF900895EF9212
:10327000FF920F931F93DF93CF93CDB7DEB7A19744
:103280000FB6F894DEBF0FBECDBF8C01FC011182DA
:10329000108213821282158214821682CB01BA0127
:1032A0007E010894E11CF11CA70130E00E94C326B6
:1032B000C801B7010E94EC18A1960FB6F894DEBFC2
:1032C0000FBECDBFCF91DF911F910F91FF90EF9077
:1032D0000895EF92FF920F931F93DF93CF93CDB793
:1032E000DEB7A2970FB6F894DEBF0FBECDBF8C013C
:1032F000FC011182108213821282158214821682BE
:10330000CB01BA017E010894E11CF11CA70130E059
:103310000E947A26C801B7010E94EC18A2960FB647
:10332000F894DEBF0FBECDBFCF91DF911F910F91FB
:10333000FF90EF900895EF92FF920F931F93DF930A
:10334000CF93CDB7DEB7A2970FB6F894DEBF0FBE0E
:10335000CDBF8C01FC011182108213821282158272
:1033600014821682CB01BA017E010894E11CF11C83
:10337000A70130E00E947A26C801B7010E94EC182C
:10338000A2960FB6F894DEBF0FBECDBFCF91DF91EE
:103390001F910F91FF90EF900895EF92FF920F937E
:1033A0001F93DF93CF93CDB7DEB761970FB6F89435
:1033B000DEBF0FBECDBF8C01CB01F80111821082A0
:1033C000138212821582148216827E010894E11CF7
:1033D000F11CB70150E00E94E826C801B7010E9425
:1033E000EC1861960FB6F894DEBF0FBECDBFCF913B
:1033F000DF911F910F91FF90EF900895EF92FF9250
:103400000F931F93DF93CF93CDB7DEB761970FB6BE
:10341000F894DEBF0FBECDBF8C01CB01F801118245
:103420001082138212821582148216827E01089401
:10343000E11CF11CB70150E00E94E826C801B70169
:103440000E94EC1861960FB6F894DEBF0FBECDBF98
:10345000CF91DF911F910F91FF90EF900895EF9220
:10346000FF920F931F93DF93CF93CDB7DEB7629791
:103470000FB6F894DEBF0FBECDBF8C01CB01F801B3
:1034800011821082138212821582148216827E01AA
:103490000894E11CF11CB70150E00E945926C801B4
:1034A000B7010E94EC1862960FB6F894DEBF0FBE0B
:1034B000CDBFCF91DF911F910F91FF90EF900895B5
:1034C000EF92FF920F931F93DF93CF93CDB7DEB7A9
:1034D00062970FB6F894DEBF0FBECDBF8C01CB0153
:1034E000F8011182108213821282158214821682D0
:1034F0007E010894E11CF11CB70150E00E9459269E
:10350000C801B7010E94EC1862960FB6F894DEBFAE
:103510000FBECDBFCF91DF911F910F91FF90EF9024
:103520000895EF92FF920F931F93DF93CF93CDB740
:10353000DEB729970FB6F894DEBF0FBECDBF8C0162
:10354000862FF80111821082138212821582148252
:10355000168290E07E010894E11CF11CB70150E056
:103560000E94E826C801B7010E94EC1829960FB600
:10357000F894DEBF0FBECDBFCF91DF911F910F91A9
:10358000FF90EF900895EF92FF920F931F93DF93B8
:10359000CF93CDB7DEB729970FB6F894DEBF0FBE35
:1035A000CDBF8C01862FF801118210821382128206
:1035B00015821482168290E07E010894E11CF11CB1
:1035C000B70150E00E94E826C801B7010E94EC183C
:1035D00029960FB6F894DEBF0FBECDBFCF91DF9115
:1035E0001F910F91FF90EF900895DF93CF930F926B
:1035F0000F92CDB7DEB7FC011182108213821282C6
:1036000015821482168269831A82BE016F5F7F4F12
:103610000E94EC180F900F90CF91DF910895DF93E7
:10362000CF930F920F92CDB7DEB7FC0111821082BB
:103630001382128215821482168269831A82BE0155
:103640006F5F7F4F0E94EC180F900F90CF91DF912A
:103650000895BF92CF92DF92EF92FF920F931F9344
:10366000CF93DF93082FB92E6B017A01E90124175C
:10367000350710F4EA017901802F9B2D65E073E096
:103680000E94B818D60114968D919C9115978E15AD
:103690009F05D0F08C179D0708F4EC01D601ED9141
:1036A000FC911197EC0FFD1F108110826D917C91A0
:1036B0006E0D7F1D802F9B2D0E94EC18D601ED9181
:1036C000FC91EC0FFD1F1083802F9B2DDF91CF917C
:1036D0001F910F91FF90EF90DF90CF90BF900895D2
:1036E0000F931F938C01FB01248135810E94291BBC
:1036F000C8011F910F910895CF93DF93EC01FB0157
:103700008617970761F0608171816115710529F055
:10371000448155810E94971802C00E94ED17CE0186
:10372000DF91CF910895FC011182108213821282E1
:103730001582148216820E947C1B0895FC0111825E
:103740001082138212821582148216820E947C1BC0
:103750000895FC01808191810E944C2A0895FC010A
:10376000808191810E944C2A0895FC0120E030E084
:103770008081882311F421E030E0C9010895FC0123
:1037800081E080830895089508950E944C2A089549
:103790000E944C2A08950E94AF2908950E94AF29E3
:1037A00008951F920F920FB60F9211242F933F93FB
:1037B0008F939F93AF93BF938091D8069091D90632
:1037C000A091DA06B091DB063091DC060196A11DCE
:1037D000B11D232F2D5F2D3720F02D570196A11DF0
:1037E000B11D2093DC068093D8069093D906A09350
:1037F000DA06B093DB068091D4069091D506A091AD
:10380000D606B091D7060196A11DB11D8093D406AE
:103810009093D506A093D606B093D706BF91AF91EB
:103820009F918F913F912F910F900FBE0F901F90FE
:1038300018958FB7F8942091D8063091D906409109
:10384000DA065091DB068FBFB901CA0108959FB710
:10385000F8942091D4063091D5064091D606509127
:10386000D70686B5A89B06C08F3F21F02F5F3F4F3C
:103870004F4F5F4F9FBF542F432F322F2227280FC8
:10388000311D411D511D82E0220F331F441F551F62
:103890008A95D1F7B901CA0108959B01AC017FB7A0
:1038A000F8948091D4069091D506A091D606B09157
:1038B000D70666B5A89B05C06F3F19F00196A11DFC
:1038C000B11D7FBFBA2FA92F982F8827860F911D72
:1038D000A11DB11D62E0880F991FAA1FBB1F6A9529
:1038E000D1F7BC012DC0FFB7F8948091D406909118
:1038F000D506A091D606B091D706E6B5A89B05C01F
:10390000EF3F19F00196A11DB11DFFBFBA2FA92FDE
:10391000982F88278E0F911DA11DB11DE2E0880F01
:10392000991FAA1FBB1FEA95D1F7861B970B885ECC
:103930009340C8F2215030404040504068517C4F85
:10394000211531054105510571F60895019739F0AA
:10395000880F991F880F991F02970197F1F7089513
:10396000789484B5826084BD84B5816084BD85B55A
:10397000826085BD85B5816085BDEEE6F0E0808121
:1039800081608083E1E8F0E0108280818260808342
:10399000808181608083E0E8F0E0808181608083C5
:1039A000E1EBF0E0808184608083E0EBF0E08081F7
:1039B00081608083E1E9F0E08081826080838081A2
:1039C00081608083E0E9F0E0808181608083E1EACA
:1039D000F0E0808182608083808181608083E0EA82
:1039E000F0E0808181608083E1E2F1E080818260AB
:1039F0008083808181608083E0E2F1E0808181606A
:103A00008083EAE7F0E08081846080838081826047
:103A10008083808181608083808180688083109230
:103A2000C1000895CF93DF93482F50E0CA01885812
:103A30009E4FFC0134914E5C5E4FFA0184918823C5
:103A400069F190E0880F991FFC01EC51FF4FA5919F
:103A5000B491FC01E250FF4FC591D491662351F41B
:103A60002FB7F8948C91932F909589238C9388810C
:103A700089230BC0623061F42FB7F8948C91932F97
:103A8000909589238C938881832B88832FBF06C0D0
:103A90009FB7F8948C91832B8C939FBFDF91CF912C
:103AA0000895893009F449C08A30A0F4843051F176
:103AB000853040F4823079F1833000F5813009F0AF
:103AC00063C026C0873079F1883098F5863009F0D8
:103AD0005BC025C08D3009F442C08E3028F48B3095
:103AE000B1F18C30C0F52DC0803109F442C0813174
:103AF00009F445C08F3009F047C037C0809180007D
:103B00008F7703C0809180008F7D8093800008951F
:103B100084B58F7702C084B58F7D84BD0895809170
:103B2000B0008F7703C08091B0008F7D8093B0008C
:103B30000895809190008F7707C0809190008F7DCD
:103B400003C080919000877F8093900008958091BA
:103B5000A0008F7707C08091A0008F7D03C0809167
:103B6000A000877F8093A0000895809120018F7727
:103B700003C0809120018F7D809320010895809162
:103B80002001877F809320010895FF920F931F9358
:103B9000F62E482F50E0CA0182549E4FFC0124911A
:103BA000CA0188589E4FFC0114914E5C5E4FFA0189
:103BB00004910023C9F0222319F0822F0E94511D85
:103BC000E02FF0E0EE0FFF1FE250FF4FA591B49100
:103BD0009FB7F894FF2021F48C911095812302C0A7
:103BE0008C91812B8C939FBF1F910F91FF90089513
:103BF0000F931F93482F50E0CA0182549E4FFC013F
:103C00002491CA0188589E4FFC0104914E5C5E4F7E
:103C1000FA011491112319F420E030E015C0222399
:103C200019F0822F0E94511D812F90E0880F991F5B
:103C3000885E9E4FFC01A591B4918C9120E030E00C
:103C4000802311F021E030E0C9011F910F91089508
:103C5000EF92FF920F931F937B018C0120E030E0E5
:103C600040E05FE40E94D42188238CF0C801B701B2
:103C700020E030E040E05FE40E94A01F0E94ED22BF
:103C80009B01AC01205030404040504806C0C80164
:103C9000B7010E94ED229B01AC01B901CA011F913D
:103CA0000F91FF90EF900895A0E0B0E0EAE5FEE10B
:103CB0000C94062CDC012B01FA019C91923008F443
:103CC00039C1EB018881823008F433C1943069F442
:103CD000843009F02FC111969C9111978981981712
:103CE00009F428C1ACE0B3E025C1843009F421C156
:103CF0008230A9F4923009F01DC19A01AD0188E02B
:103D0000EA010990AE01E90109929E018150C1F7D3
:103D1000E201898111969C918923818308C19230A7
:103D200009F407C112962D903C901397EB018A81FC
:103D30009B811496AD90BD90CD90DC901797EC8050
:103D4000FD800E811F819101281B390BB90137FFBE
:103D500004C066277727621B730B603271050CF075
:103D600061C0121613066CF537014801062E04C017
:103D700096948794779467940A94D2F721E030E080
:103D800040E050E004C0220F331F441F551F6A95C6
:103D9000D2F721503040404050402E213F21402357
:103DA0005123211531054105510521F021E030E075
:103DB00040E050E079018A01E628F728082919290E
:103DC0003CC0232BD1F1260E371E35014601062EAD
:103DD00004C096948794779467940A94D2F721E06C
:103DE00030E040E050E004C0220F331F441F551F55
:103DF0006A95D2F721503040404050402A213B2163
:103E00004C215D21211531054105510521F021E0AD
:103E100030E040E050E059016A01A628B728C828E0
:103E2000D9280BC0821593052CF01C01AA24BB24B1
:103E3000650103C0EE24FF24870111969C91D201F5
:103E400011968C91981709F445C0992339F0A8016F
:103E500097012A193B094C095D0906C0A601950185
:103E60002E193F09400B510B57FD08C011823382B8
:103E7000228224833583468357831DC081E081835A
:103E80003382228288279927DC01821B930BA40BA3
:103E9000B50B84839583A683B7830DC0220F331F90
:103EA000441F551F24833583468357838281938122
:103EB0000197938382832481358146815781DA017A
:103EC000C9010197A109B1098F5F9F4FAF4FBF4350
:103ED00028F30BC0918333822282EA0CFB1C0C1D59
:103EE0001D1DE482F5820683178383E0808324818D
:103EF00035814681578157FF1AC0C901AA2797FD0E
:103F0000A095BA2F81709070A070B07056954795AB
:103F100037952795822B932BA42BB52B84839583E0
:103F2000A683B78382819381019693838283DF0185
:103F300001C0D201CD01CDB7DEB7E2E10C94222C55
:103F4000A0E2B0E0E6EAFFE10C94122C69837A83E8
:103F50008B839C832D833E834F835887E9E0EE2E2D
:103F6000F12CEC0EFD1ECE010196B7010E94DE245D
:103F70008E010F5E1F4FCE010596B8010E94DE2410
:103F80008A8991E089278A8BC701B801AE01475E13
:103F90005F4F0E94541E0E940924A096E6E00C94F4
:103FA0002E2CA0E2B0E0E7EDFFE10C94122C698327
:103FB0007A838B839C832D833E834F835887F9E0DC
:103FC000EF2EF12CEC0EFD1ECE010196B7010E94E2
:103FD000DE248E010F5E1F4FCE010596B8010E94B0
:103FE000DE24C701B801AE01475E5F4F0E94541E38
:103FF0000E940924A096E6E00C942E2CA0E2B0E0EA
:10400000E4E0F0E20C94062C69837A838B839C8332
:104010002D833E834F835887CE010196BE01675F93
:104020007F4F0E94DE24CE010596BE016F5E7F4F5A
:104030000E94DE249985923088F089898230C8F008
:10404000943019F4823051F404C0843029F4923051
:1040500081F48CE093E0C6C0923049F420E09A8568
:104060008A89981321E02A87CE010996BBC0823045
:1040700049F420E09A858A89981321E02A8BCE01A1
:104080004196B0C02D843E844F8458886D887E88C8
:104090008F88988CEE24FF248701AA24BB24650115
:1040A00040E050E060E070E0E0E0F0E0C1018170ED
:1040B0009070892BE9F0E60CF71C081D191D9A0178
:1040C000AB012A0D3B1D4C1D5D1D80E090E0A0E082
:1040D000B0E0E614F7040805190520F481E090E04B
:1040E000A0E0B0E0BA01A901480F591F6A1F7B1F69
:1040F000AA0CBB1CCC1CDD1C97FE08C081E090E024
:10410000A0E0B0E0A82AB92ACA2ADB2A3196E03218
:10411000F10549F0660C771C881C991C569447944D
:1041200037942794C3CFFA85EA892B893C898B85FC
:104130009C85280F391F2E5F3F4F17C0CA01817021
:104140009070892B61F016950795F794E79480E0BD
:1041500090E0A0E0B0E8E82AF92A0A2B1B2B76951C
:104160006795579547952F5F3F4F77FDE7CF0CC079
:10417000440F551F661F771F17FD4160EE0CFF1C93
:10418000001F111F21503040403090E0590790E04F
:10419000690790E4790760F32B8F3C8FDB01CA013C
:1041A0008F779070A070B07080349105A105B10533
:1041B00061F447FD0AC0E114F1040105110529F07D
:1041C000405C5F4F6F4F7F4F40781A8EFE1711F0A3
:1041D00081E08A8F4D8F5E8F6F8F78A383E0898F08
:1041E000CE0149960E940924A096E2E10C94222C6B
:1041F000A8E1B0E0EEEFF0E20C940E2C69837A8334
:104200008B839C832D833E834F835887B9E0EB2EAD
:10421000F12CEC0EFD1ECE010196B7010E94DE24AA
:104220008E010F5E1F4FCE010596B8010E94DE245D
:104230002985223008F47EC03989323010F4B80163
:104240007CC08A859A8989278A87243011F0223098
:1042500031F4231709F06EC06CE073E06EC03430A7
:1042600039F41D861E861F86188A1C861B8604C08C
:10427000323021F484E08987B7015FC02B853C850B
:104280008B899C89281B390B3C872B87ED84FE8406
:104290000F851889AD88BE88CF88D88CEA14FB04B6
:1042A0000C051D0540F4EE0CFF1C001F111F2150D2
:1042B00030403C872B8720E030E040E050E080E059
:1042C00090E0A0E0B0E460E070E0EA14FB040C05CC
:1042D0001D0540F0282B392B4A2B5B2BEA18FB08D5
:1042E0000C091D09B695A79597958795EE0CFF1CAF
:1042F000001F111F6F5F7F4F6F31710531F7DA01BA
:10430000C9018F779070A070B07080349105A105BD
:10431000B10561F427FD0AC0E114F104010511059E
:1043200029F0205C3F4F4F4F5F4F20782D873E870D
:104330004F87588BBE01675F7F4FCB010E940924D6
:104340006896EAE00C942A2CA8E1B0E0EAEAF1E2EF
:104350000C94122C69837A838B839C832D833E83F8
:104360004F83588789E0E82EF12CEC0EFD1ECE011C
:104370000196B7010E94DE248E010F5E1F4FCE0111
:104380000596B8010E94DE248985823040F0898933
:10439000823028F0C701B8010E94562501C08FEF76
:1043A0006896E6E00C942E2CA8E1B0E0EAEDF1E28C
:1043B0000C94122C69837A838B839C832D833E8398
:1043C0004F83588789E0E82EF12CEC0EFD1ECE01BC
:1043D0000196B7010E94DE248E010F5E1F4FCE01B1
:1043E0000596B8010E94DE248985823040F08989D3
:1043F000823028F0C701B8010E94562501C08FEF16
:104400006896E6E00C942E2CA8E1B0E0EAE0F2E237
:104410000C94122C69837A838B839C832D833E8337
:104420004F83588789E0E82EF12CEC0EFD1ECE015B
:104430000196B7010E94DE248E010F5E1F4FCE0150
:104440000596B8010E94DE248985823040F0898972
:10445000823028F0C701B8010E94562501C081E0D2
:104460006896E6E00C942E2CA8E1B0E0EAE3F2E2D4
:104470000C94122C69837A838B839C832D833E83D7
:104480004F83588789E0E82EF12CEC0EFD1ECE01FB
:104490000196B7010E94DE248E010F5E1F4FCE01F0
:1044A0000596B8010E94DE248985823040F0898912
:1044B000823028F0C701B8010E94562501C081E072
:1044C0006896E6E00C942E2CA8E1B0E0EAE6F2E271
:1044D0000C94162C69837A838B839C832D833E8373
:1044E0004F835887CE010196BE01675F7F4F0E94C0
:1044F000DE24CE010596BE016F5E7F4F0E94DE2452
:104500008985823028F020E030E08989823010F4FB
:1045100021E030E0822F6896E2E00C94322CA8E093
:10452000B0E0E5E9F2E20C940F2C9B01AC0183E0D2
:104530008983DA01C9018827B7FD83959927AA27BE
:10454000BB27B82E211531054105510519F482E02C
:1045500089833AC08823A9F0203080E0380780E0C2
:10456000480780E8580729F460E070E080E09FEC9D
:1045700030C0EE24FF248701E21AF30A040B150B66
:1045800002C079018A018EE1C82ED12CDC82CB8257
:10459000ED82FE820F831887C801B7010E94BA23FB
:1045A00001971816190684F4082E04C0EE0CFF1C9F
:1045B000001F111F0A94D2F7ED82FE820F83188725
:1045C000C81AD90ADC82CB82BA82CE0101960E9437
:1045D00009242896E9E00C942B2CACE0B0E0E3EF42
:1045E000F2E20C94162C69837A838B839C83CE0130
:1045F0000196BE016B5F7F4F0E94DE248D81823069
:1046000061F1823050F1843021F48E81882351F1A0
:104610002EC02F81388537FD20C06E812F313105A6
:104620001CF06623F9F023C08EE190E0821B930B0F
:1046300029853A854B855C8504C056954795379505
:1046400027958A95D2F76623B1F05095409530951D
:1046500021953F4F4F4F5F4F0EC020E030E040E0CC
:1046600050E009C02FEF3FEF4FEF5FE704C020E0BD
:1046700030E040E050E8B901CA012C96E2E00C9429
:10468000322CA8E0B0E0E7E4F3E20C940E2C7B01BE
:104690008C01611571058105910519F482E089830A
:1046A00060C083E089838EE1C82ED12CDC82CB826E
:1046B000ED82FE820F831887C801B7010E94BA23DA
:1046C000FC013197F7FF3BC0222733272E1B3F0BFE
:1046D00057016801022E04C0D694C794B794A794DA
:1046E0000A94D2F740E050E060E070E081E090E0B2
:1046F000A0E0B0E004C0880F991FAA1FBB1F2A9535
:10470000D2F70197A109B1098E219F21A023B123DE
:104710000097A105B10521F041E050E060E070E0B4
:104720004A295B296C297D294D835E836F837887B5
:104730008EE190E08E1B9F0B9C838B8312C0309781
:1047400081F00E2E04C0EE0CFF1C001F111F0A94F6
:10475000D2F7ED82FE820F831887CE1ADF0ADC8241
:10476000CB821A82CE0101960E9409242896EAE0A3
:104770000C942A2CEF92FF920F931F937B018C01D4
:1047800080E0E81680E0F80681E0080780E018077E
:1047900088F48FEFE816F1040105110531F028F0D7
:1047A00088E090E0A0E0B0E017C080E090E0A0E0FA
:1047B000B0E012C080E0E81680E0F80680E008076C
:1047C00081E0180728F088E190E0A0E0B0E004C0A4
:1047D00080E190E0A0E0B0E020E230E040E050E096
:1047E000281B390B4A0B5B0B04C016950795F794F1
:1047F000E7948A95D2F7F701EC5EFC4F8081281B85
:10480000310941095109C9011F910F91FF90EF90A2
:104810000895DF92EF92FF920F931F93FC01E480C3
:10482000F58006811781D1808081823048F480E054
:1048300090E0A0E1B0E0E82AF92A0A2B1B2BA5C0E2
:10484000843009F49FC0823021F4EE24FF248701D4
:1048500005C0E114F1040105110519F4E0E0F0E0F0
:1048600096C0628173819FEF623879070CF05BC05C
:1048700022E83FEF261B370B2A3131052CF020E0D0
:1048800030E040E050E02AC0B801A701022E04C089
:1048900076956795579547950A94D2F781E090E011
:1048A000A0E0B0E004C0880F991FAA1FBB1F2A9583
:1048B000D2F70197A109B1098E219F21A023B1232D
:1048C0000097A105B10521F081E090E0A0E0B0E003
:1048D0009A01AB01282B392B4A2B5B2BDA01C9013A
:1048E0008F779070A070B07080349105A105B105EC
:1048F00039F427FF09C0205C3F4F4F4F5F4F04C082
:10490000215C3F4F4F4F5F4FE0E0F0E02030A0E0F0
:104910003A07A0E04A07A0E45A0710F0E1E0F0E00F
:1049200079018A0127C06038710564F5FB01E158FF
:10493000FF4FD801C7018F779070A070B07080349E
:104940009105A105B10539F4E7FE0DC080E490E0C2
:10495000A0E0B0E004C08FE390E0A0E0B0E0E80E9B
:10496000F91E0A1F1B1F17FF05C016950795F79420
:10497000E794319687E016950795F794E7948A9522
:10498000D1F705C0EE24FF248701EFEFF0E06E2F92
:10499000679566276795902F9F77D794DD24D794E6
:1049A0008E2F8695492F462B582F5D29B701CA01B6
:1049B0001F910F91FF90EF90DF900895FC01DB01B4
:1049C000408151812281622F6F7770E0221F222760
:1049D000221F9381892F880F822B282F30E0991F67
:1049E0009927991F11969C93119721153105A9F5C7
:1049F000411551056105710511F482E037C082E867
:104A00009FEF13969C938E9312979A01AB0167E0E8
:104A1000220F331F441F551F6A95D1F783E08C93F3
:104A20000DC0220F331F441F551F12968D919C916C
:104A30001397019713969C938E931297203080E0E2
:104A4000380780E0480780E4580758F314962D9300
:104A50003D934D935C93179708952F3F310579F45B
:104A6000411551056105710519F484E08C93089591
:104A700064FF03C081E08C9312C01C9210C02F57BA
:104A8000304013963C932E93129783E08C9387E0EB
:104A9000440F551F661F771F8A95D1F770641496CF
:104AA0004D935D936D937C93179708951F93DC014D
:104AB000FB019C91923008F447C08081823008F459
:104AC00043C0943051F411961C91843099F5818142
:104AD000682F70E0611B71093FC0843021F0923073
:104AE00031F48230B9F18181882389F12DC011968A
:104AF0001C9111978230F1F081811817D9F4129628
:104B00002D913C911397828193818217930794F0A2
:104B100028173907BCF014968D919D910D90BC918A
:104B2000A02D2481358146815781281739074A07EE
:104B30005B0718F4112341F00AC082179307A407FA
:104B4000B50740F4112319F061E070E005C06FEF84
:104B50007FEF02C060E070E0CB011F9108951F93CA
:104B6000FC0199278827BC01E89411911032E9F3E0
:104B7000193010F01E30C8F31B3251F01D3249F4C9
:104B8000689406C00E94AE26610F711D811D911DA3
:104B9000119110531A30B0F33EF4909580957095B2
:104BA00061957F4F8F4F9F4F1F910895FB01DC014F
:104BB00002C001900D9241505040D8F708956817F7
:104BC000790768F4FB01DC01E40FF51FA40FB51FA2
:104BD00002C002900E9241505040D8F708950C94B4
:104BE000D625FB01DC010D900020E9F7119701901B
:104BF0000D920020E1F70895FC018191861721F0C4
:104C00008823D9F7992708953197CF010895FB019B
:104C1000DC018D91019080190110D9F3990B089551
:104C2000FB01DC0101900D920020E1F70895FB01EA
:104C3000DC014150504030F08D910190801919F401
:104C40000020B9F7881B990B0895FB01DC01415046
:104C5000504048F001900D920020C9F701C01D920C
:104C600041505040E0F70895FC0181E090E0019050
:104C7000061609F4CF010020D1F701970895FB0132
:104C800051915523A9F0BF01DC014D914517411108
:104C9000E1F759F4CD010190002049F04D91401504
:104CA0004111C9F3FB014111EFCF81E090E0019781
:104CB0000895FB019F01E8944230C4F04532B4F4FA
:104CC0004A3029F497FB1EF4909581959F4F642FED
:104CD00077270E945E2C805D8A330CF0895D81937A
:104CE000CB010097A1F716F45DE251931082C90140
:104CF0000C941529FA01CF93FF93EF93223044F1DE
:104D0000253234F5C22FE894CA3049F497FB3EF4BB
:104D100090958095709561957F4F8F4F9F4F2C2F69
:104D2000332744275527FF93EF930E94E42BEF91FD
:104D3000FF91605D6A330CF0695D6193B901CA014E
:104D4000605070408040904051F716F4CDE2C1931E
:104D500010828F919F91CF910C941529592F482F34
:104D6000372F262F660F771F881F991F660F771F13
:104D7000881F991F620F731F841F951F660F771F6F
:104D8000881F991F0895FA01CF93FF93EF93223064
:104D9000CCF02532BCF4C22F2C2F332744275527C3
:104DA000FF93EF930E94E42BEF91FF91605D6A33D4
:104DB0000CF0695D6193B901CA0160507040804098
:104DC000904051F710828F919F91CF910C941529AB
:104DD000FB019F01423074F0453264F4642F772761
:104DE0000E945E2C805D8A330CF0895D8193CB013B
:104DF0000097A1F71082C9010C941529AEE0B0E02C
:104E0000E4E0F7E20C94142C0E891F8986E08C8371
:104E10001A8309838FEF9FE79E838D839E01265E11
:104E20003F4FCE010196688D798DA9010E942227FE
:104E30002F813885020F131FF80110822E96E4E0AF
:104E40000C94302CABE0B0E0E8E2F7E20C94062CD6
:104E50003C012B015A01FC0117821682838181FDDE
:104E600003C06FEF7FEFC6C19AE0892E1E01089440
:104E7000211C311CF3012381F20123FD859123FFC5
:104E800081912F01882309F4B2C1853239F423FDC1
:104E9000859123FF81912F01853229F490E0B301A0
:104EA0000E942529E7CF982FFF24EE249924FFE1C3
:104EB000FF15D0F09B3269F09C3228F4903259F003
:104EC000933291F40EC09D3249F0903369F441E081
:104ED00024C052E0F52A84E0F82A28C098E0F92A94
:104EE00025C0E0E1FE2A22C0F7FC29C0892F8053AB
:104EF0008A3070F4F6FE05C0989C902C1124980E10
:104F000015C0E89CE02C1124E80EF0E2FF2A0EC048
:104F10009E3229F4F6FC6BC140E4F42A07C09C36AB
:104F200019F450E8F52A02C0983649F4F20123FD3D
:104F3000959123FF91912F01992309F0B8CF892FE3
:104F40008554833018F08052833038F444E050E0C8
:104F5000A40EB51E5FE359830FC0933631F093372B
:104F600079F0933509F056C020C0F501808189831E
:104F700042E050E0A40EB51E610101E010E012C055
:104F8000F501C080D180F6FC03C06FEF7FEF02C057
:104F9000692D70E042E050E0A40EB51EC6010E94EB
:104FA0000A298C015FE7F52214C0F501C080D18089
:104FB000F6FC03C06FEF7FEF02C0692D70E042E0A6
:104FC00050E0A40EB51EC6010E94FF288C0150E8D7
:104FD000F52AF3FE07C01AC080E290E0B3010E94F8
:104FE0002529EA948E2D90E008171907A8F30EC022
:104FF000F601F7FC8591F7FE81916F0190E0B30116
:105000000E942529E110EA94015010400115110574
:1050100079F7EAC0943611F0993669F5F7FE08C0C1
:10502000F501208131814281538184E090E00AC002
:10503000F501808191819C01442737FD4095542FD3
:1050400082E090E0A80EB91E9FE6F92257FF09C042
:1050500050954095309521953F4F4F4F5F4FE0E879
:10506000FE2ACA01B901A1012AE030E00E945129BB
:10507000D82ED21840C0953729F41F2D1F7E2AE064
:1050800030E01DC01F2D197F9F3661F0903720F44E
:10509000983509F0ACC00FC0903739F0983709F057
:1050A000A6C004C028E030E00AC0106114FD1460FE
:1050B00020E130E004C014FD166020E132E017FF6B
:1050C00008C0F501608171818281938144E050E0E4
:1050D00008C0F50180819181BC0180E090E042E050
:1050E00050E0A40EB51EA1010E945129D82ED2185D
:1050F0008FE7F82EF122F6FE0BC05EEFF522D914F1
:1051000038F4F4FE07C0F2FC05C08FEEF82202C0AE
:105110001D2D01C0192DF4FE0DC0FE01ED0DF11D78
:105120008081803319F499EEF92208C01F5FF2FEE6
:1051300005C003C08F2D867809F01F5F0F2DF3FC8B
:1051400014C0F0FE0FC01E1510F09D2C0BC09D2C3E
:105150009E0C911A1E2D06C080E290E0B3010E94C1
:1051600025291F5F1E15C0F304C01E1510F4E11A97
:1051700001C0EE2404FF0FC080E390E0B3010E9461
:10518000252902FF1DC001FD03C088E790E00EC085
:1051900088E590E00BC0802F867891F001FF02C077
:1051A0008BE201C080E2F7FC8DE290E0B3010E9447
:1051B000252906C080E390E0B3010E9425299A9436
:1051C000D914C0F3DA94F101ED0DF11D808190E066
:1051D000B3010E942529DD20A9F706C080E290E0F6
:1051E000B3010E942529EA94EE20C1F743CEF301D2
:1051F00066817781CB012B96E2E10C94222CFC0195
:105200000590615070400110D8F7809590958E0FF1
:105210009F1F0895FC016150704001900110D8F764
:10522000809590958E0F9F1F0895DC01FC01672FDC
:1052300071917723E1F7329704C07C916D9370836D
:105240006291AE17BF07C8F308950F931F93CF93D2
:10525000DF938C01EB018B8181FF1BC082FF0DC0AE
:105260002E813F818C819D812817390764F4E88164
:10527000F9810193F983E88306C0E885F985802FD9
:105280001995892B31F48E819F8101969F838E839E
:1052900002C00FEF1FEFC801DF91CF911F910F9157
:1052A0000895FA01AA27283051F1203181F1E894BC
:1052B0006F936E7F6E5F7F4F8F4F9F4FAF4FB1E009
:1052C0003ED0B4E03CD0670F781F891F9A1FA11D04
:1052D000680F791F8A1F911DA11D6A0F711D811D05
:1052E000911DA11D20D009F468943F912AE0269FCA
:1052F00011243019305D3193DEF6CF010895462F29
:105300004770405D4193B3E00FD0C9F7F6CF462F09
:105310004F70405D4A3318F0495D31FD4052419372
:1053200002D0A9F7EACFB4E0A6959795879577952F
:105330006795BA95C9F700976105710508959B01B6
:10534000AC010A2E06945795479537952795BA953F
:10535000C9F7620F731F841F951FA01D08950F9337
:105360001F93CF93DF93BC018230910510F462E06C
:1053700070E0E091DF06F091E006A0E0B0E040E0F0
:1053800050E024C08081918186179707D0F086175E
:10539000970771F482819381109729F013969C935B
:1053A0008E9312972CC09093E0068093DF0627C05F
:1053B0004115510519F08417950718F4EF018D0177
:1053C000AC01DF01828193819C01F9013097D1F614
:1053D00041155105F9F0CA01861B970B84309105E0
:1053E00080F48A819B810115110521F0F8019383D6
:1053F000828304C09093E0068093DF06FE0132961C
:1054000045C0FE01E80FF91F6193719302979983DC
:1054100088833CC08091DD069091DE06892B41F4A3
:1054200080910803909109039093DE068093DD0636
:1054300040910A0350910B034115510541F44DB7BA
:105440005EB78091060390910703481B590B20918A
:10545000DD063091DE0624173507B0F4CA01821B41
:10546000930B8617970780F0AB014E5F5F4F841751
:10547000950750F0420F531F5093DE064093DD0610
:10548000F9016193719302C0E0E0F0E0CF01DF9198
:10549000CF911F910F910895CF93DF939C010097B7
:1054A00009F48FC0EC0122971B821A826091DF06FB
:1054B0007091E0066115710581F488819981820FF0
:1054C000931F2091DD063091DE062817390739F544
:1054D000D093DE06C093DD0674C0DB0140E050E0EF
:1054E000AC17BD0708F1BB83AA83FE01219131915E
:1054F000E20FF31FAE17BF0779F48D919C911197BE
:10550000280F391F2E5F3F4F3983288312968D91C4
:105510009C9113979B838A834115510571F4D09315
:10552000E006C093DF064DC012968D919C911397B3
:10553000AD01009711F0DC01D3CFDA011396DC93B3
:10554000CE931297FA0121913191E20FF31FCE17FA
:10555000DF0769F488819981280F391F2E5F3F4F3B
:10556000FA01318320838A819B8193838283E0E0E7
:10557000F0E0DB0112968D919C911397009719F042
:10558000BC01FD01F6CFAB014E5F5F4FDB018D919A
:105590009C91840F951F2091DD063091DE0628171F
:1055A000390779F4309729F41092E0061092DF065B
:1055B00002C013821282425050405093DE06409344
:1055C000DD06DF91CF9108956F927F928F929F9227
:1055D000AF92BF92CF92DF92EF92FF920F931F9301
:1055E000CF93DF938C01009729F4CB010E94AF2960
:1055F0008C01BBC08EEFE82E8FEFF82EE00EF11E6F
:105600004801860E971E8E149F0408F4ACC0D70183
:105610004D915C91119746175707B8F045305105E9
:1056200008F4A3C0CA0104978617970708F49DC021
:1056300042505040461B570BF401419351936D93D8
:105640007C93CF010E944C2A90C05B01A41AB50A3A
:105650003801640E751EA091DF06B091E006CC24DF
:10566000DD24E0E0F0E047C0A615B705A9F5CD912F
:10567000DC911197CE0102968A159B0568F1CE0147
:105680008A199B09029612962C91129713963C91B7
:10569000059758F0F40122833383CA19DB09D183BB
:1056A000C083D7016D937C9309C04E5F5F4F4C0F51
:1056B0005D1FF70151834083C901FC01C114D1046E
:1056C00031F0D6011396FC93EE9312974EC0F093EF
:1056D000E006E093DF0649C08D919C911197E81791
:1056E000F90708F4FC016D0112968C91129713963C
:1056F0009C919C01D901109709F0B6CF8091DD06ED
:105700009091DE0686159705E9F4E617F707D0F4C1
:1057100020910A0330910B032115310541F42DB777
:105720003EB78091060390910703281B390B821620
:105730009306C8F49092DE068092DD06F70171832D
:10574000608313C0CB010E94AF29EC01009759F090
:10575000D7014D915C91B8010E94D625C8010E94E5
:105760004C2A8E0102C000E010E0C801DF91CF9109
:105770001F910F91FF90EF90DF90CF90BF90AF906F
:105780009F908F907F906F900895629FD001739F3C
:10579000F001829FE00DF11D649FE00DF11D929FCD
:1057A000F00D839FF00D749FF00D659FF00D99270C
:1057B000729FB00DE11DF91F639FB00DE11DF91F30
:1057C000BD01CF0111240895A1E21A2EAA1BBB1B13
:1057D000FD010DC0AA1FBB1FEE1FFF1FA217B307BD
:1057E000E407F50720F0A21BB30BE40BF50B661FD3
:1057F000771F881F991F1A9469F760957095809597
:1058000090959B01AC01BD01CF0108952F923F926D
:105810004F925F926F927F928F929F92AF92BF92C0
:10582000CF92DF92EF92FF920F931F93CF93DF936C
:10583000CDB7DEB7CA1BDB0B0FB6F894DEBF0FBEC9
:10584000CDBF19942A88398848885F846E847D8406
:105850008C849B84AA84B984C884DF80EE80FD8018
:105860000C811B81AA81B981CE0FD11D0FB6F8948E
:10587000DEBF0FBECDBFED010895EE0FFF1F0590F7
:10588000F491E02D1994911116C0803219F08950CD
:105890008550D0F708959111089581548A5108F4E4
:1058A000805E855A08959111089581568A5108F4B1
:1058B000805285580895992788270895AA1BBB1BF5
:1058C00051E107C0AA1FBB1FA617B70710F0A61B00
:1058D000B70B881F991F5A95A9F780959095BC0121
:1058E000CD01089512E0CAE0D2E004C0FE010E949A
:0E58F0003F2C2296CE30D107C9F7F894FFCF97
:1058FE004E6F6E65004552524F523A2000203C00CA
:10590E003E005741524E3A2000494E464F3A200033
:10591E00000000004C013F03C41BC41BC41B30001D
:10592E003100696E00434D442028257329005072C2
:10593E006F632028257329004477656C6C20282519
:10594E007329004D6574612028257329003F3F3F60
:10595E002027257327207C2025732062207C206140
:10596E003A2025732062006F7574000000000062FB
:10597E000368030000000000DE04F004D504D00428
:10598E00970457696C6C20736C65657020666F7236
:10599E002074776F207365636F6E6473206E6F77FC
:1059AE002E006C6F6F700053657474696E6720758E
:1059BE0070206C6564007365747570000D000000D6
:1059CE000000A00A180C360A670A470A900A00005F
:1059DE000000C41B180CC41BC41BC41BC41B6E616B
:1059EE006E00696E66006F7666002E000000000085
:1059FE00C41B180C00008000E1060000000000002F
:105A0E000000000000010202030303030404040467
:105A1E00040404040505050505050505050505052C
:105A2E00050505050606060606060606060606060C
:105A3E0006060606060606060606060606060606F8
:105A4E0006060606070707070707070707070707DC
:105A5E0007070707070707070707070707070707C8
:105A6E0007070707070707070707070707070707B8
:105A7E0007070707070707070707070707070707A8
:105A8E00070707070808080808080808080808088C
:105A9E000808080808080808080808080808080878
:105AAE000808080808080808080808080808080868
:105ABE000808080808080808080808080808080858
:105ACE000808080808080808080808080808080848
