:100000000C9406010C9433010C9433010C943301CD
:100010000C9433010C9433010C9433010C94330190
:100020000C9433010C9433010C9433010C94330180
:100030000C9433010C9433010C9433010C94330170
:100040000C9433010C9433010C9433010C94330160
:100050000C9433010C9433010C9433010C94A81AC2
:100060000C9433010C94C8040C9410060C943301C6
:100070000C9433010C9433010C9433010C94330130
:100080000C9433010C9433010C9433010C94330120
:100090000C9408050C944F060C9433010C94330116
:1000A0000C9433010C9433010C9433010C94330100
:1000B0000C9433010C9433010C9433010C943301F0
:1000C0000C9433010C9433010C9433010C944805C7
:1000D0000C948E060C9433010C9488050C94CD0678
:1000E0000C94330100002100240027002A002D0079
:1000F0003000330001010000040107010A01000083
:100100002200250028002B002E00310034000201BF
:100110000000050108010B0100002000230026005B
:1001200029002C002F00320000010000030106010D
:10013000090105050505070508080808020202026D
:100140000A0A080804040404010101010101010173
:100150000303030303030303040707070C0C0C0C3E
:100160000C0C0C0C02020202060606060606060627
:100170000B0B0B0B0B0B0B0B0102102020080810B4
:100180002040102040800201020108040201010207
:1001900004081020408080402010080402018004E0
:1001A000020180402010080402010804020101023B
:1001B0000408102040800102040810204080000044
:1001C000090A02080B0C0D070603040100000000D9
:1001D000000000000000000000000000000000001F
:1001E0000000000000000000000011100F000000DF
:1001F00000000000000000000000000000000000FF
:1002000000000000A4010204B9099D0111241FBED1
:10021000CFEFD1E2DEBFCDBF00E00CBF13E0A0E026
:10022000B2E0E4E5F1E500E00BBF02C007900D92FB
:10023000A43CB107D9F71BBE16E0A4ECB3E001C0A3
:100240001D92A538B107E1F712E0CAE0D2E004C080
:100250002297FE010E946A28C430D107C9F70E9484
:10026000C0040C949D280C940000FC0184E092E0F2
:10027000918380830895FC0184E092E091838083E0
:100280000895FC0184E092E0918380830895FC014D
:1002900084E092E0918380830895FC0184E092E001
:1002A00091838083CF010E949F1A0895FC0180E30F
:1002B00092E091838083738362830895FC0180E3DD
:1002C00092E091838083738362830895FC0180E3CD
:1002D00092E0918380830895FC0180E392E0918312
:1002E00080830895FC0180E392E0918380831382F0
:1002F00012820895FC0180E392E09183808313824F
:1003000012820895FC017383628308958130910500
:1003100051F46F5F7F4F81F484EC93E06CE072E006
:100320000E948F170895892B39F46F5F7F4F21F456
:1003300084EC93E00E94801A089580E090E06FEFD3
:100340007FEF0E948601089581E090E06FEF7FEFDC
:100350000E94860108958F929F92AF92BF92CF9292
:10036000DF92EF92FF920F931F93DF93CF93CDB75E
:10037000DEB72E970FB6F894DEBF0FBECDBF8B0150
:100380006A01DC011296AD90BC901397D501ED91F6
:10039000FC91848095807E010894E11CF11CC701CA
:1003A00061E172E00E94A917C701B8010E945817C5
:1003B00069E172E00E943C17B6010E9458176CE197
:1003C00072E00E943C17BC018E01085F1F4FC801FC
:1003D0000E946A1AC501B801F4011995C8010E946A
:1003E000801AC7010E94861A2E960FB6F894DEBFB7
:1003F0000FBECDBFCF91DF911F910F91FF90EF9076
:10040000DF90CF90BF90AF909F908F900895CF9244
:10041000DF92EF92FF920F931F93DF93CF93CDB7AD
:10042000DEB72E970FB6F894DEBF0FBECDBF6C01BE
:100430007E010894E11CF11CC7010E946A1A8E011A
:10044000085F1F4FC80164EC73E00E946A1AC6017E
:10045000B701A8010E94AB01C8010E94801AC70120
:100460000E94801A2E960FB6F894DEBF0FBECDBF45
:10047000CF91DF911F910F91FF90EF90DF90CF9080
:1004800008958F929F92AF92BF92CF92DF92EF9298
:10049000FF920F931F93DF93CF93CDB7DEB72E97C5
:1004A0000FB6F894DEBF0FBECDBF8B016A01DC0131
:1004B0001296AD90BC901397D501ED91FC9184807C
:1004C00095807E010894E11CF11CC7016EE172E089
:1004D0000E94A917C701B8010E94581769E172E08C
:1004E0000E943C17B6010E9458176CE172E00E940E
:1004F0003C17BC018E01085F1F4FC8010E946A1A99
:10050000C501B801F4011995C8010E94801AC701FC
:100510000E94861A2E960FB6F894DEBF0FBECDBF8E
:10052000CF91DF911F910F91FF90EF90DF90CF90CF
:10053000BF90AF909F908F900895CF92DF92EF92EF
:10054000FF920F931F93DF93CF93CDB7DEB72E9714
:100550000FB6F894DEBF0FBECDBF6C017E010894CC
:10056000E11CF11CC7010E946A1A8E01085F1F4F2F
:10057000C80164EC73E00E946A1AC601B701A801C1
:100580000E944102C8010E94801AC7010E94801A7D
:100590002E960FB6F894DEBF0FBECDBFCF91DF9180
:1005A0001F910F91FF90EF90DF90CF9008958F9261
:1005B0009F92AF92BF92CF92DF92EF92FF920F93F2
:1005C0001F93DF93CF93CDB7DEB72E970FB6F89476
:1005D000DEBF0FBECDBF8B016A01DC011296AD906C
:1005E000BC901397D501ED91FC91848095807E019C
:1005F0000894E11CF11CC70165E272E00E94A91792
:10060000C701B8010E94581769E172E00E943C17C7
:10061000B6010E9458176CE172E00E943C17BC01C1
:100620008E01085F1F4FC8010E946A1AC501B801F8
:10063000F4011995C8010E94801AC7010E94861A08
:100640002E960FB6F894DEBF0FBECDBFCF91DF91CF
:100650001F910F91FF90EF90DF90CF90BF90AF90E0
:100660009F908F900895CF92DF92EF92FF920F9319
:100670001F93DF93CF93CDB7DEB72E970FB6F894C5
:10068000DEBF0FBECDBF6C017E010894E11CF11CE2
:10069000C7010E946A1A8E01085F1F4FC80164ECEF
:1006A00073E00E946A1AC601B701A8010E94D7022E
:1006B000C8010E94801AC7010E94801A2E960FB6A8
:1006C000F894DEBF0FBECDBFCF91DF911F910F9188
:1006D000FF90EF90DF90CF900895FC0180E392E0CF
:1006E00091838083CF010E949F1A0895EF92FF9219
:1006F0000F931F93DF93CF93CDB7DEB727970FB636
:10070000F894DEBF0FBECDBFF82EE92E64E372E091
:100710000E948F178FEE95E00E940D09892B81F0C2
:100720008E010F5F1F4FC8016FEE75E00E944310EE
:100730008F2D9E2DB8010E94531AC8010E94801A65
:100740008F2D9E2D27960FB6F894DEBF0FBECDBF1E
:10075000CF91DF911F910F91FF90EF9008958FEE51
:1007600095E00E947F0E0895FC0189E392E0918359
:100770008083CF010E9441010895FC0189E392E04A
:1007800091838083CF010E94410108950F931F93AD
:100790008C0189E392E0F80191838083C8010E9473
:1007A0004101C8010E949F1A1F910F9108950F9354
:1007B0001F938C010E94350189E392E0F801918337
:1007C00080838FEE95E040E855E260E070E00E94A3
:1007D00094071F910F9108950F931F938C010E940E
:1007E000350189E392E0F801918380838FEE95E0F3
:1007F00040E855E260E070E00E9494071F910F917D
:10080000089508950F931F9382E090E00E94A51A27
:10081000182F092F0E94D7031093CB030093CC030A
:100820001F910F910895CF92DF92EF92FF920F9355
:100830001F93DF93CF93CDB7DEB72E970FB6F89403
:10084000DEBF0FBECDBF80917B0261E00E949C1C89
:10085000C090CD03D090CE037E010894E11CF11C22
:10086000C70161E472E00E948F178E01085F1F4F7D
:10087000C80161E672E00E948F17C601B701A801A6
:100880000E94D702C8010E94801AC7010E94801AE4
:1008900060ED77E080E090E00E94241B80917B0275
:1008A00060E00E949C1C68EE73E080E090E00E9493
:1008B000241B2E960FB6F894DEBF0FBECDBFCF918E
:1008C000DF911F910F91FF90EF90DF90CF900895EF
:1008D000CF92DF92EF92FF920F931F93DF93CF930C
:1008E000CDB7DEB72E970FB6F894DEBF0FBECDBFE3
:1008F00080917B0261E00E94E91B82E090E00E940F
:10090000A51A182F092F0E94D7031093CB03009329
:10091000CC038091CD039091CE03612F702F0E9464
:100920008201C090CD03D090CE037E010894E11CDB
:10093000F11CC70166E672E00E948F178E01085F06
:100940001F4FC80165E772E00E948F17C601B7010B
:10095000A8010E94D702C8010E94801AC7010E9404
:10096000801A2E960FB6F894DEBF0FBECDBFCF9182
:10097000DF911F910F91FF90EF90DF90CF9008953E
:100980000E94871B0E9468040E941304FDCF0895F3
:100990001F920F920FB60F920BB60F9211242F9346
:1009A0003F934F938F939F93EF93FF938091C0005A
:1009B00082FD1DC04091C60020910F0430911004AB
:1009C0002F5F3F4F2F73307080911104909112046C
:1009D0002817390771F0E0910F04F0911004E153EA
:1009E000FC4F40833093100420930F0402C0809189
:1009F000C600FF91EF919F918F914F913F912F9161
:100A00000F900BBE0F900FBE0F901F90189508957A
:100A10001F920F920FB60F920BB60F9211242F93C5
:100A20003F934F938F939F93EF93FF938091C800D1
:100A300082FD1DC04091CE00209197043091980412
:100A40002F5F3F4F2F7330708091990490919A04DB
:100A50002817390771F0E0919704F0919804E95A4A
:100A6000FB4F4083309398042093970402C08091F9
:100A7000CE00FF91EF919F918F914F913F912F91D8
:100A80000F900BBE0F900FBE0F901F9018950895FA
:100A90001F920F920FB60F920BB60F9211242F9345
:100AA0003F934F938F939F93EF93FF938091D00049
:100AB00082FD1DC04091D60020911F053091200578
:100AC0002F5F3F4F2F733070809121059091220549
:100AD0002817390771F0E0911F05F0912005E152C8
:100AE000FB4F40833093200520931F0502C0809167
:100AF000D600FF91EF919F918F914F913F912F9150
:100B00000F900BBE0F900FBE0F901F901895089579
:100B10001F920F920FB60F920BB60F9211242F93C4
:100B20003F934F938F939F93EF93FF938091300167
:100B300082FD1DC0409136012091A7053091A80586
:100B40002F5F3F4F2F7330708091A9059091AA05B8
:100B50002817390771F0E091A705F091A805E95928
:100B6000FA4F40833093A8052093A70502C08091D7
:100B70003601FF91EF919F918F914F913F912F916E
:100B80000F900BBE0F900FBE0F901F901895E09125
:100B9000FB05F091FC05E05CFF4F81919191208174
:100BA0003181821B930B8F739070892B11F00E94FF
:100BB000C704E0911D06F0911E06E05CFF4F819195
:100BC000919120813181821B930B8F739070892BBF
:100BD00011F00E940705E0913F06F0914006E05CAD
:100BE000FF4F8191919120813181821B930B8F73F3
:100BF0009070892B11F00E944705E0916106F091F9
:100C00006206E05CFF4F8191919120813181821BCE
:100C1000930B8F739070892B11F00E9487050895B4
:100C20001F920F920FB60F920BB60F9211242F93B3
:100C30003F938F939F93EF93FF93209153043091B1
:100C4000540480915504909156042817390731F4C3
:100C50008091C1008F7D8093C10014C0E091550444
:100C6000F0915604ED5EFB4F2081809155049091E8
:100C7000560401968F739070909356048093550498
:100C80002093C600FF91EF919F918F913F912F91FB
:100C90000F900BBE0F900FBE0F901F9018951F92D4
:100CA0000F920FB60F920BB60F9211242F933F9312
:100CB0008F939F93EF93FF932091DB043091DC049B
:100CC0008091DD049091DE042817390731F480917A
:100CD000C9008F7D8093C90014C0E091DD04F091BC
:100CE000DE04E556FB4F20818091DD049091DE0407
:100CF00001968F7390709093DE048093DD042093AF
:100D0000CE00FF91EF919F918F913F912F910F9086
:100D10000BBE0F900FBE0F901F9018951F920F9251
:100D20000FB60F920BB60F9211242F933F938F9310
:100D30009F93EF93FF932091630530916405809119
:100D40006505909166052817390731F48091D10027
:100D50008F7D8093D10014C0E0916505F091660508
:100D6000ED5DFA4F208180916505909166050196B1
:100D70008F73907090936605809365052093D600DD
:100D8000FF91EF919F918F913F912F910F900BBE0B
:100D90000F900FBE0F901F9018951F920F920FB6D5
:100DA0000F920BB60F9211242F933F938F939F9323
:100DB000EF93FF932091EB053091EC058091ED05C9
:100DC0009091EE052817390731F4809131018F7D1C
:100DD0008093310114C0E091ED05F091EE05E555E9
:100DE000FA4F20818091ED059091EE0501968F7369
:100DF00090709093EE058093ED0520933601FF915E
:100E0000EF919F918F913F912F910F900BBE0F907B
:100E10000FBE0F901F9018958F929F92AF92BF9226
:100E2000CF92DF92EF92FF920F931F93DF93CF93B6
:100E3000CDB7DEB7FC011382128288EE93E0A0E00A
:100E4000B0E084839583A683B78381E892E09183A1
:100E500080837587648757874687318B208B138BF8
:100E6000028BF58AE48AD78AC68AB18EA08E938EC9
:100E7000828E8889848F8989858F8A89868F8B89DC
:100E8000878F8C8980A3CF91DF911F910F91FF9065
:100E9000EF90DF90CF90BF90AF909F908F9008958C
:100EA0008F929F92AF92BF92CF92DF92EF92FF927A
:100EB0000F931F93DF93CF93CDB7DEB7FC0113825F
:100EC000128288EE93E0A0E0B0E084839583A6834D
:100ED000B78381E892E09183808375876487578721
:100EE0004687318B208B138B028BF58AE48AD78A55
:100EF000C68AB18EA08E938E828E8889848F8989CE
:100F0000858F8A89868F8B89878F8C8980A3CF91E3
:100F1000DF911F910F91FF90EF90DF90CF90BF90E6
:100F2000AF909F908F900895AF92BF92DF92EF9213
:100F3000FF920F931F93CF93DF93EC017A018B0104
:100F4000DD24403081EE580780E0680780E07807B4
:100F500011F0DD24D39491E0A92EB12CEC89FD8908
:100F6000DD2069F0C50108A002C0880F991F0A940E
:100F7000E2F7808360E079E08DE390E005C01082C5
:100F800060E874E88EE190E0A80197010E940F28C4
:100F90002150304040405040569547953795279511
:100FA00080E12030380720F0DD2011F0DD24D6CF9D
:100FB000E889F9893083EA89FB89208319A2EE89BF
:100FC000FF89408121E030E0C9010C8C02C0880F0C
:100FD000991F0A94E2F7482B4083EE89FF894081EC
:100FE000C9010D8C02C0880F991F0A94E2F7482BA3
:100FF0004083EE89FF894081C9010E8C02C0880FB1
:10100000991F0A94E2F7482B4083EE89FF8980817B
:101010000F8C02C0220F331F0A94E2F72095282379
:101020002083DF91CF911F910F91FF90EF90DF9080
:10103000BF90AF900895AF92BF92CF92DF92EF92A0
:10104000FF920F931F93CF93DF93EC017A018B01F3
:10105000C22EDD24403081EE580780E0680780E032
:10106000780711F0DD24D39471E0A72EB12CEC8920
:10107000FD89DD2069F0C50108A002C0880F991F15
:101080000A94E2F7808360E079E08DE390E005C0A8
:10109000108260E874E88EE190E0A80197010E9458
:1010A0000F28215030404040504056954795379585
:1010B000279580E12030380720F0DD2011F0DD2475
:1010C000D6CFE889F9893083EA89FB892083E88DC6
:1010D000F98DC082EE89FF89408121E030E0C901AD
:1010E0000C8C02C0880F991F0A94E2F7482B4083AA
:1010F000EE89FF894081C9010D8C02C0880F991FBC
:101100000A94E2F7482B4083EE89FF894081C901A8
:101110000E8C02C0880F991F0A94E2F7482B408377
:10112000EE89FF8980810F8C02C0220F331F0A9441
:10113000E2F7209528232083DF91CF911F910F9113
:10114000FF90EF90DF90CF90BF90AF900895CF9336
:10115000DF93DC011E968D919C911F97EC01C05C82
:10116000DF4FFC01EE5BFF4F288139818081918147
:1011700028173907C9F75696ED91FC91579740818A
:1011800021E030E0C9015C960C905C9702C0880FAA
:10119000991F0A94E2F78095842380835696ED91F7
:1011A000FC9157974081C9015D960C905D9702C0F4
:1011B000880F991F0A94E2F78095842380835696BE
:1011C000ED91FC9157974081C9015E960C905E9716
:1011D00002C0880F991F0A94E2F7809584238083C8
:1011E0005696ED91FC91579780815F960C905F9792
:1011F00002C0220F331F0A94E2F720952823208390
:101200001C96ED91FC911D97EE5BFF4F80819181C3
:1012100092938293DF91CF910895DC011C96ED911A
:10122000FC911D97E05CFF4F21913191808191816C
:10123000281B390B2F733070C9010895DC011C96EF
:10124000ED91FC911D97E05CFF4F20813181E054CE
:10125000F040DF01AE5BBF4F8D919C911197281735
:10126000390719F42FEF3FEF07C08D919C91E80FDC
:10127000F91F8081282F30E0C9010895DC011C96F8
:10128000ED91FC911D97E05CFF4F20813181E0548E
:10129000F040DF01AE5BBF4F8D919C9111972817F5
:1012A000390719F42FEF3FEF10C08D919C911197E2
:1012B000E80FF91F20818D919C91119701968F73F2
:1012C000907011969C938E9330E0C9010895DC01D3
:1012D00091968C919197882339F05496ED91FC91D9
:1012E0005597808186FFF9CF91961C920895CF93F0
:1012F000DF93EC01EE85FF85E05CFF4F20813181BB
:10130000E054F0402F5F3F4F2F733070DF01AE5B32
:10131000BF4F8D919C91119728173907D1F3E05C4D
:10132000FF4F80819181E054F040E80FF91F608306
:10133000EE85FF85E05CFF4F31832083EE89FF89D6
:10134000208181E090E00F8C02C0880F991F0A94E1
:10135000E2F7282B208381E089A3EC89FD89808135
:101360008064808381E090E0DF91CF91089581E0F7
:1013700008951F931092F2051092F10528EE33E0C4
:1013800040E050E02093F3053093F4054093F505D9
:101390005093F60561E872E07093F0056093EF05F5
:1013A0008FEC93E09093FC058093FB0583E194E040
:1013B0009093FE058093FD0585EC90E090930006E8
:1013C0008093FF0584EC90E09093020680930106E1
:1013D00080EC90E0909304068093030681EC90E00B
:1013E000909306068093050682EC90E090930806A1
:1013F0008093070686EC90E090930A068093090696
:1014000014E010930B06B3E0B0930C06A7E0A09392
:101410000D06F5E0F0930E06E1E0E0930F06109262
:101420001406109213062093150630931606409367
:10143000170650931806709312066093110687E5FD
:1014400094E090931E0680931D068BE994E09093A0
:10145000200680931F068DEC90E0909322068093E7
:1014600021068CEC90E0909324068093230688EC70
:1014700090E0909326068093250689EC90E0909367
:101480002806809327068AEC90E090932A068093A2
:1014900029068EEC90E090932C0680932B061093F7
:1014A0002D06B0932E06A0932F06F0933006E093FE
:1014B0003106109236061092350620933706309387
:1014C00038064093390650933A0670933406609379
:1014D00033068FED94E09093400680933F0683E2BD
:1014E00095E0909342068093410685ED90E09093BD
:1014F00044068093430684ED90E0909346068093E3
:10150000450680ED90E0909348068093470681ED74
:1015100090E090934A068093490682ED90E0909384
:101520004C0680934B0686ED90E090934E06809398
:101530004D0610934F06B0935006A0935106F093BA
:101540005206E093530610925806109257062093C5
:10155000590630935A0640935B0650935C0670938D
:1015600056066093550687E695E090936206809351
:1015700061068BEA95E0909364068093630685E3A9
:1015800091E0909366068093650684E391E09093E2
:1015900068068093670680E391E090936A068093E3
:1015A000690681E391E090936C0680936B0682E379
:1015B00091E090936E0680936D0686E391E09093A0
:1015C000700680936F0610937106B0937206A09315
:1015D0007306F0937406E09375061F910895CF92F9
:1015E000DF92EF92FF920F931F93CF93DF937C01D3
:1015F0006B018A01C0E0D0E00FC0D6016D916D0192
:10160000D701ED91FC910190F081E02DC701199572
:10161000C80FD91F015010400115110571F7CE01F7
:10162000DF91CF911F910F91FF90EF90DF90CF90BE
:101630000895EF92FF920F931F93CF93DF937C0156
:101640008B01C0E0D0E0F8010F5F1F4F649166236B
:1016500059F0D701ED91FC910190F081E02DC70187
:101660001995C80FD91FEFCFCE01DF91CF911F91F0
:101670000F91FF90EF900895DC01ED91FC910190A6
:10168000F081E02D199508959C01DB01ED91FC910D
:101690000190F081E02DCB01B90119950895EF92E9
:1016A000FF920F931F938C01DC01ED91FC9101904F
:1016B000F081E02D6DE019957C01D801ED91FC9150
:1016C0000190F081E02DC8016AE019959C012E0D72
:1016D0003F1DC9011F910F91FF90EF900895EF9268
:1016E000FF920F931F937C010E94190B8C01C7017D
:1016F0000E944F0B9C01200F311FC9011F910F91B8
:10170000FF90EF900895EF92FF920F931F937C014B
:10171000DC01ED91FC910190F081E02D19958C0197
:10172000C7010E944F0B080F191FC8011F910F918D
:10173000FF90EF900895EF92FF920F931F937C011B
:10174000DB01ED91FC910190F081E02DCB01B7011F
:1017500019958C01C7010E944F0B080F191FC80172
:101760001F910F91FF90EF900895CF93DF93EC01BD
:101770006115710519F420E030E00FC0DB010D9018
:101780000020E9F71197A61BB70BE881F9810280C9
:10179000F381E02DAD0119959C01C901DF91CF9135
:1017A00008954F925F927F928F929F92AF92BF92D5
:1017B000CF92DF92EF92FF920F931F93DF93CF931D
:1017C000CDB7DEB7A1970FB6F894DEBF0FBECDBF81
:1017D0002C01742ECB01223008F42AE019A231E248
:1017E000C32ED12CCC0EDD1E822E9924AA24BB241C
:1017F000672D752FA50194010E940F2879018A0198
:10180000C801B701A50194010E94F027472D461B8E
:101810000894C108D1084A3010F4405D01C0495C09
:10182000F6014083E114F1040105110521F07E2C3D
:101830005F2DC801DDCFC201B6010E94B50BA19694
:101840000FB6F894DEBF0FBECDBFCF91DF911F91D1
:101850000F91FF90EF90DF90CF90BF90AF909F904F
:101860008F907F905F904F900895DC012115310596
:1018700041F4ED91FC910190F081E02D642F1995D8
:1018800008950E94D10B0895EF92FF920F931F933A
:101890007C010E94350C8C01C7010E944F0B9C01FA
:1018A000200F311FC9011F910F91FF90EF900895F4
:1018B000EF92FF920F931F939A017B0100E010E0DB
:1018C000B801A7010E94350C1F910F91FF90EF9076
:1018D0000895CF92DF92EF92FF920F931F936C01C6
:1018E0007B019A0100E010E0B801A7010E94350CCD
:1018F0008C01C6010E944F0B080F191FC8011F91D0
:101900000F91FF90EF90DF90CF900895EF92FF92AC
:101910000F931F939A01E62EFF2400E010E0B80118
:10192000A7010E94350C1F910F91FF90EF90089531
:10193000CF92DF92EF92FF920F931F936C01E62EEE
:101940009A01FF2400E010E0B801A7010E94350CC5
:101950008C01C6010E944F0B080F191FC8011F916F
:101960000F91FF90EF90DF90CF900895CF92DF928C
:10197000EF92FF920F931F93CF93DF93EC016A01D5
:101980007B012115310541F4E881F9810190F08155
:10199000E02D642F19951FC02A303105D1F477FF4F
:1019A00017C0E881F9810190F081E02D6DE2199571
:1019B0008C0144275527BA014C195D096E097F092E
:1019C000CE012AE00E94D10B9801280F391F04C0D4
:1019D0002AE00E94D10B9C01C901DF91CF911F9198
:1019E0000F91FF90EF90DF90CF900895EF92FF92CC
:1019F0000F931F937C010E94B60C8C01C7010E94BB
:101A00004F0B9C01200F311FC9011F910F91FF90B7
:101A1000EF900895EF92FF920F931F937B019A012D
:101A20000027F7FC0095102FB801A7010E94B60C03
:101A30001F910F91FF90EF900895CF92DF92EF9258
:101A4000FF920F931F936C017B019A010027F7FC13
:101A50000095102FB801A7010E94B60C8C01C60199
:101A60000E944F0B080F191FC8011F910F91FF9083
:101A7000EF90DF90CF9008950E94B50B08957F926C
:101A80008F929F92AF92BF92CF92DF92EF92FF928E
:101A90000F931F93CF93DF934C017A018B01722E2A
:101AA000CB01BA01A80197010E943B21882321F0B4
:101AB000C4016DE972E021C0C0E0D0E057016801C7
:101AC000E894D7F8C601B5012FEF3FEF4FE75FE786
:101AD0000E943B21882351F4C601B5012FEF3FEF4F
:101AE0004FE75FE70E940B21181614F0C1E0D0E029
:101AF000219739F0C40161EA72E00E94B50BEC0154
:101B000093C0C801B7012FEF3FEF4FE75FE40E949A
:101B10007B20181654F0C801B7012FEF3FEF4FE7B5
:101B20005FEC0E94DB20882324F4C40165EA72E0A4
:101B3000E4CFC801B70120E030E040E050E00E946F
:101B4000DB2087FD03C0C0E0D0E00EC0D401ED91E2
:101B5000FC910190F081E02DC4016DE21995EC013A
:101B600017FB109517F9109520E030E040E05FE397
:101B7000DD240BC0CA01B90120E030E040E251E4AD
:101B80000E94CF1F9B01AC01D394D71498F3C801D6
:101B9000B7010E94A81E5B016C010E94FF1C7B0123
:101BA0008C01C401B801A7012AE030E00E94350C85
:101BB000C80FD91F772039F0C40169EA72E00E948A
:101BC000B50BC80FD91FC801B7010E9418229B018D
:101BD000AC01C601B5010E94771E24C020E030E0B0
:101BE00040E251E40E94D51E7B018C010E94C42179
:101BF0005B016C01CC24B7FCC094DC2CC401B601A1
:101C0000A5012AE030E00E94B60CC80FD91FC6011A
:101C1000B5010E9466219B01AC01C801B7010E9479
:101C2000771E7A947720D1F6CE01DF91CF911F9164
:101C30000F91FF90EF90DF90CF90BF90AF909F906B
:101C40008F907F9008950E943F0D0895EF92FF922C
:101C50000F931F937C010E943F0D8C01C7010E94CE
:101C60004F0B080F191FC8011F910F91FF90EF90A4
:101C70000895EF92FF920F931F937C010E94B50B82
:101C80008C01C7010E944F0B080F191FC8011F913B
:101C90000F91FF90EF900895AF92BF92CF92DF9295
:101CA000EF92FF920F931F93CF93DF935C016B0131
:101CB000EE24FF24C0E0D0E010C0D501ED91FC91EE
:101CC00000811181C601BE010E947011682FC501FB
:101CD000F8011995E80EF91E2196F6018481958187
:101CE000C817D90750F3C701DF91CF911F910F910A
:101CF000FF90EF90DF90CF90BF90AF900895EF925C
:101D0000FF920F931F937C010E944C0E8C01C70120
:101D10000E944F0B9C01200F311FC9011F910F9191
:101D2000FF90EF900895FC01448355836683778389
:101D30000895CF93DF93EC010E94F01A68877987AA
:101D40008A879B87E881F9810084F185E02DCE01A7
:101D500019959C0197FF15C00E94F01A28853985B6
:101D60004A855B85621B730B840B950B2C813D812F
:101D70004E815F81621773078407950718F32FEF71
:101D80003FEFC901DF91CF910895CF93DF93EC012D
:101D9000CE010E94990E9C0197FD0EC08D329105D7
:101DA00059F0C0970A9740F0E881F9810680F781E1
:101DB000E02DCE011995ECCFC901DF91CF910895A7
:101DC0006F927F928F929F92AF92BF92CF92DF924B
:101DD000EF92FF920F931F93CF93DF93EC01662E48
:101DE0000E94C50E982E77248824EE24FF248701B4
:101DF0000F2EF0E0AF2EF0E0BF2EF0E8CF2EFFE385
:101E0000DF2EF02D961491F18DE2981619F47724B7
:101E100073942CC09EE2991619F48824839426C0EA
:101E2000892D80538A3010F5C801B7012AE030E0CF
:101E300040E050E00E94F0277B018C01E90CF11C8E
:101E4000011D111D80ED9FEFAFEFBFEFE80EF91EF2
:101E50000A1F1B1F882051F0C601B5012DEC3CEC78
:101E60004CEC5DE30E94D51E5B016C01E881F981B9
:101E70000680F781E02DCE011995CE010E94990EC2
:101E8000982F982E80538A3008F4BCCF9E3209F4E4
:101E9000B9CF961509F4B6CF772041F0109500958B
:101EA000F094E094E11CF11C011D111D882049F003
:101EB000C801B7010E946621A60195010E94D51EA6
:101EC00004C0C801B7010E946621DF91CF911F9124
:101ED0000F91FF90EF90DF90CF90BF90AF909F90C9
:101EE0008F907F906F90089561E00E94E00E0895BA
:101EF0009F92AF92BF92CF92DF92EF92FF920F9399
:101F00001F93CF93DF936C01B62E0E94C50EEC0198
:101F100097FF04C0EE24FF2487014AC09924EE24D1
:101F2000FF248701AB2CBB24CA15DB0529F1CD3278
:101F3000D10519F4992493941FC0CE01C0970A9734
:101F4000D8F4C801B7012AE030E040E050E00E9438
:101F5000F0277B018C01CE01AA2797FDA095BA2F0F
:101F6000E80EF91E0A1F1B1F80ED9FEFAFEFBFEFBA
:101F7000E80EF91E0A1F1B1FD601ED91FC91068089
:101F8000F781E02DC6011995C6010E94990EEC015A
:101F9000C0970A9748F2CA15DB0531F2992041F043
:101FA00010950095F094E094E11CF11C011D111DA9
:101FB000B701C801DF91CF911F910F91FF90EF9072
:101FC000DF90CF90BF90AF909F90089561E00E9406
:101FD000780F0895CF93DF93EC010E94F01A688781
:101FE00079878A879B87E881F9810680F781E02DD0
:101FF000CE0119959C0197FF15C00E94F01A288503
:1020000039854A855B85621B730B840B950B2C818C
:102010003D814E815F81621773078407950718F32E
:102020002FEF3FEFC901DF91CF910895CF92DF925B
:10203000FF920F931F93CF93DF93082FF92E6B011D
:10204000142F63EB72E00E948F17C6010E94EA0F03
:10205000BC01C12FD0E008C0802F9F2D0E94981690
:10206000C6010E94EA0FBC0177FD03C06C177D0713
:1020700099F7802F9F2DDF91CF911F910F91FF90A6
:10208000DF90CF9008950F931F93CF93DF93182F76
:10209000092FEB0163EB72E00E948F1704C0812FC0
:1020A000902F0E949816CE010E94EA0FBC0197FF64
:1020B000F6CF812F902FDF91CF911F910F9108952F
:1020C000AF92BF92CF92DF92EF92FF920F931F9346
:1020D000CF93DF935C017A0189012115310519F451
:1020E000C0E0D0E014C0C0E0D0E0C62EDD240CC0BB
:1020F000C5010E94EA0F97FD0AC08C159D0539F0B5
:10210000F70181937F012196C017D10788F3CE0193
:10211000DF91CF911F910F91FF90EF90DF90CF90C3
:10212000BF90AF900895CF92DF92EF92FF920F93FE
:102130001F93CF93DF936C018B017A01C0E0D0E055
:1021400009C0C6010E94EA0F97FD07C0F8018193FC
:102150008F012196CE15DF05A0F3CE01DF91CF913F
:102160001F910F91FF90EF90DF90CF9008956F92A5
:102170007F928F929F92AF92BF92CF92DF92EF9217
:10218000FF920F931F93CF93DF933C017B014A0192
:1021900059016801FB0180818823A1F1C0E0D0E0F2
:1021A00027C0F701EC0FFD1F808190E02817390749
:1021B00011F0C0E0D0E0F701EC0FFD1F808190E04E
:1021C0002817390721F42196C815D905D8F4C11468
:1021D000D10471F0F501E00FF11F808190E0281724
:1021E000390731F40F5F1F4F0C151D0518F00CC097
:1021F00000E010E0C3010E94EA0F9C0118161906C6
:1022000084F202C081E001C080E0DF91CF911F9194
:102210000F91FF90EF90DF90CF90BF90AF909F9085
:102220008F907F906F9008950F931F939A01DB0119
:102230000D900020E9F7AD0141505040461B570B6F
:10224000D9010D900020E9F71197A21BB30B8D0166
:102250000E94B7101F910F91089540E050E00E9436
:10226000141108950F931F9320E030E000E010E078
:102270000E94B7101F910F910895FC0184819581F0
:102280006817790748F40190F081E02D309721F02C
:10229000E60FF71F8081089580E00895FC01848196
:1022A00095816817790730F40190F081E02DE60FF1
:1022B000F71F40830895FC019B0184819581681775
:1022C000790728F4608171816115710529F41092F4
:1022D000770667E776E002C0620F731FCB010895AF
:1022E000FC01848195816817790748F40190F08199
:1022F000E02D309721F0E60FF71F8081089580E0F0
:102300000895FC010190F081E02D309729F40895A3
:10231000861709F44083319680818823C9F7089590
:10232000FC0180819181009729F420E030E040E0B9
:1023300050E004C00E9486249B01AC01B901CA018F
:102340000895CF92DF92EF92FF920F931F93CF9356
:10235000DF936C01DC01ED90FC901197E114F10426
:10236000E9F11496CD91DC9115972097B9F1870189
:1023700002C00F5F1F4FF801808190E00E946E281D
:10238000892BB9F72197CE0DDF1D01C021978881D8
:1023900090E00E946E28892B19F0C017D107B0F782
:1023A000FE013196E01BF10BD6011596FC93EE93DE
:1023B00014972D913C912017310728F4C901B801D9
:1023C000AF010E94AD24D601ED91FC9111971496B6
:1023D0008D919C911597E80FF91F1082DF91CF9195
:1023E0001F910F91FF90EF90DF90CF900895CF93C2
:1023F000DF93FC01C081D181209729F407C090E0D0
:102400000E947E28899388818823C9F7DF91CF9124
:102410000895CF93DF93FC01C081D181209729F4E7
:1024200007C090E00E947628899388818823C9F7A5
:10243000DF91CF910895EF92FF920F931F93CF9367
:10244000DF93FC01DB018617970719F124813581A1
:1024500014968D919C91159728173907E1F4232B39
:10246000C1F0E080F180CD91DC910FC090E00E943E
:1024700076288C01888190E00E9476280817190739
:1024800051F40894E11CF11C2196F7018081882306
:1024900069F781E001C080E0DF91CF911F910F913A
:1024A000FF90EF900895AF92BF92CF92DF92EF929C
:1024B000FF920F931F93CF93DF93FC015B017A018F
:1024C000DB0114962D913C9115972115310559F199
:1024D00084819581009739F18217930720F148177D
:1024E000590720F07C010894E108F108008111816E
:1024F000C801CFEFDFEF6801CE0CDF1C10C0F50183
:10250000608171810E940B259C01009771F0801BF6
:10251000910BE816F90608F0EC01C9010196C816FE
:10252000D90668F702C0CFEFDFEFCE01DF91CF9180
:102530001F910F91FF90EF90DF90CF90BF90AF90E1
:102540000895FC01DB014481558114968D919C9185
:102550001597481B590BCF010E9453120895CF9332
:10256000DF93FC01DB01848195814817590760F4F2
:10257000C081D1816D917C91CE01840F951F0E9405
:102580000B259C01009719F42FEF3FEF02C02C1B85
:102590003D0BC901DF91CF91089540E050E00E94CA
:1025A000AF120895DF92EF92FF920F931F93CF9394
:1025B000DF93EC018C819D8148175907B8F47A01AB
:1025C0000894E11CF11CE881F981EE0DFF1DD0801B
:1025D000108208811981C80170E00E9400259C01C9
:1025E0000E0D1F1DF801D082009719F4EFEFFFEFD9
:1025F00005C088819981F901E81BF90BCF01DF91B2
:10260000CF911F910F91FF90EF90DF900895FC0103
:1026100044815581415050400E94D2120895CF9379
:10262000DF93FC01848195814817590758F4C081D4
:10263000D181CE01840F951F70E00E94C8249C01B7
:10264000009719F42FEF3FEF02C02C1B3D0BC9017F
:10265000DF91CF91089540E050E00E940F1308955C
:102660000F931F93CF93DF93FC018B01411551050D
:10267000F9F061157105E1F084819581281739071A
:1026800018F0FB01108214C041505040EC01C21BF5
:10269000D30B4C175D0708F4EA0160817181620F6A
:1026A000731FC801AE010E94F124C00FD11F188210
:1026B000DF91CF911F910F910895FC01DB012481DF
:1026C000358114964D915C91159724173507A8F024
:1026D00080819181009789F06D917C9161157105E0
:1026E00061F0241B350B820F931F0E94D3249C01A1
:1026F00080E0232B19F481E0089580E00895DC0147
:10270000FB0114968D919C911597892B31F46115DD
:102710007105A9F090E0808108C00D90BC91A02DBA
:102720006115710529F490E08C91882349F407C064
:10273000CD010E94D3249C0190E0232B09F491E069
:10274000892F0895CF93DF939C01FB01EC01A881B1
:10275000B981109729F06081718161157105D1F4FB
:10276000C081D181209759F084819581892B39F0DE
:10277000888190E022273327281B390B12C010973D
:1027800071F0F90184819581892B49F08C91282F72
:1027900030E007C0CD010E94D3249C0102C020E09C
:1027A00030E0C901DF91CF9108950E94A213892FD3
:1027B0008095881F8827881F08950E94A21320E013
:1027C000181619060CF021E0822F08950E94A2131A
:1027D00020E0181619060CF421E0822F08950E94BB
:1027E000A213892F881F8827881F0895FC01DB0109
:1027F0002481358114968D919C911597281739075E
:1028000011F020E007C0CF010E94A21320E0892B25
:1028100009F421E0822F0895FC01DB0114962D912B
:102820003C91159784819581821B930B84179507A2
:10283000A0F080819181009781F06D917C9161156C
:10284000710559F0840F951FA9010E94E3249C0192
:1028500080E0232B19F481E0089580E00895FC01C5
:10286000DB012481358114968D919C911597281751
:10287000390710F480E00895CF0140E050E00E9455
:102880000C1408950F931F93CF93DF93EC018B01EA
:102890006F5F7F4F888199810E940F27009711F405
:1028A00080E005C0998388831B830A8381E0DF91E0
:1028B000CF911F910F9108952F923F924F925F9267
:1028C0006F927F928F929F92AF92BF92CF92DF9240
:1028D000EF92FF920F931F93CF93DF935C012B0135
:1028E0004A01DC0114960D911C91159701151105F3
:1028F00009F4D4C0FB01C480D580C114D10409F40B
:10290000CDC0DA0114966D907C9015976C187D08F7
:10291000FC01E080F1806114710491F01BC0D401CE
:102920006C9111967C91119714964D915C9115972D
:102930008C2F0E94AD24F401E480F580EC0EFD1E86
:10294000D2016D917C91C7010E940B25EC0100978B
:1029500031F7A4C077FE02C067012EC0FB012080C2
:102960003180E8013CC08E010E191F09C601B70174
:10297000A8010E94AD240C0D1D1DD4016C9111966F
:102980007C91119714964D915C911597C8010E9406
:10299000AD24F401C480D580C00ED11ED20114969E
:1029A000ED90FC901597EC0EFD1EF501848195814C
:1029B000860D971D95838483D2016D917C91C7010B
:1029C0000E940B25EC01009771F6C601B7010E9429
:1029D000DC2464C07B01EC0CFD1CC60DD71DC701B7
:1029E000B1010E940B25BC010097A1F7C017D107C8
:1029F00009F454C0F501828193818C179D0708F07A
:102A000044C0C501BE010E9442148823F1F546C0AE
:102A1000C501B201A9010E945312EC0197FD3EC00D
:102A2000D5016D917C911197F201848195818C0F74
:102A30009D1F680F791F14964D915C911597481B47
:102A4000590BCB01860D971D0E94B624D501149613
:102A50008D919C911597860D971D15969C938E933D
:102A60001497ED91FC911197E80FF91F10822D91A9
:102A70003C912C0F3D1FF40160817181448155818F
:102A8000C9010E94AD249E0105C0D50114962D9167
:102A90003C9115972150304037FFBACFDF91CF914D
:102AA0001F910F91FF90EF90DF90CF90BF90AF906C
:102AB0009F908F907F906F905F904F903F902F905E
:102AC0000895CF93DF93EC0188819981892B29F0B8
:102AD0008A819B818617970760F4CE010E94421479
:102AE000882341F08C819D81892B19F4E881F9813B
:102AF000108281E0DF91CF910895EF92FF920F93C2
:102B00001F93CF93DF93EC017B016C817D81E114F6
:102B1000F104C1F04115510599F08A01060F171F04
:102B2000B8010E946115882369F0888199812C8100
:102B30003D81820F931FB7010E94DC241D830C830B
:102B400081E001C080E0DF91CF911F910F91FF9054
:102B5000EF900895EF92FF920F931F93DF93CF931F
:102B6000CDB7DEB72B970FB6F894DEBF0FBECDBF43
:102B70007C01CB01BA018E010F5F1F4FA8012AE033
:102B800030E00E948F25F80101900020E9F731978D
:102B9000E01BF10BC701B801AF010E947D152B9618
:102BA0000FB6F894DEBF0FBECDBFCF91DF911F915E
:102BB0000F91FF90EF900895EF92FF920F931F9364
:102BC000DF93CF93CDB7DEB72C970FB6F894DEBF67
:102BD0000FBECDBF7C01CB01BA018E010F5F1F4F2D
:102BE000A8012AE030E00E944625F801019000206B
:102BF000E9F73197E01BF10BC701B801AF010E9463
:102C00007D152C960FB6F894DEBF0FBECDBFCF91C9
:102C1000DF911F910F91FF90EF900895EF92FF9237
:102C20000F931F93DF93CF9300D000D0CDB7DEB7C3
:102C30007C01CB018E010F5F1F4FB8014AE050E0CD
:102C40000E94B425F80101900020E9F73197E01BBC
:102C5000F10BC701B801AF010E947D1526960FB692
:102C6000F894DEBF0FBECDBFCF91DF911F910F91C2
:102C7000FF90EF900895EF92FF920F931F93DF93D1
:102C8000CF93CDB7DEB727970FB6F894DEBF0FBE50
:102C9000CDBF7C01CB018E010F5F1F4FB8014AE011
:102CA00050E00E942525F80101900020E9F73197B6
:102CB000E01BF10BC701B801AF010E947D152796FB
:102CC0000FB6F894DEBF0FBECDBFCF91DF911F913D
:102CD0000F91FF90EF900895EF92FF920F931F9343
:102CE000DF93CF9300D00F92CDB7DEB77C01862F54
:102CF00090E08E010F5F1F4FB8014AE050E00E9444
:102D00002525F80101900020E9F73197E01BF10B30
:102D1000C701B801AF010E947D150F900F900F9071
:102D20000F90CF91DF911F910F91FF90EF90089539
:102D3000DF93CF930F920F92CDB7DEB769831A82DC
:102D4000BE016F5F7F4F41E050E00E947D150F9004
:102D50000F90CF91DF9108956115710511F480E016
:102D60000895DB010D900020E9F71197A61BB70B22
:102D7000AD010E947D150895FB0160817181448140
:102D800055810E947D150895CF93DF93EC018881D2
:102D90009981009711F00E947726198218821D826E
:102DA0001C821B821A82DF91CF9108950F931F938B
:102DB000182F092F0E94AA15882321F4812F902F04
:102DC0000E94C416812F902F1F910F9108950F9389
:102DD0001F93182F092F0E94DC15882321F4812FBF
:102DE000902F0E94C416812F902F1F910F9108954C
:102DF0000F931F93182F092F0E940E16882321F47A
:102E0000812F902F0E94C416812F902F1F910F9118
:102E100008950F931F93182F092F0E943B168823A4
:102E200021F4812F902F0E94C416812F902F1F9183
:102E30000F9108950F931F93182F092F0E946C165E
:102E4000882321F4812F902F0E94C416812F902F68
:102E50001F910F9108950F931F93182F092F0E9410
:102E60009816882321F4812F902F0E94C416812F59
:102E7000902F1F910F9108950F931F93182F092FD3
:102E80006115710561F0DB010D900020E9F71197E4
:102E9000A61BB70BAD010E947D15882321F4812F5D
:102EA000902F0E94C416812F902F1F910F9108958B
:102EB0000F931F93182F092FFB01608171814481AB
:102EC00055810E947D15882321F4812F902F0E9427
:102ED000C416812F902F1F910F910895EF92FF92AA
:102EE0000F931F93CF93DF93EC017B018A01BA010B
:102EF0000E946115882321F4CE010E94C41607C0E8
:102F00001D830C8388819981B7010E94DC24CE0146
:102F1000DF91CF911F910F91FF90EF900895CF9384
:102F2000DF93EC01198218821B821A821D821C8297
:102F30001E826115710551F0DB010D900020E9F74B
:102F40001197A61BB70BAD010E946E17DF91CF91B1
:102F50000895CF93DF93EC01198218821B821A82A5
:102F60001D821C821E826115710551F0DB010D90DE
:102F70000020E9F71197A61BB70BAD010E946E1751
:102F8000DF91CF9108950F931F93182F092F61158B
:102F9000710559F0DB010D900020E9F71197A61B90
:102FA000B70BAD010E946E1702C00E94C416812F9C
:102FB000902F1F910F910895EF92FF920F931F93FF
:102FC000DF93CF93CDB7DEB7A1970FB6F894DEBFEE
:102FD0000FBECDBF8C01FC011182108213821282C0
:102FE000158214821682CB01BA017E010894E11C7D
:102FF000F11CA70130E00E948F25C801B7010E9493
:10300000C317A1960FB6F894DEBF0FBECDBFCF9108
:10301000DF911F910F91FF90EF900895EF92FF9233
:103020000F931F93DF93CF93CDB7DEB7A1970FB662
:10303000F894DEBF0FBECDBF8C01FC01118210825F
:1030400013821282158214821682CB01BA017E018C
:103050000894E11CF11CA70130E00E948F25C801F3
:10306000B7010E94C317A1960FB6F894DEBF0FBE3A
:10307000CDBFCF91DF911F910F91FF90EF900895F9
:10308000EF92FF920F931F93DF93CF93CDB7DEB7ED
:10309000A2970FB6F894DEBF0FBECDBF8C01FC0126
:1030A0001182108213821282158214821682CB0141
:1030B000BA017E010894E11CF11CA70130E00E94D6
:1030C0004625C801B7010E94C317A2960FB6F8940F
:1030D000DEBF0FBECDBFCF91DF911F910F91FF904B
:1030E000EF900895EF92FF920F931F93DF93CF938A
:1030F000CDB7DEB7A2970FB6F894DEBF0FBECDBF37
:103100008C01FC01118210821382128215821482BA
:103110001682CB01BA017E010894E11CF11CA701C3
:1031200030E00E944625C801B7010E94C317A2964D
:103130000FB6F894DEBF0FBECDBFCF91DF911F91C8
:103140000F91FF90EF900895EF92FF920F931F93CE
:10315000DF93CF93CDB7DEB761970FB6F894DEBF9C
:103160000FBECDBF8C01CB01F801118210821382FA
:1031700012821582148216827E010894E11CF11CD1
:10318000B70150E00E94B425C801B7010E94C317DF
:1031900061960FB6F894DEBF0FBECDBFCF91DF9121
:1031A0001F910F91FF90EF900895EF92FF920F9370
:1031B0001F93DF93CF93CDB7DEB761970FB6F89427
:1031C000DEBF0FBECDBF8C01CB01F8011182108292
:1031D000138212821582148216827E010894E11CE9
:1031E000F11CB70150E00E94B425C801B7010E944C
:1031F000C31761960FB6F894DEBF0FBECDBFCF9157
:10320000DF911F910F91FF90EF900895EF92FF9241
:103210000F931F93DF93CF93CDB7DEB762970FB6AF
:10322000F894DEBF0FBECDBF8C01CB01F801118237
:103230001082138212821582148216827E010894F3
:10324000E11CF11CB70150E00E942525C801B7011F
:103250000E94C31762960FB6F894DEBF0FBECDBFB3
:10326000CF91DF911F910F91FF90EF900895EF9212
:10327000FF920F931F93DF93CF93CDB7DEB7629783
:103280000FB6F894DEBF0FBECDBF8C01CB01F801A5
:1032900011821082138212821582148216827E019C
:1032A0000894E11CF11CB70150E00E942525C801DB
:1032B000B7010E94C31762960FB6F894DEBF0FBE27
:1032C000CDBFCF91DF911F910F91FF90EF900895A7
:1032D000EF92FF920F931F93DF93CF93CDB7DEB79B
:1032E00029970FB6F894DEBF0FBECDBF8C01862F95
:1032F000F8011182108213821282158214821682C2
:1033000090E07E010894E11CF11CB70150E00E949E
:10331000B425C801B7010E94C31729960FB6F894C7
:10332000DEBF0FBECDBFCF91DF911F910F91FF90F8
:10333000EF900895EF92FF920F931F93DF93CF9337
:10334000CDB7DEB729970FB6F894DEBF0FBECDBF5D
:103350008C01862FF801118210821382128215824D
:103360001482168290E07E010894E11CF11CB701E2
:1033700050E00E94B425C801B7010E94C3172996E6
:103380000FB6F894DEBF0FBECDBFCF91DF911F9176
:103390000F91FF90EF900895DF93CF930F920F92CC
:1033A000CDB7DEB7FC011182108213821282158222
:1033B0001482168269831A82BE016F5F7F4F0E945A
:1033C000C3170F900F90CF91DF910895DF93CF93A4
:1033D0000F920F92CDB7DEB7FC01118210821382DB
:1033E000128215821482168269831A82BE016F5F6F
:1033F0007F4F0E94C3170F900F90CF91DF910895D8
:10340000BF92CF92DF92EF92FF920F931F93CF93D1
:10341000DF93082FB92E6B017A01E90124173507D4
:1034200010F4EA017901802F9B2D64EB72E00E9479
:103430008F17D60114968D919C9115978E159F0527
:10344000D0F08C179D0708F4EC01D601ED91FC91AA
:103450001197EC0FFD1F108110826D917C916E0D04
:103460007F1D802F9B2D0E94C317D601ED91FC91EB
:10347000EC0FFD1F1083802F9B2DDF91CF911F91AB
:103480000F91FF90EF90DF90CF90BF9008950F9332
:103490001F938C01FB01248135810E94001AC80111
:1034A0001F910F910895CF93DF93EC01FB018617D5
:1034B000970761F0608171816115710529F0448180
:1034C00055810E946E1702C00E94C416CE01DF9182
:1034D000CF910895FC01118210821382128215820D
:1034E000148216820E94531A0895FC0111821082E0
:1034F000138212821582148216820E94531A089532
:10350000FC01808191810E9477260895FC018081D1
:1035100091810E9477260895FC0120E030E08081AF
:10352000882311F421E030E0C9010895FC0181E015
:1035300080830895089508950E94772608950E9433
:10354000772608950E94DA2508950E94DA250895C5
:103550001F920F920FB60F9211242F933F938F93C8
:103560009F93AF93BF9380917C0690917D06A0912D
:103570007E06B0917F06309180060196A11DB11D97
:10358000232F2D5F2D3720F02D570196A11DB11D42
:103590002093800680937C0690937D06A0937E0600
:1035A000B0937F068091780690917906A0917A0673
:1035B000B0917B060196A11DB11D80937806909372
:1035C0007906A0937A06B0937B06BF91AF919F9145
:1035D0008F913F912F910F900FBE0F901F901895D4
:1035E0008FB7F89420917C0630917D0640917E063D
:1035F00050917F068FBFB901CA0108959FB7F89413
:10360000209178063091790640917A0650917B0698
:1036100086B5A89B06C08F3F21F02F5F3F4F4F4FCD
:103620005F4F9FBF542F432F322F2227280F311D6A
:10363000411D511D82E0220F331F441F551F8A95E3
:10364000D1F7B901CA0108959B01AC017FB7F89485
:103650008091780690917906A0917A06B0917B06C8
:1036600066B5A89B05C06F3F19F00196A11DB11D5D
:103670007FBFBA2FA92F982F8827860F911DA11DD4
:10368000B11D62E0880F991FAA1FBB1F6A95D1F771
:10369000BC012DC0FFB7F89480917806909179060F
:1036A000A0917A06B0917B06E6B5A89B05C0EF3FD6
:1036B00019F00196A11DB11DFFBFBA2FA92F982F98
:1036C00088278E0F911DA11DB11DE2E0880F991F63
:1036D000AA1FBB1FEA95D1F7861B970B885E934004
:1036E000C8F2215030404040504068517C4F211575
:1036F00031054105510571F60895019739F0880F9C
:10370000991F880F991F02970197F1F708957894F0
:1037100084B5826084BD84B5816084BD85B58260D6
:1037200085BD85B5816085BDEEE6F0E08081816074
:103730008083E1E8F0E01082808182608083808174
:1037400081608083E0E8F0E0808181608083E1EB4C
:10375000F0E0808184608083E0EBF0E08081816034
:103760008083E1E9F0E080818260808380818160F4
:103770008083E0E9F0E0808181608083E1EAF0E02D
:10378000808182608083808181608083E0EAF0E0D4
:10379000808181608083E1E2F1E0808182608083CA
:1037A000808181608083E0E2F1E0808181608083BC
:1037B000EAE7F0E08081846080838081826080839A
:1037C0008081816080838081806880831092C100C5
:1037D0000895CF93DF93482F50E0CA0188589E4F39
:1037E000FC0134914E5C5E4FFA018491882369F1AB
:1037F00090E0880F991FFC01EC51FF4FA591B49107
:10380000FC01E250FF4FC591D491662351F42FB7CC
:10381000F8948C91932F909589238C938881892398
:103820000BC0623061F42FB7F8948C91932F909570
:1038300089238C938881832B88832FBF06C09FB7F1
:10384000F8948C91832B8C939FBFDF91CF91089537
:10385000893009F449C08A30A0F4843051F18530B0
:1038600040F4823079F1833000F5813009F063C093
:1038700026C0873079F1883098F5863009F05BC032
:1038800025C08D3009F442C08E3028F48B30B1F160
:103890008C30C0F52DC0803109F442C0813109F46B
:1038A00045C08F3009F047C037C0809180008F77C6
:1038B00003C0809180008F7D80938000089584B53F
:1038C0008F7702C084B58F7D84BD08958091B0004C
:1038D0008F7703C08091B0008F7D8093B0000895F2
:1038E000809190008F7707C0809190008F7D03C0FA
:1038F00080919000877F8093900008958091A00030
:103900008F7707C08091A0008F7D03C08091A000B9
:10391000877F8093A0000895809120018F7703C056
:10392000809120018F7D8093200108958091200156
:10393000877F809320010895FF920F931F93F62EA7
:10394000482F50E0CA0182549E4FFC012491CA01C5
:1039500088589E4FFC0114914E5C5E4FFA01049111
:103960000023C9F0222319F0822F0E94281CE02F87
:10397000F0E0EE0FFF1FE250FF4FA591B4919FB70B
:10398000F894FF2021F48C911095812302C08C9132
:10399000812B8C939FBF1F910F91FF9008950F93E0
:1039A0001F93482F50E0CA0182549E4FFC0124917E
:1039B000CA0188589E4FFC0104914E5C5E4FFA018B
:1039C0001491112319F420E030E015C0222319F0DE
:1039D000822F0E94281C812F90E0880F991F885EFB
:1039E0009E4FFC01A591B4918C9120E030E08023A2
:1039F00011F021E030E0C9011F910F910895EF927D
:103A0000FF920F931F937B018C0120E030E040E098
:103A10005FE40E94AB2088238CF0C801B70120E04E
:103A200030E040E05FE40E94771E0E94C4219B01C9
:103A3000AC01205030404040504806C0C801B7019A
:103A40000E94C4219B01AC01B901CA011F910F91D1
:103A5000FF90EF900895A0E0B0E0E1E3FDE10C9469
:103A60003128DC012B01FA019C91923008F439C114
:103A7000EB018881823008F433C1943069F48430DA
:103A800009F02FC111969C9111978981981709F41B
:103A900028C1ABEBB2E025C1843009F421C18230EA
:103AA000A9F4923009F01DC19A01AD0188E0EA0144
:103AB0000990AE01E90109929E018150C1F7E2012E
:103AC000898111969C918923818308C1923009F4E0
:103AD00007C112962D903C901397EB018A819B8130
:103AE0001496AD90BD90CD90DC901797EC80FD8042
:103AF0000E811F819101281B390BB90137FF04C0CA
:103B000066277727621B730B603271050CF061C06A
:103B1000121613066CF537014801062E04C0969460
:103B20008794779467940A94D2F721E030E040E0DC
:103B300050E004C0220F331F441F551F6A95D2F76F
:103B400021503040404050402E213F2140235123FE
:103B5000211531054105510521F021E030E040E01B
:103B600050E079018A01E628F728082919293CC084
:103B7000232BD1F1260E371E35014601062E04C037
:103B800096948794779467940A94D2F721E030E072
:103B900040E050E004C0220F331F441F551F6A95B8
:103BA000D2F721503040404050402A213B214C2147
:103BB0005D21211531054105510521F021E030E05D
:103BC00040E050E059016A01A628B728C828D92842
:103BD0000BC0821593052CF01C01AA24BB2465019F
:103BE00003C0EE24FF24870111969C91D201119607
:103BF0008C91981709F445C0992339F0A8019701D1
:103C00002A193B094C095D0906C0A60195012E1928
:103C10003F09400B510B57FD08C0118233822282AD
:103C200024833583468357831DC081E0818333829B
:103C3000228288279927DC01821B930BA40BB50BEA
:103C400084839583A683B7830DC0220F331F441F3F
:103C5000551F24833583468357838281938101973F
:103C6000938382832481358146815781DA01C9019A
:103C70000197A109B1098F5F9F4FAF4FBF4328F351
:103C80000BC0918333822282EA0CFB1C0C1D1D1D8C
:103C9000E482F5820683178383E080832481358163
:103CA0004681578157FF1AC0C901AA2797FDA095E1
:103CB000BA2F81709070A070B07056954795379567
:103CC0002795822B932BA42BB52B84839583A683D6
:103CD000B78382819381019693838283DF0101C040
:103CE000D201CD01CDB7DEB7E2E10C944D28A0E2C0
:103CF000B0E0EDE7FEE10C943D2869837A838B8385
:103D00009C832D833E834F835887E9E0EE2EF12C70
:103D1000EC0EFD1ECE010196B7010E94B5238E0167
:103D20000F5E1F4FCE010596B8010E94B5238A8908
:103D300091E089278A8BC701B801AE01475E5F4FCA
:103D40000E942B1D0E94E022A096E6E00C945928C8
:103D5000A0E2B0E0EEEAFEE10C943D2869837A83AC
:103D60008B839C832D833E834F835887F9E0EF2E0E
:103D7000F12CEC0EFD1ECE010196B7010E94B52379
:103D80008E010F5E1F4FCE010596B8010E94B5232C
:103D9000C701B801AE01475E5F4F0E942B1D0E9414
:103DA000E022A096E6E00C945928A0E2B0E0EBED0A
:103DB000FEE10C94312869837A838B839C832D8365
:103DC0003E834F835887CE010196BE01675F7F4FC8
:103DD0000E94B523CE010596BE016F5E7F4F0E9403
:103DE000B5239985923088F089898230C8F0943063
:103DF00019F4823051F404C0843029F4923081F4F3
:103E00008BEB92E0C6C0923049F420E09A858A8913
:103E1000981321E02A87CE010996BBC0823049F46D
:103E200020E09A858A89981321E02A8BCE01419659
:103E3000B0C02D843E844F8458886D887E888F88DA
:103E4000988CEE24FF248701AA24BB24650140E05E
:103E500050E060E070E0E0E0F0E0C101817090705F
:103E6000892BE9F0E60CF71C081D191D9A01AB011E
:103E70002A0D3B1D4C1D5D1D80E090E0A0E0B0E0F0
:103E8000E614F7040805190520F481E090E0A0E0AD
:103E9000B0E0BA01A901480F591F6A1F7B1FAA0C85
:103EA000BB1CCC1CDD1C97FE08C081E090E0A0E0AC
:103EB000B0E0A82AB92ACA2ADB2A3196E032F105F5
:103EC00049F0660C771C881C991C569447943794CB
:103ED0002794C3CFFA85EA892B893C898B859C85F9
:103EE000280F391F2E5F3F4F17C0CA018170907095
:103EF000892B61F016950795F794E79480E090E0A0
:103F0000A0E0B0E8E82AF92A0A2B1B2B76956795E2
:103F1000579547952F5F3F4F77FDE7CF0CC0440F74
:103F2000551F661F771F17FD4160EE0CFF1C001F19
:103F3000111F21503040403090E0590790E0690750
:103F400090E4790760F32B8F3C8FDB01CA018F77F8
:103F50009070A070B07080349105A105B10561F436
:103F600047FD0AC0E114F1040105110529F0405C88
:103F70005F4F6F4F7F4F40781A8EFE1711F081E030
:103F80008A8F4D8F5E8F6F8F78A383E0898FCE01EC
:103F900049960E94E022A096E2E10C944D28A8E107
:103FA000B0E0E5EDFFE10C94392869837A838B83D7
:103FB0009C832D833E834F835887B9E0EB2EF12CF1
:103FC000EC0EFD1ECE010196B7010E94B5238E01B5
:103FD0000F5E1F4FCE010596B8010E94B5232985BB
:103FE000223008F47EC03989323010F4B8017CC028
:103FF0008A859A8989278A87243011F0223031F402
:10400000231709F06EC06BEB72E06EC0343039F4E8
:104010001D861E861F86188A1C861B8604C03230A9
:1040200021F484E08987B7015FC02B853C858B89AB
:104030009C89281B390B3C872B87ED84FE840F85D8
:104040001889AD88BE88CF88D88CEA14FB040C058B
:104050001D0540F4EE0CFF1C001F111F21503040C5
:104060003C872B8720E030E040E050E080E090E0AB
:10407000A0E0B0E460E070E0EA14FB040C051D056C
:1040800040F0282B392B4A2B5B2BEA18FB080C0934
:104090001D09B695A79597958795EE0CFF1C001FF7
:1040A000111F6F5F7F4F6F31710531F7DA01C90161
:1040B0008F779070A070B07080349105A105B10524
:1040C00061F427FD0AC0E114F1040105110529F08E
:1040D000205C3F4F4F4F5F4F20782D873E874F87A3
:1040E000588BBE01675F7F4FCB010E94E02268962C
:1040F000EAE00C945528A8E1B0E0E1E8F0E20C9485
:104100003D2869837A838B839C832D833E834F83F1
:10411000588789E0E82EF12CEC0EFD1ECE010196A9
:10412000B7010E94B5238E010F5E1F4FCE01059689
:10413000B8010E94B5238985823040F08989823098
:1041400028F0C701B8010E942D2401C08FEF6896A6
:10415000E6E00C945928A8E1B0E0E1EBF0E20C9421
:104160003D2869837A838B839C832D833E834F8391
:10417000588789E0E82EF12CEC0EFD1ECE01019649
:10418000B7010E94B5238E010F5E1F4FCE01059629
:10419000B8010E94B5238985823040F08989823038
:1041A00028F0C701B8010E942D2401C08FEF689646
:1041B000E6E00C945928A8E1B0E0E1EEF0E20C94BE
:1041C0003D2869837A838B839C832D833E834F8331
:1041D000588789E0E82EF12CEC0EFD1ECE010196E9
:1041E000B7010E94B5238E010F5E1F4FCE010596C9
:1041F000B8010E94B5238985823040F089898230D8
:1042000028F0C701B8010E942D2401C081E0689602
:10421000E6E00C945928A8E1B0E0E1E1F1E20C9469
:104220003D2869837A838B839C832D833E834F83D0
:10423000588789E0E82EF12CEC0EFD1ECE01019688
:10424000B7010E94B5238E010F5E1F4FCE01059668
:10425000B8010E94B5238985823040F08989823077
:1042600028F0C701B8010E942D2401C081E06896A2
:10427000E6E00C945928A8E1B0E0E1E4F1E20C9406
:10428000412869837A838B839C832D833E834F836C
:104290005887CE010196BE01675F7F4F0E94B5230C
:1042A000CE010596BE016F5E7F4F0E94B5238985C2
:1042B000823028F020E030E08989823010F421E05B
:1042C00030E0822F6896E2E00C945D28A8E0B0E030
:1042D000ECE6F1E20C943A289B01AC0183E089837F
:1042E000DA01C9018827B7FD83959927AA27BB273B
:1042F000B82E211531054105510519F482E0898355
:104300003AC08823A9F0203080E0380780E04807D1
:1043100080E8580729F460E070E080E09FEC30C04E
:10432000EE24FF248701E21AF30A040B150B02C0E6
:1043300079018A018EE1C82ED12CDC82CB82ED82FC
:10434000FE820F831887C801B7010E94912201974E
:104350001816190684F4082E04C0EE0CFF1C001F6A
:10436000111F0A94D2F7ED82FE820F831887C81AB4
:10437000D90ADC82CB82BA82CE0101960E94E02269
:104380002896E9E00C945628ACE0B0E0EAECF1E2C3
:104390000C94412869837A838B839C83CE01019698
:1043A000BE016B5F7F4F0E94B5238D81823061F12A
:1043B000823050F1843021F48E81882351F12EC057
:1043C0002F81388537FD20C06E812F3131051CF0DB
:1043D0006623F9F023C08EE190E0821B930B2985C0
:1043E0003A854B855C8504C056954795379527954A
:1043F0008A95D2F76623B1F0509540953095219576
:104400003F4F4F4F5F4F0EC020E030E040E050E0A4
:1044100009C02FEF3FEF4FEF5FE704C020E030E02F
:1044200040E050E8B901CA012C96E2E00C945D2806
:10443000A8E0B0E0EEE1F2E20C9439287B018C01B7
:10444000611571058105910519F482E0898360C0C9
:1044500083E089838EE1C82ED12CDC82CB82ED8271
:10446000FE820F831887C801B7010E949122FC01C8
:104470003197F7FF3BC0222733272E1B3F0B5701F5
:104480006801022E04C0D694C794B794A7940A94E6
:10449000D2F740E050E060E070E081E090E0A0E022
:1044A000B0E004C0880F991FAA1FBB1F2A95D2F73E
:1044B0000197A109B1098E219F21A023B123009763
:1044C000A105B10521F041E050E060E070E04A292B
:1044D0005B296C297D294D835E836F8378878EE10C
:1044E00090E08E1B9F0B9C838B8312C0309781F0D2
:1044F0000E2E04C0EE0CFF1C001F111F0A94D2F7F1
:10450000ED82FE820F831887CE1ADF0ADC82CB820F
:104510001A82CE0101960E94E0222896EAE00C94CD
:104520005528EF92FF920F931F937B018C0180E03F
:10453000E81680E0F80681E0080780E0180788F4B4
:104540008FEFE816F1040105110531F028F088E03D
:1045500090E0A0E0B0E017C080E090E0A0E0B0E024
:1045600012C080E0E81680E0F80680E0080781E0ED
:10457000180728F088E190E0A0E0B0E004C080E1F6
:1045800090E0A0E0B0E020E230E040E050E0281B06
:10459000390B4A0B5B0B04C016950795F794E7940B
:1045A0008A95D2F7F701ED53FD4F8081281B310921
:1045B00041095109C9011F910F91FF90EF90089592
:1045C000DF92EF92FF920F931F93FC01E480F5803E
:1045D00006811781D1808081823048F480E090E0AC
:1045E000A0E1B0E0E82AF92A0A2B1B2BA5C08430F1
:1045F00009F49FC0823021F4EE24FF24870105C016
:10460000E114F1040105110519F4E0E0F0E096C0B1
:10461000628173819FEF623879070CF05BC022E8FA
:104620003FEF261B370B2A3131052CF020E030E01C
:1046300040E050E02AC0B801A701022E04C07695E0
:104640006795579547950A94D2F781E090E0A0E0EE
:10465000B0E004C0880F991FAA1FBB1F2A95D2F78C
:104660000197A109B1098E219F21A023B1230097B1
:10467000A105B10521F081E090E0A0E0B0E09A0151
:10468000AB01282B392B4A2B5B2BDA01C9018F7721
:104690009070A070B07080349105A105B10539F417
:1046A00027FF09C0205C3F4F4F4F5F4F04C0215C84
:1046B0003F4F4F4F5F4FE0E0F0E02030A0E03A077F
:1046C000A0E04A07A0E45A0710F0E1E0F0E0790129
:1046D0008A0127C06038710564F5FB01E158FF4F7E
:1046E000D801C7018F779070A070B07080349105A9
:1046F000A105B10539F4E7FE0DC080E490E0A0E02B
:10470000B0E004C08FE390E0A0E0B0E0E80EF91E56
:104710000A1F1B1F17FF05C016950795F794E7940E
:10472000319687E016950795F794E7948A95D1F727
:1047300005C0EE24FF248701EFEFF0E06E2F6795B0
:1047400066276795902F9F77D794DD24D7948E2F77
:104750008695492F462B582F5D29B701CA011F9115
:104760000F91FF90EF90DF900895FC01DB014081F5
:1047700051812281622F6F7770E0221F2227221F32
:104780009381892F880F822B282F30E0991F99273A
:10479000991F11969C93119721153105A9F5411583
:1047A00051056105710511F482E037C082E89FEF81
:1047B00013969C938E9312979A01AB0167E0220F98
:1047C000331F441F551F6A95D1F783E08C930DC0AA
:1047D000220F331F441F551F12968D919C911397E2
:1047E000019713969C938E931297203080E03807A0
:1047F00080E0480780E4580758F314962D933D93C2
:104800004D935C93179708952F3F310579F4411527
:1048100051056105710519F484E08C93089564FFD6
:1048200003C081E08C9312C01C9210C02F573040FF
:1048300013963C932E93129783E08C9387E0440F5A
:10484000551F661F771F8A95D1F7706414964D9394
:104850005D936D937C93179708951F93DC01FB0183
:104860009C91923008F447C08081823008F443C0A4
:10487000943051F411961C91843099F58181682F00
:1048800070E0611B71093FC0843021F0923031F437
:104890008230B9F18181882389F12DC011961C9154
:1048A00011978230F1F081811817D9F412962D9169
:1048B0003C911397828193818217930794F0281774
:1048C0003907BCF014968D919D910D90BC91A02D4F
:1048D0002481358146815781281739074A075B07AC
:1048E00018F4112341F00AC082179307A407B507F3
:1048F00040F4112319F061E070E005C06FEF7FEF25
:1049000002C060E070E0CB011F9108951F93FC018D
:1049100099278827BC01E89411911032E9F31930E6
:1049200010F01E30C8F31B3251F01D3249F4689468
:1049300006C00E947A25610F711D811D911D119184
:1049400010531A30B0F33EF49095809570956195B0
:104950007F4F8F4F9F4F1F910895FB01DC0102C0D5
:1049600001900D9241505040D8F70895681779078B
:1049700068F4FB01DC01E40FF51FA40FB51F02C0B2
:1049800002900E9241505040D8F708950C94AD24F7
:10499000FC018191861721F08823D9F79927089582
:1049A0003197CF010895FB01DC018D9101908019B1
:1049B0000110D9F3990B0895FB01DC0101900D92D0
:1049C0000020E1F70895FB01DC014150504030F038
:1049D0008D910190801919F40020B9F7881B990B6B
:1049E0000895FB01DC014150504048F001900D92C8
:1049F0000020C9F701C01D9241505040E0F70895D2
:104A0000FC0181E090E00190061609F4CF0100203E
:104A1000D1F701970895FB0151915523A9F0BF01EA
:104A2000DC014D9145174111E1F759F4CD01019099
:104A3000002049F04D9140154111C9F3FB0141118E
:104A4000EFCF81E090E001970895FB019F01E8948A
:104A50004230C4F04532B4F44A3029F497FB1EF4D6
:104A6000909581959F4F642F77270E948928805DBC
:104A70008A330CF0895D8193CB010097A1F716F47E
:104A80005DE251931082C9010C94CA25FA01CF93BB
:104A9000FF93EF93223044F1253234F5C22FE8948E
:104AA000CA3049F497FB3EF49095809570956195D6
:104AB0007F4F8F4F9F4F2C2F332744275527FF932E
:104AC000EF930E940F28EF91FF91605D6A330CF025
:104AD000695D6193B901CA016050704080409040A7
:104AE00051F716F4CDE2C19310828F919F91CF912F
:104AF0000C94CA25592F482F372F262F660F771F62
:104B0000881F991F660F771F881F991F620F731FD9
:104B1000841F951F660F771F881F991F0895FA013C
:104B2000CF93FF93EF932230CCF02532BCF4C22F09
:104B30002C2F332744275527FF93EF930E940F28EC
:104B4000EF91FF91605D6A330CF0695D6193B9018B
:104B5000CA01605070408040904051F710828F91A0
:104B60009F91CF910C94CA25FB019F01423074F0B4
:104B7000453264F4642F77270E948928805D8A3348
:104B80000CF0895D8193CB010097A1F71082C901D8
:104B90000C94CA25DC01FC01672F71917723E1F7A2
:104BA000329704C07C916D9370836291AE17BF07FA
:104BB000C8F308950F931F93CF93DF93BC01823006
:104BC000910510F462E070E0E0918306F0918406B4
:104BD000A0E0B0E040E050E024C0808191818617E1
:104BE0009707D0F08617970771F482819381109709
:104BF00029F013969C938E9312972CC09093840661
:104C00008093830627C04115510519F08417950735
:104C100018F4EF018D01AC01DF01828193819C01C9
:104C2000F9013097D1F641155105F9F0CA01861BFB
:104C3000970B8430910580F48A819B8101151105C1
:104C400021F0F8019383828304C0909384068093BB
:104C50008306FE01329645C0FE01E80FF91F6193FD
:104C600071930297998388833CC0809181069091CB
:104C70008206892B41F48091B7029091B8029093FB
:104C80008206809381064091B9025091BA02411583
:104C9000510541F44DB75EB78091B5029091B602CF
:104CA000481B590B20918106309182062417350745
:104CB000B0F4CA01821B930B8617970780F0AB01F3
:104CC0004E5F5F4F8417950750F0420F531F50936C
:104CD000820640938106F9016193719302C0E0E07E
:104CE000F0E0CF01DF91CF911F910F910895CF9305
:104CF000DF939C01009709F48FC0EC0122971B827F
:104D00001A8260918306709184066115710581F4A1
:104D100088819981820F931F2091810630918206AC
:104D20002817390739F5D0938206C093810674C0DD
:104D3000DB0140E050E0AC17BD0708F1BB83AA835C
:104D4000FE0121913191E20FF31FAE17BF0779F4F5
:104D50008D919C911197280F391F2E5F3F4F3983FA
:104D6000288312968D919C9113979B838A8341157A
:104D7000510571F4D0938406C09383064DC01296FA
:104D80008D919C911397AD01009711F0DC01D3CF69
:104D9000DA011396DC93CE931297FA0121913191A7
:104DA000E20FF31FCE17DF0769F488819981280F7E
:104DB000391F2E5F3F4FFA01318320838A819B8107
:104DC00093838283E0E0F0E0DB0112968D919C9169
:104DD0001397009719F0BC01FD01F6CFAB014E5FB0
:104DE0005F4FDB018D919C91840F951F209181066F
:104DF000309182062817390779F4309729F41092F8
:104E000084061092830602C01382128242505040E0
:104E10005093820640938106DF91CF9108956F925F
:104E20007F928F929F92AF92BF92CF92DF92EF923A
:104E3000FF920F931F93CF93DF938C01009729F478
:104E4000CB010E94DA258C01BBC08EEFE82E8FEFDC
:104E5000F82EE00EF11E4801860E971E8E149F0458
:104E600008F4ACC0D7014D915C91119746175707D4
:104E7000B8F04530510508F4A3C0CA01049786175D
:104E8000970708F49DC042505040461B570BF40151
:104E9000419351936D937C93CF010E94772690C0EC
:104EA0005B01A41AB50A3801640E751EA091830631
:104EB000B0918406CC24DD24E0E0F0E047C0A615E4
:104EC000B705A9F5CD91DC911197CE0102968A150F
:104ED0009B0568F1CE018A199B09029612962C91C6
:104EE000129713963C91059758F0F401228333836F
:104EF000CA19DB09D183C083D7016D937C9309C0A4
:104F00004E5F5F4F4C0F5D1FF70151834083C90116
:104F1000FC01C114D10431F0D6011396FC93EE9339
:104F200012974EC0F0938406E093830649C08D919A
:104F30009C911197E817F90708F4FC016D0112968E
:104F40008C91129713969C919C01D901109709F0AE
:104F5000B6CF809181069091820686159705E9F477
:104F6000E617F707D0F42091B9023091BA02211563
:104F7000310541F42DB73EB78091B5029091B6024C
:104F8000281B390B82169306C8F4909282068092F1
:104F90008106F7017183608313C0CB010E94DA257B
:104FA000EC01009759F0D7014D915C91B8010E9436
:104FB000AD24C8010E9477268E0102C000E010E0F7
:104FC000C801DF91CF911F910F91FF90EF90DF907B
:104FD000CF90BF90AF909F908F907F906F900895EB
:104FE000629FD001739FF001829FE00DF11D649FCD
:104FF000E00DF11D929FF00D839FF00D749FF00D59
:10500000659FF00D9927729FB00DE11DF91F639FF9
:10501000B00DE11DF91FBD01CF0111240895A1E2DA
:105020001A2EAA1BBB1BFD010DC0AA1FBB1FEE1F22
:10503000FF1FA217B307E407F50720F0A21BB30B6D
:10504000E40BF50B661F771F881F991F1A9469F7E9
:1050500060957095809590959B01AC01BD01CF0145
:1050600008952F923F924F925F926F927F928F920C
:105070009F92AF92BF92CF92DF92EF92FF920F93E7
:105080001F93CF93DF93CDB7DEB7CA1BDB0B0FB6F1
:10509000F894DEBF0FBECDBF19942A88398848889E
:1050A0005F846E847D848C849B84AA84B984C88444
:1050B000DF80EE80FD800C811B81AA81B981CE0F3B
:1050C000D11D0FB6F894DEBF0FBECDBFED01089520
:1050D000EE0FFF1F0590F491E02D1994911116C069
:1050E000803219F089508550D0F7089591110895B4
:1050F00081548A5108F4805E855A0895911108956B
:1051000081568A5108F48052855808959927882736
:105110000895AA1BBB1B51E107C0AA1FBB1FA617FE
:10512000B70710F0A61BB70B881F991F5A95A9F750
:1051300080959095BC01CD01089512E0CAE0D2E0BF
:1051400004C0FE010E946A282296CC30D107C9F71C
:04515000F894FFCF01
:105154000000000047014D019B1A9B1A4E6F6E65BB
:10516400004552524F523A2000203C003E00574125
:10517400524E3A2000494E464F3A200000000000AB
:105184006C016D030000000000B403C603AF037696
:105194000357696C6C20736C65657020666F7220B0
:1051A40074776F207365636F6E6473206E6F772EF0
:1051B400006C6F6F700053657474696E672075704E
:1051C400206C6564007365747570000D0000000048
:1051D400007709EF0A0D093E091E0967090000005E
:1051E400009B1AEF0A9B1A9B1A9B1A9B1A6E616EFC
:1051F40000696E66006F7666002E00000000009B5A
:105204001AEF0A000080008506000000000000007C
:105214000000000001020203030303040404040465
:10522400040404050505050505050505050505052D
:10523400050505060606060606060606060606060D
:1052440006060606060606060606060606060606FA
:1052540006060607070707070707070707070707DD
:1052640007070707070707070707070707070707CA
:1052740007070707070707070707070707070707BA
:1052840007070707070707070707070707070707AA
:10529400070707080808080808080808080808088D
:1052A400080808080808080808080808080808087A
:1052B400080808080808080808080808080808086A
:1052C400080808080808080808080808080808085A
:1052D400080808080808080808080808080808084A
:1052E400080808080808080808080808080808083A
:1052F400080808080808080808080808080808082A
:105304000808080808080808080808080808080819
:04531400080808007D
:00000001FF
