:100000000C9405010C9432010C9432010C943201D1
:100010000C9432010C9432010C9432010C94320194
:100020000C9432010C9432010C9432010C94320184
:100030000C9432010C9432010C9432010C94320174
:100040000C9432010C9432010C9432010C94320164
:100050000C9432010C9432010C9432010C94D41B98
:100060000C9432010C94F4050C943C070C9432016E
:100070000C9432010C9432010C9432010C94320134
:100080000C9432010C9432010C9432010C94320124
:100090000C9434060C947B070C9432010C943201BE
:1000A0000C9432010C9432010C9432010C94320104
:1000B0000C9432010C9432010C9432010C943201F4
:1000C0000C9432010C9432010C9432010C9474069D
:1000D0000C94BA070C9432010C94B4060C94F907F2
:1000E0000C94320100002100240027002A002D007A
:1000F0003000330001010000040107010A01000083
:100100002200250028002B002E00310034000201BF
:100110000000050108010B0100002000230026005B
:1001200029002C002F00320000010000030106010D
:10013000090105050505070508080808020202026D
:100140000A0A080804040404010101010101010173
:100150000303030303030303040707070C0C0C0C3E
:100160000C0C0C0C02020202060606060606060627
:100170000B0B0B0B0B0B0B0B0102102020080810B4
:100180002040102040800201020108040201010207
:1001900004081020408080402010080402018004E0
:1001A000020180402010080402010804020101023B
:1001B0000408102040800102040810204080000044
:1001C000090A02080B0C0D070603040100000000D9
:1001D000000000000000000000000000000000001F
:1001E0000000000000000000000011100F000000DF
:1001F00000000000000000000000000000000000FF
:1002000000000000AA01E50AA30111241FBECFEFE0
:10021000D1E2DEBFCDBF00E00CBF14E0A0E0B2E051
:10022000EEEEF8E500E00BBF02C007900D92A030A3
:10023000B107D9F71BBE16E0A0E0B4E001C01D92E3
:10024000A33CB107E1F712E0C8E0D2E004C0229776
:10025000FE010E94372CC430D107C9F70E94EC057B
:100260000C946A2C0C940000FC0184E092E09183D1
:1002700080830895FC0184E092E091838083089557
:10028000FC0184E092E0918380830895FC0184E086
:1002900092E0918380830895FC0184E092E0918351
:1002A0008083CF010E94CB1B0895FC0180E392E084
:1002B000918380837383628344830895FC0180E388
:1002C00092E0918380837383628344830895FC0169
:1002D00080E392E0918380830895FC0180E392E0C3
:1002E000918380830895FC0180E392E09183808371
:1002F0001382128214820895FC0180E392E09183BC
:1003000080831382128214820895FC0173836283B6
:100310000895FC01648308958130910551F46F5F65
:100320007F4F81F480E094E06CE072E00E94BB18A3
:100330000895892B39F46F5F7F4F21F480E094E0BA
:100340000E94AC1B089580E090E06FEF7FEF0E9469
:100350008C01089581E090E06FEF7FEF0E948C01A7
:1003600008958F929F92AF92BF92CF92DF92EF92B9
:10037000FF920F931F93DF93CF93CDB7DEB72E97E6
:100380000FB6F894DEBF0FBECDBFFC018B014A0152
:1003900084818B3080F5C280D380D601ED91FC91B1
:1003A000A480B5807E010894E11CF11CC70161E1C5
:1003B00072E00E94D518C701B8010E94841869E153
:1003C00072E00E946818B4010E9484186CE172E027
:1003D0000E946818BC018E01085F1F4FC8010E946F
:1003E000961BC601B801F5011995C8010E94AC1B06
:1003F000C7010E94B21B2E960FB6F894DEBF0FBE47
:10040000CDBFCF91DF911F910F91FF90EF90DF90C3
:10041000CF90BF90AF909F908F900895CF92DF9232
:10042000EF92FF920F931F93DF93CF93CDB7DEB779
:100430002E970FB6F894DEBF0FBECDBF6C017E01C4
:100440000894E11CF11CC7010E94961B8E01085FF5
:100450001F4FC80160E074E00E94961BC601B701FF
:10046000A8010E94B101C8010E94AC1BC7010E94F3
:10047000AC1B2E960FB6F894DEBF0FBECDBFCF914A
:10048000DF911F910F91FF90EF90DF90CF90089533
:100490008F929F92AF92BF92CF92DF92EF92FF9294
:1004A0000F931F93DF93CF93CDB7DEB72E970FB681
:1004B000F894DEBF0FBECDBFFC018B014A018481E1
:1004C000863080F5C280D380D601ED91FC91A48066
:1004D000B5807E010894E11CF11CC7016EE172E059
:1004E0000E94D518C701B8010E94841869E172E022
:1004F0000E946818B4010E9484186CE172E00E94A6
:100500006818BC018E01085F1F4FC8010E94961B2E
:10051000C601B801F5011995C8010E94AC1BC701BD
:100520000E94B21B2E960FB6F894DEBF0FBECDBF51
:10053000CF91DF911F910F91FF90EF90DF90CF90BF
:10054000BF90AF909F908F900895CF92DF92EF92DF
:10055000FF920F931F93DF93CF93CDB7DEB72E9704
:100560000FB6F894DEBF0FBECDBF6C017E010894BC
:10057000E11CF11CC7010E94961B8E01085F1F4FF2
:10058000C80160E074E00E94961BC601B701A80193
:100590000E944802C8010E94AC1BC7010E94AC1B0C
:1005A0002E960FB6F894DEBF0FBECDBFCF91DF9170
:1005B0001F910F91FF90EF90DF90CF9008958F9251
:1005C0009F92AF92BF92CF92DF92EF92FF920F93E2
:1005D0001F93DF93CF93CDB7DEB72E970FB6F89466
:1005E000DEBF0FBECDBFFC018B014A018481882391
:1005F00081F5C280D380D601ED91FC91A480B580B5
:100600007E010894E11CF11CC70165E272E00E94C2
:10061000D518C701B8010E94841869E172E00E94F0
:100620006818B4010E9484186CE172E00E94681896
:10063000BC018E01085F1F4FC8010E94961BC601B6
:10064000B801F5011995C8010E94AC1BC7010E94B1
:10065000B21B2E960FB6F894DEBF0FBECDBFCF9162
:10066000DF911F910F91FF90EF90DF90CF90BF909F
:10067000AF909F908F900895CF92DF92EF92FF926C
:100680000F931F93DF93CF93CDB7DEB72E970FB69F
:10069000F894DEBF0FBECDBF6C017E010894E11C53
:1006A000F11CC7010E94961B8E01085F1F4FC801F5
:1006B00060E074E00E94961BC601B701A8010E9489
:1006C000DF02C8010E94AC1BC7010E94AC1B2E9622
:1006D0000FB6F894DEBF0FBECDBFCF91DF911F9153
:1006E0000F91FF90EF90DF90CF900895FC0180E391
:1006F00092E091838083CF010E94CB1B0895FC017F
:100700008DE692E091838083138212820895FC012A
:100710008DE692E091838083138212820895FC011A
:10072000738362830895FC018DE692E09183808358
:100730000895FC018DE692E0918380830895FC0189
:100740008DE692E091838083CF010E94CB1B0895B8
:10075000CF92DF92EF92FF920F931F93DF93CF938D
:10076000CDB7DEB7C257D0400FB6F894DEBF0FBE8C
:10077000CDBF7C01FC01A281B381ED91FC91119769
:100780000680F781E02D8E010F5F1F4FC801BD016C
:100790001995C80160E070E041E050E020E030E0F1
:1007A0000E945C1480910000282F30E040E050E06F
:1007B0002E70307040705070223031054105510567
:1007C000B9F1233031054105510538F421303105A7
:1007D0004105510509F057C01BC0233031054105C3
:1007E0005105B1F1243031054105510509F04BC0E7
:1007F00000D000D0EDB7FEB73196CE010F96ADB761
:10080000BEB712969C938E93119784E392E02FC00B
:1008100000D000D0EDB7FEB73196CE010F96ADB740
:10082000BEB712969C938E9311978DE392E01FC0F2
:1008300000D000D0EDB7FEB73196CE010F96ADB720
:10084000BEB712969C938E93119787E492E00FC0E7
:1008500000D000D0EDB7FEB73196CE010F96ADB700
:10086000BEB712969C938E93119782E592E0938384
:10087000828389819A81958384830E94F626EDB7CD
:10088000FEB7369624C08DB79EB70A970FB6F89478
:100890009EBF0FBE8DBFEDB7FEB73196CE010F964E
:1008A000ADB7BEB712969C938E9311978CE592E0EC
:1008B0009383828389819A81958384832683378376
:1008C000408751870E94F626EDB7FEB73A960FB6DD
:1008D000F894FEBF0FBEEDBFD7011296ED90FC90CD
:1008E0001397D701ED91FC91C480D5808E01085FEC
:1008F0001F4FC801BE01615F7F4F0E94BB18C70137
:10090000B801F6011995C8010E94AC1BCE010196F1
:100910000E94AC1BCE58DF4F0FB6F894DEBF0FBE5F
:10092000CDBFCF91DF911F910F91FF90EF90DF909E
:10093000CF900895EF92FF920F931F93DF93CF9381
:10094000CDB7DEB727970FB6F894DEBF0FBECDBF89
:10095000F82EE92E61E772E00E94BB188DE296E066
:100960000E94390A892B81F08E010F5F1F4FC80149
:100970006DE276E00E946F118F2D9E2DB8010E94CE
:100980007F1BC8010E94AC1B8F2D9E2D27960FB692
:10099000F894DEBF0FBECDBFCF91DF911F910F91B5
:1009A000FF90EF9008958DE296E00E94AB0F0895BE
:1009B000FC0186E792E091838083CF010E94400191
:1009C0000895FC0186E792E091838083CF010E9425
:1009D000400108950F931F938C0186E792E0F80180
:1009E00091838083C8010E944001C8010E94CB1BF3
:1009F0001F910F9108950F931F938C010E94340152
:100A000086E792E0F801918380838DE296E040E8EA
:100A100055E260E070E00E94C0081F910F910895B8
:100A20000F931F938C010E94340186E792E0F80136
:100A3000918380838DE296E040E855E260E070E0CB
:100A40000E94C0081F910F9108950895CF92DF92E0
:100A5000EF92FF920F931F93DF93CF93CDB7DEB743
:100A60002E970FB6F894DEBF0FBECDBF8091B802AF
:100A700061E00E94C81DC0900B04D0900C047E0160
:100A80000894E11CF11CC7016EE772E00E94BB18DC
:100A90008E01085F1F4FC8016EE972E00E94BB180B
:100AA000C601B701A8010E94DF02C8010E94AC1B69
:100AB000C7010E94AC1B60ED77E080E090E00E94EF
:100AC000501C8091B80260E00E94C81D68EE73E07F
:100AD00080E090E00E94501C8091090490910A04EB
:100AE0000E94A8032E960FB6F894DEBF0FBECDBFAE
:100AF000CF91DF911F910F91FF90EF90DF90CF90FA
:100B00000895CF92DF92EF92FF920F931F93DF939E
:100B1000CF93CDB7DEB72E970FB6F894DEBF0FBEDA
:100B2000CDBF8091B80261E00E94151D82E090E087
:100B30000E94D11B182F092F0E94FB041093070459
:100B40000093080480910B0490910C0465E00E94CE
:100B50008901609107047091080480910B049091C1
:100B60000C040E948501C0900B04D0900C047E01FF
:100B70000894E11CF11CC70163EA72E00E94BB18F3
:100B80008E01085F1F4FC80162EB72E00E94BB1824
:100B9000C601B701A8010E94DF02C8010E94AC1B78
:100BA000C7010E94AC1B60910704709108048091FA
:100BB000090490910A040E948F032E960FB6F894B0
:100BC000DEBF0FBECDBFCF91DF911F910F91FF9080
:100BD000EF90DF90CF9008950E94B31C0E94810592
:100BE0000E942605FDCF08951F920F920FB60F9217
:100BF0000BB60F9211242F933F934F938F939F9394
:100C0000EF93FF938091C00082FD1DC04091C6000C
:100C100020914D0430914E042F5F3F4F2F73307061
:100C200080914F04909150042817390771F0E0919A
:100C30004D04F0914E04E35FFB4F408330934E042C
:100C400020934D0402C08091C600FF91EF919F91C7
:100C50008F914F913F912F910F900BBE0F900FBE30
:100C60000F901F90189508951F920F920FB60F9234
:100C70000BB60F9211242F933F934F938F939F9313
:100C8000EF93FF938091C80082FD1DC04091CE007C
:100C90002091D5043091D6042F5F3F4F2F733070D1
:100CA0008091D7049091D8042817390771F0E0910A
:100CB000D504F091D604EB56FB4F40833093D60415
:100CC0002093D50402C08091CE00FF91EF919F91B7
:100CD0008F914F913F912F910F900BBE0F900FBEB0
:100CE0000F901F90189508951F920F920FB60F92B4
:100CF0000BB60F9211242F933F934F938F939F9393
:100D0000EF93FF938091D00082FD1DC04091D600EB
:100D100020915D0530915E052F5F3F4F2F7330703E
:100D200080915F05909160052817390771F0E09177
:100D30005D05F0915E05E35EFA4F408330935E05FA
:100D400020935D0502C08091D600FF91EF919F91A5
:100D50008F914F913F912F910F900BBE0F900FBE2F
:100D60000F901F90189508951F920F920FB60F9233
:100D70000BB60F9211242F933F934F938F939F9312
:100D8000EF93FF938091300182FD1DC040913601A9
:100D90002091E5053091E6052F5F3F4F2F733070AE
:100DA0008091E7059091E8052817390771F0E091E7
:100DB000E505F091E605EB55FA4F40833093E605E3
:100DC0002093E50502C080913601FF91EF919F913C
:100DD0008F914F913F912F910F900BBE0F900FBEAF
:100DE0000F901F901895E0913906F0913A06E05C5B
:100DF000FF4F8191919120813181821B930B8F73E1
:100E00009070892B11F00E94F305E0915B06F09140
:100E10005C06E05CFF4F8191919120813181821BC2
:100E2000930B8F739070892B11F00E943306E09121
:100E30007D06F0917E06E05CFF4F819191912081CB
:100E40003181821B930B8F739070892B11F00E945C
:100E50007306E0919F06F091A006E05CFF4F819140
:100E6000919120813181821B930B8F739070892B1C
:100E700011F00E94B30608951F920F920FB60F92C1
:100E80000BB60F9211242F933F938F939F93EF9361
:100E9000FF9320919104309192048091930490915A
:100EA00094042817390731F48091C1008F7D809315
:100EB000C10014C0E0919304F0919404EF5AFB4FE9
:100EC0002081809193049091940401968F73907087
:100ED00090939404809393042093C600FF91EF9124
:100EE0009F918F913F912F910F900BBE0F900FBE4E
:100EF0000F901F9018951F920F920FB60F920BB67E
:100F00000F9211242F933F938F939F93EF93FF930F
:100F10002091190530911A0580911B0590911C05AF
:100F20002817390731F48091C9008F7D8093C9005B
:100F300014C0E0911B05F0911C05E752FB4F208186
:100F400080911B0590911C0501968F739070909372
:100F50001C0580931B052093CE00FF91EF919F917C
:100F60008F913F912F910F900BBE0F900FBE0F905E
:100F70001F9018951F920F920FB60F920BB60F92FB
:100F800011242F933F938F939F93EF93FF9320917F
:100F9000A1053091A2058091A3059091A405281781
:100FA000390731F48091D1008F7D8093D10014C036
:100FB000E091A305F091A405EF59FA4F20818091AB
:100FC000A3059091A40501968F7390709093A4054A
:100FD0008093A3052093D600FF91EF919F918F916D
:100FE0003F912F910F900BBE0F900FBE0F901F904F
:100FF00018951F920F920FB60F920BB60F921124F5
:101000002F933F938F939F93EF93FF932091290604
:1010100030912A0680912B0690912C0628173907CB
:1010200031F4809131018F7D8093310114C0E091C2
:101030002B06F0912C06E751FA4F208180912B0668
:1010400090912C0601968F73907090932C0680934C
:101050002B0620933601FF91EF919F918F913F9145
:101060002F910F900BBE0F900FBE0F901F901895F1
:101070008F929F92AF92BF92CF92DF92EF92FF92A8
:101080000F931F93DF93CF93CDB7DEB7FC0113828D
:10109000128288EE93E0A0E0B0E084839583A6837B
:1010A000B7838EEB92E0918380837587648757873F
:1010B0004687318B208B138B028BF58AE48AD78A83
:1010C000C68AB18EA08E938E828E8889848F8989FC
:1010D000858F8A89868F8B89878F8C8980A3CF9112
:1010E000DF911F910F91FF90EF90DF90CF90BF9015
:1010F000AF909F908F9008958F929F92AF92BF92E2
:10110000CF92DF92EF92FF920F931F93DF93CF93D3
:10111000CDB7DEB7FC011382128288EE93E0A0E027
:10112000B0E084839583A683B7838EEB92E09183AE
:1011300080837587648757874687318B208B138B15
:10114000028BF58AE48AD78AC68AB18EA08E938EE6
:10115000828E8889848F8989858F8A89868F8B89F9
:10116000878F8C8980A3CF91DF911F910F91FF9082
:10117000EF90DF90CF90BF90AF909F908F900895A9
:10118000AF92BF92DF92EF92FF920F931F93CF9394
:10119000DF93EC017A018B01DD24403081EE5807AA
:1011A00080E0680780E0780711F0DD24D39491E0B7
:1011B000A92EB12CEC89FD89DD2069F0C50108A0BC
:1011C00002C0880F991F0A94E2F7808360E079E0FB
:1011D0008DE390E005C0108260E874E88EE190E055
:1011E000A80197010E94DC2B215030404040504024
:1011F000569547953795279580E12030380720F0A0
:10120000DD2011F0DD24D6CFE889F9893083EA8921
:10121000FB89208319A2EE89FF89408121E030E01B
:10122000C9010C8C02C0880F991F0A94E2F7482B61
:101230004083EE89FF894081C9010D8C02C0880F6F
:10124000991F0A94E2F7482B4083EE89FF89408179
:10125000C9010E8C02C0880F991F0A94E2F7482B2F
:101260004083EE89FF8980810F8C02C0220F331FDB
:101270000A94E2F7209528232083DF91CF911F91D4
:101280000F91FF90EF90DF90BF90AF900895AF92D5
:10129000BF92CF92DF92EF92FF920F931F93CF9363
:1012A000DF93EC017A018B01C22EDD24403081EE08
:1012B000580780E0680780E0780711F0DD24D394B8
:1012C00071E0A72EB12CEC89FD89DD2069F0C50104
:1012D00008A002C0880F991F0A94E2F7808360E09B
:1012E00079E08DE390E005C0108260E874E88EE15B
:1012F00090E0A80197010E94DC2B21503040404033
:101300005040569547953795279580E1203038070E
:1013100020F0DD2011F0DD24D6CFE889F989308373
:10132000EA89FB892083E88DF98DC082EE89FF89E7
:10133000408121E030E0C9010C8C02C0880F991F68
:101340000A94E2F7482B4083EE89FF894081C90166
:101350000D8C02C0880F991F0A94E2F7482B408336
:10136000EE89FF894081C9010E8C02C0880F991F48
:101370000A94E2F7482B4083EE89FF8980810F8C25
:1013800002C0220F331F0A94E2F7209528232083FE
:10139000DF91CF911F910F91FF90EF90DF90CF9051
:1013A000BF90AF900895CF93DF93DC011E968D918F
:1013B0009C911F97EC01C05CDF4FFC01EE5BFF4F7F
:1013C000288139818081918128173907C9F756967C
:1013D000ED91FC915797408121E030E0C9015C9686
:1013E0000C905C9702C0880F991F0A94E2F78095D1
:1013F000842380835696ED91FC9157974081C901D3
:101400005D960C905D9702C0880F991F0A94E2F7D1
:101410008095842380835696ED91FC915797408167
:10142000C9015E960C905E9702C0880F991F0A94BE
:10143000E2F78095842380835696ED91FC9157972F
:1014400080815F960C905F9702C0220F331F0A9431
:10145000E2F72095282320831C96ED91FC911D979F
:10146000EE5BFF4F8081918192938293DF91CF91C8
:101470000895DC011C96ED91FC911D97E05CFF4FF7
:101480002191319180819181281B390B2F7330700C
:10149000C9010895DC011C96ED91FC911D97E05C5B
:1014A000FF4F20813181E054F040DF01AE5BBF4F40
:1014B0008D919C9111972817390719F42FEF3FEF61
:1014C00007C08D919C91E80FF91F8081282F30E093
:1014D000C9010895DC011C96ED91FC911D97E05C1B
:1014E000FF4F20813181E054F040DF01AE5BBF4F00
:1014F0008D919C9111972817390719F42FEF3FEF21
:1015000010C08D919C911197E80FF91F20818D914A
:101510009C91119701968F73907011969C938E9366
:1015200030E0C9010895DC0191968C919197882350
:1015300039F05496ED91FC915597808186FFF9CF53
:1015400091961C920895CF93DF93EC01EE85FF8571
:10155000E05CFF4F20813181E054F0402F5F3F4F2E
:101560002F733070DF01AE5BBF4F8D919C9111974F
:1015700028173907D1F3E05CFF4F80819181E05457
:10158000F040E80FF91F6083EE85FF85E05CFF4FB8
:1015900031832083EE89FF89208181E090E00F8CE8
:1015A00002C0880F991F0A94E2F7282B208381E05C
:1015B00089A3EC89FD8980818064808381E090E04B
:1015C000DF91CF91089581E008951F931092300626
:1015D00010922F0628EE33E040E050E020933106D1
:1015E0003093320640933306509334066EEB72E02C
:1015F00070932E0660932D068DE094E090933A064A
:101600008093390681E594E090933C0680933B06F5
:1016100085EC90E090933E0680933D0684EC90E04C
:101620009093400680933F0680EC90E090934206B2
:101630008093410681EC90E09093440680934306AA
:1016400082EC90E0909346068093450686EC90E00D
:10165000909348068093470614E010934906B3E040
:10166000B0934A06A7E0A0934B06F5E0F0934C0632
:10167000E1E0E0934D06109252061092510620933D
:101680005306309354064093550650935606709374
:10169000500660934F0685E994E090935C06809332
:1016A0005B0689ED94E090935E0680935D068DEC79
:1016B00090E09093600680935F068CEC90E09093AE
:1016C00062068093610688EC90E0909364068093B4
:1016D000630689EC90E090936606809365068AEC39
:1016E00090E090936806809367068EEC90E090936C
:1016F0006A068093690610936B06B0936C06A093FC
:101700006D06F0936E06E0936F06109274061092C9
:1017100073062093750630937606409377065093B0
:10172000780670937206609371068DE195E0909350
:101730007E0680937D0681E695E0909380068093F7
:101740007F0685ED90E0909382068093810684ED7C
:1017500090E0909384068093830680ED90E09093D0
:1017600086068093850681ED90E0909388068093AD
:10177000870682ED90E090938A068093890686ED35
:1017800090E090938C0680938B0610938D06B09317
:101790008E06A0938F06F0939006E0939106109228
:1017A00096061092950620939706309398064093DC
:1017B000990650939A06709394066093930685EA6F
:1017C00095E09093A00680939F0689EE95E0909314
:1017D000A2068093A10685E391E09093A4068093EE
:1017E000A30684E391E09093A6068093A50680E388
:1017F00091E09093A8068093A70681E391E09093EF
:10180000AA068093A90682E391E09093AC068093A8
:10181000AB0686E391E09093AE068093AD061093FD
:10182000AF06B093B006A093B106F093B206E09372
:10183000B3061F910895CF92DF92EF92FF920F931C
:101840001F93CF93DF937C016B018A01C0E0D0E04E
:101850000FC0D6016D916D01D701ED91FC91019002
:10186000F081E02DC7011995C80FD91F0150104014
:101870000115110571F7CE01DF91CF911F910F91E5
:10188000FF90EF90DF90CF900895EF92FF920F932B
:101890001F93CF93DF937C018B01C0E0D0E0F80170
:1018A0000F5F1F4F6491662359F0D701ED91FC91B2
:1018B0000190F081E02DC7011995C80FD91FEFCF16
:1018C000CE01DF91CF911F910F91FF90EF9008957E
:1018D000DC01ED91FC910190F081E02D19950895C6
:1018E0009C01DB01ED91FC910190F081E02DCB0199
:1018F000B90119950895EF92FF920F931F938C01F0
:10190000DC01ED91FC910190F081E02D6DE01995E5
:101910007C01D801ED91FC910190F081E02DC8018E
:101920006AE019959C012E0D3F1DC9011F910F9171
:10193000FF90EF900895EF92FF920F931F937C0119
:101940000E94450C8C01C7010E947B0C9C01200F5A
:10195000311FC9011F910F91FF90EF900895EF92F1
:10196000FF920F931F937C01DC01ED91FC9101909C
:10197000F081E02D19958C01C7010E947B0C080FA6
:10198000191FC8011F910F91FF90EF900895EF92DA
:10199000FF920F931F937C01DB01ED91FC9101906D
:1019A000F081E02DCB01B70119958C01C7010E9490
:1019B0007B0C080F191FC8011F910F91FF90EF902A
:1019C0000895CF93DF93EC016115710519F420E0C0
:1019D00030E00FC0DB010D900020E9F71197A61B46
:1019E000B70BE881F9810280F381E02DAD011995F3
:1019F0009C01C901DF91CF9108954F925F927F9230
:101A00008F929F92AF92BF92CF92DF92EF92FF920E
:101A10000F931F93DF93CF93CDB7DEB7A1970FB688
:101A2000F894DEBF0FBECDBF2C01742ECB01223047
:101A300008F42AE019A231E2C32ED12CCC0EDD1E0F
:101A4000822E9924AA24BB24672D752FA501940109
:101A50000E94DC2B79018A01C801B701A50194011C
:101A60000E94BD2B472D461B0894C108D1084A305F
:101A700010F4405D01C0495CF6014083E114F104BB
:101A80000105110521F07E2C5F2DC801DDCFC201BB
:101A9000B6010E94E10CA1960FB6F894DEBF0FBE0E
:101AA000CDBFCF91DF911F910F91FF90EF90DF900D
:101AB000CF90BF90AF909F908F907F905F904F900E
:101AC0000895DC012115310541F4ED91FC9101905F
:101AD000F081E02D642F199508950E94FD0C089562
:101AE000EF92FF920F931F937C010E94610D8C0176
:101AF000C7010E947B0C9C01200F311FC9011F915F
:101B00000F91FF90EF900895EF92FF920F931F9324
:101B10009A017B0100E010E0B801A7010E94610D6D
:101B20001F910F91FF90EF900895CF92DF92EF9267
:101B3000FF920F931F936C017B019A0100E010E06C
:101B4000B801A7010E94610D8C01C6010E947B0CA7
:101B5000080F191FC8011F910F91FF90EF90DF90A0
:101B6000CF900895EF92FF920F931F939A01E62E64
:101B7000FF2400E010E0B801A7010E94610D1F9151
:101B80000F91FF90EF900895CF92DF92EF92FF9226
:101B90000F931F936C01E62E9A01FF2400E010E0E2
:101BA000B801A7010E94610D8C01C6010E947B0C47
:101BB000080F191FC8011F910F91FF90EF90DF9040
:101BC000CF900895CF92DF92EF92FF920F931F93E1
:101BD000CF93DF93EC016A017B012115310541F4BC
:101BE000E881F9810190F081E02D642F19951FC0E3
:101BF0002A303105D1F477FF17C0E881F9810190CF
:101C0000F081E02D6DE219958C0144275527BA012A
:101C10004C195D096E097F09CE012AE00E94FD0C76
:101C20009801280F391F04C02AE00E94FD0C9C0176
:101C3000C901DF91CF911F910F91FF90EF90DF903D
:101C4000CF900895EF92FF920F931F937C010E9413
:101C5000E20D8C01C7010E947B0C9C01200F311FFB
:101C6000C9011F910F91FF90EF900895EF92FF929D
:101C70000F931F937B019A010027F7FC0095102F0B
:101C8000B801A7010E94E20D1F910F91FF90EF9004
:101C90000895CF92DF92EF92FF920F931F936C0102
:101CA0007B019A010027F7FC0095102FB801A701CE
:101CB0000E94E20D8C01C6010E947B0C080F191FC7
:101CC000C8011F910F91FF90EF90DF90CF90089582
:101CD0000E94E10C08957F928F929F92AF92BF92E3
:101CE000CF92DF92EF92FF920F931F93CF93DF93E8
:101CF0004C017A018B01722ECB01BA01A801970128
:101D00000E946722882321F0C4016AED72E021C09D
:101D1000C0E0D0E057016801E894D7F8C601B501EA
:101D20002FEF3FEF4FE75FE70E946722882351F4D0
:101D3000C601B5012FEF3FEF4FE75FE70E94372263
:101D4000181614F0C1E0D0E0219739F0C4016EED0F
:101D500072E00E94E10CEC0193C0C801B7012FEFC3
:101D60003FEF4FE75FE40E94A721181654F0C80127
:101D7000B7012FEF3FEF4FE75FEC0E940722882368
:101D800024F4C40162EE72E0E4CFC801B70120E0A0
:101D900030E040E050E00E94072287FD03C0C0E031
:101DA000D0E00EC0D401ED91FC910190F081E02DC6
:101DB000C4016DE21995EC0117FB109517F9109508
:101DC00020E030E040E05FE3DD240BC0CA01B90150
:101DD00020E030E040E251E40E94FB209B01AC0196
:101DE000D394D71498F3C801B7010E94D41F5B01A4
:101DF0006C010E942B1E7B018C01C401B801A7015C
:101E00002AE030E00E94610DC80FD91F772039F019
:101E1000C40166EE72E00E94E10CC80FD91FC80130
:101E2000B7010E9444239B01AC01C601B5010E9489
:101E3000A31F24C020E030E040E251E40E940120D2
:101E40007B018C010E94F0225B016C01CC24B7FC69
:101E5000C094DC2CC401B601A5012AE030E00E9448
:101E6000E20DC80FD91FC601B5010E9492229B0145
:101E7000AC01C801B7010E94A31F7A947720D1F664
:101E8000CE01DF91CF911F910F91FF90EF90DF90E6
:101E9000CF90BF90AF909F908F907F9008950E94B9
:101EA0006B0E0895EF92FF920F931F937C010E9497
:101EB0006B0E8C01C7010E947B0C080F191FC80113
:101EC0001F910F91FF90EF900895EF92FF920F9363
:101ED0001F937C010E94E10C8C01C7010E947B0CC6
:101EE000080F191FC8011F910F91FF90EF900895DF
:101EF000AF92BF92CF92DF92EF92FF920F931F9318
:101F0000CF93DF935C016B01EE24FF24C0E0D0E0AF
:101F100010C0D501ED91FC9100811181C601BE0177
:101F20000E949C12682FC501F8011995E80EF91E50
:101F30002196F60184819581C817D90750F3C7010E
:101F4000DF91CF911F910F91FF90EF90DF90CF9095
:101F5000BF90AF900895EF92FF920F931F937C0173
:101F60000E94780F8C01C7010E947B0C9C01200FFE
:101F7000311FC9011F910F91FF90EF900895FC014F
:101F800044835583668377830895CF93DF93EC0171
:101F90000E941C1C688779878A879B87E881F98162
:101FA0000084F185E02DCE0119959C0197FF15C0A5
:101FB0000E941C1C288539854A855B85621B730B32
:101FC000840B950B2C813D814E815F8162177307D5
:101FD0008407950718F32FEF3FEFC901DF91CF91E9
:101FE0000895CF93DF93EC01CE010E94C50F9C01B1
:101FF00097FD0EC08D32910559F0C0970A9740F0B9
:10200000E881F9810680F781E02DCE011995ECCFAA
:10201000C901DF91CF9108956F927F928F929F9225
:10202000AF92BF92CF92DF92EF92FF920F931F93E6
:10203000CF93DF93EC01662E0E94F10F982E772448
:102040008824EE24FF2487010F2EF0E0AF2EF0E06D
:10205000BF2EF0E8CF2EFFE3DF2EF02D961491F186
:102060008DE2981619F4772473942CC09EE2991689
:1020700019F48824839426C0892D80538A3010F562
:10208000C801B7012AE030E040E050E00E94BD2BDB
:102090007B018C01E90CF11C011D111D80ED9FEFEE
:1020A000AFEFBFEFE80EF91E0A1F1B1F882051F08B
:1020B000C601B5012DEC3CEC4CEC5DE30E94012027
:1020C0005B016C01E881F9810680F781E02DCE018A
:1020D0001995CE010E94C50F982F982E80538A30F3
:1020E00008F4BCCF9E3209F4B9CF961509F4B6CFE7
:1020F000772041F010950095F094E094E11CF11CDC
:10210000011D111D882049F0C801B7010E949222CB
:10211000A60195010E94012004C0C801B7010E94D8
:102120009222DF91CF911F910F91FF90EF90DF905E
:10213000CF90BF90AF909F908F907F906F900895B9
:1021400061E00E940C1008959F92AF92BF92CF92CF
:10215000DF92EF92FF920F931F93CF93DF936C0167
:10216000B62E0E94F10FEC0197FF04C0EE24FF246D
:1021700087014AC09924EE24FF248701AB2CBB249D
:10218000CA15DB0529F1CD32D10519F499249394B0
:102190001FC0CE01C0970A97D8F4C801B7012AE042
:1021A00030E040E050E00E94BD2B7B018C01CE016D
:1021B000AA2797FDA095BA2FE80EF91E0A1F1B1F2C
:1021C00080ED9FEFAFEFBFEFE80EF91E0A1F1B1F58
:1021D000D601ED91FC910680F781E02DC60119959D
:1021E000C6010E94C50FEC01C0970A9748F2CA15B4
:1021F000DB0531F2992041F010950095F094E094C0
:10220000E11CF11C011D111DB701C801DF91CF9127
:102210001F910F91FF90EF90DF90CF90BF90AF9004
:102220009F90089561E00E94A4100895CF93DF93DA
:10223000EC010E941C1C688779878A879B87E8814C
:10224000F9810680F781E02DCE0119959C0197FF59
:1022500015C00E941C1C288539854A855B85621B38
:10226000730B840B950B2C813D814E815F8162172E
:1022700073078407950718F32FEF3FEFC901DF912C
:10228000CF910895CF92DF92FF920F931F93CF9338
:10229000DF93082FF92E6B01142F60EF72E00E947C
:1022A000BB18C6010E941611BC01C12FD0E008C0A6
:1022B000802F9F2D0E94C417C6010E941611BC01D9
:1022C00077FD03C06C177D0799F7802F9F2DDF9155
:1022D000CF911F910F91FF90DF90CF9008950F93B2
:1022E0001F93CF93DF93182F092FEB0160EF72E05C
:1022F0000E94BB1804C0812F902F0E94C417CE01EA
:102300000E941611BC0197FFF6CF812F902FDF910D
:10231000CF911F910F910895AF92BF92CF92DF920C
:10232000EF92FF920F931F93CF93DF935C017A019B
:1023300089012115310519F4C0E0D0E014C0C0E0D6
:10234000D0E0C62EDD240CC0C5010E94161197FDF9
:102350000AC08C159D0539F0F70181937F01219604
:10236000C017D10788F3CE01DF91CF911F910F9154
:10237000FF90EF90DF90CF90BF90AF900895CF92F5
:10238000DF92EF92FF920F931F93CF93DF936C0135
:102390008B017A01C0E0D0E009C0C6010E9416118D
:1023A00097FD07C0F80181938F012196CE15DF05B7
:1023B000A0F3CE01DF91CF911F910F91FF90EF908D
:1023C000DF90CF9008956F927F928F929F92AF92FD
:1023D000BF92CF92DF92EF92FF920F931F93CF9312
:1023E000DF933C017B014A0159016801FB018081B7
:1023F0008823A1F1C0E0D0E027C0F701EC0FFD1F5A
:10240000808190E02817390711F0C0E0D0E0F70193
:10241000EC0FFD1F808190E02817390721F42196E9
:10242000C815D905D8F4C114D10471F0F501E00F35
:10243000F11F808190E02817390731F40F5F1F4F9B
:102440000C151D0518F00CC000E010E0C3010E943F
:1024500016119C011816190684F202C081E001C011
:1024600080E0DF91CF911F910F91FF90EF90DF906F
:10247000CF90BF90AF909F908F907F906F90089576
:102480000F931F939A01DB010D900020E9F7AD0136
:1024900041505040461B570BD9010D900020E9F7E1
:1024A0001197A21BB30B8D010E94E3111F910F9195
:1024B000089540E050E00E94401208950F931F934A
:1024C00020E030E000E010E00E94E3111F910F9146
:1024D0000895FC01848195816817790748F401907B
:1024E000F081E02D309721F0E60FF71F80810895ED
:1024F00080E00895FC01848195816817790730F4A4
:102500000190F081E02DE60FF71F40830895FC0154
:102510009B01848195816817790728F46081718116
:102520006115710529F41092B50665EB76E002C0DD
:10253000620F731FCB010895FC0184819581681798
:10254000790748F40190F081E02D309721F0E60FF3
:10255000F71F8081089580E00895FC010190F081CB
:10256000E02D309729F40895861709F440833196B9
:1025700080818823C9F70895FC01808191810097AB
:1025800029F420E030E040E050E004C00E94B22591
:102590009B01AC01B901CA010895CF92DF92EF927D
:1025A000FF920F931F93CF93DF936C01DC01ED90AB
:1025B000FC901197E114F104E9F11496CD91DC91AE
:1025C00015972097B9F1870102C00F5F1F4FF801DF
:1025D000808190E00E943B2C892BB9F72197CE0D8A
:1025E000DF1D01C02197888190E00E943B2C892B40
:1025F00019F0C017D107B0F7FE013196E01BF10BBF
:10260000D6011596FC93EE9314972D913C912017CB
:10261000310728F4C901B801AF010E94D925D601BC
:10262000ED91FC91119714968D919C911597E80F5F
:10263000F91F1082DF91CF911F910F91FF90EF90C2
:10264000DF90CF900895CF93DF93FC01C081D181BB
:10265000209729F407C090E00E944B2C8993888131
:102660008823C9F7DF91CF910895CF93DF93FC01C1
:10267000C081D181209729F407C090E00E94432CAB
:10268000899388818823C9F7DF91CF910895EF92CC
:10269000FF920F931F93CF93DF93FC01DB0186170B
:1026A000970719F12481358114968D919C91159786
:1026B00028173907E1F4232BC1F0E080F180CD9198
:1026C000DC910FC090E00E94432C8C01888190E047
:1026D0000E94432C0817190751F40894E11CF11CBF
:1026E0002196F7018081882369F781E001C080E0AD
:1026F000DF91CF911F910F91FF90EF900895AF92CE
:10270000BF92CF92DF92EF92FF920F931F93CF93DE
:10271000DF93FC015B017A01DB0114962D913C9162
:1027200015972115310559F184819581009739F16B
:102730008217930720F14817590720F07C0108946D
:10274000E108F10800811181C801CFEFDFEF6801D6
:10275000CE0CDF1C10C0F501608171810E9437260C
:102760009C01009771F0801B910BE816F90608F0A8
:10277000EC01C9010196C816D90668F702C0CFEF6F
:10278000DFEFCE01DF91CF911F910F91FF90EF907E
:10279000DF90CF90BF90AF900895FC01DB014481A2
:1027A000558114968D919C911597481B590BCF011B
:1027B0000E947F130895CF93DF93FC01DB01848196
:1027C00095814817590760F4C081D1816D917C9142
:1027D000CE01840F951F0E9437269C01009719F4A3
:1027E0002FEF3FEF02C02C1B3D0BC901DF91CF91B2
:1027F000089540E050E00E94DB130895DF92EF92CD
:10280000FF920F931F93CF93DF93EC018C819D81F7
:1028100048175907B8F47A010894E11CF11CE881C3
:10282000F981EE0DFF1DD080108208811981C80149
:1028300070E00E942C269C010E0D1F1DF801D08215
:10284000009719F4EFEFFFEF05C088819981F90136
:10285000E81BF90BCF01DF91CF911F910F91FF90F2
:10286000EF90DF900895FC01448155814150504024
:102870000E94FE130895CF93DF93FC01848195811C
:102880004817590758F4C081D181CE01840F951F94
:1028900070E00E94F4259C01009719F42FEF3FEFA0
:1028A00002C02C1B3D0BC901DF91CF91089540E080
:1028B00050E00E943B1408950F931F93CF93DF9332
:1028C000FC018B0141155105F9F061157105E1F02D
:1028D000848195812817390718F0FB01108214C0F4
:1028E00041505040EC01C21BD30B4C175D0708F45C
:1028F000EA0160817181620F731FC801AE010E94FD
:102900001D26C00FD11F1882DF91CF911F910F910B
:102910000895FC01DB012481358114964D915C9171
:10292000159724173507A8F080819181009789F0C9
:102930006D917C916115710561F0241B350B820F3F
:10294000931F0E94FF259C0180E0232B19F481E056
:10295000089580E00895DC01FB0114968D919C910F
:102960001597892B31F461157105A9F090E08081EC
:1029700008C00D90BC91A02D6115710529F490E05F
:102980008C91882349F407C0CD010E94FF259C014A
:1029900090E0232B09F491E0892F0895CF93DF93E2
:1029A0009C01FB01EC01A881B981109729F060819D
:1029B000718161157105D1F4C081D181209759F0E1
:1029C00084819581892B39F0888190E022273327F3
:1029D000281B390B12C0109771F0F9018481958181
:1029E000892B49F08C91282F30E007C0CD010E943F
:1029F000FF259C0102C020E030E0C901DF91CF91AA
:102A000008950E94CE14892F8095881F8827881FDB
:102A100008950E94CE1420E0181619060CF021E04B
:102A2000822F08950E94CE1420E0181619060CF487
:102A300021E0822F08950E94CE14892F881F8827B5
:102A4000881F0895FC01DB012481358114968D9146
:102A50009C9115972817390711F020E007C0CF0186
:102A60000E94CE1420E0892B09F421E0822F0895E2
:102A7000FC01DB0114962D913C9115978481958181
:102A8000821B930B84179507A0F08081918100979A
:102A900081F06D917C916115710559F0840F951F3E
:102AA000A9010E940F269C0180E0232B19F481E0EC
:102AB000089580E00895FC01DB012481358114969E
:102AC0008D919C9115972817390710F480E008958F
:102AD000CF0140E050E00E94381508950F931F93F6
:102AE000CF93DF93EC018B016F5F7F4F88819981DA
:102AF0000E94DC2A009711F480E005C09983888346
:102B00001B830A8381E0DF91CF911F910F9108957C
:102B10002F923F924F925F926F927F928F929F92ED
:102B2000AF92BF92CF92DF92EF92FF920F931F93DB
:102B3000CF93DF935C012B014A01DC0114960D91C8
:102B40001C9115970115110509F4D4C0FB01C4802F
:102B5000D580C114D10409F4CDC0DA0114966D906A
:102B60007C9015976C187D08FC01E080F180611461
:102B7000710491F01BC0D4016C9111967C91119756
:102B800014964D915C9115978C2F0E94D925F401D4
:102B9000E480F580EC0EFD1ED2016D917C91C701A1
:102BA0000E943726EC01009731F7A4C077FE02C0DF
:102BB00067012EC0FB0120803180E8013CC08E01FE
:102BC0000E191F09C601B701A8010E94D9250C0DD5
:102BD0001D1DD4016C9111967C91119714964D9105
:102BE0005C911597C8010E94D925F401C480D58055
:102BF000C00ED11ED2011496ED90FC901597EC0EEC
:102C0000FD1EF50184819581860D971D9583848332
:102C1000D2016D917C91C7010E943726EC0100978B
:102C200071F6C601B7010E94082664C07B01EC0C56
:102C3000FD1CC60DD71DC701B1010E943726BC017E
:102C40000097A1F7C017D10709F454C0F50182819C
:102C500093818C179D0708F044C0C501BE010E94F6
:102C60006E158823F1F546C0C501B201A9010E9485
:102C70007F13EC0197FD3EC0D5016D917C911197BA
:102C8000F201848195818C0F9D1F680F791F149626
:102C90004D915C911597481B590BCB01860D971DE3
:102CA0000E94E225D50114968D919C911597860D71
:102CB000971D15969C938E931497ED91FC91119707
:102CC000E80FF91F10822D913C912C0F3D1FF4014C
:102CD0006081718144815581C9010E94D9259E017D
:102CE00005C0D50114962D913C9115972150304087
:102CF00037FFBACFDF91CF911F910F91FF90EF90E7
:102D0000DF90CF90BF90AF909F908F907F906F900B
:102D10005F904F903F902F900895CF93DF93EC01F9
:102D200088819981892B29F08A819B818617970751
:102D300060F4CE010E946E15882341F08C819D8144
:102D4000892B19F4E881F981108281E0DF91CF911C
:102D50000895EF92FF920F931F93CF93DF93EC01AF
:102D60007B016C817D81E114F104C1F041155105B5
:102D700099F08A01060F171FB8010E948D1688234B
:102D800069F0888199812C813D81820F931FB70161
:102D90000E9408261D830C8381E001C080E0DF9142
:102DA000CF911F910F91FF90EF900895EF92FF92B6
:102DB0000F931F93DF93CF93CDB7DEB72B970FB64B
:102DC000F894DEBF0FBECDBF7C01CB01BA018E01EE
:102DD0000F5F1F4FA8012AE030E00E94BB26F801D8
:102DE00001900020E9F73197E01BF10BC701B80112
:102DF000AF010E94A9162B960FB6F894DEBF0FBE46
:102E0000CDBFCF91DF911F910F91FF90EF9008956B
:102E1000EF92FF920F931F93DF93CF93CDB7DEB75F
:102E20002C970FB6F894DEBF0FBECDBF7C01CB014F
:102E3000BA018E010F5F1F4FA8012AE030E00E9407
:102E40007226F80101900020E9F73197E01BF10BA1
:102E5000C701B801AF010E94A9162C960FB6F894CD
:102E6000DEBF0FBECDBFCF91DF911F910F91FF90BD
:102E7000EF900895EF92FF920F931F93DF93CF93FC
:102E800000D000D0CDB7DEB77C01CB018E010F5F43
:102E90001F4FB8014AE050E00E94E026F80101907F
:102EA0000020E9F73197E01BF10BC701B801AF0132
:102EB0000E94A91626960FB6F894DEBF0FBECDBFAE
:102EC000CF91DF911F910F91FF90EF900895EF92B6
:102ED000FF920F931F93DF93CF93CDB7DEB7279762
:102EE0000FB6F894DEBF0FBECDBF7C01CB018E01C3
:102EF0000F5F1F4FB8014AE050E00E945126F801D1
:102F000001900020E9F73197E01BF10BC701B801F0
:102F1000AF010E94A91627960FB6F894DEBF0FBE28
:102F2000CDBFCF91DF911F910F91FF90EF9008954A
:102F3000EF92FF920F931F93DF93CF9300D00F92E6
:102F4000CDB7DEB77C01862F90E08E010F5F1F4F5B
:102F5000B8014AE050E00E945126F801019000209B
:102F6000E9F73197E01BF10BC701B801AF010E94EF
:102F7000A9160F900F900F900F90CF91DF911F9196
:102F80000F91FF90EF900895DF93CF930F920F92E0
:102F9000CDB7DEB769831A82BE016F5F7F4F41E014
:102FA00050E00E94A9160F900F90CF91DF910895E5
:102FB0006115710511F480E00895DB010D9000208A
:102FC000E9F71197A61BB70BAD010E94A91608954A
:102FD000FB0160817181448155810E94A916089589
:102FE000CF93DF93EC0188819981009711F00E94C3
:102FF000442A198218821D821C821B821A82DF9148
:10300000CF9108950F931F93182F092F0E94D61662
:10301000882321F4812F902F0E94F017812F902F69
:103020001F910F9108950F931F93182F092F0E943E
:103030000817882321F4812F902F0E94F017812FE9
:10304000902F1F910F9108950F931F93182F092F01
:103050000E943A17882321F4812F902F0E94F017A5
:10306000812F902F1F910F9108950F931F93182F69
:10307000092F0E946717882321F4812F902F0E9427
:10308000F017812F902F1F910F9108950F931F9389
:10309000182F092F0E949817882321F4812F902F31
:1030A0000E94F017812F902F1F910F9108950F9379
:1030B0001F93182F092F0E94C417882321F4812FF2
:1030C000902F0E94F017812F902F1F910F9108953C
:1030D0000F931F93182F092F6115710561F0DB0104
:1030E0000D900020E9F71197A61BB70BAD010E94C8
:1030F000A916882321F4812F902F0E94F017812F89
:10310000902F1F910F9108950F931F93182F092F40
:10311000FB0160817181448155810E94A916882339
:1031200021F4812F902F0E94F017812F902F1F9153
:103130000F910895EF92FF920F931F93CF93DF9318
:10314000EC017B018A01BA010E948D16882321F4CB
:10315000CE010E94F01707C01D830C8388819981DE
:10316000B7010E940826CE01DF91CF911F910F91E8
:10317000FF90EF900895CF93DF93EC0119821882AE
:103180001B821A821D821C821E826115710551F0FC
:10319000DB010D900020E9F71197A61BB70BAD01DD
:1031A0000E949A18DF91CF910895CF93DF93EC019D
:1031B000198218821B821A821D821C821E8261154E
:1031C000710551F0DB010D900020E9F71197A61B66
:1031D000B70BAD010E949A18DF91CF9108950F931C
:1031E0001F93182F092F6115710559F0DB010D9000
:1031F0000020E9F71197A61BB70BAD010E949A18A2
:1032000002C00E94F017812F902F1F910F910895F7
:10321000EF92FF920F931F93DF93CF93CDB7DEB75B
:10322000A1970FB6F894DEBF0FBECDBF8C01FC0195
:103230001182108213821282158214821682CB01AF
:10324000BA017E010894E11CF11CA70130E00E9444
:10325000BB26C801B7010E94EF18A1960FB6F894DB
:10326000DEBF0FBECDBFCF91DF911F910F91FF90B9
:10327000EF900895EF92FF920F931F93DF93CF93F8
:10328000CDB7DEB7A1970FB6F894DEBF0FBECDBFA6
:103290008C01FC0111821082138212821582148229
:1032A0001682CB01BA017E010894E11CF11CA70132
:1032B00030E00E94BB26C801B7010E94EF18A1961A
:1032C0000FB6F894DEBF0FBECDBFCF91DF911F9137
:1032D0000F91FF90EF900895EF92FF920F931F933D
:1032E000DF93CF93CDB7DEB7A2970FB6F894DEBFCA
:1032F0000FBECDBF8C01FC0111821082138212829D
:10330000158214821682CB01BA017E010894E11C59
:10331000F11CA70130E00E947226C801B7010E948B
:10332000EF18A2960FB6F894DEBF0FBECDBFCF91B7
:10333000DF911F910F91FF90EF900895EF92FF9210
:103340000F931F93DF93CF93CDB7DEB7A2970FB63E
:10335000F894DEBF0FBECDBF8C01FC01118210823C
:1033600013821282158214821682CB01BA017E0169
:103370000894E11CF11CA70130E00E947226C801EC
:10338000B7010E94EF18A2960FB6F894DEBF0FBEE9
:10339000CDBFCF91DF911F910F91FF90EF900895D6
:1033A000EF92FF920F931F93DF93CF93CDB7DEB7CA
:1033B00061970FB6F894DEBF0FBECDBF8C01CB0175
:1033C000F8011182108213821282158214821682F1
:1033D0007E010894E11CF11CB70150E00E94E02638
:1033E000C801B7010E94EF1861960FB6F894DEBFCE
:1033F0000FBECDBFCF91DF911F910F91FF90EF9046
:103400000895EF92FF920F931F93DF93CF93CDB761
:10341000DEB761970FB6F894DEBF0FBECDBF8C014B
:10342000CB01F8011182108213821282158214825C
:1034300016827E010894E11CF11CB70150E00E9445
:10344000E026C801B7010E94EF1861960FB6F89404
:10345000DEBF0FBECDBFCF91DF911F910F91FF90C7
:10346000EF900895EF92FF920F931F93DF93CF9306
:10347000CDB7DEB762970FB6F894DEBF0FBECDBFF3
:103480008C01CB01F8011182108213821282158205
:10349000148216827E010894E11CF11CB70150E0F1
:1034A0000E945126C801B7010E94EF1862960FB61C
:1034B000F894DEBF0FBECDBFCF91DF911F910F916A
:1034C000FF90EF900895EF92FF920F931F93DF9379
:1034D000CF93CDB7DEB762970FB6F894DEBF0FBEBD
:1034E000CDBF8C01CB01F8011182108213821282B0
:1034F0001582148216827E010894E11CF11CB7012A
:1035000050E00E945126C801B7010E94EF18629650
:103510000FB6F894DEBF0FBECDBFCF91DF911F91E4
:103520000F91FF90EF900895EF92FF920F931F93EA
:10353000DF93CF93CDB7DEB729970FB6F894DEBFF0
:103540000FBECDBF8C01862FF8011182108213822D
:10355000128215821482168290E07E010894E11C8A
:10356000F11CB70150E00E94E026C801B7010E949B
:10357000EF1829960FB6F894DEBF0FBECDBFCF91DE
:10358000DF911F910F91FF90EF900895EF92FF92BE
:103590000F931F93DF93CF93CDB7DEB729970FB665
:1035A000F894DEBF0FBECDBF8C01862FF8011182CB
:1035B00010821382128215821482168290E07E019C
:1035C0000894E11CF11CB70150E00E94E026C801FC
:1035D000B7010E94EF1829960FB6F894DEBF0FBE10
:1035E000CDBFCF91DF911F910F91FF90EF90089584
:1035F000DF93CF930F920F92CDB7DEB7FC0111820C
:1036000010821382128215821482168269831A82B2
:10361000BE016F5F7F4F0E94EF180F900F90CF9108
:10362000DF910895DF93CF930F920F92CDB7DEB75E
:10363000FC0111821082138212821582148216827A
:1036400069831A82BE016F5F7F4F0E94EF180F904F
:103650000F90CF91DF910895BF92CF92DF92EF92BA
:10366000FF920F931F93CF93DF93082FB92E6B0117
:103670007A01E9012417350710F4EA017901802F56
:103680009B2D61EF72E00E94BB18D60114968D91BC
:103690009C9115978E159F05D0F08C179D0708F407
:1036A000EC01D601ED91FC911197EC0FFD1F1081FB
:1036B00010826D917C916E0D7F1D802F9B2D0E943D
:1036C000EF18D601ED91FC91EC0FFD1F1083802FB8
:1036D0009B2DDF91CF911F910F91FF90EF90DF9085
:1036E000CF90BF9008950F931F938C01FB0124810D
:1036F00035810E942C1BC8011F910F910895CF9313
:10370000DF93EC01FB018617970761F060817181FF
:103710006115710529F0448155810E949A1802C0F3
:103720000E94F017CE01DF91CF910895FC01118224
:103730001082138212821582148216820E947F1BCD
:103740000895FC0111821082138212821582148264
:1037500016820E947F1B0895FC01808191810E9446
:10376000442A0895FC01808191810E94442A089591
:10377000FC0120E030E08081882311F421E030E07A
:10378000C9010895FC0181E080830895089508959A
:103790000E94442A08950E94442A08950E94A7295D
:1037A00008950E94A72908951F920F920FB60F92B5
:1037B00011242F933F938F939F93AF93BF93809147
:1037C000BA069091BB06A091BC06B091BD0630919F
:1037D000BE060196A11DB11D232F2D5F2D3720F0B0
:1037E0002D570196A11DB11D2093BE068093BA06E8
:1037F0009093BB06A093BC06B093BD068091B6061D
:103800009091B706A091B806B091B9060196A11D96
:10381000B11D8093B6069093B706A093B806B093F7
:10382000B906BF91AF919F918F913F912F910F90CA
:103830000FBE0F901F9018958FB7F8942091BA067D
:103840003091BB064091BC065091BD068FBFB901B7
:10385000CA0108959FB7F8942091B6063091B70633
:103860004091B8065091B90686B5A89B06C08F3F17
:1038700021F02F5F3F4F4F4F5F4F9FBF542F432F7C
:10388000322F2227280F311D411D511D82E0220FAA
:10389000331F441F551F8A95D1F7B901CA010895F6
:1038A0009B01AC017FB7F8948091B6069091B70662
:1038B000A091B806B091B90666B5A89B05C06F3F48
:1038C00019F00196A11DB11D7FBFBA2FA92F982F06
:1038D0008827860F911DA11DB11D62E0880F991FD9
:1038E000AA1FBB1F6A95D1F7BC012DC0FFB7F89482
:1038F0008091B6069091B706A091B806B091B9062E
:10390000E6B5A89B05C0EF3F19F00196A11DB11DBA
:10391000FFBFBA2FA92F982F88278E0F911DA11DA9
:10392000B11DE2E0880F991FAA1FBB1FEA95D1F7CE
:10393000861B970B885E9340C8F221503040404070
:10394000504068517C4F211531054105510571F6F4
:103950000895019739F0880F991F880F991F0297D2
:103960000197F1F70895789484B5826084BD84B599
:10397000816084BD85B5826085BD85B5816085BD6A
:10398000EEE6F0E0808181608083E1E8F0E0108283
:10399000808182608083808181608083E0E8F0E0C4
:1039A000808181608083E1EBF0E0808184608083AE
:1039B000E0EBF0E0808181608083E1E9F0E08081EC
:1039C00082608083808181608083E0E9F0E0808193
:1039D00081608083E1EAF0E0808182608083808181
:1039E00081608083E0EAF0E0808181608083E1E2B1
:1039F000F1E0808182608083808181608083E0E269
:103A0000F1E0808181608083EAE7F0E0808184607A
:103A100080838081826080838081816080838081D7
:103A2000806880831092C1000895CF93DF93482F60
:103A300050E0CA0188589E4FFC0134914E5C5E4FA5
:103A4000FA018491882369F190E0880F991FFC01A5
:103A5000EC51FF4FA591B491FC01E250FF4FC5918D
:103A6000D491662351F42FB7F8948C91932F9095AD
:103A700089238C93888189230BC0623061F42FB72E
:103A8000F8948C91932F909589238C938881832B24
:103A900088832FBF06C09FB7F8948C91832B8C939B
:103AA0009FBFDF91CF910895893009F449C08A30D2
:103AB000A0F4843051F1853040F4823079F18330C4
:103AC00000F5813009F063C026C0873079F1883075
:103AD00098F5863009F05BC025C08D3009F442C0EE
:103AE0008E3028F48B30B1F18C30C0F52DC0803190
:103AF00009F442C0813109F445C08F3009F047C054
:103B000037C0809180008F7703C0809180008F7DC7
:103B100080938000089584B58F7702C084B58F7D2F
:103B200084BD08958091B0008F7703C08091B0006C
:103B30008F7D8093B0000895809190008F7707C0AB
:103B4000809190008F7D03C080919000877F80934B
:103B5000900008958091A0008F7707C08091A00009
:103B60008F7D03C08091A000877F8093A00008957F
:103B7000809120018F7703C0809120018F7D8093F9
:103B80002001089580912001877F8093200108956E
:103B9000FF920F931F93F62E482F50E0CA018254D4
:103BA0009E4FFC012491CA0188589E4FFC0114913C
:103BB0004E5C5E4FFA0104910023C9F0222319F0F4
:103BC000822F0E94541DE02FF0E0EE0FFF1FE25005
:103BD000FF4FA591B4919FB7F894FF2021F48C91E9
:103BE0001095812302C08C91812B8C939FBF1F91D4
:103BF0000F91FF9008950F931F93482F50E0CA0133
:103C000082549E4FFC012491CA0188589E4FFC01AA
:103C100004914E5C5E4FFA011491112319F420E0D7
:103C200030E015C0222319F0822F0E94541D812FED
:103C300090E0880F991F885E9E4FFC01A591B4917A
:103C40008C9120E030E0802311F021E030E0C901C8
:103C50001F910F910895EF92FF920F931F937B0195
:103C60008C0120E030E040E05FE40E94D72188230F
:103C70008CF0C801B70120E030E040E05FE40E9432
:103C8000A31F0E94F0229B01AC0120503040404015
:103C9000504806C0C801B7010E94F0229B01AC0148
:103CA000B901CA011F910F91FF90EF900895A0E014
:103CB000B0E0EDE5FEE10C94FE2BDC012B01FA01F6
:103CC0009C91923008F439C1EB018881823008F46C
:103CD00033C1943069F4843009F02FC111969C915E
:103CE00011978981981709F428C1A8EFB2E025C17E
:103CF000843009F421C18230A9F4923009F01DC149
:103D00009A01AD0188E0EA010990AE01E90109924A
:103D10009E018150C1F7E201898111969C9189230E
:103D2000818308C1923009F407C112962D903C900E
:103D30001397EB018A819B811496AD90BD90CD9035
:103D4000DC901797EC80FD800E811F819101281B6C
:103D5000390BB90137FF04C066277727621B730B45
:103D6000603271050CF061C0121613066CF5370154
:103D70004801062E04C096948794779467940A9419
:103D8000D2F721E030E040E050E004C0220F331FC2
:103D9000441F551F6A95D2F7215030404040504093
:103DA0002E213F2140235123211531054105510585
:103DB00021F021E030E040E050E079018A01E6287E
:103DC000F728082919293CC0232BD1F1260E371ECC
:103DD00035014601062E04C0969487947794679423
:103DE0000A94D2F721E030E040E050E004C0220F16
:103DF000331F441F551F6A95D2F721503040404071
:103E000050402A213B214C215D21211531054105DE
:103E1000510521F021E030E040E050E059016A0115
:103E2000A628B728C828D9280BC0821593052CF0DE
:103E30001C01AA24BB24650103C0EE24FF248701D2
:103E400011969C91D20111968C91981709F445C056
:103E5000992339F0A80197012A193B094C095D09FA
:103E600006C0A60195012E193F09400B510B57FDC5
:103E700008C011823382228224833583468357838C
:103E80001DC081E081833382228288279927DC014B
:103E9000821B930BA40BB50B84839583A683B783F6
:103EA0000DC0220F331F441F551F248335834683C3
:103EB0005783828193810197938382832481358103
:103EC00046815781DA01C9010197A109B1098F5FC4
:103ED0009F4FAF4FBF4328F30BC0918333822282A1
:103EE000EA0CFB1C0C1D1D1DE482F5820683178362
:103EF00083E08083248135814681578157FF1AC032
:103F0000C901AA2797FDA095BA2F81709070A07063
:103F1000B0705695479537952795822B932BA42BF8
:103F2000B52B84839583A683B78382819381019681
:103F300093838283DF0101C0D201CD01CDB7DEB70B
:103F4000E2E10C941A2CA0E2B0E0E9EAFFE10C9463
:103F50000A2C69837A838B839C832D833E834F83D2
:103F60005887E9E0EE2EF12CEC0EFD1ECE010196F5
:103F7000B7010E94E1248E010F5E1F4FCE0105960E
:103F8000B8010E94E1248A8991E089278A8BC701C0
:103F9000B801AE01475E5F4F0E94571E0E940C247D
:103FA000A096E6E00C94262CA0E2B0E0EAEDFFE15A
:103FB0000C940A2C69837A838B839C832D833E83A4
:103FC0004F835887F9E0EF2EF12CEC0EFD1ECE0149
:103FD0000196B7010E94E1248E010F5E1F4FCE01B2
:103FE0000596B8010E94E124C701B801AE01475E01
:103FF0005F4F0E94571E0E940C24A096E6E00C948E
:10400000262CA0E2B0E0E7E0F0E20C94FE2B6983FE
:104010007A838B839C832D833E834F835887CE0185
:104020000196BE01675F7F4F0E94E124CE01059695
:10403000BE016F5E7F4F0E94E1249985923088F027
:1040400089898230C8F0943019F4823051F404C068
:10405000843029F4923081F488EF92E0C6C0923027
:1040600049F420E09A858A89981321E02A87CE01B5
:104070000996BBC0823049F420E09A858A8998135A
:1040800021E02A8BCE014196B0C02D843E844F841E
:1040900058886D887E888F88988CEE24FF2487014D
:1040A000AA24BB24650140E050E060E070E0E0E05D
:1040B000F0E0C10181709070892BE9F0E60CF71CEB
:1040C000081D191D9A01AB012A0D3B1D4C1D5D1DDC
:1040D00080E090E0A0E0B0E0E614F70408051905E0
:1040E00020F481E090E0A0E0B0E0BA01A901480F1F
:1040F000591F6A1F7B1FAA0CBB1CCC1CDD1C97FE22
:1041000008C081E090E0A0E0B0E0A82AB92ACA2A5D
:10411000DB2A3196E032F10549F0660C771C881CE9
:10412000991C5694479437942794C3CFFA85EA890B
:104130002B893C898B859C85280F391F2E5F3F4F2B
:1041400017C0CA0181709070892B61F01695079590
:10415000F794E79480E090E0A0E0B0E8E82AF92A3C
:104160000A2B1B2B76956795579547952F5F3F4FE9
:1041700077FDE7CF0CC0440F551F661F771F17FD53
:104180004160EE0CFF1C001F111F215030404030D9
:1041900090E0590790E0690790E4790760F32B8F6E
:1041A0003C8FDB01CA018F779070A070B0708034B3
:1041B0009105A105B10561F447FD0AC0E114F104C0
:1041C0000105110529F0405C5F4F6F4F7F4F40782C
:1041D0001A8EFE1711F081E08A8F4D8F5E8F6F8FE0
:1041E00078A383E0898FCE0149960E940C24A09683
:1041F000E2E10C941A2CA8E1B0E0E1E0F1E20C94C9
:10420000062C69837A838B839C832D833E834F8323
:104210005887B9E0EB2EF12CEC0EFD1ECE01019675
:10422000B7010E94E1248E010F5E1F4FCE0105965B
:10423000B8010E94E1242985223008F47EC0398922
:10424000323010F4B8017CC08A859A8989278A8720
:10425000243011F0223031F4231709F06EC068EFDA
:1042600072E06EC0343039F41D861E861F86188AAF
:104270001C861B8604C0323021F484E08987B70194
:104280005FC02B853C858B899C89281B390B3C871B
:104290002B87ED84FE840F851889AD88BE88CF8872
:1042A000D88CEA14FB040C051D0540F4EE0CFF1C31
:1042B000001F111F215030403C872B8720E030E049
:1042C00040E050E080E090E0A0E0B0E460E070E02A
:1042D000EA14FB040C051D0540F0282B392B4A2B52
:1042E0005B2BEA18FB080C091D09B695A795979555
:1042F0008795EE0CFF1C001F111F6F5F7F4F6F3102
:10430000710531F7DA01C9018F779070A070B07034
:1043100080349105A105B10561F427FD0AC0E114BF
:10432000F1040105110529F0205C3F4F4F4F5F4F0D
:1043300020782D873E874F87588BBE01675F7F4F60
:10434000CB010E940C246896EAE00C94222CA8E190
:10435000B0E0EDEAF1E20C940A2C69837A838B8356
:104360009C832D833E834F83588789E0E82EF12C70
:10437000EC0EFD1ECE010196B7010E94E1248E01D4
:104380000F5E1F4FCE010596B8010E94E12489857A
:10439000823040F08989823028F0C701B8010E943C
:1043A000592501C08FEF6896E6E00C94262CA8E111
:1043B000B0E0EDEDF1E20C940A2C69837A838B83F3
:1043C0009C832D833E834F83588789E0E82EF12C10
:1043D000EC0EFD1ECE010196B7010E94E1248E0174
:1043E0000F5E1F4FCE010596B8010E94E12489851A
:1043F000823040F08989823028F0C701B8010E94DC
:10440000592501C08FEF6896E6E00C94262CA8E1B0
:10441000B0E0EDE0F2E20C940A2C69837A838B839E
:104420009C832D833E834F83588789E0E82EF12CAF
:10443000EC0EFD1ECE010196B7010E94E1248E0113
:104440000F5E1F4FCE010596B8010E94E1248985B9
:10445000823040F08989823028F0C701B8010E947B
:10446000592501C081E06896E6E00C94262CA8E16D
:10447000B0E0EDE3F2E20C940A2C69837A838B833B
:104480009C832D833E834F83588789E0E82EF12C4F
:10449000EC0EFD1ECE010196B7010E94E1248E01B3
:1044A0000F5E1F4FCE010596B8010E94E124898559
:1044B000823040F08989823028F0C701B8010E941B
:1044C000592501C081E06896E6E00C94262CA8E10D
:1044D000B0E0EDE6F2E20C940E2C69837A838B83D4
:1044E0009C832D833E834F835887CE010196BE0166
:1044F000675F7F4F0E94E124CE010596BE016F5E8B
:104500007F4F0E94E1248985823028F020E030E04E
:104510008989823010F421E030E0822F6896E2E051
:104520000C942A2CA8E0B0E0E8E9F2E20C94072C05
:104530009B01AC0183E08983DA01C9018827B7FDBB
:1045400083959927AA27BB27B82E21153105410548
:10455000510519F482E089833AC08823A9F02030FC
:1045600080E0380780E0480780E8580729F460E0D9
:1045700070E080E09FEC30C0EE24FF248701E21A57
:10458000F30A040B150B02C079018A018EE1C82ED3
:10459000D12CDC82CB82ED82FE820F831887C8018A
:1045A000B7010E94BD2301971816190684F4082E3E
:1045B00004C0EE0CFF1C001F111F0A94D2F7ED82FD
:1045C000FE820F831887C81AD90ADC82CB82BA828E
:1045D000CE0101960E940C242896E9E00C94232C2D
:1045E000ACE0B0E0E6EFF2E20C940E2C69837A8343
:1045F0008B839C83CE010196BE016B5F7F4F0E942F
:10460000E1248D81823061F1823050F1843021F4D7
:104610008E81882351F12EC02F81388537FD20C02F
:104620006E812F3131051CF06623F9F023C08EE135
:1046300090E0821B930B29853A854B855C8504C0ED
:1046400056954795379527958A95D2F76623B1F009
:1046500050954095309521953F4F4F4F5F4F0EC07D
:1046600020E030E040E050E009C02FEF3FEF4FEF97
:104670005FE704C020E030E040E050E8B901CA0143
:104680002C96E2E00C942A2CA8E0B0E0EAE4F3E2F5
:104690000C94062C7B018C01611571058105910537
:1046A00019F482E0898360C083E089838EE1C82E9B
:1046B000D12CDC82CB82ED82FE820F831887C80169
:1046C000B7010E94BD23FC013197F7FF3BC02227B1
:1046D00033272E1B3F0B57016801022E04C0D694CE
:1046E000C794B794A7940A94D2F740E050E060E0F2
:1046F00070E081E090E0A0E0B0E004C0880F991F76
:10470000AA1FBB1F2A95D2F70197A109B1098E21D3
:104710009F21A023B1230097A105B10521F041E01D
:1047200050E060E070E04A295B296C297D294D83C7
:104730005E836F8378878EE190E08E1B9F0B9C8356
:104740008B8312C0309781F00E2E04C0EE0CFF1C3C
:10475000001F111F0A94D2F7ED82FE820F83188783
:10476000CE1ADF0ADC82CB821A82CE0101960E9429
:104770000C242896EAE00C94222CEF92FF920F93DF
:104780001F937B018C0180E0E81680E0F80681E051
:10479000080780E0180788F48FEFE816F104010598
:1047A000110531F028F088E090E0A0E0B0E017C0FB
:1047B00080E090E0A0E0B0E012C080E0E81680E089
:1047C000F80680E0080781E0180728F088E190E00B
:1047D000A0E0B0E004C080E190E0A0E0B0E020E222
:1047E00030E040E050E0281B390B4A0B5B0B04C063
:1047F00016950795F794E7948A95D2F7F701E0505C
:10480000FD4F8081281B310941095109C9011F91C0
:104810000F91FF90EF900895DF92EF92FF920F9328
:104820001F93FC01E480F58006811781D18080818F
:10483000823048F480E090E0A0E1B0E0E82AF92A74
:104840000A2B1B2BA5C0843009F49FC0823021F4B1
:10485000EE24FF24870105C0E114F10401051105D0
:1048600019F4E0E0F0E096C0628173819FEF623856
:1048700079070CF05BC022E83FEF261B370B2A318B
:1048800031052CF020E030E040E050E02AC0B801D3
:10489000A701022E04C076956795579547950A940F
:1048A000D2F781E090E0A0E0B0E004C0880F991F4B
:1048B000AA1FBB1F2A95D2F70197A109B1098E2122
:1048C0009F21A023B1230097A105B10521F081E02C
:1048D00090E0A0E0B0E09A01AB01282B392B4A2BE5
:1048E0005B2BDA01C9018F779070A070B0708034B3
:1048F0009105A105B10539F427FF09C0205C3F4FA0
:104900004F4F5F4F04C0215C3F4F4F4F5F4FE0E080
:10491000F0E02030A0E03A07A0E04A07A0E45A0700
:1049200010F0E1E0F0E079018A0127C060387105FC
:1049300064F5FB01E158FF4FD801C7018F779070F4
:10494000A070B07080349105A105B10539F4E7FE7F
:104950000DC080E490E0A0E0B0E004C08FE390E000
:10496000A0E0B0E0E80EF91E0A1F1B1F17FF05C0EC
:1049700016950795F794E794319687E01695079575
:10498000F794E7948A95D1F705C0EE24FF248701B8
:10499000EFEFF0E06E2F679566276795902F9F7772
:1049A000D794DD24D7948E2F8695492F462B582FE8
:1049B0005D29B701CA011F910F91FF90EF90DF9021
:1049C0000895FC01DB01408151812281622F6F77C4
:1049D00070E0221F2227221F9381892F880F822BAC
:1049E000282F30E0991F9927991F11969C931197B2
:1049F00021153105A9F5411551056105710511F420
:104A000082E037C082E89FEF13969C938E931297B3
:104A10009A01AB0167E0220F331F441F551F6A95AF
:104A2000D1F783E08C930DC0220F331F441F551F15
:104A300012968D919C911397019713969C938E9348
:104A40001297203080E0380780E0480780E458075C
:104A500058F314962D933D934D935C9317970895B7
:104A60002F3F310579F4411551056105710519F4A0
:104A700084E08C93089564FF03C081E08C9312C09E
:104A80001C9210C02F57304013963C932E931297D0
:104A900083E08C9387E0440F551F661F771F8A952C
:104AA000D1F7706414964D935D936D937C93179733
:104AB00008951F93DC01FB019C91923008F447C0DC
:104AC0008081823008F443C0943051F411961C91D7
:104AD000843099F58181682F70E0611B71093FC0B6
:104AE000843021F0923031F48230B9F18181882311
:104AF00089F12DC011961C9111978230F1F08181BE
:104B00001817D9F412962D913C91139782819381B5
:104B10008217930794F028173907BCF014968D91EB
:104B20009D910D90BC91A02D2481358146815781A6
:104B3000281739074A075B0718F4112341F00AC008
:104B400082179307A407B50740F4112319F061E019
:104B500070E005C06FEF7FEF02C060E070E0CB0156
:104B60001F9108951F93FC0199278827BC01E894A1
:104B700011911032E9F3193010F01E30C8F31B32D6
:104B800051F01D3249F4689406C00E94A626610FB8
:104B9000711D811D911D119110531A30B0F33EF417
:104BA00090958095709561957F4F8F4F9F4F1F9186
:104BB0000895FB01DC0102C001900D92415050406C
:104BC000D8F708956817790768F4FB01DC01E40F52
:104BD000F51FA40FB51F02C002900E924150504025
:104BE000D8F708950C94D925FC018191861721F0FE
:104BF0008823D9F7992708953197CF010895FB01AC
:104C0000DC018D91019080190110D9F3990B089561
:104C1000FB01DC0101900D920020E1F70895FB01FA
:104C2000DC014150504030F08D910190801919F411
:104C30000020B9F7881B990B0895FB01DC01415056
:104C4000504048F001900D920020C9F701C01D921C
:104C500041505040E0F70895FC0181E090E0019060
:104C6000061609F4CF010020D1F701970895FB0142
:104C700051915523A9F0BF01DC014D914517411118
:104C8000E1F759F4CD010190002049F04D91401514
:104C90004111C9F3FB014111EFCF81E090E0019791
:104CA0000895FB019F01E8944230C4F04532B4F40A
:104CB0004A3029F497FB1EF4909581959F4F642FFD
:104CC00077270E94562C805D8A330CF0895D819392
:104CD000CB010097A1F716F45DE251931082C90150
:104CE0000C940D29FA01CF93FF93EF93223044F1F6
:104CF000253234F5C22FE894CA3049F497FB3EF4CC
:104D000090958095709561957F4F8F4F9F4F2C2F79
:104D1000332744275527FF93EF930E94DC2BEF9115
:104D2000FF91605D6A330CF0695D6193B901CA015E
:104D3000605070408040904051F716F4CDE2C1932E
:104D400010828F919F91CF910C940D29592F482F4C
:104D5000372F262F660F771F881F991F660F771F23
:104D6000881F991F620F731F841F951F660F771F7F
:104D7000881F991F0895FA01CF93FF93EF93223074
:104D8000CCF02532BCF4C22F2C2F332744275527D3
:104D9000FF93EF930E94DC2BEF91FF91605D6A33EC
:104DA0000CF0695D6193B901CA01605070408040A8
:104DB000904051F710828F919F91CF910C940D29C3
:104DC000FB019F01423074F0453264F4642F772771
:104DD0000E94562C805D8A330CF0895D8193CB0153
:104DE0000097A1F71082C9010C940D29AEE0B0E044
:104DF000ECEFF6E20C940C2C0E891F8986E08C8374
:104E00001A8309838FEF9FE79E838D839E01265E21
:104E10003F4FCE010196688D798DA9010E941A2716
:104E20002F813885020F131FF80110822E96E4E0BF
:104E30000C94282CABE0B0E0E0E2F7E20C94FE2BFF
:104E40003C012B015A01FC0117821682838181FDEE
:104E500003C06FEF7FEFC6C19AE0892E1E01089450
:104E6000211C311CF3012381F20123FD859123FFD5
:104E700081912F01882309F4B2C1853239F423FDD1
:104E8000859123FF81912F01853229F490E0B301B0
:104E90000E941D29E7CF982FFF24EE249924FFE1DB
:104EA000FF15D0F09B3269F09C3228F4903259F013
:104EB000933291F40EC09D3249F0903369F441E091
:104EC00024C052E0F52A84E0F82A28C098E0F92AA4
:104ED00025C0E0E1FE2A22C0F7FC29C0892F8053BB
:104EE0008A3070F4F6FE05C0989C902C1124980E20
:104EF00015C0E89CE02C1124E80EF0E2FF2A0EC059
:104F00009E3229F4F6FC6BC140E4F42A07C09C36BB
:104F100019F450E8F52A02C0983649F4F20123FD4D
:104F2000959123FF91912F01992309F0B8CF892FF3
:104F30008554833018F08052833038F444E050E0D8
:104F4000A40EB51E5FE359830FC0933631F093373B
:104F500079F0933509F056C020C0F501808189832E
:104F600042E050E0A40EB51E610101E010E012C065
:104F7000F501C080D180F6FC03C06FEF7FEF02C067
:104F8000692D70E042E050E0A40EB51EC6010E94FB
:104F900002298C015FE7F52214C0F501C080D180A1
:104FA000F6FC03C06FEF7FEF02C0692D70E042E0B6
:104FB00050E0A40EB51EC6010E94F7288C0150E8EF
:104FC000F52AF3FE07C01AC080E290E0B3010E9408
:104FD0001D29EA948E2D90E008171907A8F30EC03A
:104FE000F601F7FC8591F7FE81916F0190E0B30126
:104FF0000E941D29E110EA9401501040011511058D
:1050000079F7EAC0943611F0993669F5F7FE08C0D1
:10501000F501208131814281538184E090E00AC012
:10502000F501808191819C01442737FD4095542FE3
:1050300082E090E0A80EB91E9FE6F92257FF09C052
:1050400050954095309521953F4F4F4F5F4FE0E889
:10505000FE2ACA01B901A1012AE030E00E944929D3
:10506000D82ED21840C0953729F41F2D1F7E2AE074
:1050700030E01DC01F2D197F9F3661F0903720F45E
:10508000983509F0ACC00FC0903739F0983709F067
:10509000A6C004C028E030E00AC0106114FD14600E
:1050A00020E130E004C014FD166020E132E017FF7B
:1050B00008C0F501608171818281938144E050E0F4
:1050C00008C0F50180819181BC0180E090E042E060
:1050D00050E0A40EB51EA1010E944929D82ED21875
:1050E0008FE7F82EF122F6FE0BC05EEFF522D91401
:1050F00038F4F4FE07C0F2FC05C08FEEF82202C0BF
:105100001D2D01C0192DF4FE0DC0FE01ED0DF11D88
:105110008081803319F499EEF92208C01F5FF2FEF6
:1051200005C003C08F2D867809F01F5F0F2DF3FC9B
:1051300014C0F0FE0FC01E1510F09D2C0BC09D2C4E
:105140009E0C911A1E2D06C080E290E0B3010E94D1
:105150001D291F5F1E15C0F304C01E1510F4E11AAF
:1051600001C0EE2404FF0FC080E390E0B3010E9471
:105170001D2902FF1DC001FD03C088E790E00EC09D
:1051800088E590E00BC0802F867891F001FF02C087
:105190008BE201C080E2F7FC8DE290E0B3010E9457
:1051A0001D2906C080E390E0B3010E941D299A9456
:1051B000D914C0F3DA94F101ED0DF11D808190E076
:1051C000B3010E941D29DD20A9F706C080E290E00E
:1051D000B3010E941D29EA94EE20C1F743CEF301EA
:1051E00066817781CB012B96E2E10C941A2CFC01AD
:1051F0000590615070400110D8F7809590958E0F02
:105200009F1F0895FC016150704001900110D8F774
:10521000809590958E0F9F1F0895DC01FC01672FEC
:1052200071917723E1F7329704C07C916D9370837D
:105230006291AE17BF07C8F308950F931F93CF93E2
:10524000DF938C01EB018B8181FF1BC082FF0DC0BE
:105250002E813F818C819D812817390764F4E88174
:10526000F9810193F983E88306C0E885F985802FE9
:105270001995892B31F48E819F8101969F838E83AE
:1052800002C00FEF1FEFC801DF91CF911F910F9167
:105290000895FA01AA27283051F1203181F1E894CC
:1052A0006F936E7F6E5F7F4F8F4F9F4FAF4FB1E019
:1052B0003ED0B4E03CD0670F781F891F9A1FA11D14
:1052C000680F791F8A1F911DA11D6A0F711D811D15
:1052D000911DA11D20D009F468943F912AE0269FDA
:1052E00011243019305D3193DEF6CF010895462F39
:1052F0004770405D4193B3E00FD0C9F7F6CF462F1A
:105300004F70405D4A3318F0495D31FD4052419382
:1053100002D0A9F7EACFB4E0A6959795879577953F
:105320006795BA95C9F700976105710508959B01C6
:10533000AC010A2E06945795479537952795BA954F
:10534000C9F7620F731F841F951FA01D08950F9347
:105350001F93CF93DF93BC018230910510F462E07C
:1053600070E0E091C106F091C206A0E0B0E040E03C
:1053700050E024C08081918186179707D0F086176E
:10538000970771F482819381109729F013969C936B
:105390008E9312972CC09093C2068093C10627C0AB
:1053A0004115510519F08417950718F4EF018D0187
:1053B000AC01DF01828193819C01F9013097D1F624
:1053C00041155105F9F0CA01861B970B84309105F0
:1053D00080F48A819B810115110521F0F8019383E6
:1053E000828304C09093C2068093C106FE01329668
:1053F00045C0FE01E80FF91F6193719302979983ED
:1054000088833CC08091BF069091C006892B41F4EF
:105410008091F4029091F5029093C0068093BF06AC
:105420004091F6025091F7024115510541F44DB7F4
:105430005EB78091F2029091F302481B590B2091C4
:10544000BF063091C00624173507B0F4CA01821B8D
:10545000930B8617970780F0AB014E5F5F4F841761
:10546000950750F0420F531F5093C0064093BF065C
:10547000F9016193719302C0E0E0F0E0CF01DF91A8
:10548000CF911F910F910895CF93DF939C010097C7
:1054900009F48FC0EC0122971B821A826091C10629
:1054A0007091C2066115710581F488819981820F1E
:1054B000931F2091BF063091C0062817390739F590
:1054C000D093C006C093BF0674C0DB0140E050E03B
:1054D000AC17BD0708F1BB83AA83FE01219131916E
:1054E000E20FF31FAE17BF0779F48D919C911197CE
:1054F000280F391F2E5F3F4F3983288312968D91D5
:105500009C9113979B838A834115510571F4D09325
:10551000C206C093C1064DC012968D919C911397FF
:10552000AD01009711F0DC01D3CFDA011396DC93C3
:10553000CE931297FA0121913191E20FF31FCE170A
:10554000DF0769F488819981280F391F2E5F3F4F4B
:10555000FA01318320838A819B8193838283E0E0F7
:10556000F0E0DB0112968D919C911397009719F052
:10557000BC01FD01F6CFAB014E5F5F4FDB018D91AA
:105580009C91840F951F2091BF063091C00628176B
:10559000390779F4309729F41092C2061092C106A7
:1055A00002C013821282425050405093C006409372
:1055B000BF06DF91CF9108956F927F928F929F9255
:1055C000AF92BF92CF92DF92EF92FF920F931F9311
:1055D000CF93DF938C01009729F4CB010E94A72978
:1055E0008C01BBC08EEFE82E8FEFF82EE00EF11E7F
:1055F0004801860E971E8E149F0408F4ACC0D70194
:105600004D915C91119746175707B8F045305105F9
:1056100008F4A3C0CA0104978617970708F49DC031
:1056200042505040461B570BF401419351936D93E8
:105630007C93CF010E94442A90C05B01A41AB50A52
:105640003801640E751EA091C106B091C206CC242B
:10565000DD24E0E0F0E047C0A615B705A9F5CD913F
:10566000DC911197CE0102968A159B0568F1CE0157
:105670008A199B09029612962C91129713963C91C7
:10568000059758F0F40122833383CA19DB09D183CB
:10569000C083D7016D937C9309C04E5F5F4F4C0F61
:1056A0005D1FF70151834083C901FC01C114D1047E
:1056B00031F0D6011396FC93EE9312974EC0F093FF
:1056C000C206E093C10649C08D919C911197E817DD
:1056D000F90708F4FC016D0112968C91129713964C
:1056E0009C919C01D901109709F0B6CF8091BF061B
:1056F0009091C00686159705E9F4E617F707D0F4F0
:105700002091F6023091F7022115310541F42DB7B1
:105710003EB78091F2029091F302281B390B82165A
:105720009306C8F49092C0068092BF06F701718379
:10573000608313C0CB010E94A729EC01009759F0A8
:10574000D7014D915C91B8010E94D925C8010E94F2
:10575000442A8E0102C000E010E0C801DF91CF9121
:105760001F910F91FF90EF90DF90CF90BF90AF907F
:105770009F908F907F906F900895629FD001739F4C
:10578000F001829FE00DF11D649FE00DF11D929FDD
:10579000F00D839FF00D749FF00D659FF00D99271C
:1057A000729FB00DE11DF91F639FB00DE11DF91F40
:1057B000BD01CF0111240895A1E21A2EAA1BBB1B23
:1057C000FD010DC0AA1FBB1FEE1FFF1FA217B307CD
:1057D000E407F50720F0A21BB30BE40BF50B661FE3
:1057E000771F881F991F1A9469F7609570958095A7
:1057F00090959B01AC01BD01CF0108952F923F927E
:105800004F925F926F927F928F929F92AF92BF92D0
:10581000CF92DF92EF92FF920F931F93CF93DF937C
:10582000CDB7DEB7CA1BDB0B0FB6F894DEBF0FBED9
:10583000CDBF19942A88398848885F846E847D8416
:105840008C849B84AA84B984C884DF80EE80FD8028
:105850000C811B81AA81B981CE0FD11D0FB6F8949E
:10586000DEBF0FBECDBFED010895EE0FFF1F059007
:10587000F491E02D1994911116C0803219F08950DD
:105880008550D0F708959111089581548A5108F4F4
:10589000805E855A08959111089581568A5108F4C1
:1058A000805285580895992788270895AA1BBB1B05
:1058B00051E107C0AA1FBB1FA617B70710F0A61B10
:1058C000B70B881F991F5A95A9F780959095BC0131
:1058D000CD01089512E0C8E0D2E004C0FE010E94AC
:0E58E000372C2296CA30D107C9F7F894FFCFB3
:1058EE000000000046014C01C71BC71B4E6F6E65C2
:1058FE00004552524F523A2000203C003E00574184
:10590E00524E3A2000494E464F3A20000000000009
:10591E006D017603434D4420282573290050726F84
:10592E00632028257329004477656C6C2028257325
:10593E0029004D6574612028257329003F3F3F20C3
:10594E00282573293A202578000000000099039F2E
:10595E00030000000000D804EA04D3049A04576937
:10596E006C6C20736C65657020666F722074776F37
:10597E00207365636F6E6473206E6F772E006C6F8D
:10598E006F700053657474696E67207570206C6556
:10599E0064007365747570000D0000000000A30AAA
:1059AE001B0C390A6A0A4A0A930A00000000C71B38
:1059BE001B0CC71BC71BC71BC71B6E616E00696E16
:1059CE0066006F7666002E0000000000C71B1B0CE1
:1059DE0000008000C3060000000000000000000070
:1059EE000001020203030303040404040404040478
:1059FE000505050505050505050505050505050549
:105A0E000606060606060606060606060606060628
:105A1E000606060606060606060606060606060618
:105A2E0007070707070707070707070707070707F8
:105A3E0007070707070707070707070707070707E8
:105A4E0007070707070707070707070707070707D8
:105A5E0007070707070707070707070707070707C8
:105A6E0008080808080808080808080808080808A8
:105A7E000808080808080808080808080808080898
:105A8E000808080808080808080808080808080888
:105A9E000808080808080808080808080808080878
:105AAE000808080808080808080808080808080868
:105ABE000808080808080808080808080808080858
:105ACE000808080808080808080808080808080848
