:100000000C9418010C9445010C9445010C94450185
:100010000C9445010C9445010C9445010C94450148
:100020000C9445010C9445010C9445010C94450138
:100030000C9445010C9445010C9445010C94450128
:100040000C9445010C9445010C9445010C94450118
:100050000C9445010C9445010C9445010C94111F1E
:100060000C9445010C9431090C94790A0C944501C7
:100070000C9445010C9445010C9445010C944501E8
:100080000C9445010C9445010C9445010C944501D8
:100090000C9471090C94B80A0C9445010C94450118
:1000A0000C9445010C9445010C9445010C944501B8
:1000B0000C9445010C9445010C9445010C944501A8
:1000C0000C9445010C9445010C9445010C94B10924
:1000D0000C94F70A0C9445010C94F1090C94360B1E
:1000E0000C944501736F6D6570736575646F726113
:1000F0006E646F6D6C7967656E657261746564625C
:100100007974657300002100240027002A002D0067
:100110003000330001010000040107010A01000062
:100120002200250028002B002E003100340002019F
:100130000000050108010B0100002000230026003B
:1001400029002C002F0032000001000003010601ED
:10015000090105050505070508080808020202024D
:100160000A0A080804040404010101010101010153
:100170000303030303030303040707070C0C0C0C1E
:100180000C0C0C0C02020202060606060606060607
:100190000B0B0B0B0B0B0B0B010210202008081094
:1001A00020401020408002010201080402010102E7
:1001B00004081020408080402010080402018004C0
:1001C000020180402010080402010804020101021B
:1001D0000408102040800102040810204080000024
:1001E000090A02080B0C0D070603040100000000B9
:1001F00000000000000000000000000000000000FF
:100200000000000000000000000011100F000000BE
:1002100000000000000000000000000000000000DE
:1002200000000000BD011504B708220E0E04B0083E
:1002300011241FBECFEFD1E2DEBFCDBF00E00CBF67
:1002400013E0A0E0B2E0ECE9FFE500E00BBF02C084
:1002500007900D92AC3FB107D9F71BBE16E0ACEF8B
:10026000B3E001C01D92A53FB107E1F712E0CCE277
:10027000D2E004C02297FE010E948E2FC432D10723
:10028000C9F70E9429090C94C12F0C940000DC01CD
:10029000FB0160E070E09FEF1EC0911110822136DB
:1002A00018F02755808106C08081213410F0275333
:1002B00001C02053820F8083992339F08081829579
:1002C000807F80836F5F7F4F04C06417750730F4B1
:1002D0003196119690952C912223F9F6CB01089531
:1002E000EF92FF920F931F93CF93DF937B018901CE
:1002F00001501040EC01DA0140E050E060E070E0B5
:1003000021E030E022C04017510710F58881829526
:100310008F708A3010F0895C01C0805DFD0181938F
:1003200020173107B8F488818F708A3010F0895C0B
:1003300001C0805D11968C93119712964E5F5F4FAE
:100340006F5F7F4F21962E5F3F4F6E157F05D8F26E
:100350009A01FD011082C901DF91CF911F910F9188
:10036000FF90EF900895FC01029691838083089599
:10037000FC0102969183808308958EEF93E0909321
:10038000FD038093FC030895AF92BF92CF92DF925A
:10039000EF92FF920F931F938C0122E0A22EB12CBB
:1003A000A80EB91E9AE0E92EF12CE00EF11EC5014F
:1003B000B7010E94370382E1C82ED12CC00ED11E96
:1003C000065E1F4FC601B8010E943703C7010E9495
:1003D000B903C8010E94C003C701B5010E945603BA
:1003E000C801B6010E945603C5010E94C503C6019B
:1003F000B7010E943703C501B8010E943703C70146
:100400000E94CA03C8010E94D103C701B6010E941D
:100410005603C801B5010E945603C6010E94C503D8
:100420001F910F91FF90EF90DF90CF90BF90AF9012
:100430000895EF92FF920F931F938C017B014A96D0
:100440000E945603C8010E94C401C8010E94C40151
:10045000C8010296B7010E9456031F910F91FF90A9
:10046000EF900895DC019B968C919B978F5F9B96F4
:100470008C939B979A968C919A97E82FFF27E7FD8C
:10048000F095EA0FFB1F62A381509A968C939A977E
:1004900087FF09C087E09A968C939A97CD01929630
:1004A000BD010E9419020895EF92FF920F931F93CE
:1004B000CF93DF93EC010BA504C0CE0160E00E9456
:1004C00032028AA51816CCF3CE01602F0E943202A8
:1004D00032E1E32EF12CEC0EFD1EC7010E946603F3
:1004E000CE010E94C401CE010E94C401CE010E942F
:1004F000C401CE010E94C4018E010E5F1F4F2A96D7
:10050000C801BE010E945603C801B7010E945603EC
:100510006096C801BE010E945603DF91CF911F91E2
:100520000F91FF90EF9008956F927F928F929F921C
:10053000AF92BF92CF92DF92EF92FF920F931F93F1
:10054000CF93DF938C014B0172E0C72ED12CC80EE4
:10055000D91EC60164EE70E048E050E00E94162902
:100560006AE0662E712C600E711EC3016CEE70E0A5
:1005700048E050E00E94162952E1E52EF12CE00EF1
:10058000F11EC70164EF70E048E050E00E941629B8
:100590004AE1A42EB12CA00EB11EC5016CEF70E093
:1005A00048E050E00E941629E801A296DE01F4011D
:1005B00088E001900D928150E1F7CE010E94710315
:1005C000C601BE010E945603C701BE010E94560328
:1005D000DE01F401389688E001900D928150E1F738
:1005E000CE010E947103C301BE010E945603C501E2
:1005F000BE010E94560387E0F80182A713A6DF918F
:10060000CF911F910F91FF90EF90DF90CF90BF900F
:10061000AF909F908F907F906F900895EF92FF9290
:100620000F931F93DF93CF93CDB7DEB760970FB6CD
:10063000F894DEBF0FBECDBF8C017E010894E11C93
:10064000F11CC70140E150E00E941629C801B70122
:100650000E94940260960FB6F894DEBF0FBECDBF25
:10066000CF91DF911F910F91FF90EF9008952F93FD
:100670003F934F93DC011896FB013896889428E04D
:100680003E914291341F3C932A95D1F74F913F916F
:100690002F9108952F933F93DC01FB0128E03191C6
:1006A0003D932A95E1F73F912F9108952F933F9322
:1006B0004F93DC01FB0128E03C91419134273D93AD
:1006C0002A95D1F74F913F912F9108953F934F93E2
:1006D000DC0117963C914FEF34273C934F913F91AB
:1006E00008952F933F934F93DC011796FC0124E06C
:1006F0003C9140814C93319311972A95C9F74F91C2
:100700003F912F9108952F933F93DC0117963C91D1
:10071000DC0128E037953C9137953D932A95D9F730
:100720006A9599F73F912F9108952F933F9388945D
:10073000DC013C91189628E0331F3E91331F3C9317
:100740002A95D9F76A95A1F73F912F9108952F9394
:100750003F934F93DC01FC014D9127E03D91319394
:100760002A95E1F740836A95A9F74F913F912F9120
:1007700008956F9362E0EBDF63E0C5DF6F9108954A
:100780006F9362E0E4DF6F9108956F9364E0DFDFC1
:100790006F9108956F9362E0DADF61E0C6DF6F91D9
:1007A00008956F9363E0D3DF63E0ADDF6F91089549
:1007B000FC0184E292E0918380838AE08283089541
:1007C000FC0184E292E0918380838AE08283089531
:1007D000FC0184E292E0918380830895FC0184E22D
:1007E00092E0918380830895FC01628308958130B3
:1007F000910551F46F5F7F4F81F488E294E060E0EF
:1008000072E00E94F81B0895892B39F46F5F7F4FC7
:1008100021F488E294E00E94E91E089580E090E0CF
:100820006FEF7FEF0E94F703089581E090E06FEF94
:100830007FEF0E94F7030895AF92BF92CF92DF92AD
:10084000EF92FF920F931F93DF93CF93CDB7DEB755
:10085000C750D1400FB6F894DEBF0FBECDBFCB5E00
:10086000DE4FA880B980C551D140DE01A75EBE4FE2
:1008700088E0C82ED12CCC0EDD1EC95EDE4FE8818B
:10088000F981C751D14040815181C60160E870E0D3
:100890009D010E94472AD501ED91FC91E680F780E9
:1008A0008E010F5F1F4FC801B6010E94F81BC501E2
:1008B000B801F7011995C8010E94E91EC95FDE4F12
:1008C0000FB6F894DEBF0FBECDBFCF91DF911F9161
:1008D0000F91FF90EF90DF90CF90BF90AF90089571
:1008E0008F929F92AF92BF92CF92DF92EF92FF9240
:1008F0000F931F93DF93CF93CDB7DEB72E970FB62D
:10090000F894DEBF0FBECDBF5C018B014A01DC0154
:1009100012968C9112978B3068F5ED91FC91C68000
:10092000D7807E010894E11CF11CC70165E072E0EC
:100930000E94121CC701B8010E94C11B6DE072E049
:100940000E94A51BB4010E94C11B60E172E00E94DD
:10095000A51BBC018E01085F1F4FC8010E94D31E5A
:10096000C501B801F6011995C8010E94E91EC70129
:100970000E94EF1E2E960FB6F894DEBF0FBECDBFBD
:10098000CF91DF911F910F91FF90EF90DF90CF906B
:10099000BF90AF909F908F900895CF92DF92EF928B
:1009A000FF920F931F93DF93CF93CDB7DEB72E97B0
:1009B0000FB6F894DEBF0FBECDBF6C017E01089468
:1009C000E11CF11CC7010E94D31E8E01085F1F4F5E
:1009D000C80168E274E00E94D31EC601B701A801F5
:1009E0000E947004C8010E94E91EC7010E94E91E0E
:1009F0002E960FB6F894DEBF0FBECDBFCF91DF911C
:100A00001F910F91FF90EF90DF90CF9008958F92FC
:100A10009F92AF92BF92CF92DF92EF92FF920F938D
:100A20001F93DF93CF93CDB7DEB72E970FB6F89411
:100A3000DEBF0FBECDBF5C018B014A01DC01129607
:100A40008C911297863068F5ED91FC91C680D78025
:100A50007E010894E11CF11CC70162E172E00E9472
:100A6000121CC701B8010E94C11B6DE072E00E9418
:100A7000A51BB4010E94C11B60E172E00E94A51B8E
:100A8000BC018E01085F1F4FC8010E94D31EC50123
:100A9000B801F6011995C8010E94E91EC7010E941C
:100AA000EF1E2E960FB6F894DEBF0FBECDBFCF91CE
:100AB000DF911F910F91FF90EF90DF90CF90BF904B
:100AC000AF909F908F900895CF92DF92EF92FF9218
:100AD0000F931F93DF93CF93CDB7DEB72E970FB64B
:100AE000F894DEBF0FBECDBF6C017E010894E11CFF
:100AF000F11CC7010E94D31E8E01085F1F4FC80161
:100B000068E274E00E94D31EC601B701A8010E94EA
:100B10000705C8010E94E91EC7010E94E91E2E9622
:100B20000FB6F894DEBF0FBECDBFCF91DF911F91FE
:100B30000F91FF90EF90DF90CF9008958F929F924A
:100B4000AF92BF92CF92DF92EF92FF920F931F93DB
:100B5000DF93CF93CDB7DEB72E970FB6F894DEBFF5
:100B60000FBECDBF5C018B014A01DC0112968C9156
:100B70001297882369F5ED91FC91C680D7807E019C
:100B80000894E11CF11CC70169E172E00E94121C8B
:100B9000C701B8010E94C11B6DE072E00E94A51B55
:100BA000B4010E94C11B60E172E00E94A51BBC0160
:100BB0008E01085F1F4FC8010E94D31EC501B801F6
:100BC000F6011995C8010E94E91EC7010E94EF1E97
:100BD0002E960FB6F894DEBF0FBECDBFCF91DF913A
:100BE0001F910F91FF90EF90DF90CF90BF90AF904B
:100BF0009F908F900895CF92DF92EF92FF920F9384
:100C00001F93DF93CF93CDB7DEB72E970FB6F8942F
:100C1000DEBF0FBECDBF6C017E010894E11CF11C4C
:100C2000C7010E94D31E8E01085F1F4FC80168E2F2
:100C300074E00E94D31EC601B701A8010E949E0560
:100C4000C8010E94E91EC7010E94E91E2E960FB638
:100C5000F894DEBF0FBECDBFCF91DF911F910F91F2
:100C6000FF90EF90DF90CF900895FC0184E292E036
:100C700091838083CF010E94081F0895FC018DE7B6
:100C800092E091838083138212820895FC018DE7A4
:100C900092E091838083138212820895FC01738312
:100CA00062830895FC018DE792E09183808308952B
:100CB000FC018DE792E0918380830895FC018DE72C
:100CC00092E091838083CF010E94081F0895EF92E4
:100CD000FF920F931F93CF93DF937C0110922F0409
:100CE000C0E8D0E000E010E0CE018E219F218C17FB
:100CF0009D0719F06EE272E002C060E372E08FE2DD
:100D000094E00E943A29D595C7950F5F1F4F083090
:100D1000110551F78FE294E0DF91CF911F910F9170
:100D2000FF90EF9008959F92AF92BF92CF92DF9283
:100D3000EF92FF920F931F93DF93CF93CDB7DEB760
:100D4000AA970FB6F894DEBF0FBECDBF8C01FC0191
:100D5000A281B381ED91FC9111970084F185E02D82
:100D60007E010894E11CF11CC701BD0119958D811C
:100D70009E81892B09F4A0C0E981FA819080F3E378
:100D80009F16D9F0F91528F021E3921609F051C009
:100D900008C035E39316E9F087E3981609F049C0D7
:100DA00024C0D8011296ED90FC9013978E01085F35
:100DB0001F4FC80162E372E023C0D8011296ED9084
:100DC000FC9013978E01015F1F4FC8016BE372E027
:100DD00017C0D8011296ED90FC9013978E010A5E11
:100DE0001F4FC8016AE472E00BC0D8011296ED9063
:100DF000FC9013978E01035E1F4FC80165E572E0FA
:100E00000E94F81B00D000D0EDB7FEB73196ADB709
:100E1000BEB71296FC92EE921197138302838981DA
:100E20009A81958384830E941C04EDB7FEB73696A1
:100E300038C0D8011296AD90BC9013978E010C5D0E
:100E40001F4FC8016FE572E00E94F81BC980DA806D
:100E5000CE0101960E94F915DC01CB010E946706C4
:100E60007C01892D90E00E946706EDB7FEB73A97A6
:100E70000FB6F894FEBF0FBEEDBF3196ADB7BEB74B
:100E80001296BC92AE92119713830283D582C482CC
:100E9000F782E682918780870E941C04EDB7FEB737
:100EA0003A960FB6F894FEBF0FBEEDBFC8010E9480
:100EB000E91ECE01019601C0C7010E94E91EAA9653
:100EC0000FB6F894DEBF0FBECDBFCF91DF911F915B
:100ED0000F91FF90EF90DF90CF90BF90AF909F90D9
:100EE0000895EF92FF920F931F93DF93CF93CDB7A7
:100EF000DEB727970FB6F894DEBF0FBECDBFF82E32
:100F0000E92E61E872E00E94F81B8FE596E00E94EE
:100F1000760D892B81F08E010F5F1F4FC8016FE5A1
:100F200076E00E94AC148F2D9E2DB8010E94BC1E4D
:100F3000C8010E94E91E8F2D9E2D27960FB6F894AA
:100F4000DEBF0FBECDBFCF91DF911F910F91FF90FC
:100F5000EF9008958FE596E00E94E81208958FE5DE
:100F600096E040E855E260E070E00E94FD0B0895D5
:100F7000FC0186E892E091838083CF010E94E80320
:100F80000895FC0186E892E091838083CF010E945E
:100F9000E80308950F931F938C0186E892E0F8010F
:100FA00091838083C8010E94E803C8010E94081F42
:100FB0001F910F9108950F931F938C010E94D803E6
:100FC00086E892E0F801918380831F910F91089544
:100FD0000F931F938C010E94D80386E892E0F801DA
:100FE000918380831F910F910895FC0184E992E021
:100FF0009183808381E0828313821682158214821A
:1010000017820895FC0184E992E09183808381E056
:101010008283138216821582148217820895FC013E
:1010200084E992E0918380830895FC0184E992E051
:10103000918380830895FC018381882341F4828118
:10104000882319F481E08283089582E001C087E05B
:1010500087830895FC018381882339F48281882362
:1010600011F01282089583E001C087E0878308951C
:10107000DC0112968C9112978823A1F013968C9123
:101080001397882369F481E013968C931397ED915D
:10109000FC9111970084F185E02DCD0119950895FB
:1010A00085E001C081E017968C930895DC011296CB
:1010B0008C911297882399F013968C91139788231B
:1010C00061F013961C921397ED91FC911197008497
:1010D000F185E02DCD011995089584E001C081E0EE
:1010E00017968C930895FC0164830895FC01848114
:1010F000882311F01782089586E087830895FC0104
:1011000097818481882309F41782892F0895FC012F
:1011100084E992E091838083CF010E94081F0895A3
:101120000895CB0108958130910561F46F5F7F4F81
:10113000B1F488E394E00E94DB078BE394E00E9423
:1011400046060895892B59F46F5F7F4F41F48BE376
:1011500094E00E94580688E394E00E94B80708953E
:1011600080E090E06FEF7FEF0E949308089581E0A8
:1011700090E06FEF7FEF0E94930808958091B30293
:1011800061E00E94052160ED77E080E090E00E9440
:101190008D1F8091B30260E00E94052168EE73E02C
:1011A00080E090E00E948D1F8BE394E00E94930604
:1011B0000895CF92DF92EF92FF920F931F93DF93E8
:1011C000CF93CDB7DEB72E970FB6F894DEBF0FBE24
:1011D000CDBF8091B30261E00E94522088E3C82E07
:1011E00084E0D82EC6010E94AF07C60165E00E94C8
:1011F000F4037E010894E11CF11CC7016EE972E062
:101200000E94F81B8E01085F1F4FC8016DEA72E053
:101210000E94F81BC601B701A8010E949E05C801E3
:101220000E94E91EC7010E94E91E8BE394E0B6010B
:101230000E944E062E960FB6F894DEBF0FBECDBFAD
:10124000CF91DF911F910F91FF90EF90DF90CF90A2
:1012500008950E94F01F0E94D9080E94BE08FDCF89
:1012600008951F920F920FB60F920BB60F92112492
:101270002F933F934F938F939F93EF93FF9380917F
:10128000C00082FD1DC04091C60020917F043091B6
:1012900080042F5F3F4F2F733070809181049091B5
:1012A00082042817390771F0E0917F04F0918004DF
:1012B000E15CFB4F40833093800420937F0402C0A5
:1012C0008091C600FF91EF919F918F914F913F9137
:1012D0002F910F900BBE0F900FBE0F901F9018957F
:1012E00008951F920F920FB60F920BB60F92112412
:1012F0002F933F934F938F939F93EF93FF938091FF
:10130000C80082FD1DC04091CE002091070530919C
:1013100008052F5F3F4F2F73307080910905909122
:101320000A052817390771F0E0910705F0910805C3
:10133000E953FB4F4083309308052093070502C013
:101340008091CE00FF91EF919F918F914F913F91AE
:101350002F910F900BBE0F900FBE0F901F901895FE
:1013600008951F920F920FB60F920BB60F92112491
:101370002F933F934F938F939F93EF93FF9380917E
:10138000D00082FD1DC04091D60020918F05309184
:1013900090052F5F3F4F2F73307080919105909192
:1013A00092052817390771F0E0918F05F0919005AB
:1013B000E15BFA4F40833093900520938F0502C084
:1013C0008091D600FF91EF919F918F914F913F9126
:1013D0002F910F900BBE0F900FBE0F901F9018957E
:1013E00008951F920F920FB60F920BB60F92112411
:1013F0002F933F934F938F939F93EF93FF938091FE
:10140000300182FD1DC040913601209117063091B8
:1014100018062F5F3F4F2F733070809119069091FF
:101420001A062817390771F0E0911706F09118068F
:10143000E952FA4F4083309318062093170602C0F2
:1014400080913601FF91EF919F918F914F913F9144
:101450002F910F900BBE0F900FBE0F901F901895FD
:10146000E0916B06F0916C06E05CFF4F81919191E9
:1014700020813181821B930B8F739070892B11F027
:101480000E943009E0918D06F0918E06E05CFF4FDE
:101490008191919120813181821B930B8F73907088
:1014A000892B11F00E947009E091AF06F091B0060F
:1014B000E05CFF4F8191919120813181821B930BE0
:1014C0008F739070892B11F00E94B009E091D106C2
:1014D000F091D206E05CFF4F8191919120813181A2
:1014E000821B930B8F739070892B11F00E94F0096F
:1014F00008951F920F920FB60F920BB60F92112400
:101500002F933F938F939F93EF93FF932091C30467
:101510003091C4048091C5049091C60428173907FE
:1015200031F48091C1008F7D8093C10014C0E0919F
:10153000C504F091C604ED57FB4F20818091C5048E
:101540009091C60401968F7390709093C604809317
:10155000C5042093C600FF91EF919F918F913F9119
:101560002F910F900BBE0F900FBE0F901F901895EC
:101570001F920F920FB60F920BB60F9211242F935A
:101580003F938F939F93EF93FF9320914B0530915F
:101590004C0580914D0590914E052817390731F47F
:1015A0008091C9008F7D8093C90014C0E0914D05E2
:1015B000F0914E05E55FFA4F208180914D059091A5
:1015C0004E0501968F73907090934E0580934D0554
:1015D0002093CE00FF91EF919F918F913F912F919A
:1015E0000F900BBE0F900FBE0F901F9018951F927B
:1015F0000F920FB60F920BB60F9211242F933F93B9
:101600008F939F93EF93FF932091D3053091D4054F
:101610008091D5059091D6052817390731F480912E
:10162000D1008F7D8093D10014C0E091D505F09159
:10163000D605ED56FA4F20818091D5059091D605BB
:1016400001968F7390709093D6058093D505209363
:10165000D600FF91EF919F918F913F912F910F9025
:101660000BBE0F900FBE0F901F9018951F920F92F8
:101670000FB60F920BB60F9211242F933F938F93B7
:101680009F93EF93FF9320915B0630915C068091CE
:101690005D0690915E062817390731F4809131017B
:1016A0008F7D8093310114C0E0915D06F0915E065C
:1016B000E55EF94F208180915D0690915E0601966E
:1016C0008F73907090935E0680935D062093360131
:1016D000FF91EF919F918F913F912F910F900BBEB2
:1016E0000F900FBE0F901F9018958F929F92AF9200
:1016F000BF92CF92DF92EF92FF920F931F93DF93EF
:10170000CF93CDB7DEB7FC011382128288EE93E04F
:10171000A0E0B0E084839583A683B78389EB92E051
:10172000918380837587648757874687318B208BA9
:10173000138B028BF58AE48AD78AC68AB18EA08E73
:10174000938E828E8889848F8989858F8A89868FF6
:101750008B89878F8C8980A3CF91DF911F910F9107
:10176000FF90EF90DF90CF90BF90AF909F908F90C1
:1017700008958F929F92AF92BF92CF92DF92EF9295
:10178000FF920F931F93DF93CF93CDB7DEB7FC018A
:101790001382128288EE93E0A0E0B0E08483958308
:1017A000A683B78389EB92E09183808375876487F2
:1017B00057874687318B208B138B028BF58AE48AFF
:1017C000D78AC68AB18EA08E938E828E8889848FA6
:1017D0008989858F8A89868F8B89878F8C8980A359
:1017E000CF91DF911F910F91FF90EF90DF90CF90FD
:1017F000BF90AF909F908F900895AF92BF92DF926D
:10180000EF92FF920F931F93CF93DF93EC017A0136
:101810008B01DD24403081EE580780E0680780E0CE
:10182000780711F0DD24D39491E0A92EB12CEC8936
:10183000FD89DD2069F0C50108A002C0880F991F4D
:101840000A94E2F7808360E079E08DE390E005C0E0
:10185000108260E874E88EE190E0A80197010E9490
:10186000332F215030404040504056954795379592
:10187000279580E12030380720F0DD2011F0DD24AD
:10188000D6CFE889F9893083EA89FB89208319A2B8
:10189000EE89FF89408121E030E0C9010C8C02C053
:1018A000880F991F0A94E2F7482B4083EE89FF893D
:1018B0004081C9010D8C02C0880F991F0A94E2F77C
:1018C000482B4083EE89FF894081C9010E8C02C0FC
:1018D000880F991F0A94E2F7482B4083EE89FF890D
:1018E00080810F8C02C0220F331F0A94E2F72095EB
:1018F00028232083DF91CF911F910F91FF90EF90CC
:10190000DF90BF90AF900895AF92BF92CF92DF92D9
:10191000EF92FF920F931F93CF93DF93EC017A0125
:101920008B01C22EDD24403081EE580780E068072D
:1019300080E0780711F0DD24D39471E0A72EB12C5C
:10194000EC89FD89DD2069F0C50108A002C0880F7F
:10195000991F0A94E2F7808360E079E08DE390E0DC
:1019600005C0108260E874E88EE190E0A80197015C
:101970000E94332F215030404040504056954795AB
:101980003795279580E12030380720F0DD2011F0D1
:10199000DD24D6CFE889F9893083EA89FB89208361
:1019A000E88DF98DC082EE89FF89408121E030E029
:1019B000C9010C8C02C0880F991F0A94E2F7482BCA
:1019C0004083EE89FF894081C9010D8C02C0880FD8
:1019D000991F0A94E2F7482B4083EE89FF894081E2
:1019E000C9010E8C02C0880F991F0A94E2F7482B98
:1019F0004083EE89FF8980810F8C02C0220F331F44
:101A00000A94E2F7209528232083DF91CF911F913C
:101A10000F91FF90EF90DF90CF90BF90AF9008951F
:101A2000CF93DF93DC011E968D919C911F97EC0163
:101A3000C05CDF4FFC01EE5BFF4F28813981808164
:101A4000918128173907C9F75696ED91FC91579760
:101A5000408121E030E0C9015C960C905C9702C0A7
:101A6000880F991F0A94E2F7809584238083569605
:101A7000ED91FC9157974081C9015D960C905D975F
:101A800002C0880F991F0A94E2F78095842380830F
:101A90005696ED91FC9157974081C9015E960C9046
:101AA0005E9702C0880F991F0A94E2F780958423FD
:101AB00080835696ED91FC91579780815F960C90AC
:101AC0005F9702C0220F331F0A94E2F72095282364
:101AD00020831C96ED91FC911D97EE5BFF4F80815A
:101AE000918192938293DF91CF910895DC011C96AE
:101AF000ED91FC911D97E05CFF4F21913191808128
:101B00009181281B390B2F733070C9010895DC01B6
:101B10001C96ED91FC911D97E05CFF4F2081318177
:101B2000E054F040DF01AE5BBF4F8D919C91119767
:101B30002817390719F42FEF3FEF07C08D919C91BB
:101B4000E80FF91F8081282F30E0C9010895DC01DA
:101B50001C96ED91FC911D97E05CFF4F2081318137
:101B6000E054F040DF01AE5BBF4F8D919C91119727
:101B70002817390719F42FEF3FEF10C08D919C9172
:101B80001197E80FF91F20818D919C911197019673
:101B90008F73907011969C938E9330E0C9010895D5
:101BA000DC0191968C919197882339F05496ED91B0
:101BB000FC915597808186FFF9CF91961C920895EC
:101BC000CF93DF93EC01EE85FF85E05CFF4F208132
:101BD0003181E054F0402F5F3F4F2F733070DF01B1
:101BE000AE5BBF4F8D919C91119728173907D1F3A8
:101BF000E05CFF4F80819181E054F040E80FF91FD5
:101C00006083EE85FF85E05CFF4F31832083EE89A2
:101C1000FF89208181E090E00F8C02C0880F991F1E
:101C20000A94E2F7282B208381E089A3EC89FD89BF
:101C300080818064808381E090E0DF91CF9108957E
:101C400081E008951F93109262061092610628EEBB
:101C500033E040E050E02093630630936406409305
:101C600065065093660669EB72E0709360066093B8
:101C70005F068FE394E090936C0680936B0683E895
:101C800094E090936E0680936D0685EC90E09093BF
:101C9000700680936F0684EC90E0909372068093B8
:101CA000710680EC90E0909374068093730681EC4B
:101CB00090E0909376068093750682EC90E0909386
:101CC00078068093770686EC90E090937A0680936E
:101CD000790614E010937B06B3E0B0937C06A7E08E
:101CE000A0937D06F5E0F0937E06E1E0E0937F06A9
:101CF0001092840610928306209385063093860600
:101D000040938706509388067093820660938106FD
:101D100087EC94E090938E0680938D068BE095E09F
:101D20009093900680938F068DEC90E090939206AE
:101D3000809391068CEC90E09093940680939306A8
:101D400088EC90E0909396068093950689EC90E05D
:101D500090939806809397068AEC90E090939A0669
:101D6000809399068EEC90E090939C0680939B065E
:101D700010939D06B0939E06A0939F06F093A00635
:101D8000E093A1061092A6061092A5062093A7063E
:101D90003093A8064093A9065093AA067093A40610
:101DA0006093A3068FE495E09093B0068093AF060E
:101DB00083E995E09093B2068093B10685ED90E0BB
:101DC0009093B4068093B30684ED90E09093B606AA
:101DD0008093B50680ED90E09093B8068093B706A7
:101DE00081ED90E09093BA068093B90682ED90E081
:101DF0009093BC068093BB0686ED90E09093BE0660
:101E00008093BD061093BF06B093C006A093C10691
:101E1000F093C206E093C3061092C8061092C7065C
:101E20002093C9063093CA064093CB065093CC0644
:101E30007093C6066093C50687ED95E09093D20631
:101E40008093D1068BE196E09093D4068093D306DD
:101E500085E391E09093D6068093D50684E391E0E4
:101E60009093D8068093D70680E391E09093DA06AA
:101E70008093D90681E391E09093DC068093DB06A2
:101E800082E391E09093DE068093DD0686E391E0A5
:101E90009093E0068093DF061093E106B093E2068C
:101EA000A093E306F093E406E093E5061F910895FE
:101EB000CF92DF92EF92FF920F931F93CF93DF9316
:101EC0007C016B018A01C0E0D0E00FC0D6016D91AA
:101ED0006D01D701ED91FC910190F081E02DC701DA
:101EE0001995C80FD91F015010400115110571F740
:101EF000CE01DF91CF911F910F91FF90EF90DF9076
:101F0000CF900895EF92FF920F931F93CF93DF939B
:101F10007C018B01C0E0D0E0F8010F5F1F4F64919E
:101F2000662359F0D701ED91FC910190F081E02DED
:101F3000C7011995C80FD91FEFCFCE01DF91CF91FF
:101F40001F910F91FF90EF900895DC01ED91FC91AE
:101F50000190F081E02D199508959C01DB01ED9130
:101F6000FC910190F081E02DCB01B9011995089504
:101F7000EF92FF920F931F938C01DC01ED91FC9186
:101F80000190F081E02D6DE019957C01D801ED9173
:101F9000FC910190F081E02DC8016AE019959C0147
:101FA0002E0D3F1DC9011F910F91FF90EF900895D5
:101FB000EF92FF920F931F937C010E94820F8C017E
:101FC000C7010E94B80F9C01200F311FC9011F914A
:101FD0000F91FF90EF900895EF92FF920F931F9350
:101FE0007C01DC01ED91FC910190F081E02D1995CF
:101FF0008C01C7010E94B80F080F191FC8011F915B
:102000000F91FF90EF900895EF92FF920F931F931F
:102010007C01DB01ED91FC910190F081E02DCB0181
:10202000B70119958C01C7010E94B80F080F191F3D
:10203000C8011F910F91FF90EF900895CF93DF9308
:10204000EC016115710519F420E030E00FC0DB01EF
:102050000D900020E9F71197A61BB70BE881F981D5
:102060000280F381E02DAD0119959C01C901DF913A
:10207000CF9108954F925F927F928F929F92AF92ED
:10208000BF92CF92DF92EF92FF920F931F93DF9355
:10209000CF93CDB7DEB7A1970FB6F894DEBF0FBED2
:1020A000CDBF2C01742ECB01223008F42AE019A2F6
:1020B00031E2C32ED12CCC0EDD1E822E9924AA240F
:1020C000BB24672D752FA50194010E94332F790140
:1020D0008A01C801B701A50194010E94142F472D60
:1020E000461B0894C108D1084A3010F4405D01C075
:1020F000495CF6014083E114F1040105110521F06A
:102100007E2C5F2DC801DDCFC201B6010E941E10DA
:10211000A1960FB6F894DEBF0FBECDBFCF91DF9171
:102120001F910F91FF90EF90DF90CF90BF90AF90F5
:102130009F908F907F905F904F900895DC012115C4
:10214000310541F4ED91FC910190F081E02D642F77
:10215000199508950E943A100895EF92FF920F93F7
:102160001F937C010E949E108C01C7010E94B80F32
:102170009C01200F311FC9011F910F91FF90EF901B
:102180000895EF92FF920F931F939A017B0100E055
:1021900010E0B801A7010E949E101F910F91FF90BF
:1021A000EF900895CF92DF92EF92FF920F931F93DB
:1021B0006C017B019A0100E010E0B801A7010E94C8
:1021C0009E108C01C6010E94B80F080F191FC8018C
:1021D0001F910F91FF90EF90DF90CF900895EF92B5
:1021E000FF920F931F939A01E62EFF2400E010E068
:1021F000B801A7010E949E101F910F91FF90EF90D0
:102200000895CF92DF92EF92FF920F931F936C018C
:10221000E62E9A01FF2400E010E0B801A7010E9419
:102220009E108C01C6010E94B80F080F191FC8012B
:102230001F910F91FF90EF90DF90CF900895CF9274
:10224000DF92EF92FF920F931F93CF93DF93EC01F6
:102250006A017B012115310541F4E881F981019082
:10226000F081E02D642F19951FC02A303105D1F47B
:1022700077FF17C0E881F9810190F081E02D6DE2D0
:1022800019958C0144275527BA014C195D096E092F
:102290007F09CE012AE00E943A109801280F391FC9
:1022A00004C02AE00E943A109C01C901DF91CF913D
:1022B0001F910F91FF90EF90DF90CF900895EF92D4
:1022C000FF920F931F937C010E941F118C01C70185
:1022D0000E94B80F9C01200F311FC9011F910F915F
:1022E000FF90EF900895EF92FF920F931F937B0161
:1022F0009A010027F7FC0095102FB801A7010E9452
:102300001F111F910F91FF90EF900895CF92DF92D0
:10231000EF92FF920F931F936C017B019A010027AC
:10232000F7FC0095102FB801A7010E941F118C0126
:10233000C6010E94B80F080F191FC8011F910F9105
:10234000FF90EF90DF90CF9008950E941E100895A7
:102350007F928F929F92AF92BF92CF92DF92EF9235
:10236000FF920F931F93CF93DF934C017A018B0160
:10237000722ECB01BA01A80197010E94A4258823DF
:1023800021F0C40165ED72E021C0C0E0D0E057014A
:102390006801E894D7F8C601B5012FEF3FEF4FE78A
:1023A0005FE70E94A425882351F4C601B5012FEFF1
:1023B0003FEF4FE75FE70E947425181614F0C1E065
:1023C000D0E0219739F0C40169ED72E00E941E103F
:1023D000EC0193C0C801B7012FEF3FEF4FE75FE477
:1023E0000E94E424181654F0C801B7012FEF3FEF04
:1023F0004FE75FEC0E944425882324F4C4016DED6F
:1024000072E0E4CFC801B70120E030E040E050E0E6
:102410000E94442587FD03C0C0E0D0E00EC0D40177
:10242000ED91FC910190F081E02DC4016DE21995D0
:10243000EC0117FB109517F9109520E030E040E013
:102440005FE3DD240BC0CA01B90120E030E040E2C7
:1024500051E40E9438249B01AC01D394D71498F323
:10246000C801B7010E9411235B016C010E94682121
:102470007B018C01C401B801A7012AE030E00E9471
:102480009E10C80FD91F772039F0C40161EE72E0A9
:102490000E941E10C80FD91FC801B7010E948126D3
:1024A0009B01AC01C601B5010E94E02224C020E0DE
:1024B00030E040E251E40E943E237B018C010E9407
:1024C0002D265B016C01CC24B7FCC094DC2CC4012C
:1024D000B601A5012AE030E00E941F11C80FD91FE4
:1024E000C601B5010E94CF259B01AC01C801B7010F
:1024F0000E94E0227A947720D1F6CE01DF91CF912D
:102500001F910F91FF90EF90DF90CF90BF90AF9011
:102510009F908F907F9008950E94A8110895EF9248
:10252000FF920F931F937C010E94A8118C01C70199
:102530000E94B80F080F191FC8011F910F91FF903B
:10254000EF900895EF92FF920F931F937C010E94EA
:102550001E108C01C7010E94B80F080F191FC80177
:102560001F910F91FF90EF900895AF92BF92CF927D
:10257000DF92EF92FF920F931F93CF93DF935C0153
:102580006B01EE24FF24C0E0D0E010C0D501ED9136
:10259000FC9100811181C601BE010E94D915682FEE
:1025A000C501F8011995E80EF91E2196F6018481FE
:1025B0009581C817D90750F3C701DF91CF911F91BB
:1025C0000F91FF90EF90DF90CF90BF90AF90089564
:1025D000EF92FF920F931F937C010E94B5128C0122
:1025E000C7010E94B80F9C01200F311FC9011F9124
:1025F0000F91FF90EF900895FC014483558366830B
:1026000077830895CF93DF93EC010E94591F688769
:1026100079878A879B87E881F9810084F185E02D9D
:10262000CE0119959C0197FF15C00E94591F28855E
:1026300039854A855B85621B730B840B950B2C8156
:102640003D814E815F81621773078407950718F3F8
:102650002FEF3FEFC901DF91CF910895CF93DF9323
:10266000EC01CE010E9402139C0197FD0EC08D3239
:10267000910559F0C0970A9740F0E881F9810680EA
:10268000F781E02DCE011995ECCFC901DF91CF91F3
:1026900008956F927F928F929F92AF92BF92CF9246
:1026A000DF92EF92FF920F931F93CF93DF93EC0192
:1026B000662E0E942E13982E77248824EE24FF2461
:1026C00087010F2EF0E0AF2EF0E0BF2EF0E8CF2E06
:1026D000FFE3DF2EF02D961491F18DE2981619F498
:1026E000772473942CC09EE2991619F4882483945D
:1026F00026C0892D80538A3010F5C801B7012AE021
:1027000030E040E050E00E94142F7B018C01E90C86
:10271000F11C011D111D80ED9FEFAFEFBFEFE80E23
:10272000F91E0A1F1B1F882051F0C601B5012DECB0
:102730003CEC4CEC5DE30E943E235B016C01E881C4
:10274000F9810680F781E02DCE011995CE010E9416
:102750000213982F982E80538A3008F4BCCF9E32F3
:1027600009F4B9CF961509F4B6CF772041F010954A
:102770000095F094E094E11CF11C011D111D8820CE
:1027800049F0C801B7010E94CF25A60195010E941A
:102790003E2304C0C801B7010E94CF25DF91CF912D
:1027A0001F910F91FF90EF90DF90CF90BF90AF906F
:1027B0009F908F907F906F90089561E00E944913E1
:1027C00008959F92AF92BF92CF92DF92EF92FF92C5
:1027D0000F931F93CF93DF936C01B62E0E942E139D
:1027E000EC0197FF04C0EE24FF2487014AC099241E
:1027F000EE24FF248701AB2CBB24CA15DB0529F18D
:10280000CD32D10519F4992493941FC0CE01C097FD
:102810000A97D8F4C801B7012AE030E040E050E060
:102820000E94142F7B018C01CE01AA2797FDA09551
:10283000BA2FE80EF91E0A1F1B1F80ED9FEFAFEFA6
:10284000BFEFE80EF91E0A1F1B1FD601ED91FC9188
:102850000680F781E02DC6011995C6010E9402137A
:10286000EC01C0970A9748F2CA15DB0531F29920AE
:1028700041F010950095F094E094E11CF11C011DCD
:10288000111DB701C801DF91CF911F910F91FF90EA
:10289000EF90DF90CF90BF90AF909F90089561E050
:1028A0000E94E1130895CF93DF93EC010E94591F1A
:1028B000688779878A879B87E881F9810680F78115
:1028C000E02DCE0119959C0197FF15C00E94591F5C
:1028D000288539854A855B85621B730B840B950BB4
:1028E0002C813D814E815F816217730784079507B4
:1028F00018F32FEF3FEFC901DF91CF910895CF92E9
:10290000DF92FF920F931F93CF93DF93082FF92E3F
:102910006B01142F6BEE72E00E94F81BC6010E943F
:102920005314BC01C12FD0E008C0802F9F2D0E94FE
:10293000011BC6010E945314BC0177FD03C06C1734
:102940007D0799F7802F9F2DDF91CF911F910F91D8
:10295000FF90DF90CF9008950F931F93CF93DF9355
:10296000182F092FEB016BEE72E00E94F81B04C0D8
:10297000812F902F0E94011BCE010E945314BC0195
:1029800097FFF6CF812F902FDF91CF911F910F915D
:102990000895AF92BF92CF92DF92EF92FF920F9382
:1029A0001F93CF93DF935C017A01890121153105D3
:1029B00019F4C0E0D0E014C0C0E0D0E0C62EDD24A1
:1029C0000CC0C5010E94531497FD0AC08C159D05CB
:1029D00039F0F70181937F012196C017D10788F361
:1029E000CE01DF91CF911F910F91FF90EF90DF907B
:1029F000CF90BF90AF900895CF92DF92EF92FF9269
:102A00000F931F93CF93DF936C018B017A01C0E08A
:102A1000D0E009C0C6010E94531497FD07C0F80119
:102A200081938F012196CE15DF05A0F3CE01DF91B2
:102A3000CF911F910F91FF90EF90DF90CF9008956D
:102A40006F927F928F929F92AF92BF92CF92DF92BE
:102A5000EF92FF920F931F93CF93DF933C017B0183
:102A60004A0159016801FB0180818823A1F1C0E07E
:102A7000D0E027C0F701EC0FFD1F808190E0281700
:102A8000390711F0C0E0D0E0F701EC0FFD1F8081A5
:102A900090E02817390721F42196C815D905D8F4F4
:102AA000C114D10471F0F501E00FF11F808190E0B5
:102AB0002817390731F40F5F1F4F0C151D0518F04B
:102AC0000CC000E010E0C3010E9453149C011816D2
:102AD000190684F202C081E001C080E0DF91CF914D
:102AE0001F910F91FF90EF90DF90CF90BF90AF902C
:102AF0009F908F907F906F9008950F931F939A01EE
:102B0000DB010D900020E9F7AD0141505040461B1C
:102B1000570BD9010D900020E9F71197A21BB30BB9
:102B20008D010E9420151F910F91089540E050E003
:102B30000E947D1508950F931F9320E030E000E080
:102B400010E00E9420151F910F910895FC018481CF
:102B500095816817790748F40190F081E02D30974E
:102B600021F0E60FF71F8081089580E00895FC01B1
:102B7000848195816817790730F40190F081E02D08
:102B8000E60FF71F40830895FC019B018481958126
:102B90006817790728F4608171816115710529F43E
:102BA0001092E70667EE76E002C0620F731FCB015A
:102BB0000895FC01848195816817790748F4019094
:102BC000F081E02D309721F0E60FF71F8081089506
:102BD00080E00895FC010190F081E02D309729F408
:102BE0000895861709F44083319680818823C9F7B8
:102BF0000895FC0180819181009729F420E030E064
:102C000040E050E004C00E94EF289B01AC01B901F4
:102C1000CA010895CF92DF92EF92FF920F931F9314
:102C2000CF93DF936C01DC01ED90FC901197E114E0
:102C3000F104E9F11496CD91DC9115972097B9F143
:102C4000870102C00F5F1F4FF801808190E00E9452
:102C5000922F892BB9F72197CE0DDF1D01C0219747
:102C6000888190E00E94922F892B19F0C017D1071C
:102C7000B0F7FE013196E01BF10BD6011596FC93DF
:102C8000EE9314972D913C912017310728F4C90138
:102C9000B801AF010E941F29D601ED91FC91119757
:102CA00014968D919C911597E80FF91F1082DF9172
:102CB000CF911F910F91FF90EF90DF90CF900895EB
:102CC000CF93DF93FC01C081D181209729F407C005
:102CD00090E00E94A22F899388818823C9F7DF9111
:102CE000CF910895CF93DF93FC01C081D1812097CC
:102CF00029F407C090E00E949A2F89938881882345
:102D0000C9F7DF91CF910895EF92FF920F931F9330
:102D1000CF93DF93FC01DB018617970719F124811C
:102D2000358114968D919C91159728173907E1F4F8
:102D3000232BC1F0E080F180CD91DC910FC090E0B9
:102D40000E949A2F8C01888190E00E949A2F081788
:102D5000190751F40894E11CF11C2196F7018081B8
:102D6000882369F781E001C080E0DF91CF911F9156
:102D70000F91FF90EF900895AF92BF92CF92DF92A4
:102D8000EF92FF920F931F93CF93DF93FC015B01B0
:102D90007A01DB0114962D913C911597211531058F
:102DA00059F184819581009739F18217930720F1B9
:102DB0004817590720F07C010894E108F1080081C8
:102DC0001181C801CFEFDFEF6801CE0CDF1C10C00E
:102DD000F501608171810E9488299C01009771F042
:102DE000801B910BE816F90608F0EC01C901019669
:102DF000C816D90668F702C0CFEFDFEFCE01DF912A
:102E0000CF911F910F91FF90EF90DF90CF90BF90E7
:102E1000AF900895FC01DB014481558114968D919A
:102E20009C911597481B590BCF010E94BC16089521
:102E3000CF93DF93FC01DB0184819581481759070B
:102E400060F4C081D1816D917C91CE01840F951F7A
:102E50000E9488299C01009719F42FEF3FEF02C0D0
:102E60002C1B3D0BC901DF91CF91089540E050E04C
:102E70000E9418170895DF92EF92FF920F931F930D
:102E8000CF93DF93EC018C819D8148175907B8F4EB
:102E90007A010894E11CF11CE881F981EE0DFF1D17
:102EA000D080108208811981C80170E00E947D29BC
:102EB0009C010E0D1F1DF801D082009719F4EFEF51
:102EC000FFEF05C088819981F901E81BF90BCF015B
:102ED000DF91CF911F910F91FF90EF90DF900895B8
:102EE000FC0144815581415050400E943B17089598
:102EF000CF93DF93FC01848195814817590758F4DB
:102F0000C081D181CE01840F951F70E00E944529B8
:102F10009C01009719F42FEF3FEF02C02C1B3D0BD3
:102F2000C901DF91CF91089540E050E00E947817E9
:102F300008950F931F93CF93DF93FC018B014115ED
:102F40005105F9F061157105E1F08481958128172B
:102F5000390718F0FB01108214C041505040EC01B9
:102F6000C21BD30B4C175D0708F4EA016081718125
:102F7000620F731FC801AE010E946E29C00FD11FDE
:102F80001882DF91CF911F910F910895FC01DB0111
:102F90002481358114964D915C911597241735073E
:102FA000A8F080819181009789F06D917C916115E5
:102FB000710561F0241B350B820F931F0E9450296D
:102FC0009C0180E0232B19F481E0089580E00895AE
:102FD000DC01FB0114968D919C911597892B31F49E
:102FE00061157105A9F090E0808108C00D90BC9139
:102FF000A02D6115710529F490E08C91882349F486
:1030000007C0CD010E9450299C0190E0232B09F4B8
:1030100091E0892F0895CF93DF939C01FB01EC0190
:10302000A881B981109729F06081718161157105BE
:10303000D1F4C081D181209759F084819581892B69
:1030400039F0888190E022273327281B390B12C0E2
:10305000109771F0F90184819581892B49F08C9149
:10306000282F30E007C0CD010E9450299C0102C0EA
:1030700020E030E0C901DF91CF9108950E940B1844
:10308000892F8095881F8827881F08950E940B1814
:1030900020E0181619060CF021E0822F08950E94F6
:1030A0000B1820E0181619060CF421E0822F089561
:1030B0000E940B18892F881F8827881F0895FC01FC
:1030C000DB012481358114968D919C9115972817E9
:1030D000390711F020E007C0CF010E940B1820E053
:1030E000892B09F421E0822F0895FC01DB0114965D
:1030F0002D913C91159784819581821B930B8417A8
:103100009507A0F080819181009781F06D917C916D
:103110006115710559F0840F951FA9010E9460295E
:103120009C0180E0232B19F481E0089580E008954C
:10313000FC01DB012481358114968D919C911597BA
:103140002817390710F480E00895CF0140E050E0DF
:103150000E94751808950F931F93CF93DF93EC018E
:103160008B016F5F7F4F888199810E94332E00977A
:1031700011F480E005C0998388831B830A8381E072
:10318000DF91CF911F910F9108952F923F924F920F
:103190005F926F927F928F929F92AF92BF92CF92E7
:1031A000DF92EF92FF920F931F93CF93DF935C0117
:1031B0002B014A01DC0114960D911C911597011504
:1031C000110509F4D4C0FB01C480D580C114D10419
:1031D00009F4CDC0DA0114966D907C9015976C18A7
:1031E0007D08FC01E080F1806114710491F01BC046
:1031F000D4016C9111967C91119714964D915C912C
:1032000015978C2F0E941F29F401E480F580EC0EA5
:10321000FD1ED2016D917C91C7010E948829EC01AD
:10322000009731F7A4C077FE02C067012EC0FB01F2
:1032300020803180E8013CC08E010E191F09C601B3
:10324000B701A8010E941F290C0D1D1DD4016C910E
:1032500011967C91119714964D915C911597C80128
:103260000E941F29F401C480D580C00ED11ED20156
:103270001496ED90FC901597EC0EFD1EF5018481DF
:103280009581860D971D95838483D2016D917C91E4
:10329000C7010E948829EC01009771F6C601B701A9
:1032A0000E94592964C07B01EC0CFD1CC60DD71D82
:1032B000C701B1010E948829BC010097A1F7C0177E
:1032C000D10709F454C0F501828193818C179D07C1
:1032D00008F044C0C501BE010E94AB188823F1F577
:1032E00046C0C501B201A9010E94BC16EC0197FDC0
:1032F0003EC0D5016D917C911197F2018481958139
:103300008C0F9D1F680F791F14964D915C91159736
:10331000481B590BCB01860D971D0E942829D5010A
:1033200014968D919C911597860D971D15969C93DB
:103330008E931497ED91FC911197E80FF91F10826D
:103340002D913C912C0F3D1FF401608171814481CE
:103350005581C9010E941F299E0105C0D5011496FF
:103360002D913C9115972150304037FFBACFDF9116
:10337000CF911F910F91FF90EF90DF90CF90BF9072
:10338000AF909F908F907F906F905F904F903F9005
:103390002F900895CF93DF93EC0188819981892B39
:1033A00029F08A819B818617970760F4CE010E94DD
:1033B000AB18882341F08C819D81892B19F4E88119
:1033C000F981108281E0DF91CF910895EF92FF9211
:1033D0000F931F93CF93DF93EC017B016C817D8171
:1033E000E114F104C1F04115510599F08A01060F6D
:1033F000171FB8010E94CA19882369F08881998132
:103400002C813D81820F931FB7010E9459291D8392
:103410000C8381E001C080E0DF91CF911F910F917B
:10342000FF90EF900895EF92FF920F931F93DF9319
:10343000CF93CDB7DEB72B970FB6F894DEBF0FBE94
:10344000CDBF7C01CB01BA018E010F5F1F4FA801D8
:103450002AE030E00E940C2AF80101900020E9F7F0
:103460003197E01BF10BC701B801AF010E94E619CB
:103470002B960FB6F894DEBF0FBECDBFCF91DF9174
:103480001F910F91FF90EF900895EF92FF920F938D
:103490001F93DF93CF93CDB7DEB72C970FB6F89479
:1034A000DEBF0FBECDBF7C01CB01BA018E010F5F25
:1034B0001F4FA8012AE030E00E94C329F8010190C3
:1034C0000020E9F73197E01BF10BC701B801AF010C
:1034D0000E94E6192C960FB6F894DEBF0FBECDBF42
:1034E000CF91DF911F910F91FF90EF900895EF9290
:1034F000FF920F931F93DF93CF9300D000D0CDB7EF
:10350000DEB77C01CB018E010F5F1F4FB8014AE08F
:1035100050E00E94312AF80101900020E9F731972C
:10352000E01BF10BC701B801AF010E94E619269616
:103530000FB6F894DEBF0FBECDBFCF91DF911F91C4
:103540000F91FF90EF900895EF92FF920F931F93CA
:10355000DF93CF93CDB7DEB727970FB6F894DEBFD2
:103560000FBECDBF7C01CB018E010F5F1F4FB80195
:103570004AE050E00E94A229F80101900020E9F7FA
:103580003197E01BF10BC701B801AF010E94E619AA
:1035900027960FB6F894DEBF0FBECDBFCF91DF9157
:1035A0001F910F91FF90EF900895EF92FF920F936C
:1035B0001F93DF93CF9300D00F92CDB7DEB77C017E
:1035C000862F90E08E010F5F1F4FB8014AE050E058
:1035D0000E94A229F80101900020E9F73197E01B31
:1035E000F10BC701B801AF010E94E6190F900F90CF
:1035F0000F900F90CF91DF911F910F91FF90EF905F
:103600000895DF93CF930F920F92CDB7DEB7698302
:103610001A82BE016F5F7F4F41E050E00E94E619C1
:103620000F900F90CF91DF9108956115710511F4FE
:1036300080E00895DB010D900020E9F71197A61BAB
:10364000B70BAD010E94E6190895FB0160817181FD
:10365000448155810E94E6190895CF93DF93EC01D0
:1036600088819981009711F00E949B2D1982188200
:103670001D821C821B821A82DF91CF9108950F93C5
:103680001F93182F092F0E94131A882321F4812FCA
:10369000902F0E942D1B812F902F1F910F91089525
:1036A0000F931F93182F092F0E94451A882321F486
:1036B000812F902F0E942D1B812F902F1F910F91F2
:1036C00008950F931F93182F092F0E94771A8823AC
:1036D00021F4812F902F0E942D1B812F902F1F915D
:1036E0000F9108950F931F93182F092F0E94A41A6A
:1036F000882321F4812F902F0E942D1B812F902F42
:103700001F910F9108950F931F93182F092F0E9457
:10371000D51A882321F4812F902F0E942D1B812FF1
:10372000902F1F910F9108950F931F93182F092F1A
:103730000E94011B882321F4812F902F0E942D1BB2
:10374000812F902F1F910F9108950F931F93182F82
:10375000092F6115710561F0DB010D900020E9F77B
:103760001197A61BB70BAD010E94E619882321F41F
:10377000812F902F0E942D1B812F902F1F910F9131
:1037800008950F931F93182F092FFB0160817181FA
:10379000448155810E94E619882321F4812F902FBE
:1037A0000E942D1B812F902F1F910F910895EF9252
:1037B000FF920F931F93CF93DF93EC017B018A015C
:1037C000BA010E94CA19882321F4CE010E942D1B40
:1037D00007C01D830C8388819981B7010E945929F4
:1037E000CE01DF91CF911F910F91FF90EF9008953F
:1037F000CF93DF93EC01198218821B821A821D82FB
:103800001C821E826115710551F0DB010D900020B4
:10381000E9F71197A61BB70BAD010E94D71BDF91EB
:10382000CF910895CF93DF93EC01198218821B8208
:103830001A821D821C821E826115710551F0DB0106
:103840000D900020E9F71197A61BB70BAD010E9460
:10385000D71BDF91CF9108950F931F93182F092F36
:103860006115710559F0DB010D900020E9F7119702
:10387000A61BB70BAD010E94D71B02C00E942D1BD7
:10388000812F902F1F910F910895EF92FF920F9328
:103890001F93DF93CF93CDB7DEB7A1970FB6F89400
:1038A000DEBF0FBECDBF8C01FC01118210821382DE
:1038B0001282158214821682CB01BA017E0108940D
:1038C000E11CF11CA70130E00E940C2AC801B701DD
:1038D0000E942C1CA1960FB6F894DEBF0FBECDBF80
:1038E000CF91DF911F910F91FF90EF900895EF928C
:1038F000FF920F931F93DF93CF93CDB7DEB7A197BE
:103900000FB6F894DEBF0FBECDBF8C01FC01118253
:10391000108213821282158214821682CB01BA01A0
:103920007E010894E11CF11CA70130E00E940C2AE2
:10393000C801B7010E942C1CA1960FB6F894DEBFF7
:103940000FBECDBFCF91DF911F910F91FF90EF90F0
:103950000895EF92FF920F931F93DF93CF93CDB70C
:10396000DEB7A2970FB6F894DEBF0FBECDBF8C01B5
:10397000FC01118210821382128215821482168237
:10398000CB01BA017E010894E11CF11CA70130E0D3
:103990000E94C329C801B7010E942C1CA2960FB631
:1039A000F894DEBF0FBECDBFCF91DF911F910F9175
:1039B000FF90EF900895EF92FF920F931F93DF9384
:1039C000CF93CDB7DEB7A2970FB6F894DEBF0FBE88
:1039D000CDBF8C01FC0111821082138212821582EC
:1039E00014821682CB01BA017E010894E11CF11CFD
:1039F000A70130E00E94C329C801B7010E942C1C16
:103A0000A2960FB6F894DEBF0FBECDBFCF91DF9167
:103A10001F910F91FF90EF900895EF92FF920F93F7
:103A20001F93DF93CF93CDB7DEB761970FB6F894AE
:103A3000DEBF0FBECDBF8C01CB01F8011182108219
:103A4000138212821582148216827E010894E11C70
:103A5000F11CB70150E00E94312AC801B7010E9451
:103A60002C1C61960FB6F894DEBF0FBECDBFCF9170
:103A7000DF911F910F91FF90EF900895EF92FF92C9
:103A80000F931F93DF93CF93CDB7DEB761970FB638
:103A9000F894DEBF0FBECDBF8C01CB01F8011182BF
:103AA0001082138212821582148216827E0108947B
:103AB000E11CF11CB70150E00E94312AC801B70196
:103AC0000E942C1C61960FB6F894DEBF0FBECDBFCE
:103AD000CF91DF911F910F91FF90EF900895EF929A
:103AE000FF920F931F93DF93CF93CDB7DEB762970B
:103AF0000FB6F894DEBF0FBECDBF8C01CB01F8012D
:103B000011821082138212821582148216827E0123
:103B10000894E11CF11CB70150E00E94A229C801E1
:103B2000B7010E942C1C62960FB6F894DEBF0FBE40
:103B3000CDBFCF91DF911F910F91FF90EF9008952E
:103B4000EF92FF920F931F93DF93CF93CDB7DEB722
:103B500062970FB6F894DEBF0FBECDBF8C01CB01CC
:103B6000F801118210821382128215821482168249
:103B70007E010894E11CF11CB70150E00E94A229CB
:103B8000C801B7010E942C1C62960FB6F894DEBFE4
:103B90000FBECDBFCF91DF911F910F91FF90EF909E
:103BA0000895EF92FF920F931F93DF93CF93CDB7BA
:103BB000DEB729970FB6F894DEBF0FBECDBF8C01DC
:103BC000862FF801118210821382128215821482CC
:103BD000168290E07E010894E11CF11CB70150E0D0
:103BE0000E94312AC801B7010E942C1C29960FB6E9
:103BF000F894DEBF0FBECDBFCF91DF911F910F9123
:103C0000FF90EF900895EF92FF920F931F93DF9331
:103C1000CF93CDB7DEB729970FB6F894DEBF0FBEAE
:103C2000CDBF8C01862FF80111821082138212827F
:103C300015821482168290E07E010894E11CF11C2A
:103C4000B70150E00E94312AC801B7010E942C1C24
:103C500029960FB6F894DEBF0FBECDBFCF91DF918E
:103C60001F910F91FF90EF900895DF93CF930F92E4
:103C70000F92CDB7DEB7FC0111821082138212823F
:103C800015821482168269831A82BE016F5F7F4F8C
:103C90000E942C1C0F900F90CF91DF910895DF931D
:103CA000CF930F920F92CDB7DEB7FC011182108235
:103CB0001382128215821482168269831A82BE01CF
:103CC0006F5F7F4F0E942C1C0F900F90CF91DF9160
:103CD0000895BF92CF92DF92EF92FF920F931F93BE
:103CE000CF93DF93082FB92E6B017A01E9012417D6
:103CF000350710F4EA017901802F9B2D6CEE72E0FC
:103D00000E94F81BD60114968D919C9115978E15E3
:103D10009F05D0F08C179D0708F4EC01D601ED91BA
:103D2000FC911197EC0FFD1F108110826D917C9119
:103D30006E0D7F1D802F9B2D0E942C1CD601ED91B6
:103D4000FC91EC0FFD1F1083802F9B2DDF91CF91F5
:103D50001F910F91FF90EF90DF90CF90BF9008954B
:103D60000F931F938C01FB01248135810E94691EF2
:103D7000C8011F910F910895CF93DF93EC01FB01D0
:103D80008617970761F0608171816115710529F0CF
:103D9000448155810E94D71B02C00E942D1BCE0179
:103DA000DF91CF910895FC0111821082138212825B
:103DB0001582148216820E94BC1E0895FC01118295
:103DC0001082138212821582148216820E94BC1EF7
:103DD0000895FC01808191810E949B2D0895FC0132
:103DE000808191810E949B2D0895FC0120E030E0AC
:103DF0008081882311F421E030E0C9010895FC019D
:103E000081E080830895089508950E949B2D089570
:103E10000E949B2D08950E94FE2C08950E94FE2C66
:103E200008951F920F920FB60F9211242F933F9374
:103E30008F939F93AF93BF938091EC069091ED0683
:103E4000A091EE06B091EF063091F0060196A11D0B
:103E5000B11D232F2D5F2D3720F02D570196A11D69
:103E6000B11D2093F0068093EC069093ED06A0938D
:103E7000EE06B093EF068091E8069091E906A091D6
:103E8000EA06B091EB060196A11DB11D8093E806EC
:103E90009093E906A093EA06B093EB06BF91AF9129
:103EA0009F918F913F912F910F900FBE0F901F9078
:103EB00018958FB7F8942091EC063091ED0640915B
:103EC000EE065091EF068FBFB901CA0108959FB762
:103ED000F8942091E8063091E9064091EA06509165
:103EE000EB0686B5A89B06C08F3F21F02F5F3F4FA2
:103EF0004F4F5F4F9FBF542F432F322F2227280F42
:103F0000311D411D511D82E0220F331F441F551FDB
:103F10008A95D1F7B901CA0108959B01AC017FB719
:103F2000F8948091E8069091E906A091EA06B09194
:103F3000EB0666B5A89B05C06F3F19F00196A11D61
:103F4000B11D7FBFBA2FA92F982F8827860F911DEB
:103F5000A11DB11D62E0880F991FAA1FBB1F6A95A2
:103F6000D1F7BC012DC0FFB7F8948091E80690917D
:103F7000E906A091EA06B091EB06E6B5A89B05C05C
:103F8000EF3F19F00196A11DB11DFFBFBA2FA92F58
:103F9000982F88278E0F911DA11DB11DE2E0880F7B
:103FA000991FAA1FBB1FEA95D1F7861B970B885E46
:103FB0009340C8F2215030404040504068517C4FFF
:103FC000211531054105510571F60895019739F024
:103FD000880F991F880F991F02970197F1F708958D
:103FE000789484B5826084BD84B5816084BD85B5D4
:103FF000826085BD85B5816085BDEEE6F0E080819B
:1040000081608083E1E8F0E01082808182608083BB
:10401000808181608083E0E8F0E08081816080833E
:10402000E1EBF0E0808184608083E0EBF0E0808170
:1040300081608083E1E9F0E080818260808380811B
:1040400081608083E0E9F0E0808181608083E1EA43
:10405000F0E0808182608083808181608083E0EAFB
:10406000F0E0808181608083E1E2F1E08081826024
:104070008083808181608083E0E2F1E080818160E3
:104080008083EAE7F0E080818460808380818260C1
:1040900080838081816080838081806880831092AA
:1040A000C1000895CF93DF93482F50E0CA0188568E
:1040B0009E4FFC0134914E5A5E4FFA018491882341
:1040C00069F190E0880F991FFC01EC5FFE4FA5910C
:1040D000B491FC01E25EFE4FC591D491662351F488
:1040E0002FB7F8948C91932F909589238C93888186
:1040F00089230BC0623061F42FB7F8948C91932F11
:10410000909589238C938881832B88832FBF06C049
:104110009FB7F8948C91832B8C939FBFDF91CF91A5
:104120000895893009F449C08A30A0F4843051F1EF
:10413000853040F4823079F1833000F5813009F028
:1041400063C026C0873079F1883098F5863009F051
:104150005BC025C08D3009F442C08E3028F48B300E
:10416000B1F18C30C0F52DC0803109F442C08131ED
:1041700009F445C08F3009F047C037C080918000F6
:104180008F7703C0809180008F7D80938000089599
:1041900084B58F7702C084B58F7D84BD08958091EA
:1041A000B0008F7703C08091B0008F7D8093B00006
:1041B0000895809190008F7707C0809190008F7D47
:1041C00003C080919000877F809390000895809134
:1041D000A0008F7707C08091A0008F7D03C08091E1
:1041E000A000877F8093A0000895809120018F77A1
:1041F00003C0809120018F7D8093200108958091DC
:104200002001877F809320010895FF920F931F93D1
:10421000F62E482F50E0CA0182529E4FFC01249195
:10422000CA0188569E4FFC0114914E5A5E4FFA0106
:1042300004910023C9F0222319F0822F0E949120BB
:10424000E02FF0E0EE0FFF1FE25EFE4FA591B4916C
:104250009FB7F894FF2021F48C911095812302C020
:104260008C91812B8C939FBF1F910F91FF9008958C
:104270000F931F93482F50E0CA0182529E4FFC01BA
:104280002491CA0188569E4FFC0104914E5A5E4FFC
:10429000FA011491112319F420E030E015C0222313
:1042A00019F0822F0E949120812F90E0880F991F92
:1042B000885C9E4FFC01A591B4918C9120E030E088
:1042C000802311F021E030E0C9011F910F91089582
:1042D000EF92FF920F931F937B018C0120E030E05F
:1042E00040E05FE40E94142588238CF0C801B701E8
:1042F00020E030E040E05FE40E94E0220E942D26B2
:104300009B01AC01205030404040504806C0C801DD
:10431000B7010E942D269B01AC01B901CA011F9172
:104320000F91FF90EF900895A0E0B0E0EAE9F1E28C
:104330000C94552FDC012B01FA019C91923008F46A
:1043400039C1EB018881823008F433C1943069F4BB
:10435000843009F02FC111969C911197898198178B
:1043600009F428C1A3EFB2E025C1843009F421C1CA
:104370008230A9F4923009F01DC19A01AD0188E0A4
:10438000EA010990AE01E90109929E018150C1F74D
:10439000E201898111969C918923818308C1923021
:1043A00009F407C112962D903C901397EB018A8176
:1043B0009B811496AD90BD90CD90DC901797EC80CA
:1043C000FD800E811F819101281B390BB90137FF38
:1043D00004C066277727621B730B603271050CF0EF
:1043E00061C0121613066CF537014801062E04C091
:1043F00096948794779467940A94D2F721E030E0FA
:1044000040E050E004C0220F331F441F551F6A953F
:10441000D2F721503040404050402E213F214023D0
:104420005123211531054105510521F021E030E0EE
:1044300040E050E079018A01E628F7280829192987
:104440003CC0232BD1F1260E371E35014601062E26
:1044500004C096948794779467940A94D2F721E0E5
:1044600030E040E050E004C0220F331F441F551FCE
:104470006A95D2F721503040404050402A213B21DC
:104480004C215D21211531054105510521F021E027
:1044900030E040E050E059016A01A628B728C8285A
:1044A000D9280BC0821593052CF01C01AA24BB242B
:1044B000650103C0EE24FF24870111969C91D2016F
:1044C00011968C91981709F445C0992339F0A801E9
:1044D00097012A193B094C095D0906C0A6019501FF
:1044E0002E193F09400B510B57FD08C01182338232
:1044F000228224833583468357831DC081E08183D4
:104500003382228288279927DC01821B930BA40B1C
:10451000B50B84839583A683B7830DC0220F331F09
:10452000441F551F2483358346835783828193819B
:104530000197938382832481358146815781DA01F3
:10454000C9010197A109B1098F5F9F4FAF4FBF43C9
:1045500028F30BC0918333822282EA0CFB1C0C1DD2
:104560001D1DE482F5820683178383E08083248106
:1045700035814681578157FF1AC0C901AA2797FD87
:10458000A095BA2F81709070A070B0705695479525
:1045900037952795822B932BA42BB52B848395835A
:1045A000A683B78382819381019693838283DF01FF
:1045B00001C0D201CD01CDB7DEB7E2E10C94712F7D
:1045C000A0E2B0E0E6EEF2E20C94612F69837A8318
:1045D0008B839C832D833E834F835887E9E0EE2EA7
:1045E000F12CEC0EFD1ECE010196B7010E941E2893
:1045F0008E010F5E1F4FCE010596B8010E941E2846
:104600008A8991E089278A8BC701B801AE01475E8C
:104610005F4F0E9494210E944927A096E6E00C94E7
:104620007D2FA0E2B0E0E7E1F3E20C94612F698313
:104630007A838B839C832D833E834F835887F9E055
:10464000EF2EF12CEC0EFD1ECE010196B7010E945B
:104650001E288E010F5E1F4FCE010596B8010E94E5
:104660001E28C701B801AE01475E5F4F0E9494212A
:104670000E944927A096E6E00C947D2FA0E2B0E0CE
:10468000E4E4F3E20C94552F69837A838B839C8353
:104690002D833E834F835887CE010196BE01675F0D
:1046A0007F4F0E941E28CE010596BE016F5E7F4F90
:1046B0000E941E289985923088F089898230C8F03E
:1046C000943019F4823051F404C0843029F49230CB
:1046D00081F483EF92E0C6C0923049F420E09A85DD
:1046E0008A89981321E02A87CE010996BBC08230BF
:1046F00049F420E09A858A89981321E02A8BCE011B
:104700004196B0C02D843E844F8458886D887E8841
:104710008F88988CEE24FF248701AA24BB2465018E
:1047200040E050E060E070E0E0E0F0E0C101817066
:104730009070892BE9F0E60CF71C081D191D9A01F1
:10474000AB012A0D3B1D4C1D5D1D80E090E0A0E0FB
:10475000B0E0E614F7040805190520F481E090E0C4
:10476000A0E0B0E0BA01A901480F591F6A1F7B1FE2
:10477000AA0CBB1CCC1CDD1C97FE08C081E090E09D
:10478000A0E0B0E0A82AB92ACA2ADB2A3196E03292
:10479000F10549F0660C771C881C991C56944794C7
:1047A00037942794C3CFFA85EA892B893C898B8576
:1047B0009C85280F391F2E5F3F4F17C0CA0181709B
:1047C0009070892B61F016950795F794E79480E037
:1047D00090E0A0E0B0E8E82AF92A0A2B1B2B769596
:1047E0006795579547952F5F3F4F77FDE7CF0CC0F3
:1047F000440F551F661F771F17FD4160EE0CFF1C0D
:10480000001F111F21503040403090E0590790E0C8
:10481000690790E4790760F32B8F3C8FDB01CA01B5
:104820008F779070A070B07080349105A105B105AC
:1048300061F447FD0AC0E114F1040105110529F0F6
:10484000405C5F4F6F4F7F4F40781A8EFE1711F01C
:1048500081E08A8F4D8F5E8F6F8F78A383E0898F81
:10486000CE0149960E944927A096E2E10C94712F4F
:10487000A8E1B0E0EEE3F4E20C945D2F69837A8363
:104880008B839C832D833E834F835887B9E0EB2E27
:10489000F12CEC0EFD1ECE010196B7010E941E28E0
:1048A0008E010F5E1F4FCE010596B8010E941E2893
:1048B0002985223008F47EC03989323010F4B801DD
:1048C0007CC08A859A8989278A87243011F0223012
:1048D00031F4231709F06EC063EF72E06EC034301C
:1048E00039F41D861E861F86188A1C861B8604C006
:1048F000323021F484E08987B7015FC02B853C8585
:104900008B899C89281B390B3C872B87ED84FE847F
:104910000F851889AD88BE88CF88D88CEA14FB042F
:104920000C051D0540F4EE0CFF1C001F111F21504B
:1049300030403C872B8720E030E040E050E080E0D2
:1049400090E0A0E0B0E460E070E0EA14FB040C0545
:104950001D0540F0282B392B4A2B5B2BEA18FB084E
:104960000C091D09B695A79597958795EE0CFF1C28
:10497000001F111F6F5F7F4F6F31710531F7DA0133
:10498000C9018F779070A070B07080349105A10537
:10499000B10561F427FD0AC0E114F1040105110518
:1049A00029F0205C3F4F4F4F5F4F20782D873E8787
:1049B0004F87588BBE01675F7F4FCB010E9449270D
:1049C0006896EAE00C94792FA8E1B0E0EAEEF4E210
:1049D0000C94612F69837A838B839C832D833E8320
:1049E0004F83588789E0E82EF12CEC0EFD1ECE0196
:1049F0000196B7010E941E288E010F5E1F4FCE0147
:104A00000596B8010E941E288985823040F0898968
:104A1000823028F0C701B8010E94962801C08FEFAC
:104A20006896E6E00C947D2FA8E1B0E0EAE1F5E2BB
:104A30000C94612F69837A838B839C832D833E83BF
:104A40004F83588789E0E82EF12CEC0EFD1ECE0135
:104A50000196B7010E941E288E010F5E1F4FCE01E6
:104A60000596B8010E941E288985823040F0898908
:104A7000823028F0C701B8010E94962801C08FEF4C
:104A80006896E6E00C947D2FA8E1B0E0EAE4F5E258
:104A90000C94612F69837A838B839C832D833E835F
:104AA0004F83588789E0E82EF12CEC0EFD1ECE01D5
:104AB0000196B7010E941E288E010F5E1F4FCE0186
:104AC0000596B8010E941E288985823040F08989A8
:104AD000823028F0C701B8010E94962801C081E009
:104AE0006896E6E00C947D2FA8E1B0E0EAE7F5E2F5
:104AF0000C94612F69837A838B839C832D833E83FF
:104B00004F83588789E0E82EF12CEC0EFD1ECE0174
:104B10000196B7010E941E288E010F5E1F4FCE0125
:104B20000596B8010E941E288985823040F0898947
:104B3000823028F0C701B8010E94962801C081E0A8
:104B40006896E6E00C947D2FA8E1B0E0EAEAF5E291
:104B50000C94652F69837A838B839C832D833E839A
:104B60004F835887CE010196BE01675F7F4F0E9439
:104B70001E28CE010596BE016F5E7F4F0E941E2843
:104B80008985823028F020E030E08989823010F475
:104B900021E030E0822F6896E2E00C94812FA8E0BB
:104BA000B0E0E5EDF5E20C945E2F9B01AC0183E0F3
:104BB0008983DA01C9018827B7FD83959927AA2738
:104BC000BB27B82E211531054105510519F482E0A6
:104BD00089833AC08823A9F0203080E0380780E03C
:104BE000480780E8580729F460E070E080E09FEC17
:104BF00030C0EE24FF248701E21AF30A040B150BE0
:104C000002C079018A018EE1C82ED12CDC82CB82D0
:104C1000ED82FE820F831887C801B7010E94FA2631
:104C200001971816190684F4082E04C0EE0CFF1C18
:104C3000001F111F0A94D2F7ED82FE820F8318879E
:104C4000C81AD90ADC82CB82BA82CE0101960E94B0
:104C500049272896E9E00C947A2FACE0B0E0E3E332
:104C6000F6E20C94652F69837A838B839C83CE0153
:104C70000196BE016B5F7F4F0E941E288D8182309E
:104C800061F1823050F1843021F48E81882351F11A
:104C90002EC02F81388537FD20C06E812F31310520
:104CA0001CF06623F9F023C08EE190E0821B930B89
:104CB00029853A854B855C8504C05695479537957F
:104CC00027958A95D2F76623B1F050954095309597
:104CD00021953F4F4F4F5F4F0EC020E030E040E046
:104CE00050E009C02FEF3FEF4FEF5FE704C020E037
:104CF00030E040E050E8B901CA012C96E2E00C94A3
:104D0000812FA8E0B0E0E7E8F6E20C945D2F7B018C
:104D10008C01611571058105910519F482E0898383
:104D200060C083E089838EE1C82ED12CDC82CB82E7
:104D3000ED82FE820F831887C801B7010E94FA2610
:104D4000FC013197F7FF3BC0222733272E1B3F0B77
:104D500057016801022E04C0D694C794B794A79453
:104D60000A94D2F740E050E060E070E081E090E02B
:104D7000A0E0B0E004C0880F991FAA1FBB1F2A95AE
:104D8000D2F70197A109B1098E219F21A023B12358
:104D90000097A105B10521F041E050E060E070E02E
:104DA0004A295B296C297D294D835E836F8378872F
:104DB0008EE190E08E1B9F0B9C838B8312C03097FB
:104DC00081F00E2E04C0EE0CFF1C001F111F0A9470
:104DD000D2F7ED82FE820F831887CE1ADF0ADC82BB
:104DE000CB821A82CE0101960E9449272896EAE0DA
:104DF0000C94792FEF92FF920F931F937B018C01FC
:104E000080E0E81680E0F80681E0080780E01807F7
:104E100088F48FEFE816F1040105110531F028F050
:104E200088E090E0A0E0B0E017C080E090E0A0E073
:104E3000B0E012C080E0E81680E0F80680E00807E5
:104E400081E0180728F088E190E0A0E0B0E004C01D
:104E500080E190E0A0E0B0E020E230E040E050E00F
:104E6000281B390B4A0B5B0B04C016950795F7946A
:104E7000E7948A95D2F7F701E550FD4F8081281B12
:104E8000310941095109C9011F910F91FF90EF901C
:104E90000895DF92EF92FF920F931F93FC01E4803D
:104EA000F58006811781D1808081823048F480E0CE
:104EB00090E0A0E1B0E0E82AF92A0A2B1B2BA5C05C
:104EC000843009F49FC0823021F4EE24FF2487014E
:104ED00005C0E114F1040105110519F4E0E0F0E06A
:104EE00096C0628173819FEF623879070CF05BC0D6
:104EF00022E83FEF261B370B2A3131052CF020E04A
:104F000030E040E050E02AC0B801A701022E04C002
:104F100076956795579547950A94D2F781E090E08A
:104F2000A0E0B0E004C0880F991FAA1FBB1F2A95FC
:104F3000D2F70197A109B1098E219F21A023B123A6
:104F40000097A105B10521F081E090E0A0E0B0E07C
:104F50009A01AB01282B392B4A2B5B2BDA01C901B3
:104F60008F779070A070B07080349105A105B10565
:104F700039F427FF09C0205C3F4F4F4F5F4F04C0FB
:104F8000215C3F4F4F4F5F4FE0E0F0E02030A0E06A
:104F90003A07A0E04A07A0E45A0710F0E1E0F0E089
:104FA00079018A0127C06038710564F5FB01E15879
:104FB000FF4FD801C7018F779070A070B070803418
:104FC0009105A105B10539F4E7FE0DC080E490E03C
:104FD000A0E0B0E004C08FE390E0A0E0B0E0E80E15
:104FE000F91E0A1F1B1F17FF05C016950795F7949A
:104FF000E794319687E016950795F794E7948A959C
:10500000D1F705C0EE24FF248701EFEFF0E06E2F0B
:10501000679566276795902F9F77D794DD24D7945F
:105020008E2F8695492F462B582F5D29B701CA012F
:105030001F910F91FF90EF90DF900895FC01DB012D
:10504000408151812281622F6F7770E0221F2227D9
:10505000221F9381892F880F822B282F30E0991FE0
:105060009927991F11969C93119721153105A9F540
:10507000411551056105710511F482E037C082E8E0
:105080009FEF13969C938E9312979A01AB0167E062
:10509000220F331F441F551F6A95D1F783E08C936D
:1050A0000DC0220F331F441F551F12968D919C91E6
:1050B0001397019713969C938E931297203080E05C
:1050C000380780E0480780E4580758F314962D937A
:1050D0003D934D935C93179708952F3F310579F4D5
:1050E000411551056105710519F484E08C9308950B
:1050F00064FF03C081E08C9312C01C9210C02F5734
:10510000304013963C932E93129783E08C9387E064
:10511000440F551F661F771F8A95D1F77064149648
:105120004D935D936D937C93179708951F93DC01C6
:10513000FB019C91923008F447C08081823008F4D2
:1051400043C0943051F411961C91843099F58181BB
:10515000682F70E0611B71093FC0843021F09230EC
:1051600031F48230B9F18181882389F12DC0119603
:105170001C9111978230F1F081811817D9F41296A1
:105180002D913C911397828193818217930794F01C
:1051900028173907BCF014968D919D910D90BC9104
:1051A000A02D2481358146815781281739074A0768
:1051B0005B0718F4112341F00AC082179307A40774
:1051C000B50740F4112319F061E070E005C06FEFFE
:1051D0007FEF02C060E070E0CB011F9108951F9344
:1051E000FC0199278827BC01E89411911032E9F35A
:1051F000193010F01E30C8F31B3251F01D3249F443
:10520000689406C00E94F729610F711D811D911DD0
:10521000119110531A30B0F33EF49095809570952B
:1052200061957F4F8F4F9F4F1F910895FB01DC01C8
:1052300002C005900D9241505040D8F70895FB01EF
:10524000DC0102C001900D9241505040D8F7089502
:105250006817790768F4FB01DC01E40FF51FA40F60
:10526000B51F02C002900E9241505040D8F70895E9
:105270000C941F29FB01DC010D900020E9F7119728
:1052800001900D920020E1F70895FC0181918617AD
:1052900021F08823D9F7992708953197CF010895F0
:1052A000FB01DC018D91019080190110D9F3990B5C
:1052B0000895FB01DC0101900D920020E1F70895B3
:1052C000FB01DC014150504030F08D91019080197C
:1052D00019F40020B9F7881B990B0895FB01DC0134
:1052E0004150504048F001900D920020C9F701C094
:1052F0001D9241505040E0F70895FC0181E090E09C
:105300000190061609F4CF010020D1F70197089506
:10531000FB0151915523A9F0BF01DC014D914517C7
:105320004111E1F759F4CD010190002049F04D9170
:1053300040154111C9F3FB014111EFCF81E090E02D
:1053400001970895FB019F01E8944230C4F0453273
:10535000B4F44A3029F497FB1EF4909581959F4F41
:10536000642F77270E94AD2F805D8A330CF0895D12
:105370008193CB010097A1F716F45DE2519310825F
:10538000C9010C94642CFA01CF93FF93EF93223060
:1053900044F1253234F5C22FE894CA3049F497FB22
:1053A0003EF490958095709561957F4F8F4F9F4FFC
:1053B0002C2F332744275527FF93EF930E94332F39
:1053C000EF91FF91605D6A330CF0695D6193B90103
:1053D000CA01605070408040904051F716F4CDE211
:1053E000C19310828F919F91CF910C94642C592F6F
:1053F000482F372F262F660F771F881F991F660F9C
:10540000771F881F991F620F731F841F951F660FD8
:10541000771F881F991F0895FA01CF93FF93EF9389
:105420002230CCF02532BCF4C22F2C2F3327442756
:105430005527FF93EF930E94332FEF91FF91605D0B
:105440006A330CF0695D6193B901CA016050704024
:105450008040904051F710828F919F91CF910C9492
:10546000642CFB019F01423074F0453264F4642FD8
:1054700077270E94AD2F805D8A330CF0895D819380
:10548000CB010097A1F71082C9010C94642CAEE007
:10549000B0E0EDE4FAE20C94632F8C0177FF02C0D8
:1054A00060E070E8615070407E836D831A830983E9
:1054B00086E08C83CE010196BA01A9010E94712A6F
:1054C0002D813E8137FD09C0EF81F8852E173F07FA
:1054D0000CF4F901E00FF11F10822E96E4E00C9419
:1054E0007F2FABE0B0E0E7E7FAE20C94552F3C01E8
:1054F0002B015A01FC0117821682838181FD03C0B2
:105500006FEF7FEFC6C19AE0892E1E010894211C1F
:10551000311CF3012381F20123FD859123FF819149
:105520002F01882309F4B2C1853239F423FD859116
:1055300023FF81912F01853229F490E0B3010E946D
:10554000742CE7CF982FFF24EE249924FFE1FF1558
:10555000D0F09B3269F09C3228F4903259F09332AB
:1055600091F40EC09D3249F0903369F441E024C0BB
:1055700052E0F52A84E0F82A28C098E0F92A25C0EC
:10558000E0E1FE2A22C0F7FC29C0892F80538A302F
:1055900070F4F6FE05C0989C902C1124980E15C04E
:1055A000E89CE02C1124E80EF0E2FF2A0EC09E32A7
:1055B00029F4F6FC6BC140E4F42A07C09C3619F4C8
:1055C00050E8F52A02C0983649F4F20123FD95917E
:1055D00023FF91912F01992309F0B8CF892F85548A
:1055E000833018F08052833038F444E050E0A40E49
:1055F000B51E5FE359830FC0933631F0933779F0CE
:10560000933509F056C020C0F5018081898342E0BE
:1056100050E0A40EB51E610101E010E012C0F501DA
:10562000C080D180F6FC03C06FEF7FEF02C0692D10
:1056300070E042E050E0A40EB51EC6010E94592C55
:105640008C015FE7F52214C0F501C080D180F6FC23
:1056500003C06FEF7FEF02C0692D70E042E050E0C1
:10566000A40EB51EC6010E944E2C8C0150E8F52AEE
:10567000F3FE07C01AC080E290E0B3010E94742CD0
:10568000EA948E2D90E008171907A8F30EC0F601D2
:10569000F7FC8591F7FE81916F0190E0B3010E94C4
:1056A000742CE110EA94015010400115110579F7AE
:1056B000EAC0943611F0993669F5F7FE08C0F50195
:1056C000208131814281538184E090E00AC0F5015C
:1056D000808191819C01442737FD4095542F82E0C1
:1056E00090E0A80EB91E9FE6F92257FF09C0509519
:1056F0004095309521953F4F4F4F5F4FE0E8FE2A90
:10570000CA01B901A1012AE030E00E94A02CD82EE4
:10571000D21840C0953729F41F2D1F7E2AE030E0B3
:105720001DC01F2D197F9F3661F0903720F49835EA
:1057300009F0ACC00FC0903739F0983709F0A6C017
:1057400004C028E030E00AC0106114FD146020E1BC
:1057500030E004C014FD166020E132E017FF08C0FD
:10576000F501608171818281938144E050E008C03D
:10577000F50180819181BC0180E090E042E050E041
:10578000A40EB51EA1010E94A02CD82ED2188FE71E
:10579000F82EF122F6FE0BC05EEFF522D91438F494
:1057A000F4FE07C0F2FC05C08FEEF82202C01D2DEA
:1057B00001C0192DF4FE0DC0FE01ED0DF11D80811B
:1057C000803319F499EEF92208C01F5FF2FE05C07C
:1057D00003C08F2D867809F01F5F0F2DF3FC14C0D6
:1057E000F0FE0FC01E1510F09D2C0BC09D2C9E0CC2
:1057F000911A1E2D06C080E290E0B3010E94742C25
:105800001F5F1E15C0F304C01E1510F4E11A01C07D
:10581000EE2404FF0FC080E390E0B3010E94742CDB
:1058200002FF1DC001FD03C088E790E00EC088E5BF
:1058300090E00BC0802F867891F001FF02C08BE2D0
:1058400001C080E2F7FC8DE290E0B3010E94742C6D
:1058500006C080E390E0B3010E94742C9A94D9149E
:10586000C0F3DA94F101ED0DF11D808190E0B301F8
:105870000E94742CDD20A9F706C080E290E0B301FD
:105880000E94742CEA94EE20C1F743CEF3016681A6
:105890007781CB012B96E2E10C94712FFC010590EE
:1058A000615070400110D8F7809590958E0F9F1F22
:1058B0000895FC016150704001900110D8F7809567
:1058C00090958E0F9F1F0895DC01FC01672F719149
:1058D0007723E1F7329704C07C916D9370836291D6
:1058E000AE17BF07C8F308950F931F93CF93DF93AD
:1058F0008C01EB018B8181FF1BC082FF0DC02E81CB
:105900003F818C819D812817390764F4E881F981F2
:105910000193F983E88306C0E885F985802F1995FE
:10592000892B31F48E819F8101969F838E8302C0E3
:105930000FEF1FEFC801DF91CF911F910F910895D5
:10594000FA01AA27283051F1203181F1E8946F93B0
:105950006E7F6E5F7F4F8F4F9F4FAF4FB1E03ED056
:10596000B4E03CD0670F781F891F9A1FA11D680FF4
:10597000791F8A1F911DA11D6A0F711D811D911D27
:10598000A11D20D009F468943F912AE0269F11249C
:105990003019305D3193DEF6CF010895462F477000
:1059A000405D4193B3E00FD0C9F7F6CF462F4F705B
:1059B000405D4A3318F0495D31FD4052419302D0B9
:1059C000A9F7EACFB4E0A69597958795779567955F
:1059D000BA95C9F700976105710508959B01AC015F
:1059E0000A2E06945795479537952795BA95C9F786
:1059F000620F731F841F951FA01D08950F931F939F
:105A0000CF93DF93BC018230910510F462E070E027
:105A1000E091F306F091F406A0E0B0E040E050E041
:105A200024C08081918186179707D0F08617970749
:105A300071F482819381109729F013969C938E9331
:105A400012972CC09093F4068093F30627C041155B
:105A5000510519F08417950718F4EF018D01AC0179
:105A6000DF01828193819C01F9013097D1F64115C4
:105A70005105F9F0CA01861B970B8430910580F41B
:105A80008A819B810115110521F0F801938382839E
:105A900004C09093F4068093F306FE01329645C04D
:105AA000FE01E80FF91F6193719302979983888330
:105AB0003CC08091F1069091F206892B41F48091CF
:105AC000EF029091F0029093F2068093F1064091DC
:105AD000F1025091F2024115510541F44DB75EB704
