:100000000C9418010C9445010C9445010C94450185
:100010000C9445010C9445010C9445010C94450148
:100020000C9445010C9445010C9445010C94450138
:100030000C9445010C9445010C9445010C94450128
:100040000C9445010C9445010C9445010C94450118
:100050000C9445010C9445010C9445010C945D25CC
:100060000C9445010C947D0F0C94C5100C94450123
:100070000C9445010C9445010C9445010C944501E8
:100080000C9445010C9445010C9445010C944501D8
:100090000C94BD0F0C9404110C9445010C94450173
:1000A0000C9445010C9445010C9445010C944501B8
:1000B0000C9445010C9445010C9445010C944501A8
:1000C0000C9445010C9445010C9445010C94FD0FD2
:1000D0000C9443110C9445010C943D100C94821126
:1000E0000C944501736F6D6570736575646F726113
:1000F0006E646F6D6C7967656E657261746564625C
:100100007974657300002100240027002A002D0067
:100110003000330001010000040107010A01000062
:100120002200250028002B002E003100340002019F
:100130000000050108010B0100002000230026003B
:1001400029002C002F0032000001000003010601ED
:10015000090105050505070508080808020202024D
:100160000A0A080804040404010101010101010153
:100170000303030303030303040707070C0C0C0C1E
:100180000C0C0C0C02020202060606060606060607
:100190000B0B0B0B0B0B0B0B010210202008081094
:1001A00020401020408002010201080402010102E7
:1001B00004081020408080402010080402018004C0
:1001C000020180402010080402010804020101021B
:1001D0000408102040800102040810204080000024
:1001E000090A02080B0C0D070603040100000000B9
:1001F00000000000000000000000000000000000FF
:100200000000000000000000000011100F000000BE
:1002100000000000000000000000000000000000DE
:1002200000000000BD011504020F6E140E04FB0E49
:1002300011241FBECFEFD1E2DEBFCDBF00E00CBF67
:1002400014E0A0E0B2E0E0E8FCE600E00BBF02C092
:1002500007900D92AC31B107D9F71BBE17E0ACE1A6
:10026000B4E001C01D92A132B107E1F712E0CCE287
:10027000D2E004C02297FE010E940036C432D107AA
:10028000C9F70E946F0F0C9433360C940000DC0108
:10029000FB0160E070E09FEF1EC0911110822136DB
:1002A00018F02755808106C08081213410F0275333
:1002B00001C02053820F8083992339F08081829579
:1002C000807F80836F5F7F4F04C06417750730F4B1
:1002D0003196119690952C912223F9F6CB01089531
:1002E000EF92FF920F931F93CF93DF937B018901CE
:1002F00001501040EC01DA0140E050E060E070E0B5
:1003000021E030E022C04017510710F58881829526
:100310008F708A3010F0895C01C0805DFD0181938F
:1003200020173107B8F488818F708A3010F0895C0B
:1003300001C0805D11968C93119712964E5F5F4FAE
:100340006F5F7F4F21962E5F3F4F6E157F05D8F26E
:100350009A01FD011082C901DF91CF911F910F9188
:10036000FF90EF900895FC01029691838083089599
:10037000FC0102969183808308958EE194E090932E
:100380001D0480931C040895AF92BF92CF92DF9218
:10039000EF92FF920F931F938C0122E0A22EB12CBB
:1003A000A80EB91E9AE0E92EF12CE00EF11EC5014F
:1003B000B7010E94370382E1C82ED12CC00ED11E96
:1003C000065E1F4FC601B8010E943703C7010E9495
:1003D000B903C8010E94C003C701B5010E945603BA
:1003E000C801B6010E945603C5010E94C503C6019B
:1003F000B7010E943703C501B8010E943703C70146
:100400000E94CA03C8010E94D103C701B6010E941D
:100410005603C801B5010E945603C6010E94C503D8
:100420001F910F91FF90EF90DF90CF90BF90AF9012
:100430000895EF92FF920F931F938C017B014A96D0
:100440000E945603C8010E94C401C8010E94C40151
:10045000C8010296B7010E9456031F910F91FF90A9
:10046000EF900895DC019B968C919B978F5F9B96F4
:100470008C939B979A968C919A97E82FFF27E7FD8C
:10048000F095EA0FFB1F62A381509A968C939A977E
:1004900087FF09C087E09A968C939A97CD01929630
:1004A000BD010E9419020895EF92FF920F931F93CE
:1004B000CF93DF93EC010BA504C0CE0160E00E9456
:1004C00032028AA51816CCF3CE01602F0E943202A8
:1004D00032E1E32EF12CEC0EFD1EC7010E946603F3
:1004E000CE010E94C401CE010E94C401CE010E942F
:1004F000C401CE010E94C4018E010E5F1F4F2A96D7
:10050000C801BE010E945603C801B7010E945603EC
:100510006096C801BE010E945603DF91CF911F91E2
:100520000F91FF90EF9008956F927F928F929F921C
:10053000AF92BF92CF92DF92EF92FF920F931F93F1
:10054000CF93DF938C014B0172E0C72ED12CC80EE4
:10055000D91EC60164EE70E048E050E00E94802F92
:100560006AE0662E712C600E711EC3016CEE70E0A5
:1005700048E050E00E94802F52E1E52EF12CE00E81
:10058000F11EC70164EF70E048E050E00E94802F48
:100590004AE1A42EB12CA00EB11EC5016CEF70E093
:1005A00048E050E00E94802FE801A296DE01F401AD
:1005B00088E001900D928150E1F7CE010E94710315
:1005C000C601BE010E945603C701BE010E94560328
:1005D000DE01F401389688E001900D928150E1F738
:1005E000CE010E947103C301BE010E945603C501E2
:1005F000BE010E94560387E0F80182A713A6DF918F
:10060000CF911F910F91FF90EF90DF90CF90BF900F
:10061000AF909F908F907F906F900895EF92FF9290
:100620000F931F93DF93CF93CDB7DEB760970FB6CD
:10063000F894DEBF0FBECDBF8C017E010894E11C93
:10064000F11CC70140E150E00E94802FC801B701B2
:100650000E94940260960FB6F894DEBF0FBECDBF25
:10066000CF91DF911F910F91FF90EF9008952F93FD
:100670003F934F93DC011896FB013896889428E04D
:100680003E914291341F3C932A95D1F74F913F916F
:100690002F9108952F933F93DC01FB0128E03191C6
:1006A0003D932A95E1F73F912F9108952F933F9322
:1006B0004F93DC01FB0128E03C91419134273D93AD
:1006C0002A95D1F74F913F912F9108953F934F93E2
:1006D000DC0117963C914FEF34273C934F913F91AB
:1006E00008952F933F934F93DC011796FC0124E06C
:1006F0003C9140814C93319311972A95C9F74F91C2
:100700003F912F9108952F933F93DC0117963C91D1
:10071000DC0128E037953C9137953D932A95D9F730
:100720006A9599F73F912F9108952F933F9388945D
:10073000DC013C91189628E0331F3E91331F3C9317
:100740002A95D9F76A95A1F73F912F9108952F9394
:100750003F934F93DC01FC014D9127E03D91319394
:100760002A95E1F740836A95A9F74F913F912F9120
:1007700008956F9362E0EBDF63E0C5DF6F9108954A
:100780006F9362E0E4DF6F9108956F9364E0DFDFC1
:100790006F9108956F9362E0DADF61E0C6DF6F91D9
:1007A00008956F9363E0D3DF63E0ADDF6F91089549
:1007B000FC0184E292E0918380838AE08283089541
:1007C000FC0184E292E0918380838AE08283089531
:1007D000FC0184E292E0918380830895FC0184E22D
:1007E00092E0918380830895FC01628308958130B3
:1007F000910551F46F5F7F4F81F488E494E060E0ED
:1008000072E00E9444220895892B39F46F5F7F4F74
:1008100021F488E494E00E943525089580E090E07A
:100820006FEF7FEF0E94F703089581E090E06FEF94
:100830007FEF0E94F7030895AF92BF92CF92DF92AD
:10084000EF92FF920F931F93DF93CF93CDB7DEB755
:10085000C750D1400FB6F894DEBF0FBECDBFCB5E00
:10086000DE4FA880B980C551D140DE01A75EBE4FE2
:1008700088E0C82ED12CCC0EDD1EC95EDE4FE8818B
:10088000F981C751D14040815181C60160E071E0DA
:100890009D010E94B930D501ED91FC91E680F78071
:1008A0008E010F5F1F4FC801B6010E944422C5018F
:1008B000B801F7011995C8010E943525C95FDE4FBF
:1008C0000FB6F894DEBF0FBECDBFCF91DF911F9161
:1008D0000F91FF90EF90DF90CF90BF90AF90089571
:1008E0008F929F92AF92BF92CF92DF92EF92FF9240
:1008F0000F931F93DF93CF93CDB7DEB72E970FB62D
:10090000F894DEBF0FBECDBF5C018B014A01DC0154
:1009100012968C9112978B3068F5ED91FC91C68000
:10092000D7807E010894E11CF11CC70165E072E0EC
:100930000E945E22C701B8010E940D226DE072E0A4
:100940000E94F121B4010E940D2260E172E00E9438
:10095000F121BC018E01085F1F4FC8010E941F25B5
:10096000C501B801F6011995C8010E943525C701D6
:100970000E943B252E960FB6F894DEBF0FBECDBF6A
:10098000CF91DF911F910F91FF90EF90DF90CF906B
:10099000BF90AF909F908F900895CF92DF92EF928B
:1009A000FF920F931F93DF93CF93CDB7DEB72E97B0
:1009B0000FB6F894DEBF0FBECDBF6C017E01089468
:1009C000E11CF11CC7010E941F258E01085F1F4F0B
:1009D000C80168E474E00E941F25C601B701A801A0
:1009E0000E947004C8010E943525C7010E94352568
:1009F0002E960FB6F894DEBF0FBECDBFCF91DF911C
:100A00001F910F91FF90EF90DF90CF9008958F92FC
:100A10009F92AF92BF92CF92DF92EF92FF920F938D
:100A20001F93DF93CF93CDB7DEB72E970FB6F89411
:100A3000DEBF0FBECDBF5C018B014A01DC01129607
:100A40008C911297863068F5ED91FC91C680D78025
:100A50007E010894E11CF11CC70162E172E00E9472
:100A60005E22C701B8010E940D226DE072E00E9473
:100A7000F121B4010E940D2260E172E00E94F12197
:100A8000BC018E01085F1F4FC8010E941F25C501D0
:100A9000B801F6011995C8010E943525C7010E94C9
:100AA0003B252E960FB6F894DEBF0FBECDBFCF917B
:100AB000DF911F910F91FF90EF90DF90CF90BF904B
:100AC000AF909F908F900895CF92DF92EF92FF9218
:100AD0000F931F93DF93CF93CDB7DEB72E970FB64B
:100AE000F894DEBF0FBECDBF6C017E010894E11CFF
:100AF000F11CC7010E941F258E01085F1F4FC8010E
:100B000068E474E00E941F25C601B701A8010E9495
:100B10000705C8010E943525C7010E9435252E967C
:100B20000FB6F894DEBF0FBECDBFCF91DF911F91FE
:100B30000F91FF90EF90DF90CF9008958F929F924A
:100B4000AF92BF92CF92DF92EF92FF920F931F93DB
:100B5000DF93CF93CDB7DEB72E970FB6F894DEBFF5
:100B60000FBECDBF5C018B014A01DC0112968C9156
:100B70001297882369F5ED91FC91C680D7807E019C
:100B80000894E11CF11CC70169E172E00E945E2239
:100B9000C701B8010E940D226DE072E00E94F121B0
:100BA000B4010E940D2260E172E00E94F121BC01BB
:100BB0008E01085F1F4FC8010E941F25C501B801A3
:100BC000F6011995C8010E943525C7010E943B25F1
:100BD0002E960FB6F894DEBF0FBECDBFCF91DF913A
:100BE0001F910F91FF90EF90DF90CF90BF90AF904B
:100BF0009F908F900895CF92DF92EF92FF920F9384
:100C00001F93DF93CF93CDB7DEB72E970FB6F8942F
:100C1000DEBF0FBECDBF6C017E010894E11CF11C4C
:100C2000C7010E941F258E01085F1F4FC80168E49D
:100C300074E00E941F25C601B701A8010E949E050D
:100C4000C8010E943525C7010E9435252E960FB692
:100C5000F894DEBF0FBECDBFCF91DF911F910F91F2
:100C6000FF90EF90DF90CF900895FC0184E292E036
:100C700091838083CF010E9454250895FC0182E373
:100C800092E09183808381E08283148215821682B0
:100C90001782138210860895FC0182E392E091830B
:100CA000808381E0828314821582168217821382E8
:100CB00010860895FC0182E392E091838083089579
:100CC000FC0182E392E0918380830895FC0182819C
:100CD000882319F481E08283089582E08087089553
:100CE000FC018281882311F01282089583E08087BD
:100CF0000895CF93DF93EC018A81882399F08C814A
:100D00009D81AE81BF810196A11DB11D8C839D8304
:100D1000AE83BF83E881F9810680F781E02DCE01A3
:100D2000199502C081E08887DF91CF910895FC0179
:100D300063830895FC018381882311F01086089550
:100D400084E080870895FC0190858381882309F4DD
:100D50001086892F0895FC0182E392E091838083BD
:100D6000CF010E9454250895FC018EE392E0918307
:100D700080830895FC018EE392E09183808308953F
:100D8000FC018EE392E0918380830895FC018EE361
:100D900092E0918380830895FC018EE392E0918339
:100DA0008083CF010E9454250895FC0181E992E0DF
:100DB0009183808313821282158214820895FC012C
:100DC00081E992E0918380831382128215821482DA
:100DD0000895FC01738362830895FC017583648325
:100DE0000895FC0181E992E0918380830895FC01DC
:100DF00081E992E0918380830895FC0181E992E08A
:100E000091838083CF010E9454250895EF92FF9231
:100E10000F931F93CF93DF937C0110924F04C0E890
:100E2000D0E000E010E0CE018E219F218C179D07BD
:100E300019F062E472E002C064E472E08FE494E0CE
:100E40000E94A42FD595C7950F5F1F4F083011053D
:100E500051F78FE494E0DF91CF911F910F91FF90B4
:100E6000EF9008959F92AF92BF92CF92DF92EF9250
:100E7000FF920F931F93DF93CF93CDB7DEB7E19728
:100E80000FB6F894DEBF0FBECDBF6C01FC01A2818E
:100E9000B381ED91FC9111970084F185E02D5E0105
:100EA0000894A11CB11CC501BD0119958D819E81BD
:100EB000892B09F4D2C0E981FA819080F3E39F166F
:100EC00009F44EC0F91528F021E3921609F082C00A
:100ED00009C035E3931609F44DC087E3981609F06D
:100EE00079C054C0D6011296ED90FC9013978E01F4
:100EF000085F1F4FC80166E472E00E94442200D0E0
:100F000000D0EDB7FEB73196ADB7BEB71296FC92E2
:100F1000EE9211971383028389819A81958384834A
:100F20000E941C04EDB7FEB736960FB6F894FEBFCC
:100F30000FBEEDBFC8010E943525D6011496ED9075
:100F4000FC9015978E01015F1F4FC801B50141E06C
:100F500050E00E94FC24C701B8010E94690E77C0CE
:100F6000F601E280F3808E010A5E1F4FC8016FE434
:100F700072E017C0D6011296ED90FC9013978E0187
:100F8000035E1F4FC8016EE572E00BC0D6011296DA
:100F9000ED90FC9013978E010C5D1F4FC80169E620
:100FA00072E00E94442200D000D0EDB7FEB7319627
:100FB000ADB7BEB71296FC92EE92119713830283DF
:100FC00089819A81958384830E941C04EDB7FEB7C2
:100FD000369638C0D6011296AD90BC9013978E010C
:100FE000055D1F4FC80163E772E00E944422C9807B
:100FF000DA80CE0101960E94451CDC01CB010E94E3
:1010000006077C01892D90E00E940607EDB7FEB728
:101010003A970FB6F894FEBF0FBEEDBF3196ADB74D
:10102000BEB71296BC92AE92119713830283D582FB
:10103000C482F782E682918780870E941C04EDB704
:10104000FEB73A960FB6F894FEBF0FBEEDBFC801CB
:101050000E943525CE01019601C0C5010E943525AB
:10106000E1960FB6F894DEBF0FBECDBFCF91DF91F2
:101070001F910F91FF90EF90DF90CF90BF90AF90B6
:101080009F900895FC0189E992E091838083148206
:10109000158216821782138212820895FC0189E953
:1010A00092E09183808314821582168217821382C4
:1010B00012820895FC0189E992E09183808308956A
:1010C000FC0189E992E0918380830895FC016383A8
:1010D0000895FC0144835583668377830895FC015A
:1010E0008281813019F08230B1F40AC08481958107
:1010F000A681B781481759076A077B0754F40BC0CC
:1011000084819581A681B78184179507A607B707C3
:1011100014F08381089580E00895FC0189E992E04C
:1011200091838083CF010E9454250895FC0181851D
:1011300062850E9451270895FC01818561E00E942B
:101140009E260895FC0181EA92E091838083CF017D
:101150000E945A060895FC0181EA92E091838083FF
:10116000CF010E945A0608950F931F938C0181EAC4
:1011700092E0F80191838083C8010E945A06C80159
:101180000E9454251F910F910895EF92FF920F93A3
:101190001F938C01F62EE42E0E943E0681EA92E017
:1011A000F80191838083F186E2861F910F91FF9071
:1011B000EF900895EF92FF920F931F938C01F62EFC
:1011C000E42E0E943E0681EA92E0F801918380833A
:1011D000F186E2861F910F91FF90EF900895EF92B4
:1011E000FF920F931F93DF93CF93CDB7DEB727976F
:1011F0000FB6F894DEBF0FBECDBFF82EE92E69EA18
:1012000072E00E9444228BE896E00E94C213892B70
:1012100081F08E010F5F1F4FC8016BE876E00E94DE
:10122000F81A8F2D9E2DB8010E940825C8010E9432
:1012300035258F2D9E2D27960FB6F894DEBF0FBE55
:10124000CDBFCF91DF911F910F91FF90EF90089547
:101250008BE896E00E94341908958BE896E040E808
:1012600055E260E070E00E9449120895FC018EEAA8
:1012700092E091838083CF010E94E8030895FC01EE
:101280008EEA92E091838083CF010E94E803089563
:101290000F931F938C018EEA92E0F8019183808373
:1012A000C8010E94E803C8010E9454251F910F91B4
:1012B00008950F931F938C010E94D8038EEA92E049
:1012C000F801918380831F910F9108950F931F93CD
:1012D0008C010E94D8038EEA92E0F801918380830A
:1012E0001F910F9108958AE090E00E94703300975B
:1012F00061F4E0915804F0915904309721F480E0B2
:1013000090E00E9433361995EECF08950F931F9306
:101310008C018CEB92E0D80111969C938E931396DE
:101320001C921E921297C80102960E947309FC013A
:10133000D80113969C938E93129715961C921E9229
:1013400014971082128211821296ED91FC911397DC
:10135000F483E3831296ED91FC911397F683E58372
:1013600017961C921F910F9108950F931F938C0154
:101370008CEB92E0D80111969C938E9313961C925D
:101380001E921297C80102960E947309FC01D801AF
:1013900013969C938E93129715961C921E921497F7
:1013A0001082128211821296ED91FC911397F483B0
:1013B000E3831296ED91FC911397F683E5831796DC
:1013C0001C921F910F910895AF92BF92CF92DF921E
:1013D000EF92FF920F931F93CF93DF935C016B010A
:1013E00078018901DB018D919C912817390749F01B
:1013F000452B39F4E7019881F9018781981708F0A6
:1014000069C1C6010E947309EC01BC01695F7F4F8D
:1014100083E090E00E94D40EDC01F70183E00190AC
:101420000D928150E1F7D8011496DC93CE93139777
:10143000D601ED91FC9111970E171F0731F4F801B9
:10144000D283C183ED91FC9108C0838194810817F8
:10145000190729F4D483C38302C0D683C5831A83B2
:1014600009831C821B821E821D820C2FFD2ED60139
:101470006D917C911882CE01EC0111E000C1F9015F
:10148000A181B2811396ED91FC9114972E173F071D
:1014900009F078C01596ED91FC911697309721F0E0
:1014A0008081882309F473C0F901A581B681CA1728
:1014B000DB0711F09E012FC01396ED91FC9114975C
:1014C000E901FE83ED83309711F032832183F90126
:1014D0008181928112969C938E931197EB01898161
:1014E0009A812817390719F4BA83A9830DC0E90135
:1014F000E981FA81838194812817390719F4B4832B
:10150000A38302C0B683A58314963C932E931397AE
:10151000F901B283A183D9011196ED91FC91129743
:101520001083A181B2811C921396CD91DC91149706
:10153000ED81FE811496FC93EE931397309711F092
:10154000B283A18311968D919C9112979A8389837E
:10155000FB0181819281A817B90719F4D283C18355
:101560000EC01196ED91FC91129785819681A81776
:10157000B90719F4D683C58302C0D483C383BE835D
:10158000AD8378C0309749F08081882331F4E90138
:10159000188310831C929D0171C0F901A381B4814D
:1015A000CA17DB0711F09E012FC01596ED91FC9133
:1015B0001697E901FC83EB83309711F03283218386
:1015C000F9018181928112969C938E931197EB0180
:1015D00089819A812817390719F4BA83A9830DC024
:1015E000E901E981FA81858196812817390719F483
:1015F000B683A58302C0B483A38316963C932E932F
:101600001597F901B283A183D9011196ED91FC914F
:1016100012971083A181B2811C921596CD91DC9115
:101620001697EB81FC811696FC93EE9315973097F5
:1016300011F0B283A18311968D919C9112979A8398
:101640008983FB0181819281A817B90719F4D2839C
:10165000C1830EC01196ED91FC9112978381948104
:10166000A817B90719F4D483C38302C0D683C583EE
:10167000BC83AB831296DC93CE931197E901DB0117
:1016800011964D915C911297C417D50741F02981AD
:101690003A81F9018081882309F4F1CEEA0181E0E1
:1016A0008883D60112968D919C911397019613967B
:1016B0009C938E931297E5010883F982C501DF910F
:1016C000CF911F910F91FF90EF90DF90CF90BF903F
:1016D000AF900895CB010E947309EC01BC01695FD2
:1016E0007F4F83E090E00E94D40EDC01F70183E09D
:1016F00001900D928150E1F7F801D683C583D601A0
:10170000ED91FC91858196810817190709F0A7CE04
:10171000A4CEAF92BF92CF92DF92EF92FF920F933F
:101720001F93DF93CF9300D00F92CDB7DEB7B82EC3
:10173000A92E6A01DB01ED90FC90D7011196ED9185
:10174000FC911297870141E011C0D6019C918781DD
:10175000981720F43381248141E003C0358126812C
:1017600040E08F01832F922F9C01F901309769F798
:10177000442311F4D80140C0F701838194810817F4
:10178000190769F4EB2CFA2CCE01019640E050E0E9
:10179000980186010E94E40989819A8140C0F8017C
:1017A0008081882361F40180F281E02D8181928122
:1017B0008017910721F4F801A581B6811DC0F801B9
:1017C000A381B481109741F015968D919C91169745
:1017D000009791F0DC01F8CFF801A181B28105C03A
:1017E000FD01818192819C01D90113968D919C917B
:1017F0001497E817F907A1F317969C911797F6012C
:1018000080819817A0F4EB2CFA2CCE01039640E0CF
:1018100050E0980186010E94E4098B819C81D701E8
:1018200011969C938E9381E012968C9305C0EB2DBC
:10183000FA2DB183A08312828B2D9A2D0F900F90D9
:101840000F900F90CF91DF911F910F91FF90EF902C
:10185000DF90CF90BF90AF900895CF92DF92EF923C
:10186000FF920F931F93DF93CF93CDB7DEB72997E6
:101870000FB6F894DEBF0FBECDBFD82EC92EFA0129
:101880007901A081B181FB0120813181F90183813E
:101890009481A817B90779F4FB0182819381892B80
:1018A00009F471C0F701908117968C9117979817DA
:1018B00008F069C060C0A217B307C9F41596ED918E
:1018C000FC9116979781D7018C91981730F48D2D44
:1018D0009C2D40E050E09F0152C00D2D1C2DCE01EB
:1018E0000496A7010E94890B8C819D8162C08C9116
:1018F000882371F41196ED91FC9112978181928168
:101900008A179B0729F415962D913C9116971FC0B5
:1019100013962D913C9114972115310539F0F90159
:1019200085819681009799F09C01F9CF11962D91B0
:101930003C911297AD0105C0A901F9018181928105
:101940009C01F9018381948148175907A9F3F70194
:101950009081F9018781891718F517968C9117974F
:101960009817F0F485819681892B29F48D2D9C2D73
:1019700040E050E004C08D2D9C2DAD019D018701FC
:101980000E94E40919C00D2D1C2DCE010196A7015E
:101990000E94890B89819A81D8018D939C930CC0F8
:1019A0000D2D1C2DCE010796A7010E94890B8F815A
:1019B0009885F801918380838D2D9C2D29960FB6F3
:1019C000F894DEBF0FBECDBFCF91DF911F910F9175
:1019D000FF90EF90DF90CF900895CF92DF92EF923B
:1019E000FF920F931F93DF93CF93CDB7DEB7279767
:1019F0000FB6F894DEBF0FBECDBF7C01AB01DC019A
:101A0000CD90DC90D6011196ED91FC911297B60124
:101A10000DC09781DA018C91981718F00381148119
:101A200003C005811681FB01BF01F801309789F7DA
:101A3000FB019B016C157D0529F0DA019C918781E2
:101A40009817A0F4DA018C918D831F821E82FC838B
:101A5000EB83CE010196B701AE014D5F5F4F9E0152
:101A60002B5F3F4F0E942D0C29813A81285F3F4F09
:101A7000C90127960FB6F894DEBF0FBECDBFCF9138
:101A8000DF911F910F91FF90EF90DF90CF9008951D
:101A9000CF92DF92EF92FF920F931F93DF93CF933A
:101AA0000F920F92CDB7DEB722E0C22ED12CC80E16
:101AB000D91E81E08983C601BE016F5F7F4F0E94FE
:101AC000ED0C8C018BE090E00E945A25F82EE92E57
:101AD0006DE041E00E94C508F801F082E18282E0F9
:101AE0008A83C601BE016E5F7F4F0E94ED0C8C01A0
:101AF0008BE090E00E945A25F82EE92E6DE040E040
:101B00000E94C508F801F082E1820F900F90CF91FA
:101B1000DF911F910F91FF90EF90DF90CF9008958C
:101B20000E94480D0895EF92FF920F931F93CF9359
:101B3000DF937C01EB010EC06D817E81C7010E94A5
:101B4000930D1B810C81CE010E940D34212F302F6B
:101B5000C901EC01209781F7DF91CF911F910F917F
:101B6000FF90EF900895CF93DF93EC018A819B81E2
:101B7000892BA9F0E881F98161817281CE010E94EF
:101B8000930DE881F981F483E383E881F98112827E
:101B90001182E881F981F683E5831B821A828881AC
:101BA00099810E940D34DF91CF9108950F931F9377
:101BB000182F092FE82FF92F8CEB92E08193919346
:101BC000CF010E94B30D812F902F0E9454251F91A9
:101BD0000F910895FC018CEB92E081939193CF01DA
:101BE0000E94B30D0895FC018CEB92E081939193D8
:101BF000CF010E94B30D0895EF92FF920F931F93B0
:101C0000CF93DF937C01062F142FFC01C281D38177
:101C1000A981BA815C2F7D2FFD0112C087818117B8
:101C200018F06381448106C065814681852F972F16
:101C30009C01F9015E2F7F2F862F942F9C01F901C3
:101C4000309761F7E52FF72FAE01EC17FD07B9F1DB
:101C500087811817A0F117C017968C9117978117D5
:101C600038F013963C91139714962C91149706C054
:101C700015963C91159716962C91DE01ED01832F58
:101C8000922F9C01D901109739F7C417D50719F085
:101C90008F81181708F0AE01FA0180859185013017
:101CA00029F0013048F0023069F403C00E94660652
:101CB00009C00E94700606C00E94790603C081E038
:101CC000F7018783DF91CF911F910F91FF90EF90E4
:101CD00008958F929F92AF92BF92CF92DF92EF9230
:101CE000FF920F93DF93CF93CDB7DEB72E970FB64A
:101CF000F894DEBF0FBECDBF7C016B015E0108947E
:101D0000A11CB11CC50140E050E022E030E00E947F
:101D1000B52489819A810E943B2F4C01C5010E9404
:101D2000352581E0881681E0980614F081E021C015
:101D300038E0A32EB12CAC0EBD1EC501B60142E0A9
:101D400050E023E030E00E94B524888599850E9408
:101D50003B2F082FC5010E943525033029F005309F
:101D600029F0013029F408C061E007C062E005C035
:101D700082E0F701878305C060E0C701482D0E941B
:101D8000FC0D2E960FB6F894DEBF0FBECDBFCF91DF
:101D9000DF910F91FF90EF90DF90CF90BF90AF90C9
:101DA0009F908F9008950895CB01089581309105FB
:101DB00081F46F5F7F4FF1F48AE594E00E94590946
:101DC0008DE594E00E94DF0683E694E00E94860998
:101DD0000895892B79F46F5F7F4F61F483E694E077
:101DE0000E94EA0D8DE594E00E94F7068AE594E0F2
:101DF0000E943609089580E090E06FEF7FEF0E9427
:101E0000D60E089581E090E06FEF7FEF0E94D60E2E
:101E1000089560ED77E080E090E00E94D9258DE59F
:101E200094E00E9432070895AF92BF92CF92DF9262
:101E3000EF92FF920F931F93DF93CF93CDB7DEB74F
:101E40002E970FB6F894DEBF0FBECDBF93E6A92E36
:101E500094E0B92EC5010E94900D8AE5C82E84E059
:101E6000D82EC6010E942D09C60160E00E94F4032D
:101E70007E010894E11CF11CC70160EC72E00E9435
:101E800044228E01085F1F4FC8016FEC72E00E9470
:101E90004422C601B701A8010E949E05C8010E9404
:101EA0003525C7010E9435250DE514E0C801B601AE
:101EB0000E94E906C801B5010E94ED062E960FB6F4
:101EC000F894DEBF0FBECDBFCF91DF911F910F9170
:101ED000FF90EF90DF90CF90BF90AF9008950E9459
:101EE0003C260E94140F83E694E060E041E00E94EB
:101EF000FC0D0E94090FFDCF08951F920F920FB69F
:101F00000F920BB60F9211242F933F934F938F9301
:101F10009F93EF93FF938091C00082FD1DC040917D
:101F2000C6002091AB043091AC042F5F3F4F2F735C
:101F300030708091AD049091AE042817390771F08C
:101F4000E091AB04F091AC04E559FB4F4083309332
:101F5000AC042093AB0402C08091C600FF91EF91C6
:101F60009F918F914F913F912F910F900BBE0F90AA
:101F70000FBE0F901F90189508951F920F920FB6E5
:101F80000F920BB60F9211242F933F934F938F9381
:101F90009F93EF93FF938091C80082FD1DC04091F5
:101FA000CE0020913305309134052F5F3F4F2F73C2
:101FB000307080913505909136052817390771F0FA
:101FC000E0913305F0913405ED50FB4F40833093A1
:101FD00034052093330502C08091CE00FF91EF912C
:101FE0009F918F914F913F912F910F900BBE0F902A
:101FF0000FBE0F901F90189508951F920F920FB665
:102000000F920BB60F9211242F933F934F938F9300
:102010009F93EF93FF938091D00082FD1DC040916C
:10202000D6002091BB053091BC052F5F3F4F2F7329
:1020300030708091BD059091BE052817390771F069
:10204000E091BB05F091BC05E558FA4F4083309311
:10205000BC052093BB0502C08091D600FF91EF9193
:102060009F918F914F913F912F910F900BBE0F90A9
:102070000FBE0F901F90189508951F920F920FB6E4
:102080000F920BB60F9211242F933F934F938F9380
:102090009F93EF93FF938091300182FD1DC040918B
:1020A000360120914306309144062F5F3F4F2F7336
:1020B000307080914506909146062817390771F0D7
:1020C000E0914306F0914406ED5FF94F4083309371
:1020D00044062093430602C080913601FF91EF91A0
:1020E0009F918F914F913F912F910F900BBE0F9029
:1020F0000FBE0F901F901895E0919706F0919806EB
:10210000E05CFF4F8191919120813181821B930B83
:102110008F739070892B11F00E947C0FE091B906AB
:10212000F091BA06E05CFF4F81919191208131815D
:10213000821B930B8F739070892B11F00E94BC0F40
:10214000E091DB06F091DC06E05CFF4F819191911C
:1021500020813181821B930B8F739070892B11F03A
:102160000E94FC0FE091FD06F091FE06E05CFF4F3F
:102170008191919120813181821B930B8F7390709B
:10218000892B11F00E943C1008951F920F920FB6F8
:102190000F920BB60F9211242F933F938F939F931F
:1021A000EF93FF932091EF043091F0048091F104BC
:1021B0009091F2042817390731F48091C1008F7D86
:1021C0008093C10014C0E091F104F091F204E15554
:1021D000FB4F20818091F1049091F20401968F735E
:1021E00090709093F2048093F1042093C600FF91C5
:1021F000EF919F918F913F912F910F900BBE0F9078
:102200000FBE0F901F9018951F920F920FB60F924E
:102210000BB60F9211242F933F938F939F93EF93BD
:10222000FF93209177053091780580917905909101
:102230007A052817390731F48091C9008F7D809382
:10224000C90014C0E0917905F0917A05E95CFA4F74
:1022500020818091790590917A0501968F73907015
:1022600090937A05809379052093CE00FF91EF91AA
:102270009F918F913F912F910F900BBE0F900FBEAA
:102280000F901F9018951F920F920FB60F920BB6DA
:102290000F9211242F933F938F939F93EF93FF936C
:1022A0002091FF0530910006809101069091020671
:1022B0002817390731F48091D1008F7D8093D100A8
:1022C00014C0E0910106F0910206E154FA4F20811A
:1022D000809101069091020601968F739070909301
:1022E0000206809301062093D600FF91EF919F9103
:1022F0008F913F912F910F900BBE0F900FBE0F90BB
:102300001F9018951F920F920FB60F920BB60F9257
:1023100011242F933F938F939F93EF93FF932091DB
:102320008706309188068091890690918A06281741
:10233000390731F4809131018F7D8093310114C0D0
:10234000E0918906F0918A06E95BF94F208180913E
:10235000890690918A0601968F73907090938A06F1
:102360008093890620933601FF91EF919F918F9181
:102370003F912F910F900BBE0F900FBE0F901F90AB
:1023800018958F929F92AF92BF92CF92DF92EF9269
:10239000FF920F931F93DF93CF93CDB7DEB7FC016E
:1023A0001382128288EE93E0A0E0B0E084839583EC
:1023B000A683B7838FED92E09183808375876487CE
:1023C00057874687318B208B138B028BF58AE48AE3
:1023D000D78AC68AB18EA08E938E828E8889848F8A
:1023E0008989858F8A89868F8B89878F8C8980A33D
:1023F000CF91DF911F910F91FF90EF90DF90CF90E1
:10240000BF90AF909F908F9008958F929F92AF92C0
:10241000BF92CF92DF92EF92FF920F931F93DF93C1
:10242000CF93CDB7DEB7FC011382128288EE93E022
:10243000A0E0B0E084839583A683B7838FED92E01C
:10244000918380837587648757874687318B208B7C
:10245000138B028BF58AE48AD78AC68AB18EA08E46
:10246000938E828E8889848F8989858F8A89868FC9
:102470008B89878F8C8980A3CF91DF911F910F91DA
:10248000FF90EF90DF90CF90BF90AF909F908F9094
:102490000895AF92BF92DF92EF92FF920F931F9336
:1024A000CF93DF93EC017A018B01DD24403081EE84
:1024B000580780E0680780E0780711F0DD24D394A6
:1024C00091E0A92EB12CEC89FD89DD2069F0C501D0
:1024D00008A002C0880F991F0A94E2F7808360E089
:1024E00079E08DE390E005C0108260E874E88EE149
:1024F00090E0A80197010E94A5352150304040404E
:102500005040569547953795279580E120303807FC
:1025100020F0DD2011F0DD24D6CFE889F989308361
:10252000EA89FB89208319A2EE89FF89408121E095
:1025300030E0C9010C8C02C0880F991F0A94E2F7A1
:10254000482B4083EE89FF894081C9010D8C02C070
:10255000880F991F0A94E2F7482B4083EE89FF8980
:102560004081C9010E8C02C0880F991F0A94E2F7BE
:10257000482B4083EE89FF8980810F8C02C0220F97
:10258000331F0A94E2F7209528232083DF91CF910F
:102590001F910F91FF90EF90DF90BF90AF90089543
:1025A000AF92BF92CF92DF92EF92FF920F931F9361
:1025B000CF93DF93EC017A018B01C22EDD244030F2
:1025C00081EE580780E0680780E0780711F0DD248D
:1025D000D39471E0A72EB12CEC89FD89DD2069F040
:1025E000C50108A002C0880F991F0A94E2F78083F2
:1025F00060E079E08DE390E005C0108260E874E867
:102600008EE190E0A80197010E94A535215030404D
:1026100040405040569547953795279580E12030AA
:10262000380720F0DD2011F0DD24D6CFE889F989C4
:102630003083EA89FB892083E88DF98DC082EE8999
:10264000FF89408121E030E0C9010C8C02C0880F75
:10265000991F0A94E2F7482B4083EE89FF89408155
:10266000C9010D8C02C0880F991F0A94E2F7482B0C
:102670004083EE89FF894081C9010E8C02C0880F1A
:10268000991F0A94E2F7482B4083EE89FF898081E5
:102690000F8C02C0220F331F0A94E2F720952823E3
:1026A0002083DF91CF911F910F91FF90EF90DF90EA
:1026B000CF90BF90AF900895CF93DF93DC011E962B
:1026C0008D919C911F97EC01C05CDF4FFC01EE5B8C
:1026D000FF4F288139818081918128173907C9F7F7
:1026E0005696ED91FC915797408121E030E0C90169
:1026F0005C960C905C9702C0880F991F0A94E2F7D1
:102700008095842380835696ED91FC915797408164
:10271000C9015D960C905D9702C0880F991F0A94BD
:10272000E2F78095842380835696ED91FC9157972C
:102730004081C9015E960C905E9702C0880F991F78
:102740000A94E2F78095842380835696ED91FC915C
:10275000579780815F960C905F9702C0220F331FBE
:102760000A94E2F72095282320831C96ED91FC9192
:102770001D97EE5BFF4F8081918192938293DF9151
:10278000CF910895DC011C96ED91FC911D97E05CC2
:10279000FF4F2191319180819181281B390B2F733B
:1027A0003070C9010895DC011C96ED91FC911D97D4
:1027B000E05CFF4F20813181E054F040DF01AE5BEF
:1027C000BF4F8D919C9111972817390719F42FEF5E
:1027D0003FEF07C08D919C91E80FF91F8081282F52
:1027E00030E0C9010895DC011C96ED91FC911D9724
:1027F000E05CFF4F20813181E054F040DF01AE5BAF
:10280000BF4F8D919C9111972817390719F42FEF1D
:102810003FEF10C08D919C911197E80FF91F208117
:102820008D919C91119701968F73907011969C9346
:102830008E9330E0C9010895DC0191968C919197B7
:10284000882339F05496ED91FC915597808186FF4D
:10285000F9CF91961C920895CF93DF93EC01EE850A
:10286000FF85E05CFF4F20813181E054F0402F5F15
:102870003F4F2F733070DF01AE5BBF4F8D919C9146
:10288000119728173907D1F3E05CFF4F80819181C0
:10289000E054F040E80FF91F6083EE85FF85E05CAF
:1028A000FF4F31832083EE89FF89208181E090E012
:1028B0000F8C02C0880F991F0A94E2F7282B2083FF
:1028C00081E089A3EC89FD8980818064808381E037
:1028D00090E0DF91CF91089581E008951F931092C9
:1028E0008E0610928D0628EE33E040E050E02093F3
:1028F0008F063093900640939106509392066FEDA9
:1029000072E070938C0660938B068BE694E0909354
:102910009806809397068FEA94E090939A068093A6
:10292000990685EC90E090939C0680939B0684EC3E
:1029300090E090939E0680939D0680EC90E09093AB
:10294000A00680939F0681EC90E09093A20680936E
:10295000A10682EC90E09093A4068093A30686ECF7
:1029600090E09093A6068093A50614E01093A70626
:10297000B3E0B093A806A7E0A093A906F5E0F09312
:10298000AA06E1E0E093AB061092B0061092AF0603
:102990002093B1063093B2064093B3065093B40629
:1029A0007093AE066093AD0683EF94E09093BA0601
:1029B0008093B90687E395E09093BC068093BB06AD
:1029C0008DEC90E09093BE068093BD068CEC90E079
:1029D0009093C0068093BF0688EC90E09093C20667
:1029E0008093C10689EC90E09093C4068093C3065F
:1029F0008AEC90E09093C6068093C5068EEC90E03A
:102A00009093C8068093C7061093C906B093CA0670
:102A1000A093CB06F093CC06E093CD061092D2069D
:102A20001092D1062093D3063093D4064093D50656
:102A30005093D6067093D0066093CF068BE795E04F
:102A40009093DC068093DB068FEB95E09093DE0697
:102A50008093DD0685ED90E09093E0068093DF069D
:102A600084ED90E09093E2068093E10680ED90E0A3
:102A70009093E4068093E30681ED90E09093E60660
:102A80008093E50682ED90E09093E8068093E70658
:102A900086ED90E09093EA068093E9061093EB06AA
:102AA000B093EC06A093ED06F093EE06E093EF06EC
:102AB0001092F4061092F3062093F5063093F60672
:102AC0004093F7065093F8067093F2066093F10670
:102AD00083E096E09093FE068093FD0687E496E0FF
:102AE000909300078093FF0685E391E0909302079F
:102AF0008093010784E391E0909304078093030798
:102B000080E391E0909306078093050781E391E0CD
:102B1000909308078093070782E391E090930A0758
:102B20008093090786E391E090930C0780930B074D
:102B300010930D07B0930E07A0930F07F0931007A3
:102B4000E09311071F910895CF92DF92EF92FF92C9
:102B50000F931F93CF93DF937C016B018A01C0E039
:102B6000D0E00FC0D6016D916D01D701ED91FC91C0
:102B70000190F081E02DC7011995C80FD91F0150B0
:102B800010400115110571F7CE01DF91CF911F9112
:102B90000F91FF90EF90DF90CF900895EF92FF920A
:102BA0000F931F93CF93DF937C018B01C0E0D0E0A4
:102BB000F8010F5F1F4F6491662359F0D701ED9123
:102BC000FC910190F081E02DC7011995C80FD91F24
:102BD000EFCFCE01DF91CF911F910F91FF90EF903A
:102BE0000895DC01ED91FC910190F081E02D1995A3
:102BF00008959C01DB01ED91FC910190F081E02DA5
:102C0000CB01B90119950895EF92FF920F931F938D
:102C10008C01DC01ED91FC910190F081E02D6DE0E3
:102C200019957C01D801ED91FC910190F081E02D86
:102C3000C8016AE019959C012E0D3F1DC9011F9125
:102C40000F91FF90EF900895EF92FF920F931F93D3
:102C50007C010E94CE158C01C7010E9404169C01C4
:102C6000200F311FC9011F910F91FF90EF90089520
:102C7000EF92FF920F931F937C01DC01ED91FC9189
:102C80000190F081E02D19958C01C7010E94041676
:102C9000080F191FC8011F910F91FF90EF90089521
:102CA000EF92FF920F931F937C01DB01ED91FC915A
:102CB0000190F081E02DCB01B70119958C01C7017E
:102CC0000E940416080F191FC8011F910F91FF9051
:102CD000EF900895CF93DF93EC016115710519F41E
:102CE00020E030E00FC0DB010D900020E9F71197E4
:102CF000A61BB70BE881F9810280F381E02DAD01BD
:102D000019959C01C901DF91CF9108954F925F926F
:102D10007F928F929F92AF92BF92CF92DF92EF926B
:102D2000FF920F931F93DF93CF93CDB7DEB7A19799
:102D30000FB6F894DEBF0FBECDBF2C01742ECB01B1
:102D4000223008F42AE019A231E2C32ED12CCC0E95
:102D5000DD1E822E9924AA24BB24672D752FA50180
:102D600094010E94A53579018A01C801B701A50126
:102D700094010E948635472D461B0894C108D1084E
:102D80004A3010F4405D01C0495CF6014083E11413
:102D9000F1040105110521F07E2C5F2DC801DDCF66
:102DA000C201B6010E946A16A1960FB6F894DEBF62
:102DB0000FBECDBFCF91DF911F910F91FF90EF908C
:102DC000DF90CF90BF90AF909F908F907F905F905B
:102DD0004F900895DC012115310541F4ED91FC91EE
:102DE0000190F081E02D642F199508950E948616B8
:102DF0000895EF92FF920F931F937C010E94EA16B1
:102E00008C01C7010E9404169C01200F311FC901CB
:102E10001F910F91FF90EF900895EF92FF920F9303
:102E20001F939A017B0100E010E0B801A7010E9406
:102E3000EA161F910F91FF90EF900895CF92DF92C5
:102E4000EF92FF920F931F936C017B019A0100E0B8
:102E500010E0B801A7010E94EA168C01C6010E9489
:102E60000416080F191FC8011F910F91FF90EF90D2
:102E7000DF90CF900895EF92FF920F931F939A01E6
:102E8000E62EFF2400E010E0B801A7010E94EA1638
:102E90001F910F91FF90EF900895CF92DF92EF92E4
:102EA000FF920F931F936C01E62E9A01FF2400E01E
:102EB00010E0B801A7010E94EA168C01C6010E9429
:102EC0000416080F191FC8011F910F91FF90EF9072
:102ED000DF90CF900895CF92DF92EF92FF920F9301
:102EE0001F93CF93DF93EC016A017B01211531051C
:102EF00041F4E881F9810190F081E02D642F19956A
:102F00001FC02A303105D1F477FF17C0E881F9815D
:102F10000190F081E02D6DE219958C014427552731
:102F2000BA014C195D096E097F09CE012AE00E94A1
:102F300086169801280F391F04C02AE00E948616C1
:102F40009C01C901DF91CF911F910F91FF90EF90EC
:102F5000DF90CF900895EF92FF920F931F937C0123
:102F60000E946B178C01C7010E9404169C01200F60
:102F7000311FC9011F910F91FF90EF900895EF92BB
:102F8000FF920F931F937B019A010027F7FC009596
:102F9000102FB801A7010E946B171F910F91FF908E
:102FA000EF900895CF92DF92EF92FF920F931F93CD
:102FB0006C017B019A010027F7FC0095102FB801E6
:102FC000A7010E946B178C01C6010E940416080F0E
:102FD000191FC8011F910F91FF90EF90DF90CF90C4
:102FE00008950E946A1608957F928F929F92AF92E1
:102FF000BF92CF92DF92EF92FF920F931F93CF93E6
:10300000DF934C017A018B01722ECB01BA01A8012A
:1030100097010E94F02B882321F0C4016BEF72E02E
:1030200021C0C0E0D0E057016801E894D7F8C6019C
:10303000B5012FEF3FEF4FE75FE70E94F02B8823AA
:1030400051F4C601B5012FEF3FEF4FE75FE70E9454
:10305000C02B181614F0C1E0D0E0219739F0C4015C
:103060006FEF72E00E946A16EC0193C0C801B701CD
:103070002FEF3FEF4FE75FE40E94302B181654F01C
:10308000C801B7012FEF3FEF4FE75FEC0E94902B95
:10309000882324F4C40163E073E0E4CFC801B701DE
:1030A00020E030E040E050E00E94902B87FD03C01C
:1030B000C0E0D0E00EC0D401ED91FC910190F08110
:1030C000E02DC4016DE21995EC0117FB109517F97D
:1030D000109520E030E040E05FE3DD240BC0CA0142
:1030E000B90120E030E040E251E40E94842A9B01D3
:1030F000AC01D394D71498F3C801B7010E945D299D
:103100005B016C010E94B4277B018C01C401B801F2
:10311000A7012AE030E00E94EA16C80FD91F7720E5
:1031200039F0C40167E073E00E946A16C80FD91F26
:10313000C801B7010E94CD2C9B01AC01C601B501AD
:103140000E942C2924C020E030E040E251E40E949B
:103150008A297B018C010E94792C5B016C01CC24B3
:10316000B7FCC094DC2CC401B601A5012AE030E014
:103170000E946B17C80FD91FC601B5010E941B2CF6
:103180009B01AC01C801B7010E942C297A947720D9
:10319000D1F6CE01DF91CF911F910F91FF90EF906B
:1031A000DF90CF90BF90AF909F908F907F900895C9
:1031B0000E94F4170895EF92FF920F931F937C01E2
:1031C0000E94F4178C01C7010E940416080F191FF2
:1031D000C8011F910F91FF90EF900895EF92FF9219
:1031E0000F931F937C010E946A168C01C7010E94F5
:1031F0000416080F191FC8011F910F91FF90EF903F
:103200000895AF92BF92CF92DF92EF92FF920F9309
:103210001F93CF93DF935C016B01EE24FF24C0E08A
:10322000D0E010C0D501ED91FC9100811181C60163
:10323000BE010E94251C682FC501F8011995E80EF2
:10324000F91E2196F60184819581C817D90750F39C
:10325000C701DF91CF911F910F91FF90EF90DF9009
:10326000CF90BF90AF900895EF92FF920F931F936E
:103270007C010E9401198C01C7010E9404169C0167
:10328000200F311FC9011F910F91FF90EF900895FA
:10329000FC0144835583668377830895CF93DF933E
:1032A000EC010E94A525688779878A879B87E8813A
:1032B000F9810084F185E02DCE0119959C0197FFDD
:1032C00015C00E94A525288539854A855B85621B26
:1032D000730B840B950B2C813D814E815F816217AE
:1032E00073078407950718F32FEF3FEFC901DF91AC
:1032F000CF910895CF93DF93EC01CE010E944E1938
:103300009C0197FD0EC08D32910559F0C0970A9728
:1033100040F0E881F9810680F781E02DCE01199512
:10332000ECCFC901DF91CF9108956F927F928F9278
:103330009F92AF92BF92CF92DF92EF92FF920F9344
:103340001F93CF93DF93EC01662E0E947A19982E7B
:1033500077248824EE24FF2487010F2EF0E0AF2E7F
:10336000F0E0BF2EF0E8CF2EFFE3DF2EF02D961415
:1033700091F18DE2981619F4772473942CC09EE293
:10338000991619F48824839426C0892D80538A3095
:1033900010F5C801B7012AE030E040E050E00E949B
:1033A00086357B018C01E90CF11C011D111D80ED9E
:1033B0009FEFAFEFBFEFE80EF91E0A1F1B1F88201B
:1033C00051F0C601B5012DEC3CEC4CEC5DE30E94E4
:1033D0008A295B016C01E881F9810680F781E02D83
:1033E000CE011995CE010E944E19982F982E805328
:1033F0008A3008F4BCCF9E3209F4B9CF961509F48F
:10340000B6CF772041F010950095F094E094E11C40
:10341000F11C011D111D882049F0C801B7010E944F
:103420001B2CA60195010E948A2904C0C801B7017E
:103430000E941B2CDF91CF911F910F91FF90EF9075
:10344000DF90CF90BF90AF909F908F907F906F90C4
:10345000089561E00E94951908959F92AF92BF92DE
:10346000CF92DF92EF92FF920F931F93CF93DF9350
:103470006C01B62E0E947A19EC0197FF04C0EE246D
:10348000FF2487014AC09924EE24FF248701AB2C36
:10349000BB24CA15DB0529F1CD32D10519F49924D5
:1034A00093941FC0CE01C0970A97D8F4C801B70102
:1034B0002AE030E040E050E00E9486357B018C013C
:1034C000CE01AA2797FDA095BA2FE80EF91E0A1F74
:1034D0001B1F80ED9FEFAFEFBFEFE80EF91E0A1F35
:1034E0001B1FD601ED91FC910680F781E02DC601EE
:1034F0001995C6010E944E19EC01C0970A9748F22F
:10350000CA15DB0531F2992041F010950095F09431
:10351000E094E11CF11C011D111DB701C801DF91F0
:10352000CF911F910F91FF90EF90DF90CF90BF90C0
:10353000AF909F90089561E00E942D1A0895CF9357
:10354000DF93EC010E94A525688779878A879B878E
:10355000E881F9810680F781E02DCE0119959C0163
:1035600097FF15C00E94A525288539854A855B856A
:10357000621B730B840B950B2C813D814E815F8107
:10358000621773078407950718F32FEF3FEFC90100
:10359000DF91CF910895CF92DF92FF920F931F9307
:1035A000CF93DF93082FF92E6B01142F61E173E0A5
:1035B0000E944422C6010E949F1ABC01C12FD0E084
:1035C00008C0802F9F2D0E944D21C6010E949F1A86
:1035D000BC0177FD03C06C177D0799F7802F9F2DE5
:1035E000DF91CF911F910F91FF90DF90CF900895C1
:1035F0000F931F93CF93DF93182F092FEB0161E1F6
:1036000073E00E94442204C0812F902F0E944D211C
:10361000CE010E949F1ABC0197FFF6CF812F902FF9
:10362000DF91CF911F910F910895AF92BF92CF92EA
:10363000DF92EF92FF920F931F93CF93DF935C0182
:103640007A0189012115310519F4C0E0D0E014C0D8
:10365000C0E0D0E0C62EDD240CC0C5010E949F1A38
:1036600097FD0AC08C159D0539F0F70181937F0104
:103670002196C017D10788F3CE01DF91CF911F911A
:103680000F91FF90EF90DF90CF90BF90AF90089593
:10369000CF92DF92EF92FF920F931F93CF93DF931E
:1036A0006C018B017A01C0E0D0E009C0C6010E9424
:1036B0009F1A97FD07C0F80181938F012196CE15BF
:1036C000DF05A0F3CE01DF91CF911F910F91FF9005
:1036D000EF90DF90CF9008956F927F928F929F929C
:1036E000AF92BF92CF92DF92EF92FF920F931F9310
:1036F000CF93DF933C017B014A0159016801FB0133
:1037000080818823A1F1C0E0D0E027C0F701EC0F51
:10371000FD1F808190E02817390711F0C0E0D0E04C
:10372000F701EC0FFD1F808190E02817390721F485
:103730002196C815D905D8F4C114D10471F0F5014A
:10374000E00FF11F808190E02817390731F40F5FF7
:103750001F4F0C151D0518F00CC000E010E0C30150
:103760000E949F1A9C011816190684F202C081E07B
:1037700001C080E0DF91CF911F910F91FF90EF90FA
:10378000DF90CF90BF90AF909F908F907F906F9081
:1037900008950F931F939A01DB010D900020E9F724
:1037A000AD0141505040461B570BD9010D900020F0
:1037B000E9F71197A21BB30B8D010E946C1B1F919F
:1037C0000F91089540E050E00E94C91B08950F93A7
:1037D0001F9320E030E000E010E00E946C1B1F917E
:1037E0000F910895FC01848195816817790748F449
:1037F0000190F081E02D309721F0E60FF71F8081D6
:10380000089580E00895FC01848195816817790707
:1038100030F40190F081E02DE60FF71F408308950A
:10382000FC019B01848195816817790728F46081E8
:1038300071816115710529F41092130763E177E036
:1038400002C0620F731FCB010895FC018481958132
:103850006817790748F40190F081E02D309721F046
:10386000E60FF71F8081089580E00895FC01019024
:10387000F081E02D309729F40895861709F44083EC
:10388000319680818823C9F70895FC018081918158
:10389000009729F420E030E040E050E004C00E94AE
:1038A000592F9B01AC01B901CA010895CF92DF9253
:1038B000EF92FF920F931F93CF93DF936C01DC0184
:1038C000ED90FC901197E114F104E9F11496CD917B
:1038D000DC9115972097B9F1870102C00F5F1F4F48
:1038E000F801808190E00E940436892BB9F7219776
:1038F000CE0DDF1D01C02197888190E00E94043623
:10390000892B19F0C017D107B0F7FE013196E01BE3
:10391000F10BD6011596FC93EE9314972D913C91E3
:103920002017310728F4C901B801AF010E94892F7F
:10393000D601ED91FC91119714968D919C9115975C
:10394000E80FF91F1082DF91CF911F910F91FF9027
:10395000EF90DF90CF900895CF93DF93FC01C0816B
:10396000D181209729F407C090E00E9414368993F2
:1039700088818823C9F7DF91CF910895CF93DF9392
:10398000FC01C081D181209729F407C090E00E94FA
:103990000C36899388818823C9F7DF91CF910895E8
:1039A000EF92FF920F931F93CF93DF93FC01DB0104
:1039B0008617970719F12481358114968D919C9172
:1039C000159728173907E1F4232BC1F0E080F18027
:1039D000CD91DC910FC090E00E940C368C01888163
:1039E00090E00E940C360817190751F40894E11C66
:1039F000F11C2196F7018081882369F781E001C0DD
:103A000080E0DF91CF911F910F91FF90EF9008958B
:103A1000AF92BF92CF92DF92EF92FF920F931F93DC
:103A2000CF93DF93FC015B017A01DB0114962D91AA
:103A30003C9115972115310559F1848195810097A5
:103A400039F18217930720F14817590720F07C01BC
:103A50000894E108F10800811181C801CFEFDFEF80
:103A60006801CE0CDF1C10C0F501608171810E94DD
:103A7000F22F9C01009771F0801B910BE816F9065C
:103A800008F0EC01C9010196C816D90668F702C012
:103A9000CFEFDFEFCE01DF91CF911F910F91FF901C
:103AA000EF90DF90CF90BF90AF900895FC01DB01C5
:103AB0004481558114968D919C911597481B590B03
:103AC000CF010E94081D0895CF93DF93FC01DB0115
:103AD000848195814817590760F4C081D1816D9127
:103AE0007C91CE01840F951F0E94F22F9C010097BC
:103AF00019F42FEF3FEF02C02C1B3D0BC901DF91E2
:103B0000CF91089540E050E00E94641D0895DF9237
:103B1000EF92FF920F931F93CF93DF93EC018C8171
:103B20009D8148175907B8F47A010894E11CF11CEB
:103B3000E881F981EE0DFF1DD08010820881198186
:103B4000C80170E00E94E72F9C010E0D1F1DF801B7
:103B5000D082009719F4EFEFFFEF05C088819981BB
:103B6000F901E81BF90BCF01DF91CF911F910F9164
:103B7000FF90EF90DF900895FC0144815581415002
:103B800050400E94871D0895CF93DF93FC018481EC
:103B900095814817590758F4C081D181CE01840F0F
:103BA000951F70E00E94AF2F9C01009719F42FEF32
:103BB0003FEF02C02C1B3D0BC901DF91CF9108954F
:103BC00040E050E00E94C41D08950F931F93CF93CF
:103BD000DF93FC018B0141155105F9F06115710569
:103BE000E1F0848195812817390718F0FB011082D4
:103BF00014C041505040EC01C21BD30B4C175D0761
:103C000008F4EA0160817181620F731FC801AE017F
:103C10000E94D82FC00FD11F1882DF91CF911F9122
:103C20000F910895FC01DB012481358114964D919B
:103C30005C91159724173507A8F080819181009732
:103C400089F06D917C916115710561F0241B350B34
:103C5000820F931F0E94BA2F9C0180E0232B19F43E
:103C600081E0089580E00895DC01FB0114968D91B8
:103C70009C911597892B31F461157105A9F090E09D
:103C8000808108C00D90BC91A02D6115710529F4AB
:103C900090E08C91882349F407C0CD010E94BA2F8F
:103CA0009C0190E0232B09F491E0892F0895CF9394
:103CB000DF939C01FB01EC01A881B981109729F0E9
:103CC0006081718161157105D1F4C081D181209726
:103CD00059F084819581892B39F0888190E02227E1
:103CE0003327281B390B12C0109771F0F90184811A
:103CF0009581892B49F08C91282F30E007C0CD01A8
:103D00000E94BA2F9C0102C020E030E0C901DF917F
:103D1000CF9108950E94571E892F8095881F88276C
:103D2000881F08950E94571E20E0181619060CF0EF
:103D300021E0822F08950E94571E20E018161906D0
:103D40000CF421E0822F08950E94571E892F881FAE
:103D50008827881F0895FC01DB0124813581149692
:103D60008D919C9115972817390711F020E007C015
:103D7000CF010E94571E20E0892B09F421E0822FF9
:103D80000895FC01DB0114962D913C9115978481D7
:103D90009581821B930B84179507A0F080819181F8
:103DA000009781F06D917C916115710559F0840F38
:103DB000951FA9010E94CA2F9C0180E0232B19F4B2
:103DC00081E0089580E00895FC01DB0124813581C4
:103DD00014968D919C9115972817390710F480E05F
:103DE0000895CF0140E050E00E94C11E08950F9356
:103DF0001F93CF93DF93EC018B016F5F7F4F88811F
:103E000099810E94A534009711F480E005C0998340
:103E100088831B830A8381E0DF91CF911F910F91EB
:103E200008952F923F924F925F926F927F928F925E
:103E30009F92AF92BF92CF92DF92EF92FF920F9339
:103E40001F93CF93DF935C012B014A01DC01149691
:103E50000D911C9115970115110509F4D4C0FB01B2
:103E6000C480D580C114D10409F4CDC0DA01149600
:103E70006D907C9015976C187D08FC01E080F180B6
:103E80006114710491F01BC0D4016C9111967C9166
:103E9000119714964D915C9115978C2F0E94892F44
:103EA000F401E480F580EC0EFD1ED2016D917C9151
:103EB000C7010E94F22FEC01009731F7A4C077FEF2
:103EC00002C067012EC0FB0120803180E8013CC0A8
:103ED0008E010E191F09C601B701A8010E94892F82
:103EE0000C0D1D1DD4016C9111967C9111971496A7
:103EF0004D915C911597C8010E94892FF401C480EF
:103F0000D580C00ED11ED2011496ED90FC9015976D
:103F1000EC0EFD1EF50184819581860D971D95831C
:103F20008483D2016D917C91C7010E94F22FEC0134
:103F3000009771F6C601B7010E94C32F64C07B01D0
:103F4000EC0CFD1CC60DD71DC701B1010E94F22F5C
:103F5000BC010097A1F7C017D10709F454C0F501BF
:103F6000828193818C179D0708F044C0C501BE0172
:103F70000E94F71E8823F1F546C0C501B201A901D0
:103F80000E94081DEC0197FD3EC0D5016D917C910A
:103F90001197F201848195818C0F9D1F680F791F05
:103FA00014964D915C911597481B590BCB01860DCA
:103FB000971D0E94922FD50114968D919C91159773
:103FC000860D971D15969C938E931497ED91FC91F9
:103FD0001197E80FF91F10822D913C912C0F3D1F76
:103FE000F4016081718144815581C9010E94892F4A
:103FF0009E0105C0D50114962D913C911597215035
:10400000304037FFBACFDF91CF911F910F91FF90D2
:10401000EF90DF90CF90BF90AF909F908F907F9068
:104020006F905F904F903F902F900895CF93DF93C4
:10403000EC0188819981892B29F08A819B818617DF
:10404000970760F4CE010E94F71E882341F08C810F
:104050009D81892B19F4E881F981108281E0DF913B
:10406000CF910895EF92FF920F931F93CF93DF9319
:10407000EC017B016C817D81E114F104C1F04115FB
:10408000510599F08A01060F171FB8010E941620EA
:10409000882369F0888199812C813D81820F931F4B
:1040A000B7010E94C32F1D830C8381E001C080E013
:1040B000DF91CF911F910F91FF90EF900895EF92B4
:1040C000FF920F931F93DF93CF93CDB7DEB72B975C
:1040D0000FB6F894DEBF0FBECDBF7C01CB01BA0195
:1040E0008E010F5F1F4FA8012AE030E00E947E3052
:1040F000F80101900020E9F73197E01BF10BC701AF
:10410000B801AF010E9432202B960FB6F894DEBFA3
:104110000FBECDBFCF91DF911F910F91FF90EF9018
:104120000895EF92FF920F931F93DF93CF93CDB734
:10413000DEB72C970FB6F894DEBF0FBECDBF7C0163
:10414000CB01BA018E010F5F1F4FA8012AE030E0BA
:104150000E942D30F80101900020E9F73197E01B13
:10416000F10BC701B801AF010E9432202C960FB6A7
:10417000F894DEBF0FBECDBFCF91DF911F910F919D
:10418000FF90EF900895EF92FF920F931F93DF93AC
:10419000CF9300D000D0CDB7DEB77C01CB018E012C
:1041A0000F5F1F4FB8014AE050E00E94A330F801B2
:1041B00001900020E9F73197E01BF10BC701B8012E
:1041C000AF010E94322026960FB6F894DEBF0FBED4
:1041D000CDBFCF91DF911F910F91FF90EF90089588
:1041E000EF92FF920F931F93DF93CF93CDB7DEB77C
:1041F00027970FB6F894DEBF0FBECDBF7C01CB0171
:104200008E010F5F1F4FB8014AE050E00E940C3052
:10421000F80101900020E9F73197E01BF10BC7018D
:10422000B801AF010E94322027960FB6F894DEBF86
:104230000FBECDBFCF91DF911F910F91FF90EF90F7
:104240000895EF92FF920F931F93DF93CF9300D0C7
:104250000F92CDB7DEB77C01862F90E08E010F5F05
:104260001F4FB8014AE050E00E940C30F801019065
:104270000020E9F73197E01BF10BC701B801AF014E
:104280000E9432200F900F900F900F90CF91DF91EE
:104290001F910F91FF90EF900895DF93CF930F92AE
:1042A0000F92CDB7DEB769831A82BE016F5F7F4F71
:1042B00041E050E00E9432200F900F90CF91DF91AB
:1042C00008956115710511F480E00895DB010D90EA
:1042D0000020E9F71197A61BB70BAD010E94322011
:1042E0000895FB0160817181448155810E943220D3
:1042F0000895CF93DF93EC0188819981009711F0A5
:104300000E940D34198218821D821C821B821A821F
:10431000DF91CF9108950F931F93182F092F0E94BB
:104320005F20882321F4812F902F0E947921812FF3
:10433000902F1F910F9108950F931F93182F092FFE
:104340000E949120882321F4812F902F0E947921AF
:10435000812F902F1F910F9108950F931F93182F66
:10436000092F0E94C320882321F4812F902F0E94BF
:104370007921812F902F1F910F9108950F931F93F3
:10438000182F092F0E94F020882321F4812F902FCD
:104390000E947921812F902F1F910F9108950F93E3
:1043A0001F93182F092F0E942121882321F4812F88
:1043B000902F0E947921812F902F1F910F910895A6
:1043C0000F931F93182F092F0E944D21882321F44A
:1043D000812F902F0E947921812F902F1F910F9173
:1043E00008950F931F93182F092F6115710561F020
:1043F000DB010D900020E9F71197A61BB70BAD016B
:104400000E943220882321F4812F902F0E9479214D
:10441000812F902F1F910F9108950F931F93182FA5
:10442000092FFB0160817181448155810E943220F6
:10443000882321F4812F902F0E947921812F902FA2
:104440001F910F910895EF92FF920F931F93CF93B7
:10445000DF93EC017B018A01BA010E9416208823B8
:1044600021F4CE010E94792107C01D830C8388812D
:104470009981B7010E94C32FCE01DF91CF911F9187
:104480000F91FF90EF900895CF93DF93EC01198285
:1044900018821B821A821D821C821E826115710580
:1044A00051F0DB010D900020E9F71197A61BB70B27
:1044B000AD010E942322DF91CF910895CF93DF9326
:1044C000EC01198218821B821A821D821C821E82B4
:1044D0006115710551F0DB010D900020E9F711978E
:1044E000A61BB70BAD010E942322DF91CF91089547
:1044F0000F931F93182F092F6115710559F0DB01D8
:104500000D900020E9F71197A61BB70BAD010E9493
:10451000232202C00E947921812F902F1F910F9199
:104520000895EF92FF920F931F93DF93CF93CDB730
:10453000DEB7A1970FB6F894DEBF0FBECDBF8C01DA
:10454000FC0111821082138212821582148216825B
:10455000CB01BA017E010894E11CF11CA70130E0F7
:104560000E947E30C801B7010E947822A1960FB642
:10457000F894DEBF0FBECDBFCF91DF911F910F9199
:10458000FF90EF900895EF92FF920F931F93DF93A8
:10459000CF93CDB7DEB7A1970FB6F894DEBF0FBEAD
:1045A000CDBF8C01FC011182108213821282158210
:1045B00014821682CB01BA017E010894E11CF11C21
:1045C000A70130E00E947E30C801B7010E94782226
:1045D000A1960FB6F894DEBF0FBECDBFCF91DF918D
:1045E0001F910F91FF90EF900895EF92FF920F931C
:1045F0001F93DF93CF93CDB7DEB7A2970FB6F89492
:10460000DEBF0FBECDBF8C01FC0111821082138270
:104610001282158214821682CB01BA017E0108949F
:10462000E11CF11CA70130E00E942D30C801B70148
:104630000E947822A2960FB6F894DEBF0FBECDBFBF
:10464000CF91DF911F910F91FF90EF900895EF921E
:10465000FF920F931F93DF93CF93CDB7DEB7A2974F
:104660000FB6F894DEBF0FBECDBF8C01FC011182E6
:10467000108213821282158214821682CB01BA0133
:104680007E010894E11CF11CA70130E00E942D304E
:10469000C801B7010E947822A2960FB6F894DEBF37
:1046A0000FBECDBFCF91DF911F910F91FF90EF9083
:1046B0000895EF92FF920F931F93DF93CF93CDB79F
:1046C000DEB761970FB6F894DEBF0FBECDBF8C0189
:1046D000CB01F8011182108213821282158214829A
:1046E00016827E010894E11CF11CB70150E00E9483
:1046F000A330C801B7010E94782261960FB6F894E2
:10470000DEBF0FBECDBFCF91DF911F910F91FF9004
:10471000EF900895EF92FF920F931F93DF93CF9343
:10472000CDB7DEB761970FB6F894DEBF0FBECDBF31
:104730008C01CB01F8011182108213821282158242
:10474000148216827E010894E11CF11CB70150E02E
:104750000E94A330C801B7010E94782261960FB66B
:10476000F894DEBF0FBECDBFCF91DF911F910F91A7
:10477000FF90EF900895EF92FF920F931F93DF93B6
:10478000CF93CDB7DEB762970FB6F894DEBF0FBEFA
:10479000CDBF8C01CB01F8011182108213821282ED
:1047A0001582148216827E010894E11CF11CB70167
:1047B00050E00E940C30C801B7010E947822629636
:1047C0000FB6F894DEBF0FBECDBFCF91DF911F9122
:1047D0000F91FF90EF900895EF92FF920F931F9328
:1047E000DF93CF93CDB7DEB762970FB6F894DEBFF5
:1047F0000FBECDBF8C01CB01F80111821082138254
:1048000012821582148216827E010894E11CF11C2A
:10481000B70150E00E940C30C801B7010E94782215
:1048200062960FB6F894DEBF0FBECDBFCF91DF9179
:104830001F910F91FF90EF900895EF92FF920F93C9
:104840001F93DF93CF93CDB7DEB729970FB6F894B8
:10485000DEBF0FBECDBF8C01862FF8011182108202
:104860001382128215821482168290E07E010894CF
:10487000E11CF11CB70150E00E94A330C801B70150
:104880000E94782229960FB6F894DEBF0FBECDBFE6
:10489000CF91DF911F910F91FF90EF900895EF92CC
:1048A000FF920F931F93DF93CF93CDB7DEB7299776
:1048B0000FB6F894DEBF0FBECDBF8C01862FF80176
:1048C000118210821382128215821482168290E065
:1048D0007E010894E11CF11CB70150E00E94A33056
:1048E000C801B7010E94782229960FB6F894DEBF5E
:1048F0000FBECDBFCF91DF911F910F91FF90EF9031
:104900000895DF93CF930F920F92CDB7DEB7FC01DE
:104910001182108213821282158214821682698398
:104920001A82BE016F5F7F4F0E9478220F900F9016
:10493000CF91DF910895DF93CF930F920F92CDB770
:10494000DEB7FC011182108213821282158214825A
:10495000168269831A82BE016F5F7F4F0E947822A0
:104960000F900F90CF91DF910895BF92CF92DF9279
:10497000EF92FF920F931F93CF93DF93082FB92EDF
:104980006B017A01E9012417350710F4EA01790176
:10499000802F9B2D62E173E00E944422D601149681
:1049A0008D919C9115978E159F05D0F08C179D07C2
:1049B00008F4EC01D601ED91FC911197EC0FFD1F6D
:1049C000108110826D917C916E0D7F1D802F9B2D2B
:1049D0000E947822D601ED91FC91EC0FFD1F10830F
:1049E000802F9B2DDF91CF911F910F91FF90EF9022
:1049F000DF90CF90BF9008950F931F938C01FB0120
:104A0000248135810E94B524C8011F910F9108951A
:104A1000CF93DF93EC01FB018617970761F060816C
:104A200071816115710529F0448155810E9423220D
:104A300002C00E947921CE01DF91CF910895FC013F
:104A400011821082138212821582148216820E94B1
:104A500008250895FC0111821082138212821582AA
:104A6000148216820E9408250895FC01808191819C
:104A70000E940D340895FC01808191810E940D34C3
:104A80000895FC0120E030E08081882311F421E0CA
:104A900030E0C9010895FC0181E080830895089504
:104AA00008950E940D3408950E940D3408950E94C7
:104AB000703308950E94703308951F920F920FB6BD
:104AC0000F9211242F933F938F939F93AF93BF9394
:104AD0008091180790911907A0911A07B0911B07B0
:104AE00030911C070196A11DB11D232F2D5F2D377D
:104AF00020F02D570196A11DB11D20931C07809316
:104B0000180790931907A0931A07B0931B07809179
:104B1000140790911507A0911607B09117070196F9
:104B2000A11DB11D8093140790931507A09316073C
:104B3000B0931707BF91AF919F918F913F912F91A4
:104B40000F900FBE0F901F9018958FB7F89420917B
:104B500018073091190740911A0750911B078FBF12
:104B6000B901CA0108959FB7F894209114073091B4
:104B70001507409116075091170786B5A89B06C0E8
:104B80008F3F21F02F5F3F4F4F4F5F4F9FBF542FFD
:104B9000432F322F2227280F311D411D511D82E046
:104BA000220F331F441F551F8A95D1F7B901CA013F
:104BB00008959B01AC017FB7F89480911407909100
:104BC0001507A0911607B091170766B5A89B05C0F9
:104BD0006F3F19F00196A11DB11D7FBFBA2FA92FFC
:104BE000982F8827860F911DA11DB11D62E0880FA7
:104BF000991FAA1FBB1F6A95D1F7BC012DC0FFB733
:104C0000F8948091140790911507A0911607B09120
:104C10001707E6B5A89B05C0EF3F19F00196A11D47
:104C2000B11DFFBFBA2FA92F982F88278E0F911D76
:104C3000A11DB11DE2E0880F991FAA1FBB1FEA95B5
:104C4000D1F7861B970B885E9340C8F22150304005
:104C50004040504068517C4F2115310541055105B8
:104C600071F60895019739F0880F991F880F991FE1
:104C700002970197F1F70895789484B5826084BD16
:104C800084B5816084BD85B5826085BD85B5816050
:104C900085BDEEE6F0E0808181608083E1E8F0E0B0
:104CA0001082808182608083808181608083E0E8DF
:104CB000F0E0808181608083E1EBF0E080818460BE
:104CC0008083E0EBF0E0808181608083E1E9F0E0C7
:104CD000808182608083808181608083E0E9F0E070
:104CE000808181608083E1EAF0E08081826080835E
:104CF000808181608083E0EAF0E080818160808350
:104D0000E1E2F1E080818260808380818160808344
:104D1000E0E2F1E0808181608083EAE7F0E0808179
:104D200084608083808182608083808181608083D1
:104D30008081806880831092C1000895CF93DF93B3
:104D4000482F50E0CA0188569E4FFC0134914E5ABC
:104D50005E4FFA018491882369F190E0880F991FD2
:104D6000FC01EC5FFE4FA591B491FC01E25EFE4FA9
:104D7000C591D491662351F42FB7F8948C91932F59
:104D8000909589238C93888189230BC0623061F4CC
:104D90002FB7F8948C91932F909589238C938881C9
:104DA000832B88832FBF06C09FB7F8948C91832BE9
:104DB0008C939FBFDF91CF910895893009F449C04A
:104DC0008A30A0F4843051F1853040F4823079F19A
:104DD000833000F5813009F063C026C0873079F157
:104DE000883098F5863009F05BC025C08D3009F415
:104DF00042C08E3028F48B30B1F18C30C0F52DC01C
:104E0000803109F442C0813109F445C08F3009F086
:104E100047C037C0809180008F7703C080918000A9
:104E20008F7D80938000089584B58F7702C084B50C
:104E30008F7D84BD08958091B0008F7703C08091ED
:104E4000B0008F7D8093B0000895809190008F779F
:104E500007C0809190008F7D03C080919000877F74
:104E60008093900008958091A0008F7707C0809173
:104E7000A0008F7D03C08091A000877F8093A00059
:104E80000895809120018F7703C0809120018F7D4C
:104E900080932001089580912001877F80932001D5
:104EA0000895FF920F931F93F62E482F50E0CA01EA
:104EB00082529E4FFC012491CA0188569E4FFC01EC
:104EC00014914E5A5E4FFA0104910023C9F0222337
:104ED00019F0822F0E94DD26E02FF0E0EE0FFF1F79
:104EE000E25EFE4FA591B4919FB7F894FF2021F4A4
:104EF0008C911095812302C08C91812B8C939FBF44
:104F00001F910F91FF9008950F931F93482F50E02A
:104F1000CA0182529E4FFC012491CA0188569E4FBD
:104F2000FC0104914E5A5E4FFA011491112319F4B9
:104F300020E030E015C0222319F0822F0E94DD26E8
:104F4000812F90E0880F991F885C9E4FFC01A591EE
:104F5000B4918C9120E030E0802311F021E030E02A
:104F6000C9011F910F910895EF92FF920F931F9324
:104F70007B018C0120E030E040E05FE40E94602B88
:104F800088238CF0C801B70120E030E040E05FE406
:104F90000E942C290E94792C9B01AC0120503040AA
:104FA0004040504806C0C801B7010E94792C9B01BF
:104FB000AC01B901CA011F910F91FF90EF900895C4
:104FC000A0E0B0E0E6EEF7E20C94C735DC012B017F
:104FD000FA019C91923008F439C1EB01888182304A
:104FE00008F433C1943069F4843009F02FC111966C
:104FF0009C9111978981981709F428C1A3E1B3E026
:1050000025C1843009F421C18230A9F4923009F01D
:105010001DC19A01AD0188E0EA010990AE01E901E4
:1050200009929E018150C1F7E201898111969C91FC
:105030008923818308C1923009F407C112962D900B
:105040003C901397EB018A819B811496AD90BD90A3
:10505000CD90DC901797EC80FD800E811F8191012F
:10506000281B390BB90137FF04C066277727621B5D
:10507000730B603271050CF061C0121613066CF5EB
:1050800037014801062E04C096948794779467945C
:105090000A94D2F721E030E040E050E004C0220F53
:1050A000331F441F551F6A95D2F7215030404040AE
:1050B00050402E213F214023512321153105410528
:1050C000510521F021E030E040E050E079018A0113
:1050D000E628F728082919293CC0232BD1F1260EF0
:1050E000371E35014601062E04C0969487947794A6
:1050F00067940A94D2F721E030E040E050E004C029
:10510000220F331F441F551F6A95D2F7215030409C
:10511000404050402A213B214C215D212115310581
:105120004105510521F021E030E040E050E0590117
:105130006A01A628B728C828D9280BC0821593056C
:105140002CF01C01AA24BB24650103C0EE24FF241B
:10515000870111969C91D20111968C91981709F4B0
:1051600045C0992339F0A80197012A193B094C0938
:105170005D0906C0A60195012E193F09400B510B90
:1051800057FD08C0118233822282248335834683EF
:1051900057831DC081E0818333822282882799272B
:1051A000DC01821B930BA40BB50B84839583A68330
:1051B000B7830DC0220F331F441F551F248335832F
:1051C00046835783828193810197938382832481CD
:1051D000358146815781DA01C9010197A109B109D9
:1051E0008F5F9F4FAF4FBF4328F30BC09183338234
:1051F0002282EA0CFB1C0C1D1D1DE482F582068335
:10520000178383E08083248135814681578157FF4E
:105210001AC0C901AA2797FDA095BA2F8170907076
:10522000A070B0705695479537952795822B932B94
:10523000A42BB52B84839583A683B7838281938126
:10524000019693838283DF0101C0D201CD01CDB7E6
:10525000DEB7E2E10C94E335A0E2B0E0E2E3F9E28C
:105260000C94D33569837A838B839C832D833E830F
:105270004F835887E9E0EE2EF12CEC0EFD1ECE0197
:105280000196B7010E946A2E8E010F5E1F4FCE015C
:105290000596B8010E946A2E8A8991E089278A8B37
:1052A000C701B801AE01475E5F4F0E94E0270E9430
:1052B000952DA096E6E00C94EF35A0E2B0E0E3E691
:1052C000F9E20C94D33569837A838B839C832D8395
:1052D0003E834F835887F9E0EF2EF12CEC0EFD1E34
:1052E000CE010196B7010E946A2E8E010F5E1F4FFC
:1052F000CE010596B8010E946A2EC701B801AE0121
:10530000475E5F4F0E94E0270E94952DA096E6E041
:105310000C94EF35A0E2B0E0E0E9F9E20C94C73577
:1053200069837A838B839C832D833E834F83588745
:10533000CE010196BE01675F7F4F0E946A2ECE01AB
:105340000596BE016F5E7F4F0E946A2E998592304E
:1053500088F089898230C8F0943019F4823051F491
:1053600004C0843029F4923081F483E193E0C6C014
:10537000923049F420E09A858A89981321E02A879F
:10538000CE010996BBC0823049F420E09A858A8913
:10539000981321E02A8BCE014196B0C02D843E8423
:1053A0004F8458886D887E888F88988CEE24FF24DF
:1053B0008701AA24BB24650140E050E060E070E072
:1053C000E0E0F0E0C10181709070892BE9F0E60C1B
:1053D000F71C081D191D9A01AB012A0D3B1D4C1D20
:1053E0005D1D80E090E0A0E0B0E0E614F704080561
:1053F000190520F481E090E0A0E0B0E0BA01A90135
:10540000480F591F6A1F7B1FAA0CBB1CCC1CDD1C3C
:1054100097FE08C081E090E0A0E0B0E0A82AB92A99
:10542000CA2ADB2A3196E032F10549F0660C771C76
:10543000881C991C5694479437942794C3CFFA85B7
:10544000EA892B893C898B859C85280F391F2E5F23
:105450003F4F17C0CA0181709070892B61F016957B
:105460000795F794E79480E090E0A0E0B0E8E82AA0
:10547000F92A0A2B1B2B76956795579547952F5F31
:105480003F4F77FDE7CF0CC0440F551F661F771FB6
:1054900017FD4160EE0CFF1C001F111F2150304012
:1054A000403090E0590790E0690790E4790760F395
:1054B0002B8F3C8FDB01CA018F779070A070B0708A
:1054C00080349105A105B10561F447FD0AC0E114DE
:1054D000F1040105110529F0405C5F4F6F4F7F4FCC
:1054E00040781A8EFE1711F081E08A8F4D8F5E8F03
:1054F0006F8F78A383E0898FCE0149960E94952D06
:10550000A096E2E10C94E335A8E1B0E0EAE8FAE223
:105510000C94CF3569837A838B839C832D833E8360
:105520004F835887B9E0EB2EF12CEC0EFD1ECE0117
:105530000196B7010E946A2E8E010F5E1F4FCE01A9
:105540000596B8010E946A2E2985223008F47EC093
:105550003989323010F4B8017CC08A859A8989274C
:105560008A87243011F0223031F4231709F06EC0FD
:1055700063E173E06EC0343039F41D861E861F86E9
:10558000188A1C861B8604C0323021F484E0898787
:10559000B7015FC02B853C858B899C89281B390B03
:1055A0003C872B87ED84FE840F851889AD88BE88E3
:1055B000CF88D88CEA14FB040C051D0540F4EE0CD2
:1055C000FF1C001F111F215030403C872B8720E01B
:1055D00030E040E050E080E090E0A0E0B0E460E047
:1055E00070E0EA14FB040C051D0540F0282B392B54
:1055F0004A2B5B2BEA18FB080C091D09B695A795E9
:1056000097958795EE0CFF1C001F111F6F5F7F4F52
:105610006F31710531F7DA01C9018F779070A07091
:10562000B07080349105A105B10561F427FD0AC071
:10563000E114F1040105110529F0205C3F4F4F4FA3
:105640005F4F20782D873E874F87588BBE01675F5D
:105650007F4FCB010E94952D6896EAE00C94EB35C4
:10566000A8E1B0E0E6E3FBE20C94D33569837A83EA
:105670008B839C832D833E834F83588789E0E82E5C
:10568000F12CEC0EFD1ECE010196B7010E946A2E90
:105690008E010F5E1F4FCE010596B8010E946A2E43
:1056A0008985823040F08989823028F0C701B801AD
:1056B0000E94E22E01C08FEF6896E6E00C94EF3571
:1056C000A8E1B0E0E6E6FBE20C94D33569837A8387
:1056D0008B839C832D833E834F83588789E0E82EFC
:1056E000F12CEC0EFD1ECE010196B7010E946A2E30
:1056F0008E010F5E1F4FCE010596B8010E946A2EE3
:105700008985823040F08989823028F0C701B8014C
:105710000E94E22E01C08FEF6896E6E00C94EF3510
:10572000A8E1B0E0E6E9FBE20C94D33569837A8323
:105730008B839C832D833E834F83588789E0E82E9B
:10574000F12CEC0EFD1ECE010196B7010E946A2ECF
:105750008E010F5E1F4FCE010596B8010E946A2E82
:105760008985823040F08989823028F0C701B801EC
:105770000E94E22E01C081E06896E6E00C94EF35CD
:10578000A8E1B0E0E6ECFBE20C94D33569837A83C0
:105790008B839C832D833E834F83588789E0E82E3B
:1057A000F12CEC0EFD1ECE010196B7010E946A2E6F
:1057B0008E010F5E1F4FCE010596B8010E946A2E22
:1057C0008985823040F08989823028F0C701B8018C
:1057D0000E94E22E01C081E06896E6E00C94EF356D
:1057E000A8E1B0E0E6EFFBE20C94D73569837A8359
:1057F0008B839C832D833E834F835887CE010196F4
:10580000BE01675F7F4F0E946A2ECE010596BE01E2
:105810006F5E7F4F0E946A2E8985823028F020E0DB
:1058200030E08989823010F421E030E0822F6896E0
:10583000E2E00C94F335A8E0B0E0E1E2FCE20C9485
:10584000D0359B01AC0183E08983DA01C901882747
:10585000B7FD83959927AA27BB27B82E21153105B7
:105860004105510519F482E089833AC08823A9F0E3
:10587000203080E0380780E0480780E8580729F4A6
:1058800060E070E080E09FEC30C0EE24FF248701F0
:10589000E21AF30A040B150B02C079018A018EE1AA
:1058A000C82ED12CDC82CB82ED82FE820F8318873A
:1058B000C801B7010E94462D01971816190684F4F5
:1058C000082E04C0EE0CFF1C001F111F0A94D2F713
:1058D000ED82FE820F831887C81AD90ADC82CB8238
:1058E000BA82CE0101960E94952D2896E9E00C948B
:1058F000EC35ACE0B0E0EFE7FCE20C94D73569831F
:105900007A838B839C83CE010196BE016B5F7F4FB0
:105910000E946A2E8D81823061F1823050F1843094
:1059200021F48E81882351F12EC02F81388537FDD7
:1059300020C06E812F3131051CF06623F9F023C0A1
:105940008EE190E0821B930B29853A854B855C851F
:1059500004C056954795379527958A95D2F76623C3
:10596000B1F050954095309521953F4F4F4F5F4F87
:105970000EC020E030E040E050E009C02FEF3FEFE4
:105980004FEF5FE704C020E030E040E050E8B901AD
:10599000CA012C96E2E00C94F335A8E0B0E0E3ED08
:1059A000FCE20C94CF357B018C01611571058105FA
:1059B000910519F482E0898360C083E089838EE1D8
:1059C000C82ED12CDC82CB82ED82FE820F83188719
:1059D000C801B7010E94462DFC013197F7FF3BC07B
:1059E000222733272E1B3F0B57016801022E04C0CC
:1059F000D694C794B794A7940A94D2F740E050E0A5
:105A000060E070E081E090E0A0E0B0E004C0880FCA
:105A1000991FAA1FBB1F2A95D2F70197A109B109A7
:105A20008E219F21A023B1230097A105B10521F06C
:105A300041E050E060E070E04A295B296C297D2953
:105A40004D835E836F8378878EE190E08E1B9F0B82
:105A50009C838B8312C0309781F00E2E04C0EE0C15
:105A6000FF1C001F111F0A94D2F7ED82FE820F83E4
:105A70001887CE1ADF0ADC82CB821A82CE01019609
:105A80000E94952D2896EAE00C94EB35EF92FF9258
:105A90000F931F937B018C0180E0E81680E0F806ED
:105AA00081E0080780E0180788F48FEFE816F1041A
:105AB0000105110531F028F088E090E0A0E0B0E0A9
:105AC00017C080E090E0A0E0B0E012C080E0E816EF
:105AD00080E0F80680E0080781E0180728F088E1F8
