:100000000C9418010C9445010C9445010C94450185
:100010000C9445010C9445010C9445010C94450148
:100020000C9445010C9445010C9445010C94450138
:100030000C9445010C9445010C9445010C94450128
:100040000C9445010C9445010C9445010C94450118
:100050000C9445010C9445010C9445010C946B1FC4
:100060000C9445010C948B090C94D30A0C94450113
:100070000C9445010C9445010C9445010C944501E8
:100080000C9445010C9445010C9445010C944501D8
:100090000C94CB090C94120B0C9445010C94450163
:1000A0000C9445010C9445010C9445010C944501B8
:1000B0000C9445010C9445010C9445010C944501A8
:1000C0000C9445010C9445010C9445010C940B0AC9
:1000D0000C94510B0C9445010C944B0A0C94900B0E
:1000E0000C944501736F6D6570736575646F726113
:1000F0006E646F6D6C7967656E657261746564625C
:100100007974657300002100240027002A002D0067
:100110003000330001010000040107010A01000062
:100120002200250028002B002E003100340002019F
:100130000000050108010B0100002000230026003B
:1001400029002C002F0032000001000003010601ED
:10015000090105050505070508080808020202024D
:100160000A0A080804040404010101010101010153
:100170000303030303030303040707070C0C0C0C1E
:100180000C0C0C0C02020202060606060606060607
:100190000B0B0B0B0B0B0B0B010210202008081094
:1001A00020401020408002010201080402010102E7
:1001B00004081020408080402010080402018004C0
:1001C000020180402010080402010804020101021B
:1001D0000408102040800102040810204080000024
:1001E000090A02080B0C0D070603040100000000B9
:1001F00000000000000000000000000000000000FF
:100200000000000000000000000011100F000000BE
:1002100000000000000000000000000000000000DE
:1002200000000000BD011504F7087C0E0E04F00864
:1002300011241FBECFEFD1E2DEBFCDBF00E00CBF67
:1002400014E0A0E0B2E0E0E5F0E600E00BBF02C0A1
:1002500007900D92A630B107D9F71BBE16E0A6E0B5
:10026000B4E001C01D92AF3FB107E1F712E0CCE26C
:10027000D2E004C02297FE010E94E82FC432D107C9
:10028000C9F70E9464090C941B300C940000DC0137
:10029000FB0160E070E09FEF1EC0911110822136DB
:1002A00018F02755808106C08081213410F0275333
:1002B00001C02053820F8083992339F08081829579
:1002C000807F80836F5F7F4F04C06417750730F4B1
:1002D0003196119690952C912223F9F6CB01089531
:1002E000EF92FF920F931F93CF93DF937B018901CE
:1002F00001501040EC01DA0140E050E060E070E0B5
:1003000021E030E022C04017510710F58881829526
:100310008F708A3010F0895C01C0805DFD0181938F
:1003200020173107B8F488818F708A3010F0895C0B
:1003300001C0805D11968C93119712964E5F5F4FAE
:100340006F5F7F4F21962E5F3F4F6E157F05D8F26E
:100350009A01FD011082C901DF91CF911F910F9188
:10036000FF90EF900895FC01029691838083089599
:10037000FC01029691838083089588E094E0909335
:100380000704809306040895AF92BF92CF92DF9244
:10039000EF92FF920F931F938C0122E0A22EB12CBB
:1003A000A80EB91E9AE0E92EF12CE00EF11EC5014F
:1003B000B7010E94370382E1C82ED12CC00ED11E96
:1003C000065E1F4FC601B8010E943703C7010E9495
:1003D000B903C8010E94C003C701B5010E945603BA
:1003E000C801B6010E945603C5010E94C503C6019B
:1003F000B7010E943703C501B8010E943703C70146
:100400000E94CA03C8010E94D103C701B6010E941D
:100410005603C801B5010E945603C6010E94C503D8
:100420001F910F91FF90EF90DF90CF90BF90AF9012
:100430000895EF92FF920F931F938C017B014A96D0
:100440000E945603C8010E94C401C8010E94C40151
:10045000C8010296B7010E9456031F910F91FF90A9
:10046000EF900895DC019B968C919B978F5F9B96F4
:100470008C939B979A968C919A97E82FFF27E7FD8C
:10048000F095EA0FFB1F62A381509A968C939A977E
:1004900087FF09C087E09A968C939A97CD01929630
:1004A000BD010E9419020895EF92FF920F931F93CE
:1004B000CF93DF93EC010BA504C0CE0160E00E9456
:1004C00032028AA51816CCF3CE01602F0E943202A8
:1004D00032E1E32EF12CEC0EFD1EC7010E946603F3
:1004E000CE010E94C401CE010E94C401CE010E942F
:1004F000C401CE010E94C4018E010E5F1F4F2A96D7
:10050000C801BE010E945603C801B7010E945603EC
:100510006096C801BE010E945603DF91CF911F91E2
:100520000F91FF90EF9008956F927F928F929F921C
:10053000AF92BF92CF92DF92EF92FF920F931F93F1
:10054000CF93DF938C014B0172E0C72ED12CC80EE4
:10055000D91EC60164EE70E048E050E00E947029A8
:100560006AE0662E712C600E711EC3016CEE70E0A5
:1005700048E050E00E94702952E1E52EF12CE00E97
:10058000F11EC70164EF70E048E050E00E9470295E
:100590004AE1A42EB12CA00EB11EC5016CEF70E093
:1005A00048E050E00E947029E801A296DE01F401C3
:1005B00088E001900D928150E1F7CE010E94710315
:1005C000C601BE010E945603C701BE010E94560328
:1005D000DE01F401389688E001900D928150E1F738
:1005E000CE010E947103C301BE010E945603C501E2
:1005F000BE010E94560387E0F80182A713A6DF918F
:10060000CF911F910F91FF90EF90DF90CF90BF900F
:10061000AF909F908F907F906F900895EF92FF9290
:100620000F931F93DF93CF93CDB7DEB760970FB6CD
:10063000F894DEBF0FBECDBF8C017E010894E11C93
:10064000F11CC70140E150E00E947029C801B701C8
:100650000E94940260960FB6F894DEBF0FBECDBF25
:10066000CF91DF911F910F91FF90EF9008952F93FD
:100670003F934F93DC011896FB013896889428E04D
:100680003E914291341F3C932A95D1F74F913F916F
:100690002F9108952F933F93DC01FB0128E03191C6
:1006A0003D932A95E1F73F912F9108952F933F9322
:1006B0004F93DC01FB0128E03C91419134273D93AD
:1006C0002A95D1F74F913F912F9108953F934F93E2
:1006D000DC0117963C914FEF34273C934F913F91AB
:1006E00008952F933F934F93DC011796FC0124E06C
:1006F0003C9140814C93319311972A95C9F74F91C2
:100700003F912F9108952F933F93DC0117963C91D1
:10071000DC0128E037953C9137953D932A95D9F730
:100720006A9599F73F912F9108952F933F9388945D
:10073000DC013C91189628E0331F3E91331F3C9317
:100740002A95D9F76A95A1F73F912F9108952F9394
:100750003F934F93DC01FC014D9127E03D91319394
:100760002A95E1F740836A95A9F74F913F912F9120
:1007700008956F9362E0EBDF63E0C5DF6F9108954A
:100780006F9362E0E4DF6F9108956F9364E0DFDFC1
:100790006F9108956F9362E0DADF61E0C6DF6F91D9
:1007A00008956F9363E0D3DF63E0ADDF6F91089549
:1007B000FC0184E292E0918380838AE08283089541
:1007C000FC0184E292E0918380838AE08283089531
:1007D000FC0184E292E0918380830895FC0184E22D
:1007E00092E0918380830895FC01628308958130B3
:1007F000910551F46F5F7F4F81F482E394E060E0F4
:1008000072E00E94521C0895892B39F46F5F7F4F6C
:1008100021F482E394E00E94431F089580E090E079
:100820006FEF7FEF0E94F703089581E090E06FEF94
:100830007FEF0E94F7030895AF92BF92CF92DF92AD
:10084000EF92FF920F931F93DF93CF93CDB7DEB755
:10085000C750D1400FB6F894DEBF0FBECDBFCB5E00
:10086000DE4FA880B980C551D140DE01A75EBE4FE2
:1008700088E0C82ED12CCC0EDD1EC95EDE4FE8818B
:10088000F981C751D14040815181C60160E870E0D3
:100890009D010E94A12AD501ED91FC91E680F7808F
:1008A0008E010F5F1F4FC801B6010E94521CC50187
:1008B000B801F7011995C8010E94431FC95FDE4FB7
:1008C0000FB6F894DEBF0FBECDBFCF91DF911F9161
:1008D0000F91FF90EF90DF90CF90BF90AF90089571
:1008E0008F929F92AF92BF92CF92DF92EF92FF9240
:1008F0000F931F93DF93CF93CDB7DEB72E970FB62D
:10090000F894DEBF0FBECDBF5C018B014A01DC0154
:1009100012968C9112978B3068F5ED91FC91C68000
:10092000D7807E010894E11CF11CC70165E072E0EC
:100930000E946C1CC701B8010E941B1C6DE072E094
:100940000E94FF1BB4010E941B1C60E172E00E9428
:10095000FF1BBC018E01085F1F4FC8010E942D1FA5
:10096000C501B801F6011995C8010E94431FC701CE
:100970000E94491F2E960FB6F894DEBF0FBECDBF62
:10098000CF91DF911F910F91FF90EF90DF90CF906B
:10099000BF90AF909F908F900895CF92DF92EF928B
:1009A000FF920F931F93DF93CF93CDB7DEB72E97B0
:1009B0000FB6F894DEBF0FBECDBF6C017E01089468
:1009C000E11CF11CC7010E942D1F8E01085F1F4F03
:1009D000C80162E374E00E942D1FC601B701A8019F
:1009E0000E947004C8010E94431FC7010E94431F58
:1009F0002E960FB6F894DEBF0FBECDBFCF91DF911C
:100A00001F910F91FF90EF90DF90CF9008958F92FC
:100A10009F92AF92BF92CF92DF92EF92FF920F938D
:100A20001F93DF93CF93CDB7DEB72E970FB6F89411
:100A3000DEBF0FBECDBF5C018B014A01DC01129607
:100A40008C911297863068F5ED91FC91C680D78025
:100A50007E010894E11CF11CC70162E172E00E9472
:100A60006C1CC701B8010E941B1C6DE072E00E9463
:100A7000FF1BB4010E941B1C60E172E00E94FF1B7F
:100A8000BC018E01085F1F4FC8010E942D1FC501C8
:100A9000B801F6011995C8010E94431FC7010E94C1
:100AA000491F2E960FB6F894DEBF0FBECDBFCF9173
:100AB000DF911F910F91FF90EF90DF90CF90BF904B
:100AC000AF909F908F900895CF92DF92EF92FF9218
:100AD0000F931F93DF93CF93CDB7DEB72E970FB64B
:100AE000F894DEBF0FBECDBF6C017E010894E11CFF
:100AF000F11CC7010E942D1F8E01085F1F4FC80106
:100B000062E374E00E942D1FC601B701A8010E9494
:100B10000705C8010E94431FC7010E94431F2E966C
:100B20000FB6F894DEBF0FBECDBFCF91DF911F91FE
:100B30000F91FF90EF90DF90CF9008958F929F924A
:100B4000AF92BF92CF92DF92EF92FF920F931F93DB
:100B5000DF93CF93CDB7DEB72E970FB6F894DEBFF5
:100B60000FBECDBF5C018B014A01DC0112968C9156
:100B70001297882369F5ED91FC91C680D7807E019C
:100B80000894E11CF11CC70169E172E00E946C1C31
:100B9000C701B8010E941B1C6DE072E00E94FF1BA0
:100BA000B4010E941B1C60E172E00E94FF1BBC01AB
:100BB0008E01085F1F4FC8010E942D1FC501B8019B
:100BC000F6011995C8010E94431FC7010E94491FE1
:100BD0002E960FB6F894DEBF0FBECDBFCF91DF913A
:100BE0001F910F91FF90EF90DF90CF90BF90AF904B
:100BF0009F908F900895CF92DF92EF92FF920F9384
:100C00001F93DF93CF93CDB7DEB72E970FB6F8942F
:100C1000DEBF0FBECDBF6C017E010894E11CF11C4C
:100C2000C7010E942D1F8E01085F1F4FC80162E39C
:100C300074E00E942D1FC601B701A8010E949E0505
:100C4000C8010E94431FC7010E94431F2E960FB682
:100C5000F894DEBF0FBECDBFCF91DF911F910F91F2
:100C6000FF90EF90DF90CF900895FC0184E292E036
:100C700091838083CF010E94621F0895FC018781C8
:100C800061850E945F210895FC01878161E00E94D7
:100C9000AC200895FC0182E392E091838083CF0130
:100CA0000E9478080895FC0182E392E0918380839A
:100CB000CF010E94780808950F931F938C0182E35F
:100CC00092E0F80191838083C8010E947808C801EE
:100CD0000E94621F1F910F910895CF92DF92EF92B1
:100CE000FF920F931F938C017B016A010E946008A1
:100CF00082E392E0F80191838083F086E782D286D6
:100D0000C186C8010E9444061F910F91FF90EF9089
:100D1000DF90CF900895CF92DF92EF92FF920F93E2
:100D20001F938C017B016A010E94600882E392E0BC
:100D3000F80191838083F086E782D286C186C8015C
:100D40000E9444061F910F91FF90EF90DF90CF908B
:100D50000895FC0189E892E09183808313821282D6
:100D60000895FC0189E892E09183808313821282C6
:100D70000895FC01738362830895FC0189E892E081
:100D8000918380830895FC0189E892E091838083B8
:100D90000895FC0189E892E091838083CF010E944D
:100DA000621F0895EF92FF920F931F93CF93DF93EB
:100DB0007C0110923904C0E8D0E000E010E0CE01E0
:100DC0008E219F218C179D0719F06AE372E002C003
:100DD0006CE372E089E394E00E949429D595C7956D
:100DE0000F5F1F4F0830110551F789E394E0DF9141
:100DF000CF911F910F91FF90EF9008959F92AF9226
:100E0000BF92CF92DF92EF92FF920F931F93DF93E7
:100E1000CF93CDB7DEB7AA970FB6F894DEBF0FBE5B
:100E2000CDBF8C01FC01A281B381ED91FC911197A2
:100E30000084F185E02D7E010894E11CF11CC701BE
:100E4000BD0119958D819E81892B09F4A0C0E9818E
:100E5000FA819080F3E39F16D9F0F91528F021E389
:100E6000921609F051C008C035E39316E9F087E304
:100E7000981609F049C024C0D8011296ED90FC9054
:100E800013978E01085F1F4FC8016EE372E023C005
:100E9000D8011296ED90FC9013978E01015F1F4FC1
:100EA000C80167E472E017C0D8011296ED90FC907B
:100EB00013978E010A5E1F4FC80166E572E00BC0F2
:100EC000D8011296ED90FC9013978E01035E1F4F90
:100ED000C80161E672E00E94521C00D000D0EDB75C
:100EE000FEB73196ADB7BEB71296FC92EE9211974F
:100EF0001383028389819A81958384830E941C04D1
:100F0000EDB7FEB7369638C0D8011296AD90BC90BA
:100F100013978E010C5D1F4FC8016BE672E00E94B3
:100F2000521CC980DA80CE0101960E945316DC0162
:100F3000CB010E94D2067C01892D90E00E94D2064E
:100F4000EDB7FEB73A970FB6F894FEBF0FBEEDBFF0
:100F50003196ADB7BEB71296BC92AE92119713837D
:100F60000283D582C482F782E682918780870E94BD
:100F70001C04EDB7FEB73A960FB6F894FEBF0FBE4D
:100F8000EDBFC8010E94431FCE01019601C0C701F9
:100F90000E94431FAA960FB6F894DEBF0FBECDBFC6
:100FA000CF91DF911F910F91FF90EF90DF90CF9045
:100FB000BF90AF909F900895EF92FF920F931F9371
:100FC000DF93CF93CDB7DEB727970FB6F894DEBF88
:100FD0000FBECDBFF82EE92E6DE872E00E94521CC4
:100FE00089E696E00E94D00D892B81F08E010F5F7B
:100FF0001F4FC80169E676E00E9406158F2D9E2DD1
:10100000B8010E94161FC8010E94431F8F2D9E2DFC
:1010100027960FB6F894DEBF0FBECDBFCF91DF91FC
:101020001F910F91FF90EF90089589E696E00E943E
:101030004213089589E696E040E855E260E070E0EA
:101040000E94570C0895FC0182E992E0918380830D
:10105000CF010E94E8030895FC0182E992E09183A8
:101060008083CF010E94E80308950F931F938C01A2
:1010700082E992E0F80191838083C8010E94E8032D
:10108000C8010E94621F1F910F9108950F931F9333
:101090008C010E94D80382E992E0F8019183808359
:1010A0001F910F9108950F931F938C010E94D803F5
:1010B00082E992E0F801918380831F910F91089556
:1010C000FC0180EA92E09183808381E08283158233
:1010D0001482138216820895FC0180EA92E09183C3
:1010E000808381E0828315821482138216820895A0
:1010F000FC0180EA92E0918380830895FC0180EAFC
:1011000092E0918380830895FC018281882319F401
:1011100081E08283089582E086830895FC018281C4
:10112000882311F01282089583E086830895DC01FC
:1011300012968C911297882391F014968D919C9120
:101140001597019615969C938E931497ED91FC91AB
:1011500011970680F781E02DCD011995089581E062
:1011600016968C930895FC0163830895FC01838196
:10117000882311F01682089584E086830895FC0187
:1011800096818381882309F41682892F0895FC01B2
:1011900080EA92E091838083CF010E94621F0895CC
:1011A0000895CB0108958130910561F46F5F7F4F01
:1011B000B1F482E494E00E94460885E494E00E9441
:1011C000B1060895892B59F46F5F7F4F41F485E490
:1011D00094E00E94C30682E494E00E9423080895EC
:1011E00080E090E06FEF7FEF0E94D308089581E0E8
:1011F00090E06FEF7FEF0E94D308089560ED77E0F5
:1012000080E090E00E94E71F8091BD0260E00E94B4
:101210005F2160ED77E080E090E00E94E71F85E4C9
:1012200094E00E94FE060895CF92DF92EF92FF9223
:101230000F931F93DF93CF93CDB7DEB72E970FB6E3
:10124000F894DEBF0FBECDBF8091BD0261E00E9469
:10125000AC2082E4C82E84E0D82EC6010E941A0871
:10126000C60165E00E94F4037E010894E11CF11CB4
:10127000C70168EA72E00E94521C8E01085F1F4F8E
:10128000C80167EB72E00E94521CC601B701A801B9
:101290000E949E05C8010E94431FC7010E94431F70
:1012A00085E494E0B6010E94B9062E960FB6F89434
:1012B000DEBF0FBECDBFCF91DF911F910F91FF9089
:1012C000EF90DF90CF900895FF920F931F93DF93DD
:1012D000CF93CDB7DEB72B970FB6F894DEBF0FBE16
:1012E000CDBF0E944A200E9414096091BD027091F6
:1012F000BE028E010F5F1F4FC80141E050E00E9407
:101300006D06F02E012F8F2D902F0E9497080E94BE
:10131000FE08F9CF08951F920F920FB60F920BB6E9
:101320000F9211242F933F934F938F939F93EF939B
:10133000FF938091C00082FD1DC04091C6002091A6
:10134000890430918A042F5F3F4F2F733070809152
:101350008B0490918C042817390771F0E09189046F
:10136000F0918A04E75BFB4F408330938A0420931B
:10137000890402C08091C600FF91EF919F918F91E7
:101380004F913F912F910F900BBE0F900FBE0F907A
:101390001F90189508951F920F920FB60F920BB6DB
:1013A0000F9211242F933F934F938F939F93EF931B
:1013B000FF938091C80082FD1DC04091CE00209116
:1013C0001105309112052F5F3F4F2F7330708091C0
:1013D0001305909114052817390771F0E091110554
:1013E000F0911205EF52FB4F40833093120520938A
:1013F000110502C08091CE00FF91EF919F918F91D6
:101400004F913F912F910F900BBE0F900FBE0F90F9
:101410001F90189508951F920F920FB60F920BB65A
:101420000F9211242F933F934F938F939F93EF939A
:10143000FF938091D00082FD1DC04091D600209185
:10144000990530919A052F5F3F4F2F73307080912F
:101450009B0590919C052817390771F0E09199053B
:10146000F0919A05E75AFA4F408330939A052093FA
:10147000990502C08091D600FF91EF919F918F91C5
:101480004F913F912F910F900BBE0F900FBE0F9079
:101490001F90189508951F920F920FB60F920BB6DA
:1014A0000F9211242F933F934F938F939F93EF931A
:1014B000FF938091300182FD1DC040913601209143
:1014C0002106309122062F5F3F4F2F73307080919D
:1014D0002306909124062817390771F0E091210620
:1014E000F0912206EF51FA4F408330932206209369
:1014F000210602C080913601FF91EF919F918F915B
:101500004F913F912F910F900BBE0F900FBE0F90F8
:101510001F901895E0917506F0917606E05CFF4FFC
:101520008191919120813181821B930B8F739070F7
:10153000892B11F00E948A09E0919706F091980694
:10154000E05CFF4F8191919120813181821B930B4F
:101550008F739070892B11F00E94CA09E091B9062F
:10156000F091BA06E05CFF4F819191912081318129
:10157000821B930B8F739070892B11F00E940A0AC3
:10158000E091DB06F091DC06E05CFF4F81919191E8
:1015900020813181821B930B8F739070892B11F006
:1015A0000E944A0A08951F920F920FB60F920BB62F
:1015B0000F9211242F933F938F939F93EF93FF9359
:1015C0002091CD043091CE048091CF049091D0042D
:1015D0002817390731F48091C1008F7D8093C100B5
:1015E00014C0E091CF04F091D004E357FB4F208169
:1015F0008091CF049091D00401968F739070909356
:10160000D0048093CF042093C600FF91EF919F9167
:101610008F913F912F910F900BBE0F900FBE0F90A7
:101620001F9018951F920F920FB60F920BB60F9244
:1016300011242F933F938F939F93EF93FF932091C8
:1016400055053091560580915705909158052817FA
:10165000390731F48091C9008F7D8093C90014C08F
:10166000E0915705F0915805EB5EFA4F208180918B
:1016700057059091580501968F7390709093580577
:10168000809357052093CE00FF91EF919F918F910A
:101690003F912F910F900BBE0F900FBE0F901F9098
:1016A00018951F920F920FB60F920BB60F9211243E
:1016B0002F933F938F939F93EF93FF932091DD059B
:1016C0003091DE058091DF059091E00528173907FC
:1016D00031F48091D1008F7D8093D10014C0E091CE
:1016E000DF05F091E005E356FA4F20818091DF0598
:1016F0009091E00501968F7390709093E005809330
:10170000DF052093D600FF91EF919F918F913F913C
:101710002F910F900BBE0F900FBE0F901F9018953A
:101720001F920F920FB60F920BB60F9211242F93A8
:101730003F938F939F93EF93FF9320916506309192
:10174000660680916706909168062817390731F47C
:10175000809131018F7D8093310114C0E091670643
:10176000F0916806EB5DF94F2081809167069091BA
:10177000680601968F739070909368068093670651
:1017800020933601FF91EF919F918F913F912F917F
:101790000F900BBE0F900FBE0F901F9018958F9259
:1017A0009F92AF92BF92CF92DF92EF92FF920F93F0
:1017B0001F93DF93CF93CDB7DEB7FC011382128264
:1017C00088EE93E0A0E0B0E084839583A683B7839E
:1017D00083EC92E09183808375876487578746877F
:1017E000318B208B138B028BF58AE48AD78AC68AC9
:1017F000B18EA08E938E828E8889848F8989858F01
:101800008A89868F8B89878F8C8980A3CF91DF917E
:101810001F910F91FF90EF90DF90CF90BF90AF900E
:101820009F908F9008958F929F92AF92BF92CF9288
:10183000DF92EF92FF920F931F93DF93CF93CDB779
:10184000DEB7FC011382128288EE93E0A0E0B0E0E4
:1018500084839583A683B78383EC92E0918380830E
:101860007587648757874687318B208B138B028B54
:10187000F58AE48AD78AC68AB18EA08E938E828E2C
:101880008889848F8989858F8A89868F8B89878FBC
:101890008C8980A3CF91DF911F910F91FF90EF90E2
:1018A000DF90CF90BF90AF909F908F900895AF92B0
:1018B000BF92DF92EF92FF920F931F93CF93DF932C
:1018C000EC017A018B01DD24403081EE580780E085
:1018D000680780E0780711F0DD24D39491E0A92E09
:1018E000B12CEC89FD89DD2069F0C50108A002C09A
:1018F000880F991F0A94E2F7808360E079E08DE316
:1019000090E005C0108260E874E88EE190E0A801E4
:1019100097010E948D2F21503040404050405695F5
:1019200047953795279580E12030380720F0DD2056
:1019300011F0DD24D6CFE889F9893083EA89FB8963
:10194000208319A2EE89FF89408121E030E0C9019E
:101950000C8C02C0880F991F0A94E2F7482B408331
:10196000EE89FF894081C9010D8C02C0880F991F43
:101970000A94E2F7482B4083EE89FF894081C90130
:101980000E8C02C0880F991F0A94E2F7482B4083FF
:10199000EE89FF8980810F8C02C0220F331F0A94C9
:1019A000E2F7209528232083DF91CF911F910F919B
:1019B000FF90EF90DF90BF90AF900895AF92BF92ED
:1019C000CF92DF92EF92FF920F931F93CF93DF930B
:1019D000EC017A018B01C22EDD24403081EE5807E4
:1019E00080E0680780E0780711F0DD24D39471E08F
:1019F000A72EB12CEC89FD89DD2069F0C50108A076
:101A000002C0880F991F0A94E2F7808360E079E0B2
:101A10008DE390E005C0108260E874E88EE190E00C
:101A2000A80197010E948D2F215030404040504026
:101A3000569547953795279580E12030380720F057
:101A4000DD2011F0DD24D6CFE889F9893083EA89D9
:101A5000FB892083E88DF98DC082EE89FF89408162
:101A600021E030E0C9010C8C02C0880F991F0A9454
:101A7000E2F7482B4083EE89FF894081C9010D8C34
:101A800002C0880F991F0A94E2F7482B4083EE8921
:101A9000FF894081C9010E8C02C0880F991F0A94EA
:101AA000E2F7482B4083EE89FF8980810F8C02C0CA
:101AB000220F331F0A94E2F7209528232083DF9119
:101AC000CF911F910F91FF90EF90DF90CF90BF903B
:101AD000AF900895CF93DF93DC011E968D919C917A
:101AE0001F97EC01C05CDF4FFC01EE5BFF4F2881CC
:101AF00039818081918128173907C9F75696ED9170
:101B0000FC915797408121E030E0C9015C960C9030
:101B10005C9702C0880F991F0A94E2F7809584238E
:101B200080835696ED91FC9157974081C9015D964F
:101B30000C905D9702C0880F991F0A94E2F7809578
:101B4000842380835696ED91FC9157974081C9017B
:101B50005E960C905E9702C0880F991F0A94E2F778
:101B60008095842380835696ED91FC9157978081D0
:101B70005F960C905F9702C0220F331F0A94E2F722
:101B80002095282320831C96ED91FC911D97EE5BF8
:101B9000FF4F8081918192938293DF91CF9108953D
:101BA000DC011C96ED91FC911D97E05CFF4F2191AB
:101BB000319180819181281B390B2F733070C901BD
:101BC0000895DC011C96ED91FC911D97E05CFF4FA0
:101BD00020813181E054F040DF01AE5BBF4F8D9139
:101BE0009C9111972817390719F42FEF3FEF07C081
:101BF0008D919C91E80FF91F8081282F30E0C90159
:101C00000895DC011C96ED91FC911D97E05CFF4F5F
:101C100020813181E054F040DF01AE5BBF4F8D91F8
:101C20009C9111972817390719F42FEF3FEF10C037
:101C30008D919C911197E80FF91F20818D919C91B6
:101C4000119701968F73907011969C938E9330E04C
:101C5000C9010895DC0191968C919197882339F000
:101C60005496ED91FC915597808186FFF9CF91961E
:101C70001C920895CF93DF93EC01EE85FF85E05C25
:101C8000FF4F20813181E054F0402F5F3F4F2F7391
:101C90003070DF01AE5BBF4F8D919C91119728177B
:101CA0003907D1F3E05CFF4F80819181E054F0402F
:101CB000E80FF91F6083EE85FF85E05CFF4F3183FD
:101CC0002083EE89FF89208181E090E00F8C02C0A3
:101CD000880F991F0A94E2F7282B208381E089A3BB
:101CE000EC89FD8980818064808381E090E0DF91D0
:101CF000CF91089581E008951F9310926C06109281
:101D00006B0628EE33E040E050E020936D06309300
:101D10006E0640936F065093700663EC72E070930A
:101D20006A066093690689E494E09093760680934E
:101D300075068DE894E0909378068093770685EC9D
:101D400090E090937A068093790684EC90E09093EB
:101D50007C0680937B0680EC90E090937E068093D7
:101D60007D0681EC90E09093800680937F0682EC64
:101D700090E0909382068093810686EC90E09093A9
:101D800084068093830614E010938506B3E0B09335
:101D90008606A7E0A0938706F5E0F0938806E1E0C9
:101DA000E093890610928E0610928D0620938F067E
:101DB00030939006409391065093920670938C0650
:101DC00060938B0681ED94E090939806809397063C
:101DD00085E195E090939A06809399068DEC90E0CA
:101DE00090939C0680939B068CEC90E090939E06CB
:101DF00080939D0688EC90E09093A00680939F06C8
:101E000089EC90E09093A2068093A1068AEC90E082
:101E10009093A4068093A3068EEC90E09093A60680
:101E20008093A5061093A706B093A806A093A906D1
:101E3000F093AA06E093AB061092B0061092AF069C
:101E40002093B1063093B2064093B3065093B40684
:101E50007093AE066093AD0689E595E09093BA065F
:101E60008093B9068DE995E09093BC068093BB06FC
:101E700085ED90E09093BE068093BD0684ED90E0E2
:101E80009093C0068093BF0680ED90E09093C206C9
:101E90008093C10681ED90E09093C4068093C306C1
:101EA00082ED90E09093C6068093C50686ED90E0A3
:101EB0009093C8068093C7061093C906B093CA06CC
:101EC000A093CB06F093CC06E093CD061092D206F9
:101ED0001092D1062093D3063093D4064093D506B2
:101EE0005093D6067093D0066093CF0681EE95E0AE
:101EF0009093DC068093DB0685E296E09093DE0605
:101F00008093DD0685E391E09093E0068093DF0601
:101F100084E391E09093E2068093E10680E391E010
:101F20009093E4068093E30681E391E09093E606C4
:101F30008093E50682E391E09093E8068093E706BC
:101F400086E391E09093EA068093E9061093EB060E
:101F5000B093EC06A093ED06F093EE06E093EF0647
:101F60001F910895CF92DF92EF92FF920F931F93EC
:101F7000CF93DF937C016B018A01C0E0D0E00FC0FA
:101F8000D6016D916D01D701ED91FC910190F08129
:101F9000E02DC7011995C80FD91F01501040011538
:101FA000110571F7CE01DF91CF911F910F91FF9035
:101FB000EF90DF90CF900895EF92FF920F931F93D1
:101FC000CF93DF937C018B01C0E0D0E0F8010F5F7D
:101FD0001F4F6491662359F0D701ED91FC91019058
:101FE000F081E02DC7011995C80FD91FEFCFCE01A1
:101FF000DF91CF911F910F91FF90EF900895DC0139
:10200000ED91FC910190F081E02D199508959C01CE
:10201000DB01ED91FC910190F081E02DCB01B90144
:1020200019950895EF92FF920F931F938C01DC0195
:10203000ED91FC910190F081E02D6DE019957C010E
:10204000D801ED91FC910190F081E02DC8016AE08A
:1020500019959C012E0D3F1DC9011F910F91FF90F5
:10206000EF900895EF92FF920F931F937C010E94CF
:10207000DC0F8C01C7010E9412109C01200F311F40
:10208000C9011F910F91FF90EF900895EF92FF9279
:102090000F931F937C01DC01ED91FC910190F08185
:1020A000E02D19958C01C7010E941210080F191F0D
:1020B000C8011F910F91FF90EF900895EF92FF924A
:1020C0000F931F937C01DB01ED91FC910190F08156
:1020D000E02DCB01B70119958C01C7010E941210A8
:1020E000080F191FC8011F910F91FF90EF900895DD
:1020F000CF93DF93EC016115710519F420E030E016
:102100000FC0DB010D900020E9F71197A61BB70B5C
:10211000E881F9810280F381E02DAD0119959C01E0
:10212000C901DF91CF9108954F925F927F928F9274
:102130009F92AF92BF92CF92DF92EF92FF920F9356
:102140001F93DF93CF93CDB7DEB7A1970FB6F89467
:10215000DEBF0FBECDBF2C01742ECB01223008F4A0
:102160002AE019A231E2C32ED12CCC0EDD1E822E24
:102170009924AA24BB24672D752FA50194010E94E0
:102180008D2F79018A01C801B701A50194010E9430
:102190006E2F472D461B0894C108D1084A3010F411
:1021A000405D01C0495CF6014083E114F104010582
:1021B000110521F07E2C5F2DC801DDCFC201B601D3
:1021C0000E947810A1960FB6F894DEBF0FBECDBF67
:1021D000CF91DF911F910F91FF90EF90DF90CF9003
:1021E000BF90AF909F908F907F905F904F90089599
:1021F000DC012115310541F4ED91FC910190F08154
:10220000E02D642F199508950E9494100895EF927F
:10221000FF920F931F937C010E94F8108C01C7015D
:102220000E9412109C01200F311FC9011F910F91B4
:10223000FF90EF900895EF92FF920F931F939A01F2
:102240007B0100E010E0B801A7010E94F8101F9187
:102250000F91FF90EF900895CF92DF92EF92FF924F
:102260000F931F936C017B019A0100E010E0B8010D
:10227000A7010E94F8108C01C6010E941210080FDD
:10228000191FC8011F910F91FF90EF90DF90CF9021
:102290000895EF92FF920F931F939A01E62EFF2469
:1022A00000E010E0B801A7010E94F8101F910F9103
:1022B000FF90EF900895CF92DF92EF92FF920F93ED
:1022C0001F936C01E62E9A01FF2400E010E0B80194
:1022D000A7010E94F8108C01C6010E941210080F7D
:1022E000191FC8011F910F91FF90EF90DF90CF90C1
:1022F0000895CF92DF92EF92FF920F931F93CF93A7
:10230000DF93EC016A017B012115310541F4E8817D
:10231000F9810190F081E02D642F19951FC02A30BA
:102320003105D1F477FF17C0E881F9810190F08180
:10233000E02D6DE219958C0144275527BA014C19FF
:102340005D096E097F09CE012AE00E949410980170
:10235000280F391F04C02AE00E9494109C01C90173
:10236000DF91CF911F910F91FF90EF90DF90CF9071
:102370000895EF92FF920F931F937C010E947911B1
:102380008C01C7010E9412109C01200F311FC9014E
:102390001F910F91FF90EF900895EF92FF920F938E
:1023A0001F937B019A010027F7FC0095102FB801BD
:1023B000A7010E9479111F910F91FF90EF9008954E
:1023C000CF92DF92EF92FF920F931F936C017B01EC
:1023D0009A010027F7FC0095102FB801A7010E9471
:1023E00079118C01C6010E941210080F191FC80133
:1023F0001F910F91FF90EF90DF90CF9008950E9472
:10240000781008957F928F929F92AF92BF92CF9251
:10241000DF92EF92FF920F931F93CF93DF934C01C4
:102420007A018B01722ECB01BA01A80197010E949B
:10243000FE25882321F0C4016FED72E021C0C0E0C9
:10244000D0E057016801E894D7F8C601B5012FEF35
:102450003FEF4FE75FE70E94FE25882351F4C60156
:10246000B5012FEF3FEF4FE75FE70E94CE2518162B
:1024700014F0C1E0D0E0219739F0C40163EE72E0BE
:102480000E947810EC0193C0C801B7012FEF3FEF15
:102490004FE75FE40E943E25181654F0C801B701CB
:1024A0002FEF3FEF4FE75FEC0E949E25882324F437
:1024B000C40167EE72E0E4CFC801B70120E030E06C
:1024C00040E050E00E949E2587FD03C0C0E0D0E0C0
:1024D0000EC0D401ED91FC910190F081E02DC4017A
:1024E0006DE21995EC0117FB109517F9109520E096
:1024F00030E040E05FE3DD240BC0CA01B90120E019
:1025000030E040E251E40E9492249B01AC01D3945C
:10251000D71498F3C801B7010E946B235B016C01CB
:102520000E94C2217B018C01C401B801A7012AE0ED
:1025300030E00E94F810C80FD91F772039F0C4018D
:102540006BEE72E00E947810C80FD91FC801B70166
:102550000E94DB269B01AC01C601B5010E943A2313
:1025600024C020E030E040E251E40E9498237B0147
:102570008C010E9487265B016C01CC24B7FCC094BF
:10258000DC2CC401B601A5012AE030E00E947911DB
:10259000C80FD91FC601B5010E9429269B01AC01B5
:1025A000C801B7010E943A237A947720D1F6CE0170
:1025B000DF91CF911F910F91FF90EF90DF90CF901F
:1025C000BF90AF909F908F907F9008950E940212CD
:1025D0000895EF92FF920F931F937C010E940212C5
:1025E0008C01C7010E941210080F191FC8011F910A
:1025F0000F91FF90EF900895EF92FF920F931F932A
:102600007C010E9478108C01C7010E941210080FF3
:10261000191FC8011F910F91FF90EF900895AF927D
:10262000BF92CF92DF92EF92FF920F931F93CF93BF
:10263000DF935C016B01EE24FF24C0E0D0E010C00A
:10264000D501ED91FC9100811181C601BE010E946E
:102650003316682FC501F8011995E80EF91E219669
:10266000F60184819581C817D90750F3C701DF911E
:10267000CF911F910F91FF90EF90DF90CF90BF907F
:10268000AF900895EF92FF920F931F937C010E94E9
:102690000F138C01C7010E9412109C01200F311FE3
:1026A000C9011F910F91FF90EF900895FC014483A1
:1026B0005583668377830895CF93DF93EC010E945F
:1026C000B31F688779878A879B87E881F9810084AF
:1026D000F185E02DCE0119959C0197FF15C00E9450
:1026E000B31F288539854A855B85621B730B840B74
:1026F000950B2C813D814E815F81621773078407A2
:10270000950718F32FEF3FEFC901DF91CF9108959F
:10271000CF93DF93EC01CE010E945C139C0197FDE7
:102720000EC08D32910559F0C0970A9740F0E881AC
:10273000F9810680F781E02DCE011995ECCFC90112
:10274000DF91CF9108956F927F928F929F92AF9277
:10275000BF92CF92DF92EF92FF920F931F93CF938E
:10276000DF93EC01662E0E948813982E772488242C
:10277000EE24FF2487010F2EF0E0AF2EF0E0BF2EF5
:10278000F0E8CF2EFFE3DF2EF02D961491F18DE2CD
:10279000981619F4772473942CC09EE2991619F4B4
:1027A0008824839426C0892D80538A3010F5C8016F
:1027B000B7012AE030E040E050E00E946E2F7B013C
:1027C0008C01E90CF11C011D111D80ED9FEFAFEF95
:1027D000BFEFE80EF91E0A1F1B1F882051F0C6012B
:1027E000B5012DEC3CEC4CEC5DE30E9498235B01C1
:1027F0006C01E881F9810680F781E02DCE01199501
:10280000CE010E945C13982F982E80538A3008F4D2
:10281000BCCF9E3209F4B9CF961509F4B6CF772014
:1028200041F010950095F094E094E11CF11C011D1D
:10283000111D882049F0C801B7010E942926A60170
:1028400095010E94982304C0C801B7010E9429265F
:10285000DF91CF911F910F91FF90EF90DF90CF907C
:10286000BF90AF909F908F907F906F90089561E0A0
:102870000E94A31308959F92AF92BF92CF92DF92CE
:10288000EF92FF920F931F93CF93DF936C01B62EBD
:102890000E948813EC0197FF04C0EE24FF248701F7
:1028A0004AC09924EE24FF248701AB2CBB24CA150F
:1028B000DB0529F1CD32D10519F4992493941FC079
:1028C000CE01C0970A97D8F4C801B7012AE030E0DA
:1028D00040E050E00E946E2F7B018C01CE01AA27C0
:1028E00097FDA095BA2FE80EF91E0A1F1B1F80ED59
:1028F0009FEFAFEFBFEFE80EF91E0A1F1B1FD601B7
:10290000ED91FC910680F781E02DC6011995C60175
:102910000E945C13EC01C0970A9748F2CA15DB05C8
:1029200031F2992041F010950095F094E094E11C6B
:10293000F11C011D111DB701C801DF91CF911F913D
:102940000F91FF90EF90DF90CF90BF90AF909F904E
:10295000089561E00E943B140895CF93DF93EC014A
:102960000E94B31F688779878A879B87E881F981EE
:102970000680F781E02DCE0119959C0197FF15C0C7
:102980000E94B31F288539854A855B85621B730BBE
:10299000840B950B2C813D814E815F8162177307FB
:1029A0008407950718F32FEF3FEFC901DF91CF910F
:1029B0000895CF92DF92FF920F931F93CF93DF93EF
:1029C000082FF92E6B01142F65EF72E00E94521C44
:1029D000C6010E94AD14BC01C12FD0E008C0802FF9
:1029E0009F2D0E945B1BC6010E94AD14BC0177FDA8
:1029F00003C06C177D0799F7802F9F2DDF91CF9132
:102A00001F910F91FF90DF90CF9008950F931F9328
:102A1000CF93DF93182F092FEB0165EF72E00E942F
:102A2000521C04C0812F902F0E945B1BCE010E947C
:102A3000AD14BC0197FFF6CF812F902FDF91CF917E
:102A40001F910F910895AF92BF92CF92DF92EF92B4
:102A5000FF920F931F93CF93DF935C017A0189015B
:102A60002115310519F4C0E0D0E014C0C0E0D0E079
:102A7000C62EDD240CC0C5010E94AD1497FD0AC00E
:102A80008C159D0539F0F70181937F012196C017C0
:102A9000D10788F3CE01DF91CF911F910F91FF9065
:102AA000EF90DF90CF90BF90AF900895CF92DF92DC
:102AB000EF92FF920F931F93CF93DF936C018B01E3
:102AC0007A01C0E0D0E009C0C6010E94AD1497FDB4
:102AD00007C0F80181938F012196CE15DF05A0F381
:102AE000CE01DF91CF911F910F91FF90EF90DF907A
:102AF000CF9008956F927F928F929F92AF92BF92E4
:102B0000CF92DF92EF92FF920F931F93CF93DF93B9
:102B10003C017B014A0159016801FB018081882346
:102B2000A1F1C0E0D0E027C0F701EC0FFD1F8081CC
:102B300090E02817390711F0C0E0D0E0F701EC0F62
:102B4000FD1F808190E02817390721F42196C815D0
:102B5000D905D8F4C114D10471F0F501E00FF11FCB
:102B6000808190E02817390731F40F5F1F4F0C1553
:102B70001D0518F00CC000E010E0C3010E94AD1468
:102B80009C011816190684F202C081E001C080E0A1
:102B9000DF91CF911F910F91FF90EF90DF90CF9039
:102BA000BF90AF909F908F907F906F9008950F93FC
:102BB0001F939A01DB010D900020E9F7AD01415010
:102BC0005040461B570BD9010D900020E9F7119793
:102BD000A21BB30B8D010E947A151F910F910895CE
:102BE00040E050E00E94D71508950F931F9320E016
:102BF00030E000E010E00E947A151F910F910895D7
:102C0000FC01848195816817790748F40190F0816F
:102C1000E02D309721F0E60FF71F8081089580E0C6
:102C20000895FC01848195816817790730F401903B
:102C3000F081E02DE60FF71F40830895FC019B0112
:102C4000848195816817790728F460817181611505
:102C5000710529F41092F10661EF76E002C0620F6F
:102C6000731FCB010895FC01848195816817790752
:102C700048F40190F081E02D309721F0E60FF71F26
:102C80008081089580E00895FC010190F081E02D9D
:102C9000309729F40895861709F44083319680818E
:102CA0008823C9F70895FC0180819181009729F458
:102CB00020E030E040E050E004C00E9449299B0140
:102CC000AC01B901CA010895CF92DF92EF92FF9251
:102CD0000F931F93CF93DF936C01DC01ED90FC9079
:102CE0001197E114F104E9F11496CD91DC91159757
:102CF0002097B9F1870102C00F5F1F4FF801808153
:102D000090E00E94EC2F892BB9F72197CE0DDF1DA3
:102D100001C02197888190E00E94EC2F892B19F047
:102D2000C017D107B0F7FE013196E01BF10BD601B9
:102D30001596FC93EE9314972D913C912017310733
:102D400028F4C901B801AF010E947929D601ED919B
:102D5000FC91119714968D919C911597E80FF91F8E
:102D60001082DF91CF911F910F91FF90EF90DF9034
:102D7000CF900895CF93DF93FC01C081D18120973C
:102D800029F407C090E00E94FC2F89938881882352
:102D9000C9F7DF91CF910895CF93DF93FC01C081F4
:102DA000D181209729F407C090E00E94F42F8993E5
:102DB00088818823C9F7DF91CF910895EF92FF9220
:102DC0000F931F93CF93DF93FC01DB0186179707C7
:102DD00019F12481358114968D919C9115972817AE
:102DE0003907E1F4232BC1F0E080F180CD91DC9133
:102DF0000FC090E00E94F42F8C01888190E00E9427
:102E0000F42F0817190751F40894E11CF11C2196BE
:102E1000F7018081882369F781E001C080E0DF91BC
:102E2000CF911F910F91FF90EF900895AF92BF92B5
:102E3000CF92DF92EF92FF920F931F93CF93DF9386
:102E4000FC015B017A01DB0114962D913C911597F1
:102E50002115310559F184819581009739F1821747
:102E6000930720F14817590720F07C010894E108E6
:102E7000F10800811181C801CFEFDFEF6801CE0CAE
:102E8000DF1C10C0F501608171810E94E2299C0164
:102E9000009771F0801B910BE816F90608F0EC0121
:102EA000C9010196C816D90668F702C0CFEFDFEF57
:102EB000CE01DF91CF911F910F91FF90EF90DF90A6
:102EC000CF90BF90AF900895FC01DB014481558104
:102ED00014968D919C911597481B590BCF010E9418
:102EE00016170895CF93DF93FC01DB018481958150
:102EF0004817590760F4C081D1816D917C91CE0152
:102F0000840F951F0E94E2299C01009719F42FEF6E
:102F10003FEF02C02C1B3D0BC901DF91CF910895FB
:102F200040E050E00E9472170895DF92EF92FF9206
:102F30000F931F93CF93DF93EC018C819D814817F2
:102F40005907B8F47A010894E11CF11CE881F98171
:102F5000EE0DFF1DD080108208811981C80170E03C
:102F60000E94D7299C010E0D1F1DF801D0820097E9
:102F700019F4EFEFFFEF05C088819981F901E81B93
:102F8000F90BCF01DF91CF911F910F91FF90EF903F
:102F9000DF900895FC0144815581415050400E94CA
:102FA00095170895CF93DF93FC018481958148178D
:102FB000590758F4C081D181CE01840F951F70E06C
:102FC0000E949F299C01009719F42FEF3FEF02C048
:102FD0002C1B3D0BC901DF91CF91089540E050E0DB
:102FE0000E94D21708950F931F93CF93DF93FC0194
:102FF0008B0141155105F9F061157105E1F08481EE
:1030000095812817390718F0FB01108214C0415030
:103010005040EC01C21BD30B4C175D0708F4EA01CA
:1030200060817181620F731FC801AE010E94C829BF
:10303000C00FD11F1882DF91CF911F910F9108957A
:10304000FC01DB012481358114964D915C9115972B
:1030500024173507A8F080819181009789F06D9140
:103060007C916115710561F0241B350B820F931F54
:103070000E94AA299C0180E0232B19F481E0089585
:1030800080E00895DC01FB0114968D919C911597C9
:10309000892B31F461157105A9F090E0808108C099
:1030A0000D90BC91A02D6115710529F490E08C91D3
:1030B000882349F407C0CD010E94AA299C0190E011
:1030C000232B09F491E0892F0895CF93DF939C017E
:1030D000FB01EC01A881B981109729F06081718111
:1030E00061157105D1F4C081D181209759F0848197
:1030F0009581892B39F0888190E022273327281B7E
:10310000390B12C0109771F0F90184819581892BD8
:1031100049F08C91282F30E007C0CD010E94AA29E8
:103120009C0102C020E030E0C901DF91CF910895F9
:103130000E946518892F8095881F8827881F089509
:103140000E94651820E0181619060CF021E0822F65
:1031500008950E94651820E0181619060CF421E065
:10316000822F08950E946518892F881F8827881F3D
:103170000895FC01DB012481358114968D919C9189
:1031800015972817390711F020E007C0CF010E94DA
:10319000651820E0892B09F421E0822F0895FC01B5
:1031A000DB0114962D913C91159784819581821BAA
:1031B000930B84179507A0F080819181009781F08F
:1031C0006D917C916115710559F0840F951FA901CE
:1031D0000E94BA299C0180E0232B19F481E0089514
:1031E00080E00895FC01DB012481358114968D91E6
:1031F0009C9115972817390710F480E00895CF01A6
:1032000040E050E00E94CF1808950F931F93CF9392
:10321000DF93EC018B016F5F7F4F888199810E9462
:103220008D2E009711F480E005C0998388831B835D
:103230000A8381E0DF91CF911F910F9108952F9222
:103240003F924F925F926F927F928F929F92AF9236
:10325000BF92CF92DF92EF92FF920F931F93CF9383
:10326000DF935C012B014A01DC0114960D911C9146
:1032700015970115110509F4D4C0FB01C480D58050
:10328000C114D10409F4CDC0DA0114966D907C907C
:1032900015976C187D08FC01E080F18061147104C1
:1032A00091F01BC0D4016C9111967C9111971496EA
:1032B0004D915C9115978C2F0E947929F401E4803F
:1032C000F580EC0EFD1ED2016D917C91C7010E942C
:1032D000E229EC01009731F7A4C077FE02C0670134
:1032E0002EC0FB0120803180E8013CC08E010E1908
:1032F0001F09C601B701A8010E9479290C0D1D1DE7
:10330000D4016C9111967C91119714964D915C911A
:103310001597C8010E947929F401C480D580C00E98
:10332000D11ED2011496ED90FC901597EC0EFD1E67
:10333000F50184819581860D971D95838483D20143
:103340006D917C91C7010E94E229EC01009771F612
:10335000C601B7010E94B32964C07B01EC0CFD1CBF
:10336000C60DD71DC701B1010E94E229BC0100971B
:10337000A1F7C017D10709F454C0F50182819381E8
:103380008C179D0708F044C0C501BE010E940519B5
:103390008823F1F546C0C501B201A9010E941617A4
:1033A000EC0197FD3EC0D5016D917C911197F20122
:1033B000848195818C0F9D1F680F791F14964D9104
:1033C0005C911597481B590BCB01860D971D0E94E8
:1033D0008229D50114968D919C911597860D971D84
:1033E00015969C938E931497ED91FC911197E80F8D
:1033F000F91F10822D913C912C0F3D1FF40160812B
:10340000718144815581C9010E9479299E0105C0BD
:10341000D50114962D913C9115972150304037FFDE
:10342000BACFDF91CF911F910F91FF90EF90DF9076
:10343000CF90BF90AF909F908F907F906F905F9054
:103440004F903F902F900895CF93DF93EC018881A8
:103450009981892B29F08A819B818617970760F4CF
:10346000CE010E940519882341F08C819D81892B12
:1034700019F4E881F981108281E0DF91CF910895FC
:10348000EF92FF920F931F93CF93DF93EC017B0199
:103490006C817D81E114F104C1F04115510599F071
:1034A0008A01060F171FB8010E94241A882369F0A9
:1034B000888199812C813D81820F931FB7010E94E1
:1034C000B3291D830C8381E001C080E0DF91CF919F
:1034D0001F910F91FF90EF900895EF92FF920F933D
:1034E0001F93DF93CF93CDB7DEB72B970FB6F8942A
:1034F000DEBF0FBECDBF7C01CB01BA018E010F5FD5
:103500001F4FA8012AE030E00E94662AF8010190CE
:103510000020E9F73197E01BF10BC701B801AF01BB
:103520000E94401A2B960FB6F894DEBF0FBECDBF97
:10353000CF91DF911F910F91FF90EF900895EF923F
:10354000FF920F931F93DF93CF93CDB7DEB72C97E6
:103550000FB6F894DEBF0FBECDBF7C01CB01BA0120
:103560008E010F5F1F4FA8012AE030E00E941D2A44
:10357000F80101900020E9F73197E01BF10BC7013A
:10358000B801AF010E94401A2C960FB6F894DEBF26
:103590000FBECDBFCF91DF911F910F91FF90EF90A4
:1035A0000895EF92FF920F931F93DF93CF9300D074
:1035B00000D0CDB7DEB77C01CB018E010F5F1F4F6E
:1035C000B8014AE050E00E948B2AF80101900020E7
:1035D000E9F73197E01BF10BC701B801AF010E9479
:1035E000401A26960FB6F894DEBF0FBECDBFCF911E
:1035F000DF911F910F91FF90EF900895EF92FF924E
:103600000F931F93DF93CF93CDB7DEB727970FB6F6
:10361000F894DEBF0FBECDBF7C01CB018E010F5FE2
:103620001F4FB8014AE050E00E94FC29F8010190C8
:103630000020E9F73197E01BF10BC701B801AF019A
:103640000E94401A27960FB6F894DEBF0FBECDBF7A
:10365000CF91DF911F910F91FF90EF900895EF921E
:10366000FF920F931F93DF93CF9300D00F92CDB7AC
:10367000DEB77C01862F90E08E010F5F1F4FB801EF
:103680004AE050E00E94FC29F80101900020E9F78F
:103690003197E01BF10BC701B801AF010E94401A3E
:1036A0000F900F900F900F90CF91DF911F910F917E
:1036B000FF90EF900895DF93CF930F920F92CDB7C5
:1036C000DEB769831A82BE016F5F7F4F41E050E031
:1036D0000E94401A0F900F90CF91DF9108956115CD
:1036E000710511F480E00895DB010D900020E9F7E9
:1036F0001197A61BB70BAD010E94401A0895FB015C
:1037000060817181448155810E94401A0895CF9350
:10371000DF93EC0188819981009711F00E94F52DCB
:10372000198218821D821C821B821A82DF91CF911E
:1037300008950F931F93182F092F0E946D1A882345
:1037400021F4812F902F0E94871B812F902F1F9192
:103750000F9108950F931F93182F092F0E949F1AFE
:10376000882321F4812F902F0E94871B812F902F77
:103770001F910F9108950F931F93182F092F0E94E7
:10378000D11A882321F4812F902F0E94871B812F2B
:10379000902F1F910F9108950F931F93182F092FAA
:1037A0000E94FE1A882321F4812F902F0E94871BEC
:1037B000812F902F1F910F9108950F931F93182F12
:1037C000092F0E942F1B882321F4812F902F0E9404
:1037D000871B812F902F1F910F9108950F931F9397
:1037E000182F092F0E945B1B882321F4812F902F13
:1037F0000E94871B812F902F1F910F9108950F9387
:103800001F93182F092F6115710561F0DB010D90D1
:103810000020E9F71197A61BB70BAD010E94401AD3
:10382000882321F4812F902F0E94871B812F902FB6
:103830001F910F9108950F931F93182F092FFB01CC
:1038400060817181448155810E94401A882321F44E
:10385000812F902F0E94871B812F902F1F910F91F6
:103860000895EF92FF920F931F93CF93DF93EC0194
:103870007B018A01BA010E94241A882321F4CE0117
:103880000E94871B07C01D830C8388819981B70123
:103890000E94B329CE01DF91CF911F910F91FF902C
:1038A000EF900895CF93DF93EC01198218821B8269
:1038B0001A821D821C821E826115710551F0DB0186
:1038C0000D900020E9F71197A61BB70BAD010E94E0
:1038D000311CDF91CF910895CF93DF93EC011982D2
:1038E00018821B821A821D821C821E82611571053C
:1038F00051F0DB010D900020E9F71197A61BB70BE3
:10390000AD010E94311CDF91CF9108950F931F9359
:10391000182F092F6115710559F0DB010D9000205A
:10392000E9F71197A61BB70BAD010E94311C02C02D
:103930000E94871B812F902F1F910F910895EF9266
:10394000FF920F931F93DF93CF93CDB7DEB7A1976D
:103950000FB6F894DEBF0FBECDBF8C01FC01118203
:10396000108213821282158214821682CB01BA0150
:103970007E010894E11CF11CA70130E00E94662A38
:10398000C801B7010E94861CA1960FB6F894DEBF4D
:103990000FBECDBFCF91DF911F910F91FF90EF90A0
:1039A0000895EF92FF920F931F93DF93CF93CDB7BC
:1039B000DEB7A1970FB6F894DEBF0FBECDBF8C0166
:1039C000FC011182108213821282158214821682E7
:1039D000CB01BA017E010894E11CF11CA70130E083
:1039E0000E94662AC801B7010E94861CA1960FB6E4
:1039F000F894DEBF0FBECDBFCF91DF911F910F9125
:103A0000FF90EF900895EF92FF920F931F93DF9333
:103A1000CF93CDB7DEB7A2970FB6F894DEBF0FBE37
:103A2000CDBF8C01FC01118210821382128215829B
:103A300014821682CB01BA017E010894E11CF11CAC
:103A4000A70130E00E941D2AC801B7010E94861C10
:103A5000A2960FB6F894DEBF0FBECDBFCF91DF9117
:103A60001F910F91FF90EF900895EF92FF920F93A7
:103A70001F93DF93CF93CDB7DEB7A2970FB6F8941D
:103A8000DEBF0FBECDBF8C01FC01118210821382FC
:103A90001282158214821682CB01BA017E0108942B
:103AA000E11CF11CA70130E00E941D2AC801B701EA
:103AB0000E94861CA2960FB6F894DEBF0FBECDBF43
:103AC000CF91DF911F910F91FF90EF900895EF92AA
:103AD000FF920F931F93DF93CF93CDB7DEB761971C
:103AE0000FB6F894DEBF0FBECDBF8C01CB01F8013D
:103AF00011821082138212821582148216827E0134
:103B00000894E11CF11CB70150E00E948B2AC80107
:103B1000B7010E94861C61960FB6F894DEBF0FBEF7
:103B2000CDBFCF91DF911F910F91FF90EF9008953E
:103B3000EF92FF920F931F93DF93CF93CDB7DEB732
:103B400061970FB6F894DEBF0FBECDBF8C01CB01DD
:103B5000F801118210821382128215821482168259
:103B60007E010894E11CF11CB70150E00E948B2AF1
:103B7000C801B7010E94861C61960FB6F894DEBF9B
:103B80000FBECDBFCF91DF911F910F91FF90EF90AE
:103B90000895EF92FF920F931F93DF93CF93CDB7CA
:103BA000DEB762970FB6F894DEBF0FBECDBF8C01B3
:103BB000CB01F801118210821382128215821482C5
:103BC00016827E010894E11CF11CB70150E00E94AE
:103BD000FC29C801B7010E94861C62960FB6F894B2
:103BE000DEBF0FBECDBFCF91DF911F910F91FF9030
:103BF000EF900895EF92FF920F931F93DF93CF936F
:103C0000CDB7DEB762970FB6F894DEBF0FBECDBF5B
:103C10008C01CB01F801118210821382128215826D
:103C2000148216827E010894E11CF11CB70150E059
:103C30000E94FC29C801B7010E94861C62960FB63B
:103C4000F894DEBF0FBECDBFCF91DF911F910F91D2
:103C5000FF90EF900895EF92FF920F931F93DF93E1
:103C6000CF93CDB7DEB729970FB6F894DEBF0FBE5E
:103C7000CDBF8C01862FF80111821082138212822F
:103C800015821482168290E07E010894E11CF11CDA
:103C9000B70150E00E948B2AC801B7010E94861C20
:103CA00029960FB6F894DEBF0FBECDBFCF91DF913E
:103CB0001F910F91FF90EF900895EF92FF920F9355
:103CC0001F93DF93CF93CDB7DEB729970FB6F89444
:103CD000DEBF0FBECDBF8C01862FF801118210828E
:103CE0001382128215821482168290E07E0108945B
:103CF000E11CF11CB70150E00E948B2AC801B701FA
:103D00000E94861C29960FB6F894DEBF0FBECDBF69
:103D1000CF91DF911F910F91FF90EF900895DF9366
:103D2000CF930F920F92CDB7DEB7FC0111821082B4
:103D30001382128215821482168269831A82BE014E
:103D40006F5F7F4F0E94861C0F900F90CF91DF9185
:103D50000895DF93CF930F920F92CDB7DEB7FC019A
:103D60001182108213821282158214821682698354
:103D70001A82BE016F5F7F4F0E94861C0F900F90CA
:103D8000CF91DF910895BF92CF92DF92EF92FF9291
:103D90000F931F93CF93DF93082FB92E6B017A01F6
:103DA000E9012417350710F4EA017901802F9B2DD2
:103DB00066EF72E00E94521CD60114968D919C9180
:103DC00015978E159F05D0F08C179D0708F4EC0110
:103DD000D601ED91FC911197EC0FFD1F108110821F
:103DE0006D917C916E0D7F1D802F9B2D0E94861CF6
:103DF000D601ED91FC91EC0FFD1F1083802F9B2DC0
:103E0000DF91CF911F910F91FF90EF90DF90CF90B6
:103E1000BF9008950F931F938C01FB01248135817E
:103E20000E94C31EC8011F910F910895CF93DF9385
:103E3000EC01FB018617970761F0608171816115C4
:103E4000710529F0448155810E94311C02C00E94F5
:103E5000871BCE01DF91CF910895FC011182108262
:103E6000138212821582148216820E94161F0895F0
:103E7000FC01118210821382128215821482168232
:103E80000E94161F0895FC01808191810E94F52DEA
:103E90000895FC01808191810E94F52D0895FC0117
:103EA00020E030E08081882311F421E030E0C90176
:103EB0000895FC0181E080830895089508950E948B
:103EC000F52D08950E94F52D08950E94582D08950E
:103ED0000E94582D08951F920F920FB60F92112431
:103EE0002F933F938F939F93AF93BF938091F60649
:103EF0009091F706A091F806B091F9063091FA0674
:103F00000196A11DB11D232F2D5F2D3720F02D57B8
:103F10000196A11DB11D2093FA068093F606909399
:103F2000F706A093F806B093F9068091F2069091F7
:103F3000F306A091F406B091F5060196A11DB11DFE
:103F40008093F2069093F306A093F406B093F506DF
:103F5000BF91AF919F918F913F912F910F900FBE85
:103F60000F901F9018958FB7F8942091F606309116
:103F7000F7064091F8065091F9068FBFB901CA01C2
:103F800008959FB7F8942091F2063091F30640917E
:103F9000F4065091F50686B5A89B06C08F3F21F028
:103FA0002F5F3F4F4F4F5F4F9FBF542F432F322FF5
:103FB0002227280F311D411D511D82E0220F331F82
:103FC000441F551F8A95D1F7B901CA0108959B0175
:103FD000AC017FB7F8948091F2069091F306A0911E
:103FE000F406B091F50666B5A89B05C06F3F19F0C1
:103FF0000196A11DB11D7FBFBA2FA92F982F882729
:10400000860F911DA11DB11D62E0880F991FAA1F87
:10401000BB1F6A95D1F7BC012DC0FFB7F894809102
:10402000F2069091F306A091F406B091F506E6B57C
:10403000A89B05C0EF3F19F00196A11DB11DFFBF60
:10404000BA2FA92F982F88278E0F911DA11DB11D62
:10405000E2E0880F991FAA1FBB1FEA95D1F7861BC4
:10406000970B885E9340C8F221503040404050404A
:1040700068517C4F211531054105510571F60895B0
:10408000019739F0880F991F880F991F02970197A0
:10409000F1F70895789484B5826084BD84B5816019
:1040A00084BD85B5826085BD85B5816085BDEEE640
:1040B000F0E0808181608083E1E8F0E0108280811F
:1040C00082608083808181608083E0E8F0E080818D
:1040D00081608083E1EBF0E0808184608083E0EBAD
:1040E000F0E0808181608083E1E9F0E0808182609E
:1040F0008083808181608083E0E9F0E0808181605D
:104100008083E1EAF0E08081826080838081816049
:104110008083E0EAF0E0808181608083E1E2F1E089
:10412000808182608083808181608083E0E2F1E031
:10413000808181608083EAE7F0E080818460808311
:1041400080818260808380818160808380818068BB
:1041500080831092C1000895CF93DF93482F50E0E1
:10416000CA0188569E4FFC0134914E5A5E4FFA01A7
:104170008491882369F190E0880F991FFC01EC5F1E
:10418000FE4FA591B491FC01E25EFE4FC591D49122
:10419000662351F42FB7F8948C91932F909589232F
:1041A0008C93888189230BC0623061F42FB7F89417
:1041B0008C91932F909589238C938881832B88836E
:1041C0002FBF06C09FB7F8948C91832B8C939FBF11
:1041D000DF91CF910895893009F449C08A30A0F465
:1041E000843051F1853040F4823079F1833000F52C
:1041F000813009F063C026C0873079F1883098F5A6
:10420000863009F05BC025C08D3009F442C08E3085
:1042100028F48B30B1F18C30C0F52DC0803109F419
:1042200042C0813109F445C08F3009F047C037C022
:10423000809180008F7703C0809180008F7D809374
:104240008000089584B58F7702C084B58F7D84BDCA
:1042500008958091B0008F7703C08091B0008F7D6A
:104260008093B0000895809190008F7707C080916F
:1042700090008F7D03C080919000877F8093900095
:1042800008958091A0008F7707C08091A0008F7D56
:1042900003C08091A000877F8093A0000895809143
:1042A00020018F7703C0809120018F7D80932001B2
:1042B000089580912001877F809320010895FF92C7
:1042C0000F931F93F62E482F50E0CA0182529E4F43
:1042D000FC012491CA0188569E4FFC0114914E5A4C
:1042E0005E4FFA0104910023C9F0222319F0822FB6
:1042F0000E94EB20E02FF0E0EE0FFF1FE25EFE4F8A
:10430000A591B4919FB7F894FF2021F48C9110955A
:10431000812302C08C91812B8C939FBF1F910F91A1
:10432000FF9008950F931F93482F50E0CA018252C7
:104330009E4FFC012491CA0188569E4FFC010491B6
:104340004E5A5E4FFA011491112319F420E030E027
:1043500015C0222319F0822F0E94EB20812F90E0BC
:10436000880F991F885C9E4FFC01A591B4918C9198
:1043700020E030E0802311F021E030E0C9011F91FE
:104380000F910895EF92FF920F931F937B018C0181
:1043900020E030E040E05FE40E946E2588238CF04E
:1043A000C801B70120E030E040E05FE40E943A231A
:1043B0000E9487269B01AC0120503040404050486D
:1043C00006C0C801B7010E9487269B01AC01B90154
:1043D000CA011F910F91FF90EF900895A0E0B0E007
:1043E000E4EFF1E20C94AF2FDC012B01FA019C9178
:1043F000923008F439C1EB018881823008F433C16E
:10440000943069F4843009F02FC111969C91119772
:104410008981981709F428C1ADEFB2E025C1843035
:1044200009F421C18230A9F4923009F01DC19A012A
:10443000AD0188E0EA010990AE01E90109929E010F
:104440008150C1F7E201898111969C918923818372
:1044500008C1923009F407C112962D903C90139731
:10446000EB018A819B811496AD90BD90CD90DC903C
:104470001797EC80FD800E811F819101281B390B5D
:10448000B90137FF04C066277727621B730B6032C0
:1044900071050CF061C0121613066CF53701480166
:1044A000062E04C096948794779467940A94D2F762
:1044B00021E030E040E050E004C0220F331F441FF1
:1044C000551F6A95D2F721503040404050402E2170
:1044D0003F2140235123211531054105510521F08C
:1044E00021E030E040E050E079018A01E628F72839
:1044F000082919293CC0232BD1F1260E371E35017E
:104500004601062E04C096948794779467940A9483
:10451000D2F721E030E040E050E004C0220F331F2A
:10452000441F551F6A95D2F72150304040405040FB
:104530002A213B214C215D212115310541055105E1
:1045400021F021E030E040E050E059016A01A62866
:10455000B728C828D9280BC0821593052CF01C0158
:10456000AA24BB24650103C0EE24FF248701119611
:104570009C91D20111968C91981709F445C099230A
:1045800039F0A80197012A193B094C095D0906C0B9
:10459000A60195012E193F09400B510B57FD08C08C
:1045A00011823382228224833583468357831DC040
:1045B00081E081833382228288279927DC01821B54
:1045C000930BA40BB50B84839583A683B7830DC08F
:1045D000220F331F441F551F24833583468357837F
:1045E00082819381019793838283248135814681DF
:1045F0005781DA01C9010197A109B1098F5F9F4F66
:10460000AF4FBF4328F30BC0918333822282EA0C61
:10461000FB1C0C1D1D1DE482F5820683178383E0BD
:104620008083248135814681578157FF1AC0C90193
:10463000AA2797FDA095BA2F81709070A070B070D6
:104640005695479537952795822B932BA42BB52B01
:1046500084839583A683B783828193810196938314
:104660008283DF0101C0D201CD01CDB7DEB7E2E127
:104670000C94CB2FA0E2B0E0E0E4F3E20C94BB2F6B
:1046800069837A838B839C832D833E834F835887F2
:10469000E9E0EE2EF12CEC0EFD1ECE010196B701E5
:1046A0000E9478288E010F5E1F4FCE010596B8013B
:1046B0000E9478288A8991E089278A8BC701B801EE
:1046C000AE01475E5F4F0E94EE210E94A327A09695
:1046D000E6E00C94D72FA0E2B0E0E1E7F3E20C941F
:1046E000BB2F69837A838B839C832D833E834F8387
:1046F0005887F9E0EF2EF12CEC0EFD1ECE0101964D
:10470000B7010E9478288E010F5E1F4FCE010596DB
:10471000B8010E947828C701B801AE01475E5F4F1B
:104720000E94EE210E94A327A096E6E00C94D72FCA
:10473000A0E2B0E0EEE9F3E20C94AF2F69837A8354
:104740008B839C832D833E834F835887CE010196B4
:10475000BE01675F7F4F0E947828CE010596BE019B
:104760006F5E7F4F0E9478289985923088F0898902
:104770008230C8F0943019F4823051F404C084308F
:1047800029F4923081F48DEF92E0C6C0923049F462
:1047900020E09A858A89981321E02A87CE0109961C
:1047A000BBC0823049F420E09A858A89981321E0C1
:1047B0002A8BCE014196B0C02D843E844F84588808
:1047C0006D887E888F88988CEE24FF248701AA2428
:1047D000BB24650140E050E060E070E0E0E0F0E024
:1047E000C10181709070892BE9F0E60CF71C081D5F
:1047F000191D9A01AB012A0D3B1D4C1D5D1D80E06A
:1048000090E0A0E0B0E0E614F7040805190520F4F4
:1048100081E090E0A0E0B0E0BA01A901480F591F83
:104820006A1F7B1FAA0CBB1CCC1CDD1C97FE08C09A
:1048300081E090E0A0E0B0E0A82AB92ACA2ADB2AE9
:104840003196E032F10549F0660C771C881C991C02
:104850005694479437942794C3CFFA85EA892B89D5
:104860003C898B859C85280F391F2E5F3F4F17C0D1
:10487000CA0181709070892B61F016950795F794A5
:10488000E79480E090E0A0E0B0E8E82AF92A0A2B5B
:104890001B2B76956795579547952F5F3F4F77FD73
:1048A000E7CF0CC0440F551F661F771F17FD4160EF
:1048B000EE0CFF1C001F111F21503040403090E0D3
:1048C000590790E0690790E4790760F32B8F3C8FDC
:1048D000DB01CA018F779070A070B07080349105B1
:1048E000A105B10561F447FD0AC0E114F104010519
:1048F000110529F0405C5F4F6F4F7F4F40781A8E53
:10490000FE1711F081E08A8F4D8F5E8F6F8F78A335
:1049100083E0898FCE0149960E94A327A096E2E109
:104920000C94CB2FA8E1B0E0E8E9F4E20C94B72FA7
:1049300069837A838B839C832D833E834F8358873F
:10494000B9E0EB2EF12CEC0EFD1ECE010196B70165
:104950000E9478288E010F5E1F4FCE010596B80188
:104960000E9478282985223008F47EC039893230A7
:1049700010F4B8017CC08A859A8989278A872430F7
:1049800011F0223031F4231709F06EC06DEF72E0A0
:104990006EC0343039F41D861E861F86188A1C8628
:1049A0001B8604C0323021F484E08987B7015FC0E0
:1049B0002B853C858B899C89281B390B3C872B8751
:1049C000ED84FE840F851889AD88BE88CF88D88C89
:1049D000EA14FB040C051D0540F4EE0CFF1C001F3F
:1049E000111F215030403C872B8720E030E040E011
:1049F00050E080E090E0A0E0B0E460E070E0EA1415
:104A0000FB040C051D0540F0282B392B4A2B5B2B92
:104A1000EA18FB080C091D09B695A7959795879587
:104A2000EE0CFF1C001F111F6F5F7F4F6F31710570
:104A300031F7DA01C9018F779070A070B0708034BF
:104A40009105A105B10561F427FD0AC0E114F10447
:104A50000105110529F0205C3F4F4F4F5F4F207833
:104A60002D873E874F87588BBE01675F7F4FCB01F5
:104A70000E94A3276896EAE00C94D32FA8E1B0E047
:104A8000E4E4F5E20C94BB2F69837A838B839C83E7
:104A90002D833E834F83588789E0E82EF12CEC0E5E
:104AA000FD1ECE010196B7010E9478288E010F5E8F
:104AB0001F4FCE010596B8010E9478288985823063
:104AC00040F08989823028F0C701B8010E94F0289F
:104AD00001C08FEF6896E6E00C94D72FA8E1B0E014
:104AE000E4E7F5E20C94BB2F69837A838B839C8384
:104AF0002D833E834F83588789E0E82EF12CEC0EFE
:104B0000FD1ECE010196B7010E9478288E010F5E2E
:104B10001F4FCE010596B8010E9478288985823002
:104B200040F08989823028F0C701B8010E94F0283E
:104B300001C08FEF6896E6E00C94D72FA8E1B0E0B3
:104B4000E4EAF5E20C94BB2F69837A838B839C8320
:104B50002D833E834F83588789E0E82EF12CEC0E9D
:104B6000FD1ECE010196B7010E9478288E010F5ECE
:104B70001F4FCE010596B8010E94782889858230A2
:104B800040F08989823028F0C701B8010E94F028DE
:104B900001C081E06896E6E00C94D72FA8E1B0E070
:104BA000E4EDF5E20C94BB2F69837A838B839C83BD
:104BB0002D833E834F83588789E0E82EF12CEC0E3D
:104BC000FD1ECE010196B7010E9478288E010F5E6E
:104BD0001F4FCE010596B8010E9478288985823042
:104BE00040F08989823028F0C701B8010E94F0287E
:104BF00001C081E06896E6E00C94D72FA8E1B0E010
:104C0000E4E0F6E20C94BF2F69837A838B839C8364
:104C10002D833E834F835887CE010196BE01675F87
:104C20007F4F0E947828CE010596BE016F5E7F4FB0
:104C30000E9478288985823028F020E030E0898938
:104C4000823010F421E030E0822F6896E2E00C948C
:104C5000DB2FA8E0B0E0EFE2F6E20C94B82F9B0166
:104C6000AC0183E08983DA01C9018827B7FD839508
:104C70009927AA27BB27B82E2115310541055105D3
:104C800019F482E089833AC08823A9F0203080E0BB
:104C9000380780E0480780E8580729F460E070E0B2
:104CA00080E09FEC30C0EE24FF248701E21AF30A73
:104CB000040B150B02C079018A018EE1C82ED12C9C
:104CC000DC82CB82ED82FE820F831887C801B70198
:104CD0000E94542701971816190684F4082E04C060
:104CE000EE0CFF1C001F111F0A94D2F7ED82FE820A
:104CF0000F831887C81AD90ADC82CB82BA82CE0108
:104D000001960E94A3272896E9E00C94D42FACE0EA
:104D1000B0E0EDE8F6E20C94BF2F69837A838B83D1
:104D20009C83CE010196BE016B5F7F4F0E94782865
:104D30008D81823061F1823050F1843021F48E8196
:104D4000882351F12EC02F81388537FD20C06E8118
:104D50002F3131051CF06623F9F023C08EE190E07D
:104D6000821B930B29853A854B855C8504C056953B
:104D70004795379527958A95D2F76623B1F05095D8
:104D80004095309521953F4F4F4F5F4F0EC020E02B
:104D900030E040E050E009C02FEF3FEF4FEF5FE71A
:104DA00004C020E030E040E050E8B901CA012C9690
:104DB000E2E00C94DB2FA8E0B0E0E1EEF6E20C9428
:104DC000B72F7B018C01611571058105910519F4DF
:104DD00082E0898360C083E089838EE1C82ED12C74
:104DE000DC82CB82ED82FE820F831887C801B70177
:104DF0000E945427FC013197F7FF3BC0222733273D
:104E00002E1B3F0B57016801022E04C0D694C79495
:104E1000B794A7940A94D2F740E050E060E070E0C5
:104E200081E090E0A0E0B0E004C0880F991FAA1FC5
:104E3000BB1F2A95D2F70197A109B1098E219F21A5
:104E4000A023B1230097A105B10521F041E050E076
:104E500060E070E04A295B296C297D294D835E83DF
:104E60006F8378878EE190E08E1B9F0B9C838B83F2
:104E700012C0309781F00E2E04C0EE0CFF1C001FF4
:104E8000111F0A94D2F7ED82FE820F831887CE1A83
:104E9000DF0ADC82CB821A82CE0101960E94A32710
:104EA0002896EAE00C94D32FEF92FF920F931F9372
:104EB0007B018C0180E0E81680E0F80681E00807BD
:104EC00080E0180788F48FEFE816F104010511055A
:104ED00031F028F088E090E0A0E0B0E017C080E07A
:104EE00090E0A0E0B0E012C080E0E81680E0F806B4
:104EF00080E0080781E0180728F088E190E0A0E052
:104F0000B0E004C080E190E0A0E0B0E020E230E05A
:104F100040E050E0281B390B4A0B5B0B04C0169590
:104F20000795F794E7948A95D2F7F701EB5FFC4F6A
:104F30008081281B310941095109C9011F910F9135
:104F4000FF90EF900895DF92EF92FF920F931F93DF
:104F5000FC01E480F58006811781D1808081823058
:104F600048F480E090E0A0E1B0E0E82AF92A0A2BBA
:104F70001B2BA5C0843009F49FC0823021F4EE249D
:104F8000FF24870105C0E114F1040105110519F49E
:104F9000E0E0F0E096C0628173819FEF62387907AC
:104FA0000CF05BC022E83FEF261B370B2A3131059E
:104FB0002CF020E030E040E050E02AC0B801A7012A
:104FC000022E04C076956795579547950A94D2F7B7
:104FD00081E090E0A0E0B0E004C0880F991FAA1F14
:104FE000BB1F2A95D2F70197A109B1098E219F21F4
:104FF000A023B1230097A105B10521F081E090E045
:10500000A0E0B0E09A01AB01282B392B4A2B5B2B97
:10501000DA01C9018F779070A070B070803491056B
:10502000A105B10539F427FF09C0205C3F4F4F4F60
:105030005F4F04C0215C3F4F4F4F5F4FE0E0F0E017
:105040002030A0E03A07A0E04A07A0E45A0710F099
:10505000E1E0F0E079018A0127C06038710564F56C
:10506000FB01E158FF4FD801C7018F779070A07006
:10507000B07080349105A105B10539F4E7FE0DC08B
:1050800080E490E0A0E0B0E004C08FE390E0A0E016
:10509000B0E0E80EF91E0A1F1B1F17FF05C016958A
:1050A0000795F794E794319687E016950795F7945E
:1050B000E7948A95D1F705C0EE24FF248701EFEF2E
:1050C000F0E06E2F679566276795902F9F77D794AE
:1050D000DD24D7948E2F8695492F462B582F5D2996
:1050E000B701CA011F910F91FF90EF90DF900895D3
:1050F000FC01DB01408151812281622F6F7770E0DA
:10510000221F2227221F9381892F880F822B282F6D
:1051100030E0991F9927991F11969C93119721159B
:105120003105A9F5411551056105710511F482E0BC
:1051300037C082E89FEF13969C938E9312979A0143
:10514000AB0167E0220F331F441F551F6A95D1F74B
:1051500083E08C930DC0220F331F441F551F1296FE
:105160008D919C911397019713969C938E93129710
:10517000203080E0380780E0480780E4580758F383
:1051800014962D933D934D935C93179708952F3F5D
:10519000310579F4411551056105710519F484E073
:1051A0008C93089564FF03C081E08C9312C01C921D
:1051B00010C02F57304013963C932E93129783E0E4
:1051C0008C9387E0440F551F661F771F8A95D1F790
:1051D000706414964D935D936D937C931797089527
:1051E0001F93DC01FB019C91923008F447C0808141
:1051F000823008F443C0943051F411961C918430ED
:1052000099F58181682F70E0611B71093FC084307E
:1052100021F0923031F48230B9F18181882389F113
:105220002DC011961C9111978230F1F081811817D1
:10523000D9F412962D913C91139782819381821714
:10524000930794F028173907BCF014968D919D911F
:105250000D90BC91A02D248135814681578128175E
:1052600039074A075B0718F4112341F00AC0821777
:105270009307A407B50740F4112319F061E070E02B
:1052800005C06FEF7FEF02C060E070E0CB011F91BF
:1052900008951F93FC0199278827BC01E894119178
:1052A0001032E9F3193010F01E30C8F31B3251F000
:1052B0001D3249F4689406C00E94512A610F711D85
:1052C000811D911D119110531A30B0F33EF4909549
:1052D0008095709561957F4F8F4F9F4F1F910895D7
:1052E000FB01DC0102C005900D9241505040D8F7FF
:1052F0000895FB01DC0102C001900D924150504025
:10530000D8F708956817790768F4FB01DC01E40F0A
:10531000F51FA40FB51F02C002900E9241505040DD
:10532000D8F708950C947929FB01DC010D90002039
:10533000E9F7119701900D920020E1F70895FC0123
:105340008191861721F08823D9F7992708953197FD
:10535000CF010895FB01DC018D91019080190110AE
:10536000D9F3990B0895FB01DC0101900D92002007
:10537000E1F70895FB01DC014150504030F08D9180
:105380000190801919F40020B9F7881B990B089532
:10539000FB01DC014150504048F001900D9200208B
:1053A000C9F701C01D9241505040E0F70895FC013B
:1053B00081E090E00190061609F4CF010020D1F7BA
:1053C00001970895FB0151915523A9F0BF01DC011C
:1053D0004D9145174111E1F759F4CD01019000209D
:1053E00049F04D9140154111C9F3FB014111EFCF37
:1053F00081E090E001970895FB019F01E89442301D
:10540000C4F04532B4F44A3029F497FB1EF4909569
:1054100081959F4F642F77270E940730805D8A33E4
:105420000CF0895D8193CB010097A1F716F45DE242
:1054300051931082C9010C94BE2CFA01CF93FF93B3
:10544000EF93223044F1253234F5C22FE894CA306C
:1054500049F497FB3EF490958095709561957F4F48
:105460008F4F9F4F2C2F332744275527FF93EF93C0
:105470000E948D2FEF91FF91605D6A330CF0695DA2
:105480006193B901CA01605070408040904051F76B
:1054900016F4CDE2C19310828F919F91CF910C941D
:1054A000BE2C592F482F372F262F660F771F881FA6
:1054B000991F660F771F881F991F620F731F841F24
:1054C000951F660F771F881F991F0895FA01CF93C4
:1054D000FF93EF932230CCF02532BCF4C22F2C2F57
:1054E000332744275527FF93EF930E948D2FEF9189
:1054F000FF91605D6A330CF0695D6193B901CA0187
:10550000605070408040904051F710828F919F9181
:10551000CF910C94BE2CFB019F01423074F04532B8
:1055200064F4642F77270E940730805D8A330CF083
:10553000895D8193CB010097A1F71082C9010C947A
:10554000BE2CAEE0B0E0E7EAFAE20C94BD2F8C018D
:1055500077FF02C060E070E8615070407E836D8329
:105560001A83098386E08C83CE010196BA01A901D2
:105570000E94CB2A2D813E8137FD09C0EF81F8853D
:105580002E173F070CF4F901E00FF11F10822E9641
:10559000E4E00C94D92FABE0B0E0E1EDFAE20C943A
:1055A000AF2F3C012B015A01FC0117821682838127
:1055B00081FD03C06FEF7FEFC6C19AE0892E1E0107
:1055C0000894211C311CF3012381F20123FD8591F4
:1055D00023FF81912F01882309F4B2C1853239F468
:1055E00023FD859123FF81912F01853229F490E0DD
:1055F000B3010E94CE2CE7CF982FFF24EE249924EC
:10560000FFE1FF15D0F09B3269F09C3228F4903214
:1056100059F0933291F40EC09D3249F0903369F401
:1056200041E024C052E0F52A84E0F82A28C098E03E
:10563000F92A25C0E0E1FE2A22C0F7FC29C0892F03
:1056400080538A3070F4F6FE05C0989C902C11248B
:10565000980E15C0E89CE02C1124E80EF0E2FF2A19
:105660000EC09E3229F4F6FC6BC140E4F42A07C058
:105670009C3619F450E8F52A02C0983649F4F20134
:1056800023FD959123FF91912F01992309F0B8CF24
:10569000892F8554833018F08052833038F444E0E9
:1056A00050E0A40EB51E5FE359830FC0933631F06E
:1056B000933779F0933509F056C020C0F501808109
:1056C000898342E050E0A40EB51E610101E010E0C4
:1056D00012C0F501C080D180F6FC03C06FEF7FEFF0
:1056E00002C0692D70E042E050E0A40EB51EC60174
:1056F0000E94B32C8C015FE7F52214C0F501C08035
:10570000D180F6FC03C06FEF7FEF02C0692D70E01F
:1057100042E050E0A40EB51EC6010E94A82C8C01E8
:1057200050E8F52AF3FE07C01AC080E290E0B3010A
:105730000E94CE2CEA948E2D90E008171907A8F34A
:105740000EC0F601F7FC8591F7FE81916F0190E0A4
:10575000B3010E94CE2CE110EA94015010400115D3
:10576000110579F7EAC0943611F0993669F5F7FE1C
:1057700008C0F501208131814281538184E090E0AD
:105780000AC0F501808191819C01442737FD409535
:10579000542F82E090E0A80EB91E9FE6F92257FF31
:1057A00009C050954095309521953F4F4F4F5F4F21
:1057B000E0E8FE2ACA01B901A1012AE030E00E9416
:1057C000FA2CD82ED21840C0953729F41F2D1F7EF1
:1057D0002AE030E01DC01F2D197F9F3661F0903701
:1057E00020F4983509F0ACC00FC0903739F09837E5
:1057F00009F0A6C004C028E030E00AC0106114FD22
:10580000146020E130E004C014FD166020E132E0B5
:1058100017FF08C0F501608171818281938144E0A6
:1058200050E008C0F50180819181BC0180E090E0EA
:1058300042E050E0A40EB51EA1010E94FA2CD82E21
:10584000D2188FE7F82EF122F6FE0BC05EEFF5229C
:10585000D91438F4F4FE07C0F2FC05C08FEEF8222C
:1058600002C01D2D01C0192DF4FE0DC0FE01ED0D6D
:10587000F11D8081803319F499EEF92208C01F5F71
:10588000F2FE05C003C08F2D867809F01F5F0F2D33
:10589000F3FC14C0F0FE0FC01E1510F09D2C0BC0C1
:1058A0009D2C9E0C911A1E2D06C080E290E0B30143
:1058B0000E94CE2C1F5F1E15C0F304C01E1510F4ED
:1058C000E11A01C0EE2404FF0FC080E390E0B301B1
:1058D0000E94CE2C02FF1DC001FD03C088E790E0AE
:1058E0000EC088E590E00BC0802F867891F001FF14
:1058F00002C08BE201C080E2F7FC8DE290E0B301D0
:105900000E94CE2C06C080E390E0B3010E94CE2C12
:105910009A94D914C0F3DA94F101ED0DF11D808150
:1059200090E0B3010E94CE2CDD20A9F706C080E2F2
:1059300090E0B3010E94CE2CEA94EE20C1F743CE52
:10594000F30166817781CB012B96E2E10C94CB2F9A
:10595000FC010590615070400110D8F7809590953A
:105960008E0F9F1F0895FC0161507040019001103F
:10597000D8F7809590958E0F9F1F0895DC01FC014C
:10598000672F71917723E1F7329704C07C916D9373
:1059900070836291AE17BF07C8F308950F931F93EA
:1059A000CF93DF938C01EB018B8181FF1BC082FFC2
:1059B0000DC02E813F818C819D812817390764F4A9
:1059C000E881F9810193F983E88306C0E885F985C8
:1059D000802F1995892B31F48E819F8101969F83A9
:1059E0008E8302C00FEF1FEFC801DF91CF911F918F
:1059F0000F910895FA01AA27283051F1203181F141
:105A0000E8946F936E7F6E5F7F4F8F4F9F4FAF4FC6
:105A1000B1E03ED0B4E03CD0670F781F891F9A1FD9
:105A2000A11D680F791F8A1F911DA11D6A0F711D8D
:105A3000811D911DA11D20D009F468943F912AE099
:105A4000269F11243019305D3193DEF6CF01089581
:105A5000462F4770405D4193B3E00FD0C9F7F6CFB2
:105A6000462F4F70405D4A3318F0495D31FD40527A
:105A7000419302D0A9F7EACFB4E0A6959795879510
:105A800077956795BA95C9F70097610571050895EF
:105A90009B01AC010A2E069457954795379527959B
:105AA000BA95C9F7620F731F841F951FA01D089533
:105AB0000F931F93CF93DF93BC018230910510F4B5
:105AC00062E070E0E091FD06F091FE06A0E0B0E03B
:105AD00040E050E024C08081918186179707D0F084
