:100000000C9418010C9445010C9445010C94450185
:100010000C9445010C9445010C9445010C94450148
:100020000C9445010C9445010C9445010C94450138
:100030000C9445010C9445010C9445010C94450128
:100040000C9445010C9445010C9445010C94450118
:100050000C9445010C9445010C9445010C945A24D0
:100060000C9445010C947A0E0C94C20F0C9445012B
:100070000C9445010C9445010C9445010C944501E8
:100080000C9445010C9445010C9445010C944501D8
:100090000C94BA0E0C9401100C9445010C9445017B
:1000A0000C9445010C9445010C9445010C944501B8
:1000B0000C9445010C9445010C9445010C944501A8
:1000C0000C9445010C9445010C9445010C94FA0ED6
:1000D0000C9440100C9445010C943A0F0C947F1032
:1000E0000C944501736F6D6570736575646F726113
:1000F0006E646F6D6C7967656E657261746564625C
:100100007974657300002100240027002A002D0067
:100110003000330001010000040107010A01000062
:100120002200250028002B002E003100340002019F
:100130000000050108010B0100002000230026003B
:1001400029002C002F0032000001000003010601ED
:10015000090105050505070508080808020202024D
:100160000A0A080804040404010101010101010153
:100170000303030303030303040707070C0C0C0C1E
:100180000C0C0C0C02020202060606060606060607
:100190000B0B0B0B0B0B0B0B010210202008081094
:1001A00020401020408002010201080402010102E7
:1001B00004081020408080402010080402018004C0
:1001C000020180402010080402010804020101021B
:1001D0000408102040800102040810204080000024
:1001E000090A02080B0C0D070603040100000000B9
:1001F00000000000000000000000000000000000FF
:100200000000000000000000000011100F000000BE
:1002100000000000000000000000000000000000DE
:1002200000000000BD011504F80D6B130E04F10D64
:1002300011241FBECFEFD1E2DEBFCDBF00E00CBF67
:1002400014E0A0E0B2E0EEE2FAE600E00BBF02C08C
:1002500007900D92AE30B107D9F71BBE17E0AEE0A4
:10026000B4E001C01D92A732B107E1F712E0CCE281
:10027000D2E004C02297FE010E94D734C432D107D5
:10028000C9F70E94720E0C940A350C940000DC0130
:10029000FB0160E070E09FEF1EC0911110822136DB
:1002A00018F02755808106C08081213410F0275333
:1002B00001C02053820F8083992339F08081829579
:1002C000807F80836F5F7F4F04C06417750730F4B1
:1002D0003196119690952C912223F9F6CB01089531
:1002E000EF92FF920F931F93CF93DF937B018901CE
:1002F00001501040EC01DA0140E050E060E070E0B5
:1003000021E030E022C04017510710F58881829526
:100310008F708A3010F0895C01C0805DFD0181938F
:1003200020173107B8F488818F708A3010F0895C0B
:1003300001C0805D11968C93119712964E5F5F4FAE
:100340006F5F7F4F21962E5F3F4F6E157F05D8F26E
:100350009A01FD011082C901DF91CF911F910F9188
:10036000FF90EF900895FC01029691838083089599
:10037000FC01029691838083089580E194E090933C
:100380000F0480930E040895AF92BF92CF92DF9234
:10039000EF92FF920F931F938C0122E0A22EB12CBB
:1003A000A80EB91E9AE0E92EF12CE00EF11EC5014F
:1003B000B7010E94370382E1C82ED12CC00ED11E96
:1003C000065E1F4FC601B8010E943703C7010E9495
:1003D000B903C8010E94C003C701B5010E945603BA
:1003E000C801B6010E945603C5010E94C503C6019B
:1003F000B7010E943703C501B8010E943703C70146
:100400000E94CA03C8010E94D103C701B6010E941D
:100410005603C801B5010E945603C6010E94C503D8
:100420001F910F91FF90EF90DF90CF90BF90AF9012
:100430000895EF92FF920F931F938C017B014A96D0
:100440000E945603C8010E94C401C8010E94C40151
:10045000C8010296B7010E9456031F910F91FF90A9
:10046000EF900895DC019B968C919B978F5F9B96F4
:100470008C939B979A968C919A97E82FFF27E7FD8C
:10048000F095EA0FFB1F62A381509A968C939A977E
:1004900087FF09C087E09A968C939A97CD01929630
:1004A000BD010E9419020895EF92FF920F931F93CE
:1004B000CF93DF93EC010BA504C0CE0160E00E9456
:1004C00032028AA51816CCF3CE01602F0E943202A8
:1004D00032E1E32EF12CEC0EFD1EC7010E946603F3
:1004E000CE010E94C401CE010E94C401CE010E942F
:1004F000C401CE010E94C4018E010E5F1F4F2A96D7
:10050000C801BE010E945603C801B7010E945603EC
:100510006096C801BE010E945603DF91CF911F91E2
:100520000F91FF90EF9008956F927F928F929F921C
:10053000AF92BF92CF92DF92EF92FF920F931F93F1
:10054000CF93DF938C014B0172E0C72ED12CC80EE4
:10055000D91EC60164EE70E048E050E00E945F2EB4
:100560006AE0662E712C600E711EC3016CEE70E0A5
:1005700048E050E00E945F2E52E1E52EF12CE00EA3
:10058000F11EC70164EF70E048E050E00E945F2E6A
:100590004AE1A42EB12CA00EB11EC5016CEF70E093
:1005A00048E050E00E945F2EE801A296DE01F401CF
:1005B00088E001900D928150E1F7CE010E94710315
:1005C000C601BE010E945603C701BE010E94560328
:1005D000DE01F401389688E001900D928150E1F738
:1005E000CE010E947103C301BE010E945603C501E2
:1005F000BE010E94560387E0F80182A713A6DF918F
:10060000CF911F910F91FF90EF90DF90CF90BF900F
:10061000AF909F908F907F906F900895EF92FF9290
:100620000F931F93DF93CF93CDB7DEB760970FB6CD
:10063000F894DEBF0FBECDBF8C017E010894E11C93
:10064000F11CC70140E150E00E945F2EC801B701D4
:100650000E94940260960FB6F894DEBF0FBECDBF25
:10066000CF91DF911F910F91FF90EF9008952F93FD
:100670003F934F93DC011896FB013896889428E04D
:100680003E914291341F3C932A95D1F74F913F916F
:100690002F9108952F933F93DC01FB0128E03191C6
:1006A0003D932A95E1F73F912F9108952F933F9322
:1006B0004F93DC01FB0128E03C91419134273D93AD
:1006C0002A95D1F74F913F912F9108953F934F93E2
:1006D000DC0117963C914FEF34273C934F913F91AB
:1006E00008952F933F934F93DC011796FC0124E06C
:1006F0003C9140814C93319311972A95C9F74F91C2
:100700003F912F9108952F933F93DC0117963C91D1
:10071000DC0128E037953C9137953D932A95D9F730
:100720006A9599F73F912F9108952F933F9388945D
:10073000DC013C91189628E0331F3E91331F3C9317
:100740002A95D9F76A95A1F73F912F9108952F9394
:100750003F934F93DC01FC014D9127E03D91319394
:100760002A95E1F740836A95A9F74F913F912F9120
:1007700008956F9362E0EBDF63E0C5DF6F9108954A
:100780006F9362E0E4DF6F9108956F9364E0DFDFC1
:100790006F9108956F9362E0DADF61E0C6DF6F91D9
:1007A00008956F9363E0D3DF63E0ADDF6F91089549
:1007B000FC0184E292E0918380838AE08283089541
:1007C000FC0184E292E0918380838AE08283089531
:1007D000FC0184E292E0918380830895FC0184E22D
:1007E00092E0918380830895FC01628308958130B3
:1007F000910551F46F5F7F4F81F48AE394E060E0EC
:1008000072E00E9441210895892B39F46F5F7F4F78
:1008100021F48AE394E00E943224089580E090E07D
:100820006FEF7FEF0E94F703089581E090E06FEF94
:100830007FEF0E94F7030895AF92BF92CF92DF92AD
:10084000EF92FF920F931F93DF93CF93CDB7DEB755
:10085000C750D1400FB6F894DEBF0FBECDBFCB5E00
:10086000DE4FA880B980C551D140DE01A75EBE4FE2
:1008700088E0C82ED12CCC0EDD1EC95EDE4FE8818B
:10088000F981C751D14040815181C60160E870E0D3
:100890009D010E94902FD501ED91FC91E680F7809B
:1008A0008E010F5F1F4FC801B6010E944121C50193
:1008B000B801F7011995C8010E943224C95FDE4FC3
:1008C0000FB6F894DEBF0FBECDBFCF91DF911F9161
:1008D0000F91FF90EF90DF90CF90BF90AF90089571
:1008E0008F929F92AF92BF92CF92DF92EF92FF9240
:1008F0000F931F93DF93CF93CDB7DEB72E970FB62D
:10090000F894DEBF0FBECDBF5C018B014A01DC0154
:1009100012968C9112978B3068F5ED91FC91C68000
:10092000D7807E010894E11CF11CC70165E072E0EC
:100930000E945B21C701B8010E940A216DE072E0AC
:100940000E94EE20B4010E940A2160E172E00E9440
:10095000EE20BC018E01085F1F4FC8010E941C24BD
:10096000C501B801F6011995C8010E943224C701DA
:100970000E9438242E960FB6F894DEBF0FBECDBF6E
:10098000CF91DF911F910F91FF90EF90DF90CF906B
:10099000BF90AF909F908F900895CF92DF92EF928B
:1009A000FF920F931F93DF93CF93CDB7DEB72E97B0
:1009B0000FB6F894DEBF0FBECDBF6C017E01089468
:1009C000E11CF11CC7010E941C248E01085F1F4F0F
:1009D000C8016AE374E00E941C24C601B701A801A3
:1009E0000E947004C8010E943224C7010E94322470
:1009F0002E960FB6F894DEBF0FBECDBFCF91DF911C
:100A00001F910F91FF90EF90DF90CF9008958F92FC
:100A10009F92AF92BF92CF92DF92EF92FF920F938D
:100A20001F93DF93CF93CDB7DEB72E970FB6F89411
:100A3000DEBF0FBECDBF5C018B014A01DC01129607
:100A40008C911297863068F5ED91FC91C680D78025
:100A50007E010894E11CF11CC70162E172E00E9472
:100A60005B21C701B8010E940A216DE072E00E947B
:100A7000EE20B4010E940A2160E172E00E94EE20A3
:100A8000BC018E01085F1F4FC8010E941C24C501D4
:100A9000B801F6011995C8010E943224C7010E94CD
:100AA00038242E960FB6F894DEBF0FBECDBFCF917F
:100AB000DF911F910F91FF90EF90DF90CF90BF904B
:100AC000AF909F908F900895CF92DF92EF92FF9218
:100AD0000F931F93DF93CF93CDB7DEB72E970FB64B
:100AE000F894DEBF0FBECDBF6C017E010894E11CFF
:100AF000F11CC7010E941C248E01085F1F4FC80112
:100B00006AE374E00E941C24C601B701A8010E9498
:100B10000705C8010E943224C7010E9432242E9684
:100B20000FB6F894DEBF0FBECDBFCF91DF911F91FE
:100B30000F91FF90EF90DF90CF9008958F929F924A
:100B4000AF92BF92CF92DF92EF92FF920F931F93DB
:100B5000DF93CF93CDB7DEB72E970FB6F894DEBFF5
:100B60000FBECDBF5C018B014A01DC0112968C9156
:100B70001297882369F5ED91FC91C680D7807E019C
:100B80000894E11CF11CC70169E172E00E945B213D
:100B9000C701B8010E940A216DE072E00E94EE20B8
:100BA000B4010E940A2160E172E00E94EE20BC01C3
:100BB0008E01085F1F4FC8010E941C24C501B801A7
:100BC000F6011995C8010E943224C7010E943824F9
:100BD0002E960FB6F894DEBF0FBECDBFCF91DF913A
:100BE0001F910F91FF90EF90DF90CF90BF90AF904B
:100BF0009F908F900895CF92DF92EF92FF920F9384
:100C00001F93DF93CF93CDB7DEB72E970FB6F8942F
:100C1000DEBF0FBECDBF6C017E010894E11CF11C4C
:100C2000C7010E941C248E01085F1F4FC8016AE3A0
:100C300074E00E941C24C601B701A8010E949E0511
:100C4000C8010E943224C7010E9432242E960FB69A
:100C5000F894DEBF0FBECDBFCF91DF911F910F91F2
:100C6000FF90EF90DF90CF900895FC0184E292E036
:100C700091838083CF010E9451240895FC018781D4
:100C800061850E944E260895FC01878161E00E94E3
:100C90009B250895FC0182E392E091838083CF013C
:100CA0000E9472080895FC0182E392E091838083A0
:100CB000CF010E94720808950F931F938C0182E365
:100CC00092E0F80191838083C8010E947208C801F4
:100CD0000E9451241F910F910895CF92DF92EF92BD
:100CE000FF920F931F938C017B016A010E945A08A7
:100CF00082E392E0F80191838083F086E782D286D6
:100D0000C1861F910F91FF90EF90DF90CF900895D3
:100D1000CF92DF92EF92FF920F931F938C017B0192
:100D20006A010E945A0882E392E0F801918380836D
:100D3000F086E782D286C1861F910F91FF90EF90D7
:100D4000DF90CF900895FC0189E892E09183808341
:100D5000138212820895FC0189E892E091838083D6
:100D6000138212820895FC01738362830895FC014B
:100D700089E892E0918380830895FC0189E892E0FC
:100D8000918380830895FC0189E892E091838083B8
:100D9000CF010E9451240895EF92FF920F931F9369
:100DA000CF93DF937C0110924104C0E8D0E000E0D3
:100DB00010E0CE018E219F218C179D0719F06AE368
:100DC00072E002C06CE372E081E494E00E94832E42
:100DD000D595C7950F5F1F4F0830110551F781E476
:100DE00094E0DF91CF911F910F91FF90EF900895C4
:100DF0009F92AF92BF92CF92DF92EF92FF920F93AA
:100E00001F93DF93CF93CDB7DEB7AA970FB6F894B1
:100E1000DEBF0FBECDBF8C01FC01A281B381ED917D
:100E2000FC9111970084F185E02D7E010894E11C6E
:100E3000F11CC701BD0119958D819E81892B09F493
:100E4000A0C0E981FA819080F3E39F16D9F0F915EB
:100E500028F021E3921609F051C008C035E393163B
:100E6000E9F087E3981609F049C024C0D80112962A
:100E7000ED90FC9013978E01085F1F4FC8016EE341
:100E800072E023C0D8011296ED90FC9013978E016A
:100E9000015F1F4FC80167E472E017C0D8011296C6
:100EA000ED90FC9013978E010A5E1F4FC80166E516
:100EB00072E00BC0D8011296ED90FC9013978E0152
:100EC000035E1F4FC80161E672E00E94412100D01D
:100ED00000D0EDB7FEB73196ADB7BEB71296FC9213
:100EE000EE9211971383028389819A81958384837B
:100EF0000E941C04EDB7FEB7369638C0D801129692
:100F0000AD90BC9013978E010C5D1F4FC8016BE62E
:100F100072E00E944121C980DA80CE0101960E94D0
:100F2000421BDC01CB010E94CC067C01892D90E0A4
:100F30000E94CC06EDB7FEB73A970FB6F894FEBF05
:100F40000FBEEDBF3196ADB7BEB71296BC92AE9252
:100F5000119713830283D582C482F782E682918738
:100F600080870E941C04EDB7FEB73A960FB6F8943E
:100F7000FEBF0FBEEDBFC8010E943224CE01019614
:100F800001C0C7010E943224AA960FB6F894DEBFB2
:100F90000FBECDBFCF91DF911F910F91FF90EF90CA
:100FA000DF90CF90BF90AF909F900895EF92FF9207
:100FB0000F931F93DF93CF93CDB7DEB727970FB66D
:100FC000F894DEBF0FBECDBFF82EE92E6DE872E0BB
:100FD0000E94412181E996E00E94BF12892B81F095
:100FE0008E010F5F1F4FC80161E976E00E94F5197D
:100FF0008F2D9E2DB8010E940524C8010E94322425
:101000008F2D9E2D27960FB6F894DEBF0FBECDBF55
:10101000CF91DF911F910F91FF90EF90089581E99B
:1010200096E00E943118089581E996E040E855E283
:1010300060E070E00E9446110895FC0182E992E0B0
:1010400091838083CF010E94E8030895FC0182E927
:1010500092E091838083CF010E94E80308950F936B
:101060001F938C0182E992E0F80191838083C8018B
:101070000E94E803C8010E9451241F910F91089516
:101080000F931F938C010E94D80382E992E0F8012C
:10109000918380831F910F9108950F931F938C016B
:1010A0000E94D80382E992E0F801918380831F9126
:1010B0000F910895FC0180EA92E09183808381E0A2
:1010C000828315821482138216820895FC0180EABD
:1010D00092E09183808381E082831582148213825F
:1010E00016820895FC0180EA92E09183808308953E
:1010F000FC0180EA92E0918380830895FC01828163
:10110000882319F481E08283089582E0868308951C
:10111000FC018281882311F01282089583E0868386
:101120000895DC0112968C911297882391F0149601
:101130008D919C911597019615969C938E9314977B
:10114000ED91FC9111970680F781E02DCD01199565
:10115000089581E016968C930895FC0163830895A9
:10116000FC018381882311F01682089584E0868330
:101170000895FC0196818381882309F41682892FC2
:101180000895FC0180EA92E091838083CF010E9460
:101190005124089508958BE090E00E944732009713
:1011A00061F4E0914A04F0914B04309721F480E01F
:1011B00090E00E940A351995EECF08950F931F9382
:1011C0008C018CEA92E0D80111969C938E93139631
:1011D0001C921E921297C80102960E94CB08FC0135
:1011E000D80113969C938E93129715961C921E927B
:1011F00014971082128211821296ED91FC9113972E
:10120000F483E3831296ED91FC911397F683E583C3
:1012100017961C921F910F9108950F931F938C01A5
:101220008CEA92E0D80111969C938E9313961C92AF
:101230001E921297C80102960E94CB08FC01D801A9
:1012400013969C938E93129715961C921E92149748
:101250001082128211821296ED91FC911397F48301
:10126000E3831296ED91FC911397F683E58317962D
:101270001C921F910F910895EF92FF920F931F936D
:10128000CF93DF937B010E94CB088C01BC01695F87
:101290007F4F84E090E00E94AE0DFC01E701888161
:1012A0009981AA81BB8180839183A283B383C80182
:1012B000DF91CF911F910F91FF90EF900895BF9212
:1012C000CF92DF92EF92FF920F931F93CF93DF9312
:1012D0006C017B01F801E901DB018D919C912817DC
:1012E000390751F0452B41F4208131818F81988558
:1012F000281739070CF05FC1C701BF010E943C09E4
:10130000DC019C838B83F70120813181C217D307D5
:1013100031F49A83898380819181FC010AC0F901AB
:1013200083819481C817D90731F4B483A38303C0A0
:10133000F901B683A5831296DC93CE931197149688
:101340001C921E92139716961C921E9215970A2FA6
:10135000BB2EE701688179811C92CD01EC0111E07F
:1013600000C1F901A181B2811396ED91FC9114970E
:101370002E173F0709F078C01596ED91FC9116974E
:10138000309721F08081882309F473C0F901A58189
:10139000B681CA17DB0711F09E012FC01396ED919D
:1013A000FC911497E901FE83ED83309711F03283AD
:1013B0002183F9018181928112969C938E931197DA
:1013C000EB0189819A812817390719F4BA83A98317
:1013D0000DC0E901E981FA818381948128173907D9
:1013E00019F4B483A38302C0B683A58314963C93F7
:1013F0002E931397F901B283A183D9011196ED9130
:10140000FC9112971083A181B2811C921396CD9109
:10141000DC911497ED81FE811496FC93EE93139763
:10142000309711F0B283A18311968D919C91129700
:101430009A838983FB0181819281A817B90719F4E6
:10144000D283C1830EC01196ED91FC9112978581D4
:101450009681A817B90719F4D683C58302C0D4832F
:10146000C383BE83AD8378C0309749F080818823E1
:1014700031F4E901188310831C929D0171C0F901B8
:10148000A381B481CA17DB0711F09E012FC0159606
:10149000ED91FC911697E901FC83EB83309711F0F5
:1014A00032832183F9018181928112969C938E93DC
:1014B0001197EB0189819A812817390719F4BA83AA
:1014C000A9830DC0E901E981FA81858196812817F8
:1014D000390719F4B683A58302C0B483A383169693
:1014E0003C932E931597F901B283A183D9011196EC
:1014F000ED91FC9112971083A181B2811C921596F7
:10150000CD91DC911697EB81FC811696FC93EE93BE
:101510001597309711F0B283A18311968D919C910C
:1015200012979A838983FB0181819281A817B90759
:1015300019F4D283C1830EC01196ED91FC911297DC
:1015400083819481A817B90719F4D483C38302C097
:10155000D683C583BC83AB831296DC93CE9311975D
:10156000E901DB0111964D915C911297C417D507E3
:1015700041F029813A81F9018081882309F4F1CE73
:10158000EA0181E08883D70112968D919C9113978F
:10159000019613969C938E931297E6010883B98265
:1015A000C601DF91CF911F910F91FF90EF90DF90D7
:1015B000CF90BF900895CB01B8010E943C09DC0197
:1015C0009E838D83F70120813181F9018581968188
:1015D000C817D90709F0AFCEABCEAF92BF92CF926A
:1015E000DF92EF92FF920F931F93DF93CF9300D080
:1015F0000F92CDB7DEB7B82EA92E6A01DB01ED90B0
:10160000FC90D7011196ED91FC911297870141E072
:1016100014C0D6012D913C918781908528173907F8
:1016200024F43381248141E003C03581268140E0E8
:101630008F01832F922F9C01F901309751F744239A
:1016400011F4D80140C0F70183819481081719076C
:1016500069F4EB2CFA2CCE01019640E050E09801A1
:1016600086010E945F0989819A8143C0F8018081C7
:10167000882361F40180F281E02D818192818017BD
:10168000910721F4F801A581B6811DC0F801A3815D
:10169000B481109741F015968D919C911697009703
:1016A00091F0DC01F8CFF801A181B28105C0FD0104
:1016B000818192819C01D90113968D919C911497FF
:1016C000E817F907A1F317962D913C911897F601A9
:1016D0008081918128173907A4F4EB2CFA2CCE01D4
:1016E000039640E050E0980186010E945F098B81DB
:1016F0009C81D70111969C938E9381E012968C93D6
:1017000005C0EB2DFA2DB183A08312828B2D9A2D6B
:101710000F900F900F900F90CF91DF911F910F912D
:10172000FF90EF90DF90CF90BF90AF900895CF9251
:10173000DF92EF92FF920F931F93DF93CF93CDB77A
:10174000DEB729970FB6F894DEBF0FBECDBFD82EF7
:10175000C92EFA017901A081B181FB01208131817B
:10176000F90183819481A817B90791F4FB01828163
:101770009381892B09F47EC0F7012081318117966E
:101780008D919C911897281739070CF073C06AC087
:10179000A217B307E1F41596ED91FC9116972781F6
:1017A0003085D7018D919C912817390734F48D2D00
:1017B0009C2D40E050E09F0159C00D2D1C2DCE0105
:1017C0000496A7010E94ED0A8C819D8169C08C91CD
:1017D000882371F41196ED91FC9112978181928189
:1017E0008A179B0729F415960D911C91169720C016
:1017F00013960D911C9114970115110539F0F801FC
:10180000858196810097A1F08C01F9CF11960D91F9
:101810001C911297AD0106C0A801F8018181928147
:101820009C018901F8018381948148175907A1F32C
:10183000F70120813181F801878190858217930714
:1018400034F517968D919C91189728173907FCF459
:1018500085819681892B31F48D2D9C2D40E050E0BF
:10186000980104C08D2D9C2DAD019D0187010E9422
:101870005F0919C00D2D1C2DCE010196A7010E94F4
:10188000ED0A89819A81D8018D939C930CC00D2D0E
:101890001C2DCE010796A7010E94ED0A8F81988525
:1018A000F801918380838D2D9C2D29960FB6F89495
:1018B000DEBF0FBECDBFCF91DF911F910F91FF9083
:1018C000EF90DF90CF900895EF92FF920F931F93C8
:1018D000DF93CF93CDB7DEB728970FB6F894DEBF6E
:1018E0000FBECDBFAC01FC01A281B3811196ED9179
:1018F000FC911297BD010DC08781908518161906BD
:101900001CF40381148103C005811681FB01BF0112
:10191000F801309789F7FB017B016A177B0721F0FB
:10192000878190850297BCF081E090E09E838D8353
:1019300018861F82FA83E9834E5F5F4FCE010396BC
:10194000BA01AE014F5F5F4F9E012B5F3F4F0E9478
:10195000970BEB80FC808BE090E00E945724182FBF
:10196000092F6DE070E041E050E00E946D06F70144
:101970001187028728960FB6F894DEBF0FBECDBF41
:10198000CF91DF911F910F91FF90EF9008950E94EA
:10199000640C0895EF92FF920F931F93CF93DF9300
:1019A0007C01EB010EC06D817E81C7010E94CA0CD3
:1019B0001B810C81CE010E94E432212F302FC901FE
:1019C000EC01209781F7DF91CF911F910F91FF904C
:1019D000EF900895CF93DF93EC018A819B81892B4F
:1019E000A9F0E881F98161817281CE010E94CA0C5F
:1019F000E881F981F483E383E881F981128211821D
:101A0000E881F981F683E5831B821A8288819981B6
:101A10000E94E432DF91CF9108950F931F93182F06
:101A2000092FE82FF92F8CEA92E081939193CF014F
:101A30000E94EA0C812F902F0E9451241F910F9138
:101A40000895FC018CEA92E081939193CF010E946A
:101A5000EA0C0895FC018CEA92E081939193CF0106
:101A60000E94EA0C0895DF92EF92FF920F931F936A
:101A7000CF93DF937C01D62E8A01FC01C281D381F2
:101A8000A981BA817C2F4D2FFD0114C087819085DB
:101A9000801791071CF06381548106C065815681CF
:101AA000872F942F9C01F9017E2F4F2F862F952F82
:101AB0009C01F901309751F7E72FF42FAE01EC1795
:101AC000FD0709F43FC08781908508171907D4F1F5
:101AD00019C017968D919C911897801791073CF02B
:101AE00013963C91139714962C91149706C0159653
:101AF0003C91159716962C91DE01ED01832F922FC4
:101B00009C01D901109729F7C417D50729F08F81B7
:101B10009885081719070CF0AE01FA0181859285A6
:101B2000F1E0DF1631F0DF1650F022E0D21669F452
:101B300003C00E947E0809C00E94880806C00E9457
:101B4000910803C081E0F7018783DF91CF911F9156
:101B50000F91FF90EF90DF9008950895CB010895C5
:101B60008130910521F56F5F7F4FD1F58CE494E0D2
:101B70000E9440088FE494E00E94AB0683E594E065
:101B80000E94DE086091C5027091C6028BE594E068
:101B900041E050E00E946D066091C5027091C6025E
:101BA00086E694E040E050E00E946D060895892B9F
:101BB000B9F46F5F7F4FA1F486E694E00E944A0675
:101BC0008BE594E00E944A0683E594E00E94210D93
:101BD0008FE494E00E94BD068CE494E00E941D080E
:101BE000089580E090E06FEF7FEF0E94B00D0895C0
:101BF00081E090E06FEF7FEF0E94B00D089583E5E4
:101C000094E060E041E050E00E94330D60ED77E049
:101C100080E090E00E94D62486E694E00E9491083D
:101C200060ED77E080E090E00E94D6248FE494E0BD
:101C30000E94F8060895CF92DF92EF92FF920F93E1
:101C40001F93DF93CF93CDB7DEB72E970FB6F894DF
:101C5000DEBF0FBECDBF83E594E00E94C70C8BE5CD
:101C600094E00E94440686E694E00E9444068CE4D8
:101C7000C82E84E0D82EC6010E941408C60165E073
:101C80000E94F4037E010894E11CF11CC70160EB83
:101C900072E00E9441218E01085F1F4FC8016FEB67
:101CA00072E00E944121C601B701A8010E949E0571
:101CB000C8010E943224C7010E9432248FE494E0BC
:101CC000B6010E94B3062E960FB6F894DEBF0FBE83
:101CD000CDBFCF91DF911F910F91FF90EF90DF90DB
:101CE000CF9008950E9439250E941B0E0E94FF0D7F
:101CF000FDCF08951F920F920FB60F920BB60F9261
:101D000011242F933F934F938F939F93EF93FF93C0
:101D10008091C00082FD1DC04091C6002091B10499
:101D20003091B2042F5F3F4F2F7330708091B30416
:101D30009091B4042817390771F0E091B104F09143
:101D4000B204EF58FB4F40833093B2042093B104A8
:101D500002C08091C600FF91EF919F918F914F91AA
:101D60003F912F910F900BBE0F900FBE0F901F90C1
:101D7000189508951F920F920FB60F920BB60F92FF
:101D800011242F933F934F938F939F93EF93FF9340
:101D90008091C80082FD1DC04091CE002091390580
:101DA00030913A052F5F3F4F2F73307080913B0584
:101DB00090913C052817390771F0E0913905F091B1
:101DC0003A05E750FB4F408330933A05209339059D
:101DD00002C08091CE00FF91EF919F918F914F9122
:101DE0003F912F910F900BBE0F900FBE0F901F9041
:101DF000189508951F920F920FB60F920BB60F927F
:101E000011242F933F934F938F939F93EF93FF93BF
:101E10008091D00082FD1DC04091D6002091C10567
:101E20003091C2052F5F3F4F2F7330708091C305F3
:101E30009091C4052817390771F0E091C105F09120
:101E4000C205EF57FA4F40833093C2052093C10576
:101E500002C08091D600FF91EF919F918F914F9199
:101E60003F912F910F900BBE0F900FBE0F901F90C0
:101E7000189508951F920F920FB60F920BB60F92FE
:101E800011242F933F934F938F939F93EF93FF933F
:101E90008091300182FD1DC040913601209149069C
:101EA00030914A062F5F3F4F2F73307080914B0661
:101EB00090914C062817390771F0E0914906F0918E
:101EC0004A06E75FF94F408330934A06209349065C
:101ED00002C080913601FF91EF919F918F914F91B8
:101EE0003F912F910F900BBE0F900FBE0F901F9040
:101EF0001895E0919D06F0919E06E05CFF4F819160
:101F0000919120813181821B930B8F739070892B6B
:101F100011F00E94790EE091BF06F091C006E05CDE
:101F2000FF4F8191919120813181821B930B8F739F
:101F30009070892B11F00E94B90EE091E106F091AA
:101F4000E206E05CFF4F8191919120813181821BFB
:101F5000930B8F739070892B11F00E94F90EE09112
:101F60000307F0910407E05CFF4F8191919120817C
:101F70003181821B930B8F739070892B11F00E941B
:101F8000390F08951F920F920FB60F920BB60F9252
:101F900011242F933F938F939F93EF93FF9320915F
:101FA000F5043091F6048091F7049091F804281715
:101FB000390731F48091C1008F7D8093C10014C036
:101FC000E091F704F091F804EB54FB4F20818091ED
:101FD000F7049091F80401968F7390709093F80431
:101FE0008093F7042093C600FF91EF919F918F910A
:101FF0003F912F910F900BBE0F900FBE0F901F902F
:1020000018951F920F920FB60F920BB60F921124D4
:102010002F933F938F939F93EF93FF9320917D0591
:1020200030917E0580917F059091800528173907B2
:1020300031F48091C9008F7D8093C90014C0E09174
:102040007F05F0918005E35CFA4F208180917F0548
:102050009091800501968F73907090938005809386
:102060007F052093CE00FF91EF919F918F913F913B
:102070002F910F900BBE0F900FBE0F901F901895D1
:102080001F920F920FB60F920BB60F9211242F933F
:102090003F938F939F93EF93FF9320910506309189
:1020A000060680910706909108062817390731F433
:1020B0008091D1008F7D8093D10014C0E0910706FC
:1020C000F0910806EB53FA4F20818091070690911A
:1020D000080601968F739070909308068093070608
:1020E0002093D600FF91EF919F918F913F912F9177
:1020F0000F900BBE0F900FBE0F901F9018951F9260
:102100000F920FB60F920BB60F9211242F933F939D
:102110008F939F93EF93FF9320918D0630918E06BE
:1021200080918F06909190062817390731F480919D
:1021300031018F7D8093310114C0E0918F06F091C1
:102140009006E35BF94F208180918F069091900675
:1021500001968F7390709093900680938F062093D2
:102160003601FF91EF919F918F913F912F910F90A9
:102170000BBE0F900FBE0F901F9018958F929F92DD
:10218000AF92BF92CF92DF92EF92FF920F931F9385
:10219000DF93CF93CDB7DEB7FC011382128288EEB6
:1021A00093E0A0E0B0E084839583A683B78381EDBC
:1021B00092E0918380837587648757874687318B48
:1021C000208B138B028BF58AE48AD78AC68AB18E5C
:1021D000A08E938E828E8889848F8989858F8A8943
:1021E000868F8B89878F8C8980A3CF91DF911F91F8
:1021F0000F91FF90EF90DF90CF90BF90AF909F90A6
:102200008F9008958F929F92AF92BF92CF92DF925C
:10221000EF92FF920F931F93DF93CF93CDB7DEB76B
:10222000FC011382128288EE93E0A0E0B0E0848388
:102230009583A683B78381ED92E091838083758730
:10224000648757874687318B208B138B028BF58AE7
:10225000E48AD78AC68AB18EA08E938E828E8889B0
:10226000848F8989858F8A89868F8B89878F8C89CE
:1022700080A3CF91DF911F910F91FF90EF90DF909E
:10228000CF90BF90AF909F908F900895AF92BF92E4
:10229000DF92EF92FF920F931F93CF93DF93EC01A6
:1022A0007A018B01DD24403081EE580780E0680719
:1022B00080E0780711F0DD24D39491E0A92EB12CB1
:1022C000EC89FD89DD2069F0C50108A002C0880FF6
:1022D000991F0A94E2F7808360E079E08DE390E053
:1022E00005C0108260E874E88EE190E0A8019701D3
:1022F0000E947C34215030404040504056954795D4
:102300003795279580E12030380720F0DD2011F047
:10231000DD24D6CFE889F9893083EA89FB892083D7
:1023200019A2EE89FF89408121E030E0C9010C8CBF
:1023300002C0880F991F0A94E2F7482B4083EE8968
:10234000FF894081C9010D8C02C0880F991F0A9432
:10235000E2F7482B4083EE89FF894081C9010E8C4A
:1023600002C0880F991F0A94E2F7482B4083EE8938
:10237000FF8980810F8C02C0220F331F0A94E2F77D
:10238000209528232083DF91CF911F910F91FF90FB
:10239000EF90DF90BF90AF900895AF92BF92CF9231
:1023A000DF92EF92FF920F931F93CF93DF93EC0195
:1023B0007A018B01C22EDD24403081EE580780E087
:1023C000680780E0780711F0DD24D39471E0A72E30
:1023D000B12CEC89FD89DD2069F0C50108A002C09F
:1023E000880F991F0A94E2F7808360E079E08DE31B
:1023F00090E005C0108260E874E88EE190E0A801EA
:1024000097010E947C342150304040405040569506
:1024100047953795279580E12030380720F0DD205B
:1024200011F0DD24D6CFE889F9893083EA89FB8968
:102430002083E88DF98DC082EE89FF89408121E0FB
:1024400030E0C9010C8C02C0880F991F0A94E2F792
:10245000482B4083EE89FF894081C9010D8C02C061
:10246000880F991F0A94E2F7482B4083EE89FF8971
:102470004081C9010E8C02C0880F991F0A94E2F7AF
:10248000482B4083EE89FF8980810F8C02C0220F88
:10249000331F0A94E2F7209528232083DF91CF9100
:1024A0001F910F91FF90EF90DF90CF90BF90AF9072
:1024B0000895CF93DF93DC011E968D919C911F9719
:1024C000EC01C05CDF4FFC01EE5BFF4F28813981DE
:1024D0008081918128173907C9F75696ED91FC91B3
:1024E0005797408121E030E0C9015C960C905C97E1
:1024F00002C0880F991F0A94E2F780958423808395
:102500005696ED91FC9157974081C9015D960C90CC
:102510005D9702C0880F991F0A94E2F78095842383
:1025200080835696ED91FC9157974081C9015E9644
:102530000C905E9702C0880F991F0A94E2F780956D
:10254000842380835696ED91FC91579780815F9606
:102550000C905F9702C0220F331F0A94E2F7209578
:10256000282320831C96ED91FC911D97EE5BFF4F75
:102570008081918192938293DF91CF910895DC01C4
:102580001C96ED91FC911D97E05CFF4F21913191DC
:1025900080819181281B390B2F733070C9010895F8
:1025A000DC011C96ED91FC911D97E05CFF4F2081B2
:1025B0003181E054F040DF01AE5BBF4F8D919C91C3
:1025C00011972817390719F42FEF3FEF07C08D91A6
:1025D0009C91E80FF91F8081282F30E0C9010895F0
:1025E000DC011C96ED91FC911D97E05CFF4F208172
:1025F0003181E054F040DF01AE5BBF4F8D919C9183
:1026000011972817390719F42FEF3FEF10C08D915C
:102610009C911197E80FF91F20818D919C91119742
:1026200001968F73907011969C938E9330E0C90140
:102630000895DC0191968C919197882339F05496F6
:10264000ED91FC915597808186FFF9CF91961C9270
:102650000895CF93DF93EC01EE85FF85E05CFF4F9B
:1026600020813181E054F0402F5F3F4F2F73307055
:10267000DF01AE5BBF4F8D919C91119728173907F1
:10268000D1F3E05CFF4F80819181E054F040E80F8E
:10269000F91F6083EE85FF85E05CFF4F3183208367
:1026A000EE89FF89208181E090E00F8C02C0880FC5
:1026B000991F0A94E2F7282B208381E089A3EC89F3
:1026C000FD8980818064808381E090E0DF91CF91FB
:1026D000089581E008951F93109294061092930636
:1026E00028EE33E040E050E02093950630939606C4
:1026F000409397065093980661ED72E070939206AE
:102700006093910681E794E090939E0680939D06E6
:1027100085EB94E09093A00680939F0685EC90E073
:102720009093A2068093A10684EC90E09093A40677
:102730008093A30680EC90E09093A6068093A50674
:1027400081EC90E09093A8068093A70682EC90E03D
:102750009093AA068093A90686EC90E09093AC062D
:102760008093AB0614E01093AD06B3E0B093AE06D1
:10277000A7E0A093AF06F5E0F093B006E1E0E093A8
:10278000B1061092B6061092B5062093B7063093A4
:10279000B8064093B9065093BA067093B406609396
:1027A000B30689EF94E09093C0068093BF068DE353
:1027B00095E09093C2068093C1068DEC90E09093D3
:1027C000C4068093C3068CEC90E09093C606809379
:1027D000C50688EC90E09093C8068093C70689EC04
:1027E00090E09093CA068093C9068AEC90E090939B
:1027F000CC068093CB068EEC90E09093CE0680932F
:10280000CD061093CF06B093D006A093D106F093D7
:10281000D206E093D3061092D8061092D7062093E2
:10282000D9063093DA064093DB065093DC067093AA
:10283000D6066093D50681E895E09093E2068093F2
:10284000E10685EC95E09093E4068093E30685ED40
:1028500090E09093E6068093E50684ED90E09093F7
:10286000E8068093E70680ED90E09093EA06809377
:10287000E90681ED90E09093EC068093EB0682ED03
:1028800090E09093EE068093ED0686ED90E09093B5
:10289000F0068093EF061093F106B093F206A09332
:1028A000F306F093F406E093F5061092FA06109200
:1028B000F9062093FB063093FC064093FD065093E7
:1028C000FE067093F8066093F70689E096E0909311
:1028D0000407809303078DE496E0909306078093A6
:1028E000050785E391E0909308078093070784E349
:1028F00091E090930A078093090780E391E0909319
:102900000C0780930B0781E391E090930E0780936F
:102910000D0782E391E09093100780930F0786E301
:1029200091E0909312078093110710931307B093CF
:102930001407A0931507F0931607E09317071F914C
:102940000895CF92DF92EF92FF920F931F93CF9350
:10295000DF937C016B018A01C0E0D0E00FC0D6019B
:102960006D916D01D701ED91FC910190F081E02D09
:10297000C7011995C80FD91F015010400115110545
:1029800071F7CE01DF91CF911F910F91FF90EF90E2
:10299000DF90CF900895EF92FF920F931F93CF9304
:1029A000DF937C018B01C0E0D0E0F8010F5F1F4F87
:1029B0006491662359F0D701ED91FC910190F0816B
:1029C000E02DC7011995C80FD91FEFCFCE01DF91B8
:1029D000CF911F910F91FF90EF900895DC01ED9141
:1029E000FC910190F081E02D199508959C01DB0187
:1029F000ED91FC910190F081E02DCB01B901199589
:102A00000895EF92FF920F931F938C01DC01ED91DB
:102A1000FC910190F081E02D6DE019957C01D801C9
:102A2000ED91FC910190F081E02DC8016AE01995CB
:102A30009C012E0D3F1DC9011F910F91FF90EF903A
:102A40000895EF92FF920F931F937C010E94CB1485
:102A50008C01C7010E9401159C01200F311FC90183
:102A60001F910F91FF90EF900895EF92FF920F93B7
:102A70001F937C01DC01ED91FC910190F081E02D30
:102A800019958C01C7010E940115080F191FC80173
:102A90001F910F91FF90EF900895EF92FF920F9387
:102AA0001F937C01DB01ED91FC910190F081E02D01
:102AB000CB01B70119958C01C7010E940115080FC0
:102AC000191FC8011F910F91FF90EF900895CF93A8
:102AD000DF93EC016115710519F420E030E00FC0BF
:102AE000DB010D900020E9F71197A61BB70BE881D9
:102AF000F9810280F381E02DAD0119959C01C90196
:102B0000DF91CF9108954F925F927F928F929F9223
:102B1000AF92BF92CF92DF92EF92FF920F931F93EB
:102B2000DF93CF93CDB7DEB7A1970FB6F894DEBF92
:102B30000FBECDBF2C01742ECB01223008F42AE049
:102B400019A231E2C32ED12CCC0EDD1E822E992487
:102B5000AA24BB24672D752FA50194010E947C3403
:102B600079018A01C801B701A50194010E945D3471
:102B7000472D461B0894C108D1084A3010F4405D27
:102B800001C0495CF6014083E114F104010511051F
:102B900021F07E2C5F2DC801DDCFC201B6010E945D
:102BA0006715A1960FB6F894DEBF0FBECDBFCF91CB
:102BB000DF911F910F91FF90EF90DF90CF90BF902A
:102BC000AF909F908F907F905F904F900895DC0121
:102BD0002115310541F4ED91FC910190F081E02D3A
:102BE000642F199508950E9483150895EF92FF921E
:102BF0000F931F937C010E94E7158C01C7010E946F
:102C000001159C01200F311FC9011F910F91FF90E9
:102C1000EF900895EF92FF920F931F939A017B011B
:102C200000E010E0B801A7010E94E7151F910F9185
:102C3000FF90EF900895CF92DF92EF92FF920F9363
:102C40001F936C017B019A0100E010E0B801A7011D
:102C50000E94E7158C01C6010E940115080F191F7B
:102C6000C8011F910F91FF90EF90DF90CF900895D2
:102C7000EF92FF920F931F939A01E62EFF2400E03C
:102C800010E0B801A7010E94E7151F910F91FF9076
:102C9000EF900895CF92DF92EF92FF920F931F93E0
:102CA0006C01E62E9A01FF2400E010E0B801A701B4
:102CB0000E94E7158C01C6010E940115080F191F1B
:102CC000C8011F910F91FF90EF90DF90CF90089572
:102CD000CF92DF92EF92FF920F931F93CF93DF93E8
:102CE000EC016A017B012115310541F4E881F9818C
:102CF0000190F081E02D642F19951FC02A30310515
:102D0000D1F477FF17C0E881F9810190F081E02DBF
:102D10006DE219958C0144275527BA014C195D09BC
:102D20006E097F09CE012AE00E9483159801280FC1
:102D3000391F04C02AE00E9483159C01C901DF915C
:102D4000CF911F910F91FF90EF90DF90CF9008955A
:102D5000EF92FF920F931F937C010E9468168C01E3
:102D6000C7010E9401159C01200F311FC9011F914D
:102D70000F91FF90EF900895EF92FF920F931F93A2
:102D80007B019A010027F7FC0095102FB801A701DD
:102D90000E9468161F910F91FF90EF900895CF92B7
:102DA000DF92EF92FF920F931F936C017B019A01C8
:102DB0000027F7FC0095102FB801A7010E946816A4
:102DC0008C01C6010E940115080F191FC8011F912F
:102DD0000F91FF90EF90DF90CF9008950E946715BC
:102DE00008957F928F929F92AF92BF92CF92DF927F
:102DF000EF92FF920F931F93CF93DF934C017A01D1
:102E00008B01722ECB01BA01A80197010E94ED2A15
:102E1000882321F0C4016DEE72E021C0C0E0D0E053
:102E200057016801E894D7F8C601B5012FEF3FEFCD
:102E30004FE75FE70E94ED2A882351F4C601B501F0
:102E40002FEF3FEF4FE75FE70E94BD2A181614F0FF
:102E5000C1E0D0E0219739F0C40161EF72E00E9437
:102E60006715EC0193C0C801B7012FEF3FEF4FE7A3
:102E70005FE40E942D2A181654F0C801B7012FEF05
:102E80003FEF4FE75FEC0E948D2A882324F4C401B2
:102E900065EF72E0E4CFC801B70120E030E040E028
:102EA00050E00E948D2A87FD03C0C0E0D0E00EC034
:102EB000D401ED91FC910190F081E02DC4016DE20F
:102EC0001995EC0117FB109517F9109520E030E0EB
:102ED00040E05FE3DD240BC0CA01B90120E030E02F
:102EE00040E251E40E9481299B01AC01D394D714A4
:102EF00098F3C801B7010E945A285B016C010E9437
:102F0000B1267B018C01C401B801A7012AE030E0A1
:102F10000E94E715C80FD91F772039F0C40169EF67
:102F200072E00E946715C80FD91FC801B7010E943F
:102F3000CA2B9B01AC01C601B5010E94292824C0FF
:102F400020E030E040E251E40E9487287B018C01C0
:102F50000E94762B5B016C01CC24B7FCC094DC2C66
:102F6000C401B601A5012AE030E00E946816C80F2E
:102F7000D91FC601B5010E94182B9B01AC01C801E5
:102F8000B7010E9429287A947720D1F6CE01DF91EB
:102F9000CF911F910F91FF90EF90DF90CF90BF9056
:102FA000AF909F908F907F9008950E94F1160895A2
:102FB000EF92FF920F931F937C010E94F1168C01F8
:102FC000C7010E940115080F191FC8011F910F9119
:102FD000FF90EF900895EF92FF920F931F937C0163
:102FE0000E9467158C01C7010E940115080F191F67
:102FF000C8011F910F91FF90EF900895AF92BF927B
:10300000CF92DF92EF92FF920F931F93CF93DF93B4
:103010005C016B01EE24FF24C0E0D0E010C0D501BC
:10302000ED91FC9100811181C601BE010E94221B1D
:10303000682FC501F8011995E80EF91E2196F601D1
:1030400084819581C817D90750F3C701DF91CF91CB
:103050001F910F91FF90EF90DF90CF90BF90AF90B6
:103060000895EF92FF920F931F937C010E94FE1729
:103070008C01C7010E9401159C01200F311FC9015D
:103080001F910F91FF90EF900895FC0144835583A9
:10309000668377830895CF93DF93EC010E94A22487
:1030A000688779878A879B87E881F9810084F18521
:1030B000E02DCE0119959C0197FF15C00E94A22416
:1030C000288539854A855B85621B730B840B950BBC
:1030D0002C813D814E815F816217730784079507BC
:1030E00018F32FEF3FEFC901DF91CF910895CF93F0
:1030F000DF93EC01CE010E944B189C0197FD0EC09E
:103100008D32910559F0C0970A9740F0E881F98116
:103110000680F781E02DCE011995ECCFC901DF9132
:10312000CF9108956F927F928F929F92AF92BF92AC
:10313000CF92DF92EF92FF920F931F93CF93DF9383
:10314000EC01662E0E947718982E77248824EE24AE
:10315000FF2487010F2EF0E0AF2EF0E0BF2EF0E845
:10316000CF2EFFE3DF2EF02D961491F18DE298160D
:1031700019F4772473942CC09EE2991619F48824CC
:10318000839426C0892D80538A3010F5C801B70179
:103190002AE030E040E050E00E945D347B018C0189
:1031A000E90CF11C011D111D80ED9FEFAFEFBFEF8A
:1031B000E80EF91E0A1F1B1F882051F0C601B50139
:1031C0002DEC3CEC4CEC5DE30E9487285B016C012C
:1031D000E881F9810680F781E02DCE011995CE01B5
:1031E0000E944B18982F982E80538A3008F4BCCF39
:1031F0009E3209F4B9CF961509F4B6CF772041F085
:1032000010950095F094E094E11CF11C011D111D36
:10321000882049F0C801B7010E94182BA60195012A
:103220000E94872804C0C801B7010E94182BDF91B3
:10323000CF911F910F91FF90EF90DF90CF90BF90B3
:10324000AF909F908F907F906F90089561E00E9463
:10325000921808959F92AF92BF92CF92DF92EF9211
:10326000FF920F931F93CF93DF936C01B62E0E94B2
:103270007718EC0197FF04C0EE24FF2487014AC0B1
:103280009924EE24FF248701AB2CBB24CA15DB054F
:1032900029F1CD32D10519F4992493941FC0CE01A0
:1032A000C0970A97D8F4C801B7012AE030E040E09F
:1032B00050E00E945D347B018C01CE01AA2797FD6E
:1032C000A095BA2FE80EF91E0A1F1B1F80ED9FEF75
:1032D000AFEFBFEFE80EF91E0A1F1B1FD601ED91DD
:1032E000FC910680F781E02DC6011995C6010E9468
:1032F0004B18EC01C0970A9748F2CA15DB0531F26A
:10330000992041F010950095F094E094E11CF11C97
:10331000011D111DB701C801DF91CF911F910F91C0
:10332000FF90EF90DF90CF90BF90AF909F90089567
:1033300061E00E942A190895CF93DF93EC010E9467
:10334000A224688779878A879B87E881F98106802C
:10335000F781E02DCE0119959C0197FF15C00E94C1
:10336000A224288539854A855B85621B730B840BF3
:10337000950B2C813D814E815F8162177307840715
:10338000950718F32FEF3FEFC901DF91CF91089513
:10339000CF92DF92FF920F931F93CF93DF93082F6B
:1033A000F92E6B01142F63E073E00E944121C601E6
:1033B0000E949C19BC01C12FD0E008C0802F9F2D16
:1033C0000E944A20C6010E949C19BC0177FD03C0DF
:1033D0006C177D0799F7802F9F2DDF91CF911F915B
:1033E0000F91FF90DF90CF9008950F931F93CF938D
:1033F000DF93182F092FEB0163E073E00E94412156
:1034000004C0812F902F0E944A20CE010E949C1957
:10341000BC0197FFF6CF812F902FDF91CF911F91A5
:103420000F910895AF92BF92CF92DF92EF92FF92E9
:103430000F931F93CF93DF935C017A0189012115CC
:10344000310519F4C0E0D0E014C0C0E0D0E0C62ED1
:10345000DD240CC0C5010E949C1997FD0AC08C1583
:103460009D0539F0F70181937F012196C017D1079F
:1034700088F3CE01DF91CF911F910F91FF90EF90D4
:10348000DF90CF90BF90AF900895CF92DF92EF92F0
:10349000FF920F931F93CF93DF936C018B017A01FF
:1034A000C0E0D0E009C0C6010E949C1997FD07C08A
:1034B000F80181938F012196CE15DF05A0F3CE018F
:1034C000DF91CF911F910F91FF90EF90DF90CF9000
:1034D00008956F927F928F929F92AF92BF92CF92F8
:1034E000DF92EF92FF920F931F93CF93DF933C01F4
:1034F0007B014A0159016801FB0180818823A1F108
:10350000C0E0D0E027C0F701EC0FFD1F808190E004
:103510002817390711F0C0E0D0E0F701EC0FFD1FCC
:10352000808190E02817390721F42196C815D90524
:10353000D8F4C114D10471F0F501E00FF11F8081BE
:1035400090E02817390731F40F5F1F4F0C151D0548
:1035500018F00CC000E010E0C3010E949C199C010F
:103560001816190684F202C081E001C080E0DF91E4
:10357000CF911F910F91FF90EF90DF90CF90BF9070
:10358000AF909F908F907F906F9008950F931F93AF
:103590009A01DB010D900020E9F7AD014150504048
:1035A000461B570BD9010D900020E9F71197A21B7C
:1035B000B30B8D010E94691A1F910F91089540E08D
:1035C00050E00E94C61A08950F931F9320E030E048
:1035D00000E010E00E94691A1F910F910895FC010C
:1035E000848195816817790748F40190F081E02D76
:1035F000309721F0E60FF71F8081089580E008954D
:10360000FC01848195816817790730F40190F0817D
:10361000E02DE60FF71F40830895FC019B01848194
:1036200095816817790728F46081718161157105AA
:1036300029F41092190769E177E002C0620F731F45
:10364000CB010895FC01848195816817790748F4BE
:103650000190F081E02D309721F0E60FF71F808177
:10366000089580E00895FC010190F081E02D3097ED
:1036700029F40895861709F44083319680818823C0
:10368000C9F70895FC0180819181009729F420E019
:1036900030E040E050E004C00E94382E9B01AC01B5
:1036A000B901CA010895CF92DF92EF92FF920F9372
:1036B0001F93CF93DF936C01DC01ED90FC90119789
:1036C000E114F104E9F11496CD91DC91159720975E
:1036D000B9F1870102C00F5F1F4FF801808190E0B0
:1036E0000E94DB34892BB9F72197CE0DDF1D01C075
:1036F0002197888190E00E94DB34892B19F0C01754
:10370000D107B0F7FE013196E01BF10BD6011596FB
:10371000FC93EE9314972D913C912017310728F4D8
:10372000C901B801AF010E94682ED601ED91FC914C
:10373000119714968D919C911597E80FF91F10829F
:10374000DF91CF911F910F91FF90EF90DF90CF907D
:103750000895CF93DF93FC01C081D181209729F494
:1037600007C090E00E94EB34899388818823C9F7D1
:10377000DF91CF910895CF93DF93FC01C081D18178
:10378000209729F407C090E00E94E3348993888150
:103790008823C9F7DF91CF910895EF92FF920F939D
:1037A0001F93CF93DF93FC01DB018617970719F175
:1037B0002481358114968D919C911597281739078E
:1037C000E1F4232BC1F0E080F180CD91DC910FC0BA
:1037D00090E00E94E3348C01888190E00E94E33401
:1037E0000817190751F40894E11CF11C2196F70100
:1037F0008081882369F781E001C080E0DF91CF916B
:103800001F910F91FF90EF900895AF92BF92CF92CA
:10381000DF92EF92FF920F931F93CF93DF93FC0100
:103820005B017A01DB0114962D913C9115972115CE
:10383000310559F184819581009739F182179307F9
:1038400020F14817590720F07C010894E108F1089D
:1038500000811181C801CFEFDFEF6801CE0CDF1CC2
:1038600010C0F501608171810E94D12E9C010097EA
:1038700071F0801B910BE816F90608F0EC01C90104
:103880000196C816D90668F702C0CFEFDFEFCE0168
:10389000DF91CF911F910F91FF90EF90DF90CF902C
:1038A000BF90AF900895FC01DB01448155811496CF
:1038B0008D919C911597481B590BCF010E94051CB7
:1038C0000895CF93DF93FC01DB0184819581481734
:1038D000590760F4C081D1816D917C91CE01840F34
:1038E000951F0E94D12E9C01009719F42FEF3FEFF6
:1038F00002C02C1B3D0BC901DF91CF91089540E020
:1039000050E00E94611C0895DF92EF92FF920F93A6
:103910001F93CF93DF93EC018C819D81481759074A
:10392000B8F47A010894E11CF11CE881F981EE0DEC
:10393000FF1DD080108208811981C80170E00E94AB
:10394000C62E9C010E0D1F1DF801D082009719F4A0
:10395000EFEFFFEF05C088819981F901E81BF90BB2
:10396000CF01DF91CF911F910F91FF90EF90DF90EA
:103970000895FC0144815581415050400E94841CAF
:103980000895CF93DF93FC018481958148175907EF
:1039900058F4C081D181CE01840F951F70E00E9440
:1039A0008E2E9C01009719F42FEF3FEF02C02C1BC5
:1039B0003D0BC901DF91CF91089540E050E00E9496
:1039C000C11C08950F931F93CF93DF93FC018B01CC
:1039D00041155105F9F061157105E1F0848195817A
:1039E0002817390718F0FB01108214C041505040CD
:1039F000EC01C21BD30B4C175D0708F4EA01608190
:103A00007181620F731FC801AE010E94B72EC00FF3
:103A1000D11F1882DF91CF911F910F910895FC0162
:103A2000DB012481358114964D915C911597241703
:103A30003507A8F080819181009789F06D917C9184
:103A40006115710561F0241B350B820F931F0E94D5
:103A5000992E9C0180E0232B19F481E0089580E0E9
:103A60000895DC01FB0114968D919C911597892B8B
:103A700031F461157105A9F090E0808108C00D90C6
:103A8000BC91A02D6115710529F490E08C918823DB
:103A900049F407C0CD010E94992E9C0190E0232B90
:103AA00009F491E0892F0895CF93DF939C01FB01E6
:103AB000EC01A881B981109729F0608171816115AD
:103AC0007105D1F4C081D181209759F0848195810D
:103AD000892B39F0888190E022273327281B390B66
:103AE00012C0109771F0F90184819581892B49F0FA
:103AF0008C91282F30E007C0CD010E94992E9C01A7
:103B000002C020E030E0C901DF91CF9108950E940A
:103B1000541D892F8095881F8827881F08950E942B
:103B2000541D20E0181619060CF021E0822F08958C
:103B30000E94541D20E0181619060CF421E0822F73
:103B400008950E94541D892F881F8827881F089573
:103B5000FC01DB012481358114968D919C91159790
:103B60002817390711F020E007C0CF010E94541D2B
:103B700020E0892B09F421E0822F0895FC01DB016C
:103B800014962D913C91159784819581821B930BFE
:103B900084179507A0F080819181009781F06D9145
:103BA0007C916115710559F0840F951FA9010E9440
:103BB000A92E9C0180E0232B19F481E0089580E078
:103BC0000895FC01DB012481358114968D919C912F
:103BD00015972817390710F480E00895CF0140E0C9
:103BE00050E00E94BE1D08950F931F93CF93DF9363
:103BF000EC018B016F5F7F4F888199810E947C333C
:103C0000009711F480E005C0998388831B830A83A1
:103C100081E0DF91CF911F910F9108952F923F92F4
:103C20004F925F926F927F928F929F92AF92BF92CC
:103C3000CF92DF92EF92FF920F931F93CF93DF9378
:103C40005C012B014A01DC0114960D911C91159722
:103C50000115110509F4D4C0FB01C480D580C1143D
:103C6000D10409F4CDC0DA0114966D907C901597BB
:103C70006C187D08FC01E080F1806114710491F002
:103C80001BC0D4016C9111967C91119714964D91A3
:103C90005C9115978C2F0E94682EF401E480F580CA
:103CA000EC0EFD1ED2016D917C91C7010E94D12EB8
:103CB000EC01009731F7A4C077FE02C067012EC067
:103CC000FB0120803180E8013CC08E010E191F09E4
:103CD000C601B701A8010E94682E0C0D1D1DD4015C
:103CE0006C9111967C91119714964D915C9115975A
:103CF000C8010E94682EF401C480D580C00ED11E78
:103D0000D2011496ED90FC901597EC0EFD1EF50176
:103D100084819581860D971D95838483D2016D9151
:103D20007C91C7010E94D12EEC01009771F6C6016B
:103D3000B7010E94A22E64C07B01EC0CFD1CC60DD5
:103D4000D71DC701B1010E94D12EBC010097A1F778
:103D5000C017D10709F454C0F501828193818C17F3
:103D60009D0708F044C0C501BE010E94F41D8823D0
:103D7000F1F546C0C501B201A9010E94051CEC0184
:103D800097FD3EC0D5016D917C911197F201848120
:103D900095818C0F9D1F680F791F14964D915C9132
:103DA0001597481B590BCB01860D971D0E94712E4C
:103DB000D50114968D919C911597860D971D15969A
:103DC0009C938E931497ED91FC911197E80FF91F36
:103DD00010822D913C912C0F3D1FF4016081718167
:103DE00044815581C9010E94682E9E0105C0D501FC
:103DF00014962D913C9115972150304037FFBACF42
:103E0000DF91CF911F910F91FF90EF90DF90CF90B6
:103E1000BF90AF909F908F907F906F905F904F90EA
:103E20003F902F900895CF93DF93EC018881998183
:103E3000892B29F08A819B818617970760F4CE0130
:103E40000E94F41D882341F08C819D81892B19F4F7
:103E5000E881F981108281E0DF91CF910895EF929E
:103E6000FF920F931F93CF93DF93EC017B016C8143
:103E70007D81E114F104C1F04115510599F08A01E9
:103E8000060F171FB8010E94131F882369F088814D
:103E900099812C813D81820F931FB7010E94A22E30
:103EA0001D830C8381E001C080E0DF91CF911F91E1
:103EB0000F91FF90EF900895EF92FF920F931F9351
:103EC000DF93CF93CDB7DEB72B970FB6F894DEBF55
:103ED0000FBECDBF7C01CB01BA018E010F5F1F4F1A
:103EE000A8012AE030E00E94552FF801019000203F
:103EF000E9F73197E01BF10BC701B801AF010E9450
:103F00002F1F2B960FB6F894DEBF0FBECDBFCF91FB
:103F1000DF911F910F91FF90EF900895EF92FF9224
:103F20000F931F93DF93CF93CDB7DEB72C970FB6C8
:103F3000F894DEBF0FBECDBF7C01CB01BA018E016C
:103F40000F5F1F4FA8012AE030E00E940C2FF801FC
:103F500001900020E9F73197E01BF10BC701B80190
:103F6000AF010E942F1F2C960FB6F894DEBF0FBE34
:103F7000CDBFCF91DF911F910F91FF90EF900895EA
:103F8000EF92FF920F931F93DF93CF9300D000D057
:103F9000CDB7DEB77C01CB018E010F5F1F4FB8019B
:103FA0004AE050E00E947A2FF80101900020E9F7E2
:103FB0003197E01BF10BC701B801AF010E942F1F21
:103FC00026960FB6F894DEBF0FBECDBFCF91DF911E
:103FD0001F910F91FF90EF900895EF92FF920F9332
:103FE0001F93DF93CF93CDB7DEB727970FB6F89423
:103FF000DEBF0FBECDBF7C01CB018E010F5F1F4F17
:10400000B8014AE050E00E94EB2EF8010190002038
:10401000E9F73197E01BF10BC701B801AF010E942E
:104020002F1F27960FB6F894DEBF0FBECDBFCF91DE
:10403000DF911F910F91FF90EF900895EF92FF9203
:104040000F931F93DF93CF9300D00F92CDB7DEB7BE
:104050007C01862F90E08E010F5F1F4FB8014AE070
:1040600050E00E94EB2EF80101900020E9F7319713
:10407000E01BF10BC701B801AF010E942F1F0F9089
:104080000F900F900F90CF91DF911F910F91FF90A4
:10409000EF900895DF93CF930F920F92CDB7DEB7D5
:1040A00069831A82BE016F5F7F4F41E050E00E943A
:1040B0002F1F0F900F90CF91DF910895611571051B
:1040C00011F480E00895DB010D900020E9F71197CD
:1040D000A61BB70BAD010E942F1F0895FB01608145
:1040E0007181448155810E942F1F0895CF93DF93E2
:1040F000EC0188819981009711F00E94E4321982C5
:1041000018821D821C821B821A82DF91CF91089532
:104110000F931F93182F092F0E945C1F882321F4EF
:10412000812F902F0E947620812F902F1F910F9129
:1041300008950F931F93182F092F0E948E1F882315
:1041400021F4812F902F0E947620812F902F1F9194
:104150000F9108950F931F93182F092F0E94C01FCE
:10416000882321F4812F902F0E947620812F902F79
:104170001F910F9108950F931F93182F092F0E94DD
:10418000ED1F882321F4812F902F0E947620812F0C
:10419000902F1F910F9108950F931F93182F092FA0
:1041A0000E941E20882321F4812F902F0E947620C8
:1041B000812F902F1F910F9108950F931F93182F08
:1041C000092F0E944A20882321F4812F902F0E94DA
:1041D0007620812F902F1F910F9108950F931F9399
:1041E000182F092F6115710561F0DB010D9000207A
:1041F000E9F71197A61BB70BAD010E942F1F88236B
:1042000021F4812F902F0E947620812F902F1F91D3
:104210000F9108950F931F93182F092FFB016081B1
:104220007181448155810E942F1F882321F4812FA1
:10423000902F0E947620812F902F1F910F9108952B
:10424000EF92FF920F931F93CF93DF93EC017B01CB
:104250008A01BA010E94131F882321F4CE010E9413
:10426000762007C01D830C8388819981B7010E9445
:10427000A22ECE01DF91CF911F910F91FF90EF9071
:104280000895CF93DF93EC01198218821B821A8262
:104290001D821C821E826115710551F0DB010D909B
:1042A0000020E9F71197A61BB70BAD010E94202152
:1042B000DF91CF910895CF93DF93EC01198218829B
:1042C0001B821A821D821C821E826115710551F0AB
:1042D000DB010D900020E9F71197A61BB70BAD018C
:1042E0000E942021DF91CF9108950F931F93182FE3
:1042F000092F6115710559F0DB010D900020E9F7D8
:104300001197A61BB70BAD010E94202102C00E948D
:104310007620812F902F1F910F910895EF92FF9299
:104320000F931F93DF93CF93CDB7DEB7A1970FB64F
:10433000F894DEBF0FBECDBF8C01FC01118210824C
:1043400013821282158214821682CB01BA017E0179
:104350000894E11CF11CA70130E00E94552FC80110
:10436000B7010E947521A1960FB6F894DEBF0FBE6B
:10437000CDBFCF91DF911F910F91FF90EF900895E6
:10438000EF92FF920F931F93DF93CF93CDB7DEB7DA
:10439000A1970FB6F894DEBF0FBECDBF8C01FC0114
:1043A0001182108213821282158214821682CB012E
:1043B000BA017E010894E11CF11CA70130E00E94C3
:1043C000552FC801B7010E947521A1960FB6F89428
:1043D000DEBF0FBECDBFCF91DF911F910F91FF9038
:1043E000EF900895EF92FF920F931F93DF93CF9377
:1043F000CDB7DEB7A2970FB6F894DEBF0FBECDBF24
:104400008C01FC01118210821382128215821482A7
:104410001682CB01BA017E010894E11CF11CA701B0
:1044200030E00E940C2FC801B7010E947521A296AE
:104430000FB6F894DEBF0FBECDBFCF91DF911F91B5
:104440000F91FF90EF900895EF92FF920F931F93BB
:10445000DF93CF93CDB7DEB7A2970FB6F894DEBF48
:104460000FBECDBF8C01FC0111821082138212821B
:10447000158214821682CB01BA017E010894E11CD8
:10448000F11CA70130E00E940C2FC801B7010E9467
:104490007521A2960FB6F894DEBF0FBECDBFCF91A7
:1044A000DF911F910F91FF90EF900895EF92FF928F
:1044B0000F931F93DF93CF93CDB7DEB761970FB6FE
:1044C000F894DEBF0FBECDBF8C01CB01F801118285
:1044D0001082138212821582148216827E01089441
:1044E000E11CF11CB70150E00E947A2FC801B7010E
:1044F0000E94752161960FB6F894DEBF0FBECDBF46
:10450000CF91DF911F910F91FF90EF900895EF925F
:10451000FF920F931F93DF93CF93CDB7DEB76197D1
:104520000FB6F894DEBF0FBECDBF8C01CB01F801F2
:1045300011821082138212821582148216827E01E9
:104540000894E11CF11CB70150E00E947A2FC801C9
:10455000B7010E94752161960FB6F894DEBF0FBEB9
:10456000CDBFCF91DF911F910F91FF90EF900895F4
:10457000EF92FF920F931F93DF93CF93CDB7DEB7E8
:1045800062970FB6F894DEBF0FBECDBF8C01CB0192
:10459000F80111821082138212821582148216820F
:1045A0007E010894E11CF11CB70150E00E94EB2E43
:1045B000C801B7010E94752162960FB6F894DEBF5C
:1045C0000FBECDBFCF91DF911F910F91FF90EF9064
:1045D0000895EF92FF920F931F93DF93CF93CDB780
:1045E000DEB762970FB6F894DEBF0FBECDBF8C0169
:1045F000CB01F8011182108213821282158214827B
:1046000016827E010894E11CF11CB70150E00E9463
:10461000EB2EC801B7010E94752162960FB6F8947F
:10462000DEBF0FBECDBFCF91DF911F910F91FF90E5
:10463000EF900895EF92FF920F931F93DF93CF9324
:10464000CDB7DEB729970FB6F894DEBF0FBECDBF4A
:104650008C01862FF801118210821382128215823A
:104660001482168290E07E010894E11CF11CB701CF
:1046700050E00E947A2FC801B7010E947521299647
:104680000FB6F894DEBF0FBECDBFCF91DF911F9163
:104690000F91FF90EF900895EF92FF920F931F9369
:1046A000DF93CF93CDB7DEB729970FB6F894DEBF6F
:1046B0000FBECDBF8C01862FF801118210821382AC
:1046C000128215821482168290E07E010894E11C09
:1046D000F11CB70150E00E947A2FC801B7010E9477
:1046E000752129960FB6F894DEBF0FBECDBFCF91CE
:1046F000DF911F910F91FF90EF900895DF93CF937B
:104700000F920F92CDB7DEB7FC0111821082138297
:10471000128215821482168269831A82BE016F5F2B
:104720007F4F0E9475210F900F90CF91DF910895D8
:10473000DF93CF930F920F92CDB7DEB7FC011182BA
:1047400010821382128215821482168269831A8261
:10475000BE016F5F7F4F0E9475210F900F90CF9128
:10476000DF910895BF92CF92DF92EF92FF920F9365
:104770001F93CF93DF93082FB92E6B017A01E901C4
:104780002417350710F4EA017901802F9B2D64E08E
:1047900073E00E944121D60114968D919C9115974A
:1047A0008E159F05D0F08C179D0708F4EC01D601FB
:1047B000ED91FC911197EC0FFD1F108110826D910E
:1047C0007C916E0D7F1D802F9B2D0E947521D6013F
:1047D000ED91FC91EC0FFD1F1083802F9B2DDF913D
:1047E000CF911F910F91FF90EF90DF90CF90BF90EE
:1047F00008950F931F938C01FB01248135810E9442
:10480000B223C8011F910F910895CF93DF93EC015C
:10481000FB018617970761F0608171816115710551
:1048200029F0448155810E94202102C00E947620F7
:10483000CE01DF91CF910895FC0111821082138285
:1048400012821582148216820E9405240895FC01AA
:1048500011821082138212821582148216820E94A3
:1048600005240895FC01808191810E94E43208951D
:10487000FC01808191810E94E4320895FC0120E0D6
:1048800030E08081882311F421E030E0C9010895EF
:10489000FC0181E080830895089508950E94E43228
:1048A00008950E94E43208950E94473208950E94BC
:1048B000473208951F920F920FB60F9211242F9333
:1048C0003F938F939F93AF93BF9380911E079091D7
:1048D0001F07A0912007B091210730912207019670
:1048E000A11DB11D232F2D5F2D3720F02D570196CF
:1048F000A11DB11D2093220780931E0790931F07CF
:10490000A0932007B093210780911A0790911B076D
:10491000A0911C07B0911D070196A11DB11D8093A8
:104920001A0790931B07A0931C07B0931D07BF9114
:10493000AF919F918F913F912F910F900FBE0F904C
:104940001F9018958FB7F89420911E0730911F077C
:1049500040912007509121078FBFB901CA010895E6
:104960009FB7F89420911A0730911B0740911C07BC
:1049700050911D0786B5A89B06C08F3F21F02F5F81
:104980003F4F4F4F5F4F9FBF542F432F322F222750
:10499000280F311D411D511D82E0220F331F441F7E
:1049A000551F8A95D1F7B901CA0108959B01AC0141
:1049B0007FB7F89480911A0790911B07A0911C076C
:1049C000B0911D0766B5A89B05C06F3F19F0019611
:1049D000A11DB11D7FBFBA2FA92F982F8827860F41
:1049E000911DA11DB11D62E0880F991FAA1FBB1F59
:1049F0006A95D1F7BC012DC0FFB7F89480911A07D2
:104A000090911B07A0911C07B0911D07E6B5A89BCC
:104A100005C0EF3F19F00196A11DB11DFFBFBA2FD0
:104A2000A92F982F88278E0F911DA11DB11DE2E09F
:104A3000880F991FAA1FBB1FEA95D1F7861B970BFA
:104A4000885E9340C8F22150304040405040685149
:104A50007C4F211531054105510571F608950197E7
:104A600039F0880F991F880F991F02970197F1F766
:104A70000895789484B5826084BD84B5816084BDD6
:104A800085B5826085BD85B5816085BDEEE6F0E0C7
:104A9000808181608083E1E8F0E010828081826023
:104AA0008083808181608083E0E8F0E080818160A4
:104AB0008083E1EBF0E0808184608083E0EBF0E0D4
:104AC000808181608083E1E9F0E080818260808381
:104AD000808181608083E0E9F0E080818160808373
:104AE000E1EAF0E080818260808380818160808360
:104AF000E0EAF0E0808181608083E1E2F1E08081A2
:104B000082608083808181608083E0E2F1E0808147
:104B100081608083EAE7F0E0808184608083808127
:104B200082608083808181608083808180688083CF
:104B30001092C1000895CF93DF93482F50E0CA012F
:104B400088569E4FFC0134914E5A5E4FFA01849173
:104B5000882369F190E0880F991FFC01EC5FFE4FFC
:104B6000A591B491FC01E25EFE4FC591D4916623FC
:104B700051F42FB7F8948C91932F909589238C93AF
:104B8000888189230BC0623061F42FB7F8948C912F
:104B9000932F909589238C938881832B88832FBFB3
:104BA00006C09FB7F8948C91832B8C939FBFDF91A5
:104BB000CF910895893009F449C08A30A0F4843037
:104BC00051F1853040F4823079F1833000F5813045
:104BD00009F063C026C0873079F1883098F58630B7
:104BE00009F05BC025C08D3009F442C08E3028F436
:104BF0008B30B1F18C30C0F52DC0803109F442C04A
:104C0000813109F445C08F3009F047C037C0809129
:104C100080008F7703C0809180008F7D809380001B
:104C2000089584B58F7702C084B58F7D84BD0895C3
:104C30008091B0008F7703C08091B0008F7D80930A
:104C4000B0000895809190008F7707C08091900008
:104C50008F7D03C080919000877F8093900008959E
:104C60008091A0008F7707C08091A0008F7D03C046
:104C70008091A000877F8093A000089580912001FB
:104C80008F7703C0809120018F7D8093200108954C
:104C900080912001877F809320010895FF920F93D8
:104CA0001F93F62E482F50E0CA0182529E4FFC01FE
:104CB0002491CA0188569E4FFC0114914E5A5E4FB2
:104CC000FA0104910023C9F0222319F0822F0E94D7
:104CD000DA25E02FF0E0EE0FFF1FE25EFE4FA59118
:104CE000B4919FB7F894FF2021F48C911095812303
:104CF00002C08C91812B8C939FBF1F910F91FF90CD
:104D000008950F931F93482F50E0CA0182529E4F7F
:104D1000FC012491CA0188569E4FFC0104914E5A11
:104D20005E4FFA011491112319F420E030E015C010
:104D3000222319F0822F0E94DA25812F90E0880F1C
:104D4000991F885C9E4FFC01A591B4918C9120E045
:104D500030E0802311F021E030E0C9011F910F9174
:104D60000895EF92FF920F931F937B018C0120E037
:104D700030E040E05FE40E945D2A88238CF0C801A7
:104D8000B70120E030E040E05FE40E9429280E9463
:104D9000762B9B01AC01205030404040504806C06B
:104DA000C801B7010E94762B9B01AC01B901CA0171
:104DB0001F910F91FF90EF900895A0E0B0E0E3EE17
:104DC000F6E20C949E34DC012B01FA019C919230A6
:104DD00008F439C1EB018881823008F433C1943082
:104DE00069F4843009F02FC111969C911197898143
:104DF000981709F428C1A5E0B3E025C1843009F46F
:104E000021C18230A9F4923009F01DC19A01AD018F
:104E100088E0EA010990AE01E90109929E01815002
:104E2000C1F7E201898111969C918923818308C190
:104E3000923009F407C112962D903C901397EB0124
:104E40008A819B811496AD90BD90CD90DC90179790
:104E5000EC80FD800E811F819101281B390BB90167
:104E600037FF04C066277727621B730B603271051A
:104E70000CF061C0121613066CF537014801062EBE
:104E800004C096948794779467940A94D2F721E0AB
:104E900030E040E050E004C0220F331F441F551F94
:104EA0006A95D2F721503040404050402E213F219A
:104EB00040235123211531054105510521F021E001
:104EC00030E040E050E079018A01E628F72808291F
:104ED00019293CC0232BD1F1260E371E350146017E
:104EE000062E04C096948794779467940A94D2F718
:104EF00021E030E040E050E004C0220F331F441FA7
:104F0000551F6A95D2F721503040404050402A2129
:104F10003B214C215D21211531054105510521F031
:104F200021E030E040E050E059016A01A628B728AE
:104F3000C828D9280BC0821593052CF01C01AA247F
:104F4000BB24650103C0EE24FF24870111969C91C8
:104F5000D20111968C91981709F445C0992339F024
:104F6000A80197012A193B094C095D0906C0A60151
:104F700095012E193F09400B510B57FD08C01182B6
:104F80003382228224833583468357831DC081E088
:104F900081833382228288279927DC01821B930B2D
:104FA000A40BB50B84839583A683B7830DC0220F12
:104FB000331F441F551F24833583468357838281C3
:104FC0009381019793838283248135814681578120
:104FD000DA01C9010197A109B1098F5F9F4FAF4F56
:104FE000BF4328F30BC0918333822282EA0CFB1C5F
:104FF0000C1D1D1DE482F5820683178383E08083E8
:10500000248135814681578157FF1AC0C901AA27DB
:1050100097FDA095BA2F81709070A070B0705695D2
:10502000479537952795822B932BA42BB52B8483FB
:105030009583A683B783828193810196938382832C
:10504000DF0101C0D201CD01CDB7DEB7E2E10C94A2
:10505000BA34A0E2B0E0EFE2F8E20C94AA3469833B
:105060007A838B839C832D833E834F835887E9E02B
:10507000EE2EF12CEC0EFD1ECE010196B7010E9422
:10508000672D8E010F5E1F4FCE010596B8010E945D
:10509000672D8A8991E089278A8BC701B801AE0103
:1050A000475E5F4F0E94DD260E94922CA096E6E0AC
:1050B0000C94C634A0E2B0E0E0E6F8E20C94AA3426
:1050C00069837A838B839C832D833E834F835887A8
:1050D000F9E0EF2EF12CEC0EFD1ECE010196B7018A
:1050E0000E94672D8E010F5E1F4FCE010596B801FD
:1050F0000E94672DC701B801AE01475E5F4F0E9455
:10510000DD260E94922CA096E6E00C94C634A0E224
:10511000B0E0EDE8F8E20C949E3469837A838B83E7
:105120009C832D833E834F835887CE010196BE0119
:10513000675F7F4F0E94672DCE010596BE016F5EAF
:105140007F4F0E94672D9985923088F0898982303F
:10515000C8F0943019F4823051F404C0843029F43A
:10516000923081F485E093E0C6C0923049F420E0AB
:105170009A858A89981321E02A87CE010996BBC0B7
:10518000823049F420E09A858A89981321E02A8B9D
:10519000CE014196B0C02D843E844F8458886D88DE
:1051A0007E888F88988CEE24FF248701AA24BB2454
:1051B000650140E050E060E070E0E0E0F0E0C10157
:1051C00081709070892BE9F0E60CF71C081D191D01
:1051D0009A01AB012A0D3B1D4C1D5D1D80E090E046
:1051E000A0E0B0E0E614F7040805190520F481E01A
:1051F00090E0A0E0B0E0BA01A901480F591F6A1F72
:105200007B1FAA0CBB1CCC1CDD1C97FE08C081E0D8
:1052100090E0A0E0B0E0A82AB92ACA2ADB2A319699
:10522000E032F10549F0660C771C881C991C5694F5
:10523000479437942794C3CFFA85EA892B893C8910
:105240008B859C85280F391F2E5F3F4F17C0CA01E1
:1052500081709070892B61F016950795F794E7940B
:1052600080E090E0A0E0B0E8E82AF92A0A2B1B2BA6
:1052700076956795579547952F5F3F4F77FDE7CF19
:105280000CC0440F551F661F771F17FD4160EE0CC1
:10529000FF1C001F111F21503040403090E0590783
:1052A00090E0690790E4790760F32B8F3C8FDB0176
:1052B000CA018F779070A070B07080349105A105FD
:1052C000B10561F447FD0AC0E114F10401051105BF
:1052D00029F0405C5F4F6F4F7F4F40781A8EFE176A
:1052E00011F081E08A8F4D8F5E8F6F8F78A383E0FE
:1052F000898FCE0149960E94922CA096E2E10C94EF
:10530000BA34A8E1B0E0E7E8F9E20C94A634698386
:105310007A838B839C832D833E834F835887B9E0A8
:10532000EB2EF12CEC0EFD1ECE010196B7010E9472
:10533000672D8E010F5E1F4FCE010596B8010E94AA
:10534000672D2985223008F47EC03989323010F467
:10535000B8017CC08A859A8989278A87243011F010
:10536000223031F4231709F06EC065E073E06EC09F
:10537000343039F41D861E861F86188A1C861B86CB
:1053800004C0323021F484E08987B7015FC02B85E7
:105390003C858B899C89281B390B3C872B87ED84A6
:1053A000FE840F851889AD88BE88CF88D88CEA1412
:1053B000FB040C051D0540F4EE0CFF1C001F111F23
:1053C000215030403C872B8720E030E040E050E027
:1053D00080E090E0A0E0B0E460E070E0EA14FB045C
:1053E0000C051D0540F0282B392B4A2B5B2BEA18A6
:1053F000FB080C091D09B695A79597958795EE0CA6
:10540000FF1C001F111F6F5F7F4F6F31710531F758
:10541000DA01C9018F779070A070B0708034910567
:10542000A105B10561F427FD0AC0E114F1040105ED
:10543000110529F0205C3F4F4F4F5F4F20782D879B
:105440003E874F87588BBE01675F7F4FCB010E941D
:10545000922C6896EAE00C94C234A8E1B0E0E3E351
:10546000FAE20C94AA3469837A838B839C832D831C
:105470003E834F83588789E0E82EF12CEC0EFD1E09
:10548000CE010196B7010E94672D8E010F5E1F4F5E
:10549000CE010596B8010E94672D8985823040F0C3
:1054A0008989823028F0C701B8010E94DF2D01C030
:1054B0008FEF6896E6E00C94C634A8E1B0E0E3E62E
:1054C000FAE20C94AA3469837A838B839C832D83BC
:1054D0003E834F83588789E0E82EF12CEC0EFD1EA9
:1054E000CE010196B7010E94672D8E010F5E1F4FFE
:1054F000CE010596B8010E94672D8985823040F063
:105500008989823028F0C701B8010E94DF2D01C0CF
:105510008FEF6896E6E00C94C634A8E1B0E0E3E9CA
:10552000FAE20C94AA3469837A838B839C832D835B
:105530003E834F83588789E0E82EF12CEC0EFD1E48
:10554000CE010196B7010E94672D8E010F5E1F4F9D
:10555000CE010596B8010E94672D8985823040F002
:105560008989823028F0C701B8010E94DF2D01C06F
:1055700081E06896E6E00C94C634A8E1B0E0E3EC84
:10558000FAE20C94AA3469837A838B839C832D83FB
:105590003E834F83588789E0E82EF12CEC0EFD1EE8
:1055A000CE010196B7010E94672D8E010F5E1F4F3D
:1055B000CE010596B8010E94672D8985823040F0A2
:1055C0008989823028F0C701B8010E94DF2D01C00F
:1055D00081E06896E6E00C94C634A8E1B0E0E3EF21
:1055E000FAE20C94AE3469837A838B839C832D8397
:1055F0003E834F835887CE010196BE01675F7F4F80
:105600000E94672DCE010596BE016F5E7F4F0E94FE
:10561000672D8985823028F020E030E0898982304A
:1056200010F421E030E0822F6896E2E00C94CA3456
:10563000A8E0B0E0EEE1FBE20C94A7349B01AC01E2
:1056400083E08983DA01C9018827B7FD839599270B
:10565000AA27BB27B82E211531054105510519F49C
:1056600082E089833AC08823A9F0203080E038079F
:1056700080E0480780E8580729F460E070E080E0A7
:105680009FEC30C0EE24FF248701E21AF30A040BDA
:10569000150B02C079018A018EE1C82ED12CDC8263
:1056A000CB82ED82FE820F831887C801B7010E946A
:1056B000432C01971816190684F4082E04C0EE0C2A
:1056C000FF1C001F111F0A94D2F7ED82FE820F8388
:1056D0001887C81AD90ADC82CB82BA82CE01019619
:1056E0000E94922C2896E9E00C94C334ACE0B0E020
:1056F000ECE7FBE20C94AE3469837A838B839C8362
:10570000CE010196BE016B5F7F4F0E94672D8D8198
:10571000823061F1823050F1843021F48E8188230F
:1057200051F12EC02F81388537FD20C06E812F3179
:1057300031051CF06623F9F023C08EE190E0821B56
:10574000930B29853A854B855C8504C05695479512
:10575000379527958A95D2F76623B1F050954095F5
:10576000309521953F4F4F4F5F4F0EC020E030E006
:1057700040E050E009C02FEF3FEF4FEF5FE704C07C
:1057800020E030E040E050E8B901CA012C96E2E0A8
:105790000C94CA34A8E0B0E0E0EDFBE20C94A6342F
:1057A0007B018C01611571058105910519F482E079
:1057B000898360C083E089838EE1C82ED12CDC828E
:1057C000CB82ED82FE820F831887C801B7010E9449
:1057D000432CFC013197F7FF3BC0222733272E1BB8
:1057E0003F0B57016801022E04C0D694C794B794AA
:1057F000A7940A94D2F740E050E060E070E081E0C6
:1058000090E0A0E0B0E004C0880F991FAA1FBB1F62
:105810002A95D2F70197A109B1098E219F21A023D2
:10582000B1230097A105B10521F041E050E060E00F
:1058300070E04A295B296C297D294D835E836F8343
:1058400078878EE190E08E1B9F0B9C838B8312C028
:10585000309781F00E2E04C0EE0CFF1C001F111FAC
:105860000A94D2F7ED82FE820F831887CE1ADF0AE0
:10587000DC82CB821A82CE0101960E94922C28965D
:10588000EAE00C94C234EF92FF920F931F937B01D6
:105890008C0180E0E81680E0F80681E0080780E0EF
:1058A000180788F48FEFE816F1040105110531F0AF
:1058B00028F088E090E0A0E0B0E017C080E090E041
:1058C000A0E0B0E012C080E0E81680E0F80680E0DA
:1058D000080781E0180728F088E190E0A0E0B0E038
:1058E00004C080E190E0A0E0B0E020E230E040E0E1
:1058F00050E0281B390B4A0B5B0B04C0169507952B
:10590000F794E7948A95D2F7F701E35FFC4F808123
:10591000281B310941095109C9011F910F91FF90BD
:10592000EF900895DF92EF92FF920F931F93FC0187
:10593000E480F58006811781D1808081823048F42F
:1059400080E090E0A0E1B0E0E82AF92A0A2B1B2BC6
:10595000A5C0843009F49FC0823021F4EE24FF24D6
:10596000870105C0E114F1040105110519F4E0E017
:10597000F0E096C0628173819FEF623879070CF086
:105980005BC022E83FEF261B370B2A3131052CF094
:1059900020E030E040E050E02AC0B801A701022E2C
:1059A00004C076956795579547950A94D2F781E09C
:1059B00090E0A0E0B0E004C0880F991FAA1FBB1FB1
:1059C0002A95D2F70197A109B1098E219F21A02321
:1059D000B1230097A105B10521F081E090E0A0E09E
:1059E000B0E09A01AB01282B392B4A2B5B2BDA0153
:1059F000C9018F779070A070B07080349105A105B7
:105A0000B10539F427FF09C0205C3F4F4F4F5F4F6E
:105A100004C0215C3F4F4F4F5F4FE0E0F0E020308B
:105A2000A0E03A07A0E04A07A0E45A0710F0E1E03E
:105A3000F0E079018A0127C06038710564F5FB0147
:105A4000E158FF4FD801C7018F779070A070B070F8
:105A500080349105A105B10539F4E7FE0DC080E45D
:105A600090E0A0E0B0E004C08FE390E0A0E0B0E000
:105A7000E80EF91E0A1F1B1F17FF05C01695079594
:105A8000F794E794319687E016950795F794E79495
:105A90008A95D1F705C0EE24FF248701EFEFF0E0EF
:105AA0006E2F679566276795902F9F77D794DD2493
:105AB000D7948E2F8695492F462B582F5D29B701F5
:105AC000CA011F910F91FF90EF90DF900895FC01A4
:105AD000DB01408151812281622F6F7770E0221FAC
